:100000000C94AA040C94F1040C94F1040C94F104E3
:100010000C94F1040C94F1040C94F1040C94F1048C
:100020000C94F1040C94F1040C94102E0C94C42C38
:100030000C94421B0C94F1040C94F1040C94F10404
:100040000C94F1040C94F1040C94F1040C94F1045C
:100050000C94F1040C94101B0C94F1040C94F10416
:100060000C94F1040C94F1040C94F1040C94F1043C
:100070000C94F1040C94F1040C94F1040C94F1042C
:100080000C94F1040C94F1040C94F1040C94F1041C
:100090000C94F1040C94F10451085A088508C20824
:1000A00000094209850988098B098E09910994097B
:1000B00097099A099D09A009A509A809AB09B009E2
:1000C000B509B809BB09C009FC09380A3B0A400A4E
:1000D0004B0A4E0A590A5C0A670A6A0A750A780AC4
:1000E000830A890AF90A3E0B3E0C440C490CE80DC0
:1000F000E80D520CE80DE80D5C0C6D0C970CB60C7D
:10010000D70C090D380D600D930D8B0DDE0D1D18EC
:100110001D1857185718AA184D1A4D1A4D1AC618F7
:10012000A419B519B519FC1CFC1C0F1D0F1D051DCC
:100130000F1D0F1D0F1DFC1CFC1C0A1D0F1D0F1D8C
:100140000A1DDB2A022BA62C022BA62C4E2B712B70
:10015000A62C632C732C29003A003B003C003D0088
:100160003E003F0040004100420043004400450083
:100170004C0035001E001F0020002100220023003B
:1001800024002500260027002D002E002A002B0029
:1001900014001A000800150017001C0018000C00BD
:1001A000120013002F003000310039000400160047
:1001B000070009000A000B000D000E000F003300BD
:1001C000340028004A00E1001D001B000600190051
:1001D000050011001000360037003800E50052001D
:1001E0004B00E000E2000151E3002C004D002C0028
:1001F000E400E6000151500051004F004E000000A5
:1002000000000000AB00AE00AC00000000000000E9
:100210000000000000004600000000000000000098
:1002200056005500540000000000000000000000CF
:1002300000005300000000000000000057006100B3
:1002400060000000000000000000000000005F00EF
:10025000000000000000000000005E005D000000E3
:10026000000000000000000000005C000000000032
:100270000000000058005B005A0000000000000071
:100280000000000000005900000000000000000015
:1002900000006300000000000000000000000000FB
:1002A000000062000000005C01000100010001008C
:1002B0000100010001000100010001000100010036
:1002C0000100010001000100010001000100010026
:1002D000010001000100C35CCB5CCA5C0100460068
:1002E000010001000100010001004A004E004B0026
:1002F0004D000100010001000100010001000100AA
:100300000100010001005000510052004F000100A7
:1003100001000100AE000100010001000100010028
:1003200001000100010001000100010001004B007B
:10033000A90001000100010001000100A800010066
:100340000100010001004A004E004D00AA0000001B
:10035000000000000100010001000000000000009A
:10036000000000000000010000000000000000008C
:10037000010001000100000000000000000000007A
:10038000000001000000000000000000010001006A
:10039000010000000000000000000000000001005B
:1003A000000000000000000000000100010000004B
:1003B000000000000000000000000100000000003C
:1003C000000000000100010001000000000000002A
:1003D000000000000000010000000000000000001C
:1003E000000001000000000000000000000000000C
:1003F00000000100000001000100010001000100F7
:1004000001000100010001000100010001000100E4
:1004100001000100010001000100010001000100D4
:1004200001000100010001000100010001000100C4
:1004300001000100010001000100010001000100B4
:1004400001000100010001000100010001000100A4
:100450000100010001000100010001000100010094
:100460000100010001000100010001000100010084
:100470000100010001000100010001000100010074
:100480000100010001000100010001000100010064
:100490000100010001000100010001000100000055
:1004A0000000000001000100010000000000000049
:1004B000000000000000010000000000000000003B
:1004C0000100010001000000000000000000000029
:1004D0000000010000000000000000000100010019
:1004E000010000000000000000000000000001000A
:1004F00000000000000000000000010001000000FA
:1005000000000000000000000000010000000000EA
:1005100000000000010001000100000000000000D8
:1005200000000000000001000000000000000000CA
:1005300000000100000000000000000000000000BA
:1005400000000100000001000100010001000100A5
:100550000100010001000100010001000100010093
:100560000100010001000100010001000100010083
:100570000100010001000100010001000100010073
:100580000100010001000100010001000100010063
:100590000100010001000100010001000100010053
:1005A0000100010001000100010001000100010043
:1005B0000100010001000100010001000100010033
:1005C0000100010001000100010001000100010023
:1005D0000100010001000100010001000100010013
:1005E0000100010001000100010001000100000004
:1005F00000000000010001000100000000000000F8
:1006000000000000000001000000000000000000E9
:1006100001000100010000000000000000000000D7
:1006200000000100000000000000000001000100C7
:1006300001000000000000000000000000000100B8
:1006400000000000000000000000010001000000A8
:100650000000000000000000000001000000000099
:100660000000000001000100010000000000000087
:100670000000000000000100000000000000000079
:100680000000010000000000000000000000000069
:100690000000010000000001010101010101010150
:1006A0000202020202020202020303030303030323
:1006B00003040404040404040505050505060606F0
:1006C0000606070707070708080808090909090AAD
:1006D0000A0A0B0B0B0C0C0C0D0D0D0E0E0E0F0F52
:1006E0000F101011111112121313141415151616E0
:1006F0001717181819191A1A1B1B1C1D1D1E1E1F4F
:100700002020212222232424252626272829292A9D
:100710002B2C2D2D2E2F30313232333435363738C5
:10072000393A3B3C3D3E3F404142434445464748C1
:10073000494A4C4D4E4F50515354555658595A5B97
:100740005D5E5F616264656668696B6C6D6F707237
:10075000737577787A7B7D7E8082838587888A8CA3
:100760008E8F91939596989A9C9EA0A2A3A5A7A9D7
:10077000ABADAFB1B3B5B7BABCBEC0C2C4C6C9CBCE
:10078000CDCFD1D4D6D8DBDDDFE2E4E7E9EBEEF084
:10079000F3F5F8FAFDFF05010980A10185031901B0
:1007A0002AB700150126B700950175108100C00514
:1007B0000C0901A101850419012AA002150126A036
:1007C00002950175108100C005010906A10185058A
:1007D000050719E029E71500250195087501810233
:1007E0000507190029EF1500250195F07501810213
:1007F00005081901290595057501910295017503F3
:100800009101C00660FF0961A1010962150026FF80
:10081000009520750881020963150026FF009520C8
:1008200075089102C005010906A101050719E02913
:10083000E71500250195087501810295017508816C
:10084000010507190029FF150026FF009506750808
:100850008100050819012905950575019102950189
:1008600075039101C009025B00030100A0FA0904AD
:1008700000000103010100092111010001224000D3
:100880000705810308000A090401000203000000B3
:100890000921110100012222000705820320000125
:1008A0000705030320000109040200010300000002
:1008B000092111010001226D000705840320000AAF
:1008C000120110010000000884330700010001023A
:1008D000000168034C00610075006E006300680051
:1008E0002000480065006100760079002000430088
:1008F0006F006E006600690067007500720061009D
:1009000062006C00650020004B0065007900620009
:100910006F00610072006400200028006C0061001C
:1009200075006E00630068005F006800650061008C
:10093000760079005F0031002900000012035300A7
:1009400079007300740065006D0037003600000008
:100950000403090411241FBECFEFD0E1DEBFCDBFD9
:1009600004B603FE27C08091950890919608A09147
:100970009708B09198088730904BA740B04BD1F4BE
:100980001092950810929608109297081092980865
:1009900014BE84B7877F84BF0FB6F894A895809162
:1009A0006000886180936000109260000FBEE0E0FC
:1009B000F8E7099513E0A0E0B1E0ECE8F3E602C047
:1009C00005900D92AC3EB107D9F728E0ACEEB3E04C
:1009D00001C01D92A539B207E1F70E94F3040C94FF
:1009E000C4310C940000CF93DF93CDB7DEB7AB9743
:1009F0000FB6F894DEBF0FBECDBF84B7877F84BF2C
:100A00000FB6F894A895809160008861809360008B
:100A1000109260000FBE91E080E80FB6F8948093CA
:100A20006100909361000FBE85B7806885BF85B770
:100A3000806885BF83E99AE19093ED038093EC038E
:100A40000E94082D0E94AE2D8091E2008460809368
:100A5000E2007894809158088823A1F01091E90071
:100A60001F709091EC00892F817090FD80E8182B09
:100A70001092E9008091E80083FD0E94F7291F7021
:100A80001093E90082E084BD93E095BD9DE797BD9A
:100A900080936E0001E811E04DE8C42E41E0D42EB1
:100AA000D8018D918D010E946620C016D106C1F734
:100AB0000DE811E03BE9C32E31E0D32EF80181911E
:100AC0008F010E946620C016D106C1F7EEEEF3E05A
:100AD00086E094E0A6ECB4E0119211921D921D9272
:100AE0008E179F07C9F780E090E00E94E1308B3EAF
:100AF0009E4F11F00E94D91B10926208EBE7F8E0BC
:100B00008BE898E02FEF3FEF219331938E179F07EB
:100B1000D9F710920B04E4E2F4E084E394E02FEFC1
:100B20003FEF219331938E179F07D9F780E090E034
:100B30000E94E1308B3E9E4F21F00E94D91B0E9403
:100B4000D51245E050E06CE170E08FE898E00E943B
:100B5000C93080918F088C7F11F40E94D5120E94B9
:100B600068148FE097E20197F1F700C00000AFE052
:100B7000B7E21197F1F700C000000E94681480915D
:100B8000C60480FF16C06FEF7FEF80E490E00E9404
:100B900015316FEF82E490E00E94F7306FEF7FEF46
:100BA00080E090E00E9415310E9458250E94492261
:100BB00002C00E94582580E490E00E94E1308C3E03
:100BC000964739F482E490E00E94D93091E0823077
:100BD00009F090E090FD3AC000E010E0680120EBE1
:100BE000C21A2EEFD20A4801ECE18E0E911CF801D8
:100BF000EA5AFE4FA590B4906B2DC8018D5B9F4FB4
:100C00000E94F7306A2DC8018C5B9F4F0E94F7301D
:100C10000E5F1F4F8016910651F78401C814D90446
:100C200011F78601F0E4CF16F5E0DF06B9F681E0B2
:100C30000E943A266CEE76E780E490E00E9415313F
:100C400062E082E490E00E94F73003C080E00E94FE
:100C50003A2660911A0670911B0680911C069091AD
:100C60001D060E940E2680E090E00E94E1308B3E3F
:100C70009E4F11F00E94D91B82E090E00E94D93073
:100C80008093AD040E94C81B9093070480930604D0
:100C900083E090E00E94D930682F70E080E090E01F
:100CA0000E94DF1D60911A0670911B0680911C0640
:100CB00090911D060E940E26609106046068609364
:100CC00006041091070484E090E00E94F730612F41
:100CD00081E290E00E94F7308BE191E0909309046B
:100CE0008093080422242394312C80915808853065
:100CF00009F054C080E4E82EDD24D39498E1F92E65
:100D00001AE180915808853009F042C08091580856
:100D1000843051F140E060E080E00E94D112D09236
:100D2000AB0410920A0468E170E00FB6F894A8953D
:100D3000609360000FBEE092600083B7817F8460A3
:100D400083BF83B7816083BF7894889583B78E7F94
:100D500083BF0FB6F894A895809160008861809356
:100D60006000109260000FBE80915708882309F43C
:100D7000C8CF0E946814E6ECF4E081919191892B30
:100D800009F05DC78EED94E08E179F07B1F7B9CFDC
:100D90000E940E200E94F6111092AB040E9468146B
:100DA000882359F08FB7F8944091A7045091A80474
:100DB0006091A9047091AA048FBFAEEAB4E0E6EC9A
:100DC000F4E0E12CF12C4E2DA190B1908D919D91EC
:100DD0008A259B25009709F4AEC010E0CC24C3946B
:100DE000D12C9C012C213D21232B09F49EC019A359
:100DF0004AA3AC20BD2081E0A114B10409F480E035
:100E00008BA30E94361B8160782F9DA38CA349A1E0
:100E10005AA16BA18DA10E942C11F701EE0FFF1FAB
:100E2000E255FB4F80819181C826D926D182C082AC
:100E3000AB2881F08EE08E9DF0018F9DF00D112486
:100E4000E952FE4FE10FF11D80818F3F19F08BA712
:100E500011E001C010E0B0900B04E12EF12CC701AD
:100E60008B0D911D0997A4F188E090E06C01CE18DC
:100E7000DF08B7016F5F7F4F655F7B4FA6018CE096
:100E800094E00E94AC31B701675F7F4F655F7B4F95
:100E9000A60184E194E00E94AC31A601440F551FE5
:100EA000B701660F771F675E7F4F655F7B4F84E2F8
:100EB00094E00E94AC31B7016F5E7F4F655F7B4F5E
:100EC000A6018CE194E00E94AC31BA94B0920B047C
:100ED00080910B0490E0EBA5AE2FB0E09D01220FB6
:100EE000331F21583D4FAA0FBB1FBD0160587D4FD6
:100EF00041E0480F9117B0F490E0FC01E55FFB4F33
:100F0000D9015C915183DB015C915187BBA5B18B09
:100F1000880F991FFC01E55FFB4F128E118E91E047
:100F2000842FE6CF80930B041EC01F5FCC0CDD1C0A
:100F30001E3009F056CF2FEFE21AF20A3CE0E3161A
:100F4000F10409F040CF8FEF8EA38FA318A60E9463
:100F5000361B8160782F9AA789A74EA15FA168A54B
:100F60008AA50E942C11409134045091350460915F
:100F70003604709137042FB7F8948091A7049091AC
:100F8000A804A091A904B091AA042FBF841B950BBB
:100F9000A60BB70B2FB7F894C090A704D090A80465
:100FA000E090A904F090AA042FBFC0923404D0921C
:100FB0003504E0923604F092370460910B04EBE0C4
:100FC000F4E0462F50E088248A94982CA12CB12C70
:100FD000881A990AAA0ABB0A651799F0218D328DE1
:100FE0002901612C712C84149504A604B70410F413
:100FF000415004C0280F391F328F218F5F5F329616
:10100000EBCF40930B048091AB04811108C0109189
:101010008F08812F837019F01695169501C010E086
:10102000809106018130E9F038F0823009F4A7C3DD
:10103000833009F4B1C3CDC310924901C0928B082B
:10104000D0928C08E0928D08F0928E0889E2EBE055
:10105000F4E0A2E6B8E001900D928A95E1F781E014
:1010600098C38091050118130DC020918F0823703B
:1010700030E04091040150E081E02417350719F475
:1010800080E001C081E0817080934B01412F50E0EE
:101090004832510508F061C3FA01E45BFF4F0C943C
:1010A000A631882309F459C340E060E080E00E9443
:1010B000D11253C3F090490185E1F89EF02C112420
:1010C00005E10F0D0A3608F009E66091900870916D
:1010D0009108809192080E947013D62EC72EB82EC8
:1010E000F01608F037C3EF2DF0E0DF01AF5ABC4F28
:1010F0008C9190914A01982331F02B2D4D2D6C2D20
:10110000CF010E94D312F394EBCFF090490185E117
:10111000F89EF02C112405E10F0D0A3608F009E6BF
:10112000C0909108D0909208B09090086B2D7C2DC3
:101130008D2D0E947013A62E972E882E60919308F5
:101140006B0D7C2D8D2D0E947013D62EC72EB82EC0
:10115000F01608F0FFC28F2D90E0FC01EF5AFC4F13
:10116000308120914A01232359F030FF04C02B2DF8
:101170004D2D6C2D03C0282D4A2D692D0E94D312B0
:10118000F394E6CFD090490185E1D89ED02C11246C
:1011900005E10D0D0A3608F009E6A090910890903F
:1011A00092082091930830E4B32E5B2D529F512D6D
:1011B0001124B52ED01608F0CDC2ED2CF12CF7017C
:1011C000EF5AFC4F908180914A018923B9F0F701D1
:1011D000EE0FFF1FE058FD4F808182958F70609168
:1011E00090088B9D600D11247A2D892D0E9470131B
:1011F000462F282F672FC7010E94D312D394DACF2E
:10120000D090490185E1D89ED02C112405E10D0D27
:101210000A3608F009E6A090910890909208209173
:10122000930880E4B82E6B2D629F612D1124B62E99
:10123000D01608F08FC2ED2CF12CF701EF5AFC4FBD
:10124000908180914A018923D9F0F701EE0FFF1FA9
:10125000E158FD4F6081B69EB0011124B5E075954F
:101260006795BA95E1F780919008680F7A2D892DDE
:101270000E947013462F282F672FC7010E94D31298
:10128000D394D6CFF090490185E1F89EF02C11243B
:1012900005E10F0D0A3608F009E6C0909008D090DD
:1012A0009108B0909208609193086695669566954E
:1012B00080918B0890918C080E9466130E94EB121B
:1012C000805887FD8195880F782F2B2D729F712D67
:1012D0001124872FB6010E947013D62EC72EB82E68
:1012E000F01608F037C2EF2DF0E0DF01AF5ABC4F27
:1012F0008C9190914A01982331F02B2D4D2D6C2D1E
:10130000CF010E94D312F394EBCF84E190E11AC095
:1013100088EE9FE017C08DEE90E11FC08EEC90E14B
:101320001CC083EB90E11EC087E990E11BC086EEF4
:101330009FE008C08DED9FE005C084ED9FE002C0F6
:1013400089EB9FE00E941D2809C28AEA9FE00AC03B
:101350008DE393E102C086E890E10E94C127FEC1BF
:1013600082E790E10E944527F9C18CE79FE005C024
:101370008AE49FE002C08CE09FE00E946728EEC1F3
:1013800081111EC06091930820E1620F08F46FEF95
:1013900080918B0890918C080E9466136AE070E03F
:1013A0000E947E31892B09F0D8C10E94B93069E6CC
:1013B00070E00E94923160914A010E940014CDC1F8
:1013C0008091490195E1899F802D112405E1080F45
:1013D0000A3608F009E6E82EF12CC02ED12CEC14C8
:1013E000FD040CF0B7C160914A01C7010E940014CE
:1013F0003FEFE31AF30AF3CF81111EC06091930807
:1014000020E1620F08F46FEF80918B0890918C08B7
:101410000E94661365E070E00E947E31892B09F01E
:101420009CC10E94B93069E670E00E9492316091DF
:101430004A010E94461491C18091490195E1899F1A
:10144000802D112405E1080F0A3608F009E6E82E80
:10145000F12CC02ED12CEC14FD040CF07BC160915A
:101460004A01C7010E9446145FEFE51AF50AF3CF5F
:1014700085E09FE002C08FEF9EE00E94C8286EC109
:101480008091620821E0682F621B08F460E0862FDB
:1014900066EE7EE03BC066EE7EE037C0809162087B
:1014A00021E0782F721B08F470E0872F6EEA7EE04F
:1014B0002DC06EEA7EE029C08091620821E0382FBD
:1014C000321B08F430E0832F6CE77EE01FC06CE72E
:1014D0007EE01BC08091620821E0582F521B08F467
:1014E00050E0852F64E67EE011C064E67EE00DC02A
:1014F0008091620821E0682F621B08F460E0862F6B
:101500006EE47EE003C06EE47EE080E00E94342959
:1015100025C18091A104811125C067ED71E040E0F3
:1015200050E0942F9295907F20E030E0FB01E20F95
:10153000F31F8081893638F4E82FF0E0E85CFB4F38
:10154000892F822B80832F5F3F4F2E30310571F71B
:101550004F5F5F4F625F7F4F4C30510511F781E065
:101560008093A104D090490185E1D89ED02C11240C
:1015700005E10D0D0A3608F009E660911A06709132
:101580001B0680911C0690911D060E94F921B82E21
:101590006091900870919108809192080E94701358
:1015A000A62E972E882ED01608F0D4C0ED2CF12C44
:1015B000F701EF5AFC4F908180914A018923B9F0DD
:1015C000F701E85CFB4F6081462F4F7062956F70AA
:1015D0008B2D0E949812029720F420E040E060E0FA
:1015E00003C0282D4A2D692DC7010E94D312D39420
:1015F000DACF9090490185E1989E902C112405E165
:10160000090D0A3608F009E6EE24EA94F12C90164A
:1016100008F0A0C0E92DF0E0DF01AF5ABC4F9C916B
:1016200080914A01892341F1DF01AA0FBB1FAE0F50
:10163000BF1FA152BB4FAC901196CC901197129640
:101640008C9190919208A99E50011124C99E60012D
:101650001124899FC0011124B7010E947E31262FD9
:10166000C501B7010E947E31462FC601B7010E9415
:101670007E31CF010E94D3129394C9CFC09049010B
:1016800095E1C99EC02C112405E10C0D0A3608F025
:1016900009E6811106C08091A6048F5F8093A6049D
:1016A00004C01092A6041092A5048091A604811192
:1016B00047C08091A504883029F41092A4041092A8
:1016C000A5043EC0A82FB0E0AA0FBB1FA556BE4F71
:1016D000EC9111969C917EE0E79FF0011124E95274
:1016E000FE4FE90FF11D90819F3F21F09093A204DE
:1016F00091E001C090E09093A4048F5F8093A504D3
:101700001FC0EC2CF12CF701EF5AFC4F9081809117
:101710004A018923A1F06091A6046C0D2091A404D4
:10172000E2EAF4E080E77FEF90E092130CC00E94C1
:101730007013462F282F672FC7010E94D312C3941E
:10174000C016F8F207C03191C31202C08FEF70E0EB
:101750009F5FEBCF81E0093608F080E0909149016E
:101760009F5F90934901811134C082E0809306010C
:1017700080914B0181112DC0112351F02AC010938B
:10178000050180918F088370809304010E940B11E2
:1017900083E0809306011DC040918B0850918C0816
:1017A00060918D0870918E082FB7F8948091A704EE
:1017B0009091A804A091A904B091AA042FBF841B02
:1017C000950BA60BB70B4097A105B10510F0109231
:1017D00006010E94F6119091AC04891721F00E9435
:1017E000F6118093AC0480915808843009F07DCACA
:1017F00083E08093E9008091E80082FF76CA8091BF
:10180000E80085FF23C00E94272D81111DC050E2F2
:10181000E52EF12CCE0101966C0109C08091F100FA
:10182000D6018D936D01B1E0EB1AF10869F080915A
:10183000E80085FDF3CF8091E8008B778093E80086
:101840000E94272D882399F391E001C090E08091B8
:10185000E8008B778093E800992309F446CA81E079
:101860008A83E9818E2F90E0FC013197E331F10505
:1018700008F0AEC1EC58FF4F0C94A63186E78B837D
:101880008CEE8C8381E016C14EE150E065E571E09D
:1018900004C04EE150E06DE671E0CE0103960E9477
:1018A000B53195C180911F06882309F491C11A8230
:1018B00081E080931E068CC18B81843008F088C142
:1018C0006C816C3008F084C14D814E3008F080C1CD
:1018D0000E9498128E839F837AC12B81243008F056
:1018E00077C19C819C3008F073C18D818E3008F0E7
:1018F0006FC11E816F8140E551E0249F7001259FDB
:10190000F00C1124ECE19E9FE00CF11C1124E80E78
:10191000F11CE80EF11CF3E4EF0EF11CC7010E946C
:10192000F730612FC70101960E94F73050C18091B6
:101930001F0681114DC18B81803F49F0813F49F0E5
:10194000823F49F0833F09F043C1E3E005C0E0E096
:1019500003C0E1E001C0E2E025E0E29FF0011124D4
:10196000E95FFE4F83818C8380EBA4C080911F06CA
:1019700081112EC18B819C81903B08F090EB803FC0
:1019800049F0813F49F0823F49F0833F09F020C18F
:10199000E3E005C0E0E003C0E1E001C0E2E035E0E3
:1019A000E39FF0011124E95FFE4F9383A8C080916B
:1019B0001F0681110DC1EB81E93658F0E03FC1F0FF
:1019C000E13FC1F0E23FC1F0E33F09F001C1E3E0D4
:1019D00014C0F0E0CF01880F991FE80FF91FE15202
:1019E000FB4F81818C8380818D8382818E83EFC0C8
:1019F000E0E003C0E1E001C0E2E055E0E59FF00176
:101A00001124E95FFE4F81818C8382818D831E8248
:101A1000DEC080911F068111DBC0EB818D819C812E
:101A20002E81E93658F0E03FA9F0E13FA9F0E23F0E
:101A3000A9F0E33F09F0CCC0E3E011C0F0E0AF0152
:101A4000440F551FE40FF51FE152FB4F8083918334
:101A50002283BDC0E0E003C0E1E001C0E2E065E058
:101A6000E69FF0011124E95FFE4F9183828347C016
:101A700080911F068111ACC0EB81E43008F0A8C052
:101A80002E2F30E075E0E79FF0011124E95FFE4F53
:101A9000908196959695EBEAF1E0419194130CC0F4
:101AA0008C8385E0829FF001839FF00D1124E95F14
:101AB000FE4F84818D838BC08F5F8F3071F788C01C
:101AC00080911F06811184C0EB81AC81E43008F065
:101AD0007FC0AF3008F07CC02D8185E0E89FF00129
:101AE0001124E95FFE4FB0E0A555BE4F8C91982FB1
:101AF000990F990F80818370892B808324831A82A8
:101B000060911A0670911B0680911C0690911D062B
:101B10000E940E265DC080911F06811159C081E090
:101B20000E943A2654C08CE08B838EE08C8386EC36
:101B3000E82E84E0F82E1CE0A0E0B4E040E050E0A5
:101B4000B03258F5F70160817181C101042E02C0E5
:101B5000880F991F0A94E2F7682379238B2F90E06E
:101B600091010A2E01C0220F0A94EAF7672B51F067
:101B700061E070E06C0F7D1F860F971FFC013081C4
:101B8000232B0AC061E070E06C0F7D1F860F971F4A
:101B90002095FC01308123232083AF5FA83010F013
:101BA000BF5FA0E04F5F5F4F4E30510549F61150C7
:101BB000F2E0EF0EF11C1111C1CF09C00E940E20FE
:101BC00081E09B81911101C080E08093DE041A8244
:101BD00080915808843009F51091E9001F709091A8
:101BE000EC00892F817090FD80E8182B82E08093B3
:101BF000E9008091E80080FF0DC040E050E060E225
:101C000070E0CE0101960E9465268091E8008E77F3
:101C10008093E8001F701093E90080911E068823CE
:101C200009F463C82FEF30E752E0215030405040B4
:101C3000E1F700C000000E9449220C947506F9BC2F
:101C400019BD09B400FEFDCF8091D8008F7D80932F
:101C5000D8008091E00082608093E0008091E000F5
:101C600081FDFCCF0E940E200C948106E5E2F6E097
:101C700097E0E036F90729F0818360834283339649
:101C8000F7CF0895FC01EE0FFF1F8E0F9F1FFC0181
:101C9000EB5DF94F6183408322830895EF92FF92B9
:101CA0000F939701201B31092F3F310519F010F0D8
:101CB0002FEF30E02095382F320F08F43FEF832FBD
:101CC0000F91FF90EF900895EF92FF920F9397017D
:101CD000201B31092F3F310519F010F02FEF30E0B4
:101CE000322F3095482F430F08F44FEF842F620FA7
:101CF0000F91FF90EF900895EF92FF920F93972F1F
:101D0000093438F4B701601B71096F3F710519F090
:101D100010F06FEF70E0485F5F4F4131510540F0C8
:101D2000A901485F5F4F4131510510F06FEF70E03E
:101D30006095482F460F08F44FEF842F37FF02C0FD
:101D40002D5F3F4F359527953595279560919008E4
:101D5000620F792F0F91FF90EF900895EF92FF920D
:101D60000F93E00EF11CF90137FF03C0F195E195E7
:101D7000F10924E0EE0FFF1F2A95E1F7EF3FF1058F
:101D800019F014F0EFEFF0E09A0157FF03C031951E
:101D90002195310994E0220F331F9A95E1F72E1710
:101DA0003F070CF4F901EE0DFF1DEF3FF10519F0AF
:101DB00010F0EFEFF0E02E2F2095382F320F08F4BF
:101DC0003FEF832F0F91FF90EF900895EF92FF92D6
:101DD0000F93970195E0099F200D311D11242F3F8E
:101DE000310519F010F02FEF30E02095382F320F29
:101DF00008F43FEF832F0F91FF90EF90089522E8B2
:101E0000241B08F420E0620F08954095282F429F7C
:101E1000412D1124842F08950F931F9310E0F80192
:101E2000EE0FFF1FE158FD4F9081905797FD919560
:101E3000000F111FF801E058FD4FE081F0E0B0976E
:101E4000DF01AA0FBB1F8D010E0F1F1F2003D00142
:101E5000219FB00D1124E8E3F0E0E91BF10997FDA3
:101E6000F3959F01220F331F89010E0F1F1F40039F
:101E70009001419F300D11242A0F3B1F37FF02C0F4
:101E800021583F4F220F232F221F330B620F1F9128
:101E90000F9108950F931F93522F10E0F801EE0F4A
:101EA000FF1FE058FD4FE081F0E0B097EE0FFF1FFD
:101EB0009F015203D001539FB00D1124000F111F39
:101EC000F801E158FD4F008110E000571109000FA3
:101ED000111F40039001419F300D11242A0F3B1F19
:101EE00037FF02C021583F4F220F232F221F330BF1
:101EF000620F1F910F9108950F931F93522F10E0BF
:101F0000F801EE0FFF1FE058FD4FE081F0E0B097C1
:101F10009F015203D001539FB00D1124000F111FD8
:101F2000F801E158FD4F008110E00057110940030E
:101F30009001419F300D11242A0F3B1F37FF02C033
:101F400021583F4F220F232F221F330B620F1F9167
:101F50000F910895EF920F931F9393E0099F8001D3
:101F60001124159507956E2D600F1F910F91EF901D
:101F70000895A22F50E0FA01EE0FFF1FE058FD4F29
:101F80009081905297FD9195440F551FFA01E158A9
:101F9000FD4F3081232F30E02A1B3109290F311DDD
:101FA00097FD3A95620F0895E42FF0E0EE0FFF1FC2
:101FB000E058FD4F6081621B0895E42FF0E0EE0FC2
:101FC000FF1FE158FD4F6081621B0895622F089545
:101FD000E42FF0E0EE0FFF1FE158FD4F408134EE9B
:101FE000439F412D1124E82FF0E050E0445E5F4F05
:101FF000DA01A21BB1099D01B7FF03C031952195FC
:10200000310993E0220F331F9A95E1F7AF01421B8C
:10201000530B9A0157FF02C020E030E0582F259F54
:10202000212D1124822F0895E42FF0E0EE0FFF1FE1
:10203000E158FD4F408134EE439F412D1124E72F9D
:10204000F0E050E0445E5F4FDA01A21BB1099D0150
:10205000B7FF03C031952195310993E0220F331F5B
:102060009A95E1F7AF01421B530B9A0157FF02C04B
:1020700020E030E0279F212D1124722F0895FC01CC
:102080009B01009721F477FF2BC080E80895AC01F5
:1020900097FF04C044275527481B590BB901640F0B
:1020A000751F37FD0CC0241B350BC901A5E0880F37
:1020B000991FAA95E1F70E94923180E20CC0CB01F2
:1020C00065E0880F991F6A95E1F7BA01621B730BEF
:1020D0000E94923180E6861BF7FF03C08195089528
:1020E00080E00895EF920F93CF93DF93D72FC82FFF
:1020F000C9010E19BA010E943F10602F681B7D2F85
:102100008C2FDF91CF910F91EF9008950F93CF9384
:10211000DF93D72FC82FC901BA010E943F10682F43
:10212000600F7D2F8C2FDF91CF910F910895EF924B
:102130000F931F93CF93DF93D62FC72F182FC9016B
:102140000E19010FBA010E943F10081B202F219F7A
:10215000212D1124822F6D2F7C2FDF91CF911F9184
:102160000F91EF900895EF920F931F93CF93DF930A
:10217000D62F172FC82FC9010E19070FBA010E94B9
:102180003F10702F781B719F712D11246D2F8C2F94
:10219000DF91CF911F910F91EF900895FF920F93D0
:1021A0001F93CF93DF93F62ED72F182FC901C12F7E
:1021B000C01BBA010E943F10982F990F890FC81BAE
:1021C0002C2F219F212D1124822F6F2D7D2FDF9108
:1021D000CF911F910F91FF900895FF920F931F933E
:1021E000CF93DF93F62E172FD82FC901C72FC01B0F
:1021F000BA010E943F10982F990F890F7C2F781BEE
:10220000719F712D11246F2D8D2FDF91CF911F9113
:102210000F91FF900895879A81B38F7791B390685B
:102220002FB7F894E5E2F6E037E0E036F30761F027
:10223000319148E091BB37FF81BB330F000000C0F4
:1022400081BB4A95B9F7F0CF2FBF8FE292E001979B
:10225000F1F700C0000008951F93CF93DF93CDB72F
:10226000DEB767970FB6F894DEBF0FBECDBF342F31
:102270004B8B252F5C8B6D8B7E8B8F8B4E895F8973
:10228000611110922D0886E0FE013D96DF01982F26
:102290001D929A95E9F73D872E876F87598B488B5A
:1022A000DE01179601900D928A95E1F7CE0107960F
:1022B0000E945F1E81113EC086E0FE013796DE015E
:1022C000119601900D928A95E1F7FF81E8856A8564
:1022D0007B856115710531F0EF3F31F481E0FF3FFF
:1022E00019F403C081E001C080E080FD23C020918B
:1022F000900730E0C9010196877099274091C10786
:1023000050E08417950779F1F983EA837D836C8324
:1023100096E0929FD001939FB00D1124AF56B84F15
:10232000FE01319601900D929A95E1F78093900706
:102330000E94E91D16E08091C107909190078917CE
:10234000F9F0189FC00111248F56984F0E945F1E0C
:102350008823B1F08091C10790E00196877099279A
:102360008093C107E8CF0E940E2010929007109230
:10237000C107EAE8F7E086E0DF011D928A95E9F7F8
:1023800067960FB6F894DEBF0FBECDBFDF91CF9139
:102390001F91089520916407309165072817390728
:1023A00071F09093650780936407E0910804F091C1
:1023B0000904309721F00084F185E02D09940895F7
:1023C00020916207309163072817390771F09093C5
:1023D000630780936207E0910804F0910904309745
:1023E00021F00680F781E02D09940895E09108041A
:1023F000F0910904309721F00190F081E02D0994CB
:1024000080E00895EF92FF920F93CF93DF93C42F54
:10241000D22FFC0182818823D1F0409368070E946B
:10242000361B909361078093600780E28C0F8830A1
:1024300008F078C0C77081E001C0880FCA95EAF73C
:10244000DF91CF910F91FF90EF900C944C2F8091E2
:102450006807481356C020916007309161074FB755
:10246000F8948091A7049091A804A091A904B09138
:10247000AA044FBF821B930B883C910508F041C012
:10248000CD17C9F080E28C0F883040F4C77081E02E
:1024900001C0880FCA95EAF70E94412F80E28D0F94
:1024A000883048F481E09D2F977001C0880F9A957D
:1024B000EAF70E944C2F093319F0E12CF12C03C0EC
:1024C00080E5E82EF12C802F0E94B22FE114F10458
:1024D00051F08FEC97E00197F1F700C0000091E018
:1024E000E91AF108F3CF802F0E94562F80E28D0F5A
:1024F0008830C0F4D77081E001C0880FDA95EAF720
:102500000AC080E28C0F883068F4C77081E001C097
:10251000880FCA95EAF7DF91CF910F91FF90EF9066
:102520000C94412FDF91CF910F91FF90EF90089580
:102530000F931F93CF93DF9350E0440F551F2CE16F
:10254000629F400D511D112420E531E0682F629FEC
:10255000C001639F900D1124480F591FEA01CD5B04
:10256000DF4FCE010E94D930082F10E0102F002736
:10257000CE0101960E94D9309801282BC901DF9124
:10258000CF911F910F910895462F843038F47C30FD
:1025900028F46E3018F4672F0C94981280E090E0C5
:1025A00008950C94360E0C94420EEFE8F8E08DE39B
:1025B000808380914C0190914D01A0914E018183C7
:1025C0009283A3838FE7848345E050E06CE170E061
:1025D000CF010C94E730482F982F46FD9095E92FB6
:1025E000EF739F7046FD9F5FE295EF70EE0FF0E096
:1025F000E654FE4F2181299F802D212D11248295A3
:102600008F702295207F822B3081982F930F892FF6
:1026100047FD819580580895BC018230910508F4EA
:102620000895613E8EE1780748F49B0195E0369568
:1026300027959A95E1F748E0420F01C04FEF91E0EE
:10264000242F30E0290F311D35952795229FF00169
:10265000239FF00DF00D11246E177F0718F44FEF34
:10266000420F04C02F3F39F091E0920F491740F715
:102670008FEF890F08958FEF08950F93CF93DF9316
:10268000D72FC82F47FD4195E8E3F0E0CF01841B29
:10269000910947FD9395889FB001899F700D700D3A
:1026A0001124229FC001239F900D900D1124860FAD
:1026B000971F0E940C13682F660F860F682F600FFC
:1026C0007D2F8C2FDF91CF910F91089520E030E086
:1026D000869F212D969F200D311D1124C90108953B
:1026E000CF92DF92EF92FF920F931F93CF93DF93DE
:1026F000F62E472FE82FF0E0711106C0EA56F94F89
:102700008491782F682F73C0272F30E0EA56F94F55
:10271000E491FE2F0E2F10E056E0659FC0011124BA
:10272000CFEFD0E0BE010E947E315BEA5603C001CC
:10273000579F900D11248F0D911D8F0D911D982F76
:10274000990F980F7E01E21AF30AE09ED001E19EF4
:10275000B00DF09EB00D11248B2F499FA0011124C4
:10276000452F55277E01E41AF50AE09EA001E19E5F
:10277000500DF09E500D11246E01C91AD108C29E51
:102780007001C39EF00CD29EF00C11242F2D332724
:10279000C21BD30BC09F9001C19F300DD09F300D45
:1027A0001124932F6230710591F048F46115710581
:1027B000E1F061307105B9F49E2FE52F16C0643049
:1027C000710569F040F06630710579F00CC09E2FFC
:1027D000EB2F832F0AC0EB2F8F2F952F06C09B2F37
:1027E0008E2FE32F02C09B2F852F7E2F692FDF9125
:1027F000CF911F910F91FF90EF90DF90CF900895B0
:10280000DF92EF92FF920F931F93CF93DF93EC0130
:10281000FC01EF5AFC4F9081692381F1D09091081F
:102820000091920810919008E12EF12C0E94B9308D
:10283000282FC7018C549F4F68E671E00E949231A7
:102840008E199F0997FD0396959587959595879580
:102850002370612F289F600D11247D2D802F0E94F1
:102860007013462F282F672FCE01DF91CF911F9134
:102870000F91FF90EF90DF900C94D312DF91CF91E6
:102880001F910F91FF90EF90DF9008951F93CF93CA
:10289000DF93FC01EF5AFC4F20816223A9F0EC0189
:1028A0000E94B930182F0E94B930612F782F809183
:1028B00092080E947013462F282F672FCE01DF91B8
:1028C000CF911F910C94D312DF91CF911F91089556
:1028D0007F928F929F92AF92BF92CF92DF92EF92B0
:1028E000FF920F931F93CF93DF938EEEC82E83E05A
:1028F000D82E91E8E92E91E0F92E8601C0E0D0E0D3
:10290000712CAA24A394B12CB701D7018C91F8940F
:10291000E82FE295EF70F0E021A18F70A50102C0D1
:10292000440F551F8A95E2F7CA01922F982B91A365
:1029300092A18095892382A3789400C0EDE8F1E00C
:1029400020E030E0812C912C4191842F82958F7072
:1029500090E0DC0190968C9190E04F7002C09595CC
:1029600087954A95E2F780FD08C0C501022E02C096
:10297000880F991F0A94E2F702C080E090E0882A4D
:10298000992A2F5F3F4F2E303105F1F6BFEFEB1A3A
:10299000FB0AFB0180810E946620CB30D10519F033
:1029A000F0E5FA95F1F7D8018D919C911197881671
:1029B000990621F08D929C9281E001C080E0782AF6
:1029C00021960E5F1F4FCC30D10509F09DCF7720A7
:1029D00049F081E0809322060E94361B90932106E5
:1029E0008093200680912206882311F120912006F1
:1029F000309121064FB7F8948091A7049091A804D4
:102A0000A091A904B091AA044FBF821B930B069713
:102A100078F0E6ECF4E086E094E0D6012D913D916B
:102A20006D01219331938A179B07B9F71092220603
:102A30008091230690912406883EB3E09B076CF0BA
:102A4000109224061092230687E391E00E945E24F0
:102A500082E391E00E945E2405C0019690932406D3
:102A600080932306872DDF91CF911F910F91FF90C7
:102A7000EF90DF90CF90BF90AF909F908F907F901E
:102A800008958F929F92AF92BF92CF92DF92EF9272
:102A9000FF920F931F93CF93DF9300D000D01F922C
:102AA000CDB7DEB7FC018081918123813481232B56
:102AB00031F09F3F31F491E08F3F19F403C091E072
:102AC00001C090E090FD19C57F0185E0DE011196FF
:102AD00001900D928A95E1F7F701228189819A810F
:102AE000222349F00E949D1C182F682F89819A810A
:102AF0000E943F1D03C00E94131D182F69817A8117
:102B0000812F0E94C4128C018091DE04811132C297
:102B10000115FCE51F0731F168F4003E110509F4C9
:102B20005FC0043E110509F460C00932110509F0C7
:102B30008EC10EC00A3C3CE5130769F10B3C8CE5E5
:102B40001807C1F0033C9CE5190709F080C136C0A5
:102B500080916707882309F44CC080916607882319
:102B600009F447C0F7018281882309F403C20E9457
:102B7000582600C2F7018281882309F4FBC18091A5
:102B80009208E8ECF1E092919817B0F001E0E23C95
:102B9000F007C9F722C0F7018281882309F4EAC14E
:102BA00080919208E2ECF1E028EC31E02E173F072B
:102BB000A1F091918917D0F7892F0FC0F701828179
:102BC000882309F4D7C180919208811103C08091B4
:102BD0003C0103C080933C0180E00E942326CAC1CF
:102BE000F70182818093670704C0F7018281809397
:102BF0006607F7018281882309F48EC11092680765
:102C00000230FCE51F0708F471C106312CE51207FC
:102C100038F098012B5F3C452930310508F066C13A
:102C20000E94C81B909307048093060400313CE582
:102C3000130709F4C3C008F041C008309CE5190728
:102C400009F49AC0F0F40430FCE51F0709F487C0CA
:102C500068F402303CE5130709F477C003301C45E3
:102C600009F0E5C080910604826076C006309CE5DC
:102C7000190709F46EC008F07BC0809106048860D3
:102C80006BC00C30FCE51F0709F485C068F40A30FE
:102C90003CE5130709F474C008F079C00E940E20C7
:102CA00080910604806858C00E309CE5190709F42D
:102CB00076C008F07FC0809106048BC00C3FFCE515
:102CC0001F0709F44FC018F503313CE5130709F459
:102CD0007DC078F401319CE5190709F473C0023115
:102CE0001C4509F0A4C00E940E20809106048F7735
:102CF00033C00531FCE51F0709F472C008F486C033
:102D00000B3F1C4509F093C0809107043EC001159C
:102D10008DE5180709F45FC058F40E3FECE51E0777
:102D200009F444C008F43FC08091070482602DC0BC
:102D300002302DE5120709F475C008F45DC00330B8
:102D40001D4509F074C060E06EC08091060481608A
:102D500003C08091060480618093060468C080915E
:102D6000060411C0809107048260809307045FC04D
:102D7000809106048062F0CF809106048064ECCFDD
:102D80008091060488608460E7CF8160EECF8091F7
:102D900006048E7FE1CF809106048D7FDDCF809188
:102DA0000604877FD9CF8091070418C0809107045B
:102DB0008D7FDBCF809106048F7ECECF809106047D
:102DC0008F7DCACF809106048F7BC6CF8091060489
:102DD000877F8B7FC1CF809107048D7F8E7FC5CF8A
:102DE0008091060482FB222720F991E0922790FB34
:102DF00082F990FB83F9B0CF80910704982F9095CA
:102E000091708E7F892B90FB81F9AFCF0E940E20AD
:102E10008091060487FB222720F991E0922790FBFE
:102E200087F99ACF61E08EE090E00E94F7306091E0
:102E300006041091070484E090E00E94F730612FAF
:102E400081E290E00E94F7300E940E2093C0043F80
:102E5000FCE51F07A1F406E221EE40EE64EF7CE5FD
:102E60000AC0083D9CE5190709F0C3CE06E221EE31
:102E700041EE68ED7CE5C7010E9402127BC0053F70
:102E80002CE51207A0F4093D3CE5130731F407E2F5
:102E900025EE45EE69ED7CE5EECF0A3D8CE51807A1
:102EA00001F708E221E045EE6AED7CE5E4CF063F5C
:102EB000ECE51E0731F406E221EE42EE66EF7CE51A
:102EC000DACF063FFCE51F0730F407E225EE44EEBB
:102ED00065EF7CE5D0CF073F2CE5120709F089CEDE
:102EE00007E225EE46EE67EF7CE5C5CF06313CE50F
:102EF000130719F580912E088A7A91E009F490E081
:102F000090936907882311F065E301C069E28AE6BE
:102F100097E00E94931B0EC006311C4509F048C083
:102F200080916907882309F4E6C265E38AE697E0A1
:102F30000E946B1B0E94491C1DC09801235C3C45EC
:102F400024313105B8F001159CE5190731F00F3D2A
:102F50001C4571F50E94D91B0DC00E940E20FFE791
:102F60000AE116E0F15000401040E1F700C0000017
:102F70000E94492280912B08877009F4BEC2F70194
:102F80008281882309F4B9C282E00F900F900F90DC
:102F90000F900F90DF91CF911F910F91FF90EF90C5
:102FA000DF90CF90BF90AF909F908F900C94A51D15
:102FB000F70100811181882349F0C8010E949D1CFE
:102FC000D82E682FC8010E943F1D04C0C8010E946E
:102FD000131DD82EB8018D2D0E947D208C01982EB6
:102FE000F701B280A580A2949FE0A92280912B08CE
:102FF000877099F0BB2089F0812F807F803421F089
:1030000080E2800F883048F082E00E94A51D809108
:103010002B088770DD24D3948111D12CC12EC2944A
:103020008FE0C8228C2D90E08C30910508F035C2DD
:10303000FC01E957FF4F0C94A631812F807F1F7050
:10304000882311F01295107FBB20B9F0112309F4E9
:103050000FC280E2800F883010F0911006C080917E
:103060002E08182B10932E0805C080912D08182BC0
:1030700010932D080E94491CFBC1802F0E94562FDF
:10308000112309F40AC2005E1095083010F0911067
:1030900006C080912E08182310932E0805C0809139
:1030A0002D08182310932D080E94491CF6C1812F6A
:1030B000807F1F70803211F01295107F992021F0CF
:1030C000F1E09F16E1F02AC0BB2081F080912F082B
:1030D000AA2051F001E0A01207C0182B181709F41C
:1030E000DCC110932F08D9C1812B10C0AA2021F078
:1030F00021E0A21609F4D1C10E94431C27C0BB20C5
:1031000041F035E03A1508F4C8C1812F0E944C2FD8
:10311000C4C184E08A1508F4C0C118C0BB2049F0BE
:10312000AA2099F3F701858180FFA2C18F70858362
:10313000ECCFAA2059F0093309F0ACC1FFEF13EF2F
:1031400021E0F15010402040E1F7A2C1812F0E9400
:10315000412FA3C1812F86958695837019F0813008
:1031600059F09BC1BB2019F0C801937002C080E0E8
:1031700090E00E94E01197C1BB2019F0C801937044
:1031800002C080E090E00E94CA118DC1812F83703F
:1031900009F069C0B11085C1902F929596959770EE
:1031A000990F990F802F8F70882E912CA12CB12C04
:1031B000092E04C0880C991CAA1CBB1C0A94D2F7C7
:1031C00004FF12C04FE050E060E070E004C0440F24
:1031D000551F661F771F9A95D2F7DB01CA018095AC
:1031E0009095A095B09503C080E090E0DC01169525
:1031F0001695412F4370423019F1C8F40091300800
:10320000109131082091320830913308413059F043
:1032100088299929AA29BB29BC01CD0160237123E2
:10322000822393230AC0802A912AA22AB32ABC01AE
:10323000CD01682979298A299B290E94DF1D31C186
:1032400088299929AA29BB290091300810913108B1
:103250002091320830913308BC01CD0160277127DD
:1032600082279327EACFBB2019F0812F817001C0FC
:103270008695882309F415C1902F9295969597709D
:10328000990F990F802F8F70882E912CA12CB12C23
:10329000092E04C0880C991CAA1CBB1C0A94D2F7E6
:1032A00004FF12C04FE050E060E070E004C0440F43
:1032B000551F661F771F9A95D2F7DB01CA018095CB
:1032C0009095A095B09503C080E090E0DC01169544
:1032D0001695412F43704230D9F068F500911A06D7
:1032E00010911B0620911C0630911D06413059F0AB
:1032F00088299929AA29BB29BC01CD016023712302
:10330000822393231EC0802A912AA22AB32A13C0A3
:1033100088299929AA29BB2900911A0610911B0610
:1033200020911C0630911D06BC01CD01602771273C
:103330008227932706C0BC01CD01682979298A29F3
:103340009B290E946A1DADC01F70BB2039F0812FE0
:103350000E94BE1D802F0E944C2FA3C0802F0E9470
:10336000412F812F0E94801D9CC0802F32EF931629
:1033700009F440C0391538F090EF991661F0E1EF8B
:103380009E1699F170C0F3EF9F16D9F124EF9216B3
:1033900009F44EC068C0BB2019F134E03A1508F4B6
:1033A0007CC01F7181E090E0A0E0B0E0AC01BD0105
:1033B00004C0440F551F661F771F1A95D2F78091DE
:1033C0001A0690911B06A0911C06B0911D068A0159
:1033D0009B01082719272A273B27C901B80125C0C7
:1033E00025E02A1508F459C0DCCFBB2029F0812F35
:1033F0008F712CC0BB20D9F3812F8F710E94801D4B
:103400004CC0BB2079F01F7181E090E0A0E0B0E0FB
:10341000BC01CD0104C0660F771F881F991F1A9544
:10342000D2F703C060E070E0CB010E946A1D35C096
:10343000BB2079F01F71812F0E94BE1D38E0139FC1
:10344000C0011124836080932B08812F0E94BE1D30
:1034500024C081E00E94A51D81E08A15F0F482E07D
:103460000E94A51D1AC0BB2039F0AA2009F4BFCFC5
:10347000802F0E94B22F11C0AA2009F4BDCF89333A
:1034800049F49FEFE3EFF1E09150E040F040E1F7C5
:1034900000C00000802F0E94562F88EF8C0D8430D2
:1034A00010F40E94F611DD2041F180912B0880FD7F
:1034B00024C0F70112828595859585950E94BE1DD1
:1034C000C7010E94411580912B08859585958595AA
:1034D0000F900F900F900F900F90DF91CF911F9151
:1034E0000F91FF90EF90DF90CF90BF90AF909F90A3
:1034F0008F900C94801D69E219CD0F900F900F9062
:103500000F900F90DF91CF911F910F91FF90EF904F
:10351000DF90CF90BF90AF909F908F9008950895C7
:1035200080913508089580E00895CF93DF9300D00F
:103530001F92CDB7DEB790915808943011F589836A
:103540007B836A839093E9008FEF9091E80081502C
:1035500095FD06C09AE69A95F1F700C08111F5CF66
:103560008091E80085FF0DC040E050E063E070E02E
:10357000CE0101960E9465268091E8008E778093A7
:10358000E8000F900F900F90DF91CF910895BC014C
:1035900084E00C94951ABC0183E00C94951ACF93A7
:1035A000DF9320914801222339F02091060427FF60
:1035B00003C060E224E002C068E021E02093E9005B
:1035C0002FEF3091E800215035FD06C03AE63A95DC
:1035D000F1F700C02111F5CF2091E80025FF1DC0B3
:1035E000EC0180914801811105C040E050E068E0A5
:1035F00070E003C070E040E050E0CE010E9465261C
:103600008091E8008E778093E80080E2FE01A6E3D7
:10361000B8E001900D928A95E1F7DF91CF9108957E
:1036200078941F920F920FB60F9211248F939F934D
:10363000AF93BF938091A7049091A804A091A9048F
:10364000B091AA040196A11DB11D8093A704909387
:10365000A804A093A904B093AA04BF91AF919F912D
:103660008F910F900FBE0F901F9018952FB7F89461
:103670008091A7049091A804A091A904B091AA04F4
:103680002FBF08951F920F920FB60F9211248F93A0
:103690009F93AF93BF9380910A04811113C08091CF
:1036A000A7049091A804A091A904B091AA044196FE
:1036B000A11DB11D8093A7049093A804A093A90411
:1036C000B093AA04BF91AF919F918F910F900FBEBD
:1036D0000F901F901895209148012223C9F0209146
:1036E000060427FF15C0262F2695269526952E31F0
:1036F000C8F4FC01E20FF11D677081E090E001C0A9
:10370000880F6A95EAF780959281892382830895CC
:10371000FC0106962281621301C012823196E817DD
:10372000F907C1F70895209148012223C1F02091A3
:10373000060427FF14C0262F2695269526952E31A0
:1037400030F5FC01E20FF11D677081E090E001C0EF
:10375000880F6A95EAF79281892B82830895FC018C
:1037600032962FEF30E04191641789F02F3F19F422
:10377000411101C0232F3F5F3630A9F72F3F39F0A9
:10378000FC01E20FF11D27FDFA956283089508956B
:10379000CF9384E090E00E94D930C82F81E290E07E
:1037A0000E94D9302C2F30E0A901582BCA01CF91AB
:1037B00008956BEE7EEF80E090E00E94153160E0AE
:1037C00082E090E00E94F73060E083E090E00E94A9
:1037D000F73010923008109231081092320810928F
:1037E000330860E084E090E00E94F73060E081E21E
:1037F00090E00E94F73060E085E090E00E94F730B2
:1038000060E086E090E00E94F7306FEF87E090E0A4
:103810000E94F73040E050E0BA0188E090E00E945A
:10382000093160E08DE090E00E94F73040E050E028
:10383000BA0188E190E00E94093160E087E190E000
:103840000E94F73040E050E0BA018CE190E00E9425
:10385000093160E080E290E00E94F73040E050E003
:10386000BA0188E190E00E94093140E050E0BA01DD
:103870008FE090E00E94093140E050E0BA0183E11E
:1038800090E00C94093180912F08811110922F083B
:10389000089590912E0880912D08892B20912C0855
:1038A000982F922B90936A0780912F088823D9F044
:1038B000892B80936A0780914801882331F0809199
:1038C000060487FF02C08EE101C086E0ECE6F7E067
:1038D00090E0815028F021912223D9F39F5FF9CF06
:1038E00091110E94431CE0910804F0910904309763
:1038F000A9F080914801882359F08091060487FF40
:1039000007C080916A0780936B0785E080936A0700
:103910000280F381E02D8AE697E00994089580E023
:1039200090E00E94E01180E090E00E94CA111092A5
:103930002D0810922C080C94491CBF92CF92DF9254
:10394000EF92FF920F931F93CF93DF938C01C09060
:103950001A06D0901B06E0901C06F0901D06809180
:10396000300890913108A0913208B0913308C82AEC
:10397000D92AEA2AFB2ACFE1D0E0D701C6010C2ED2
:1039800004C0B695A795979587950A94D2F780FDC0
:1039900004C0219790F7B12C07C0BC2EB8018C2F22
:1039A0000E947D200197A9F38B2DDF91CF911F916C
:1039B0000F91FF90EF90DF90CF90BF900895CF933D
:1039C000DF93EC010E949D1CBE010E947D20DF91CF
:1039D000CF9108950E94DF1C292F2F70E92FE295C7
:1039E000EF704E2F50E0FA013297EE30F105B8F447
:1039F000ED56FF4F0C94A631803F99F018F4883EA5
:103A000070F40FC0843F59F40CC0883E50F0813FE1
:103A100031F407C0822F869586958695089580E0BB
:103A2000089581E008952EE0929F800D1124682F63
:103A3000669566956695982F977085E0689FB001AA
:103A4000112440E050E080E0FB01E40FF51FEE534D
:103A5000F84F208130E0092E02C0369527950A9450
:103A6000E2F721703327042E01C0220F0A94EAF7EF
:103A7000822B4F5F5F4F4530510531F708952EE09F
:103A8000929F800D1124E82FE695E695E6958770C4
:103A900051E001C0550F8A95EAF785E0E89FF001F3
:103AA0001124EE53F84F20E030E070E04081CB016C
:103AB000022E02C0969587950A94E2F7817081954F
:103AC00084278523842781932F5F3F4F253031053D
:103AD00069F70895CF92DF92EF92FF926B017C011C
:103AE0000E940E26C0921A06D0921B06E0921C0677
:103AF000F0921D06FF90EF90DF90CF900C948F1CFA
:103B00000F931F9341E050E060E070E004C0440F69
:103B1000551F661F771F8A95D2F74095509560957F
:103B2000709580911A0690911B06A0911C06B09189
:103B30001D068A019B01082319232A233B23C9015F
:103B4000B8011F910F910C946A1D20912B0880954C
:103B5000822380932B08982F977079F430E0482FB8
:103B6000082E000C550B2417350739F085958595DF
:103B700085950E94801D10922B0808950F931F9326
:103B800041E050E060E070E004C0440F551F661F44
:103B9000771F8A95D2F780911A0690911B06A09103
:103BA0001C06B0911D068A019B01082B192B2A2B9C
:103BB0003B2BC901B8011F910F910C946A1D6093B2
:103BC00030087093310880933208909333080C9436
:103BD0008F1C8091C10790919007891719F08F5F12
:103BE0008770FBCF08950F931F93CF93DF9380913E
:103BF0008F0782958F7009F05DC080918C078823B4
:103C000009F458C08091C1071091900760918A070C
:103C100070918B07C0918D07D0918E0791E06F3F17
:103C200009F090E0292F06E0811709F443C020979E
:103C300021F07F3F21F030E003C031E001C0322F9E
:103C400090E030FD34C0089FF001099FF00D112471
:103C5000DF01AF56B84F11963C911197371327C02B
:103C60003C91361324C012963C91129731111FC01B
:103C700013964D915C9114974C1B5D0B483C51057C
:103C8000B0F480918F078F70806180938F07EA5620
:103C9000F84F80818F70806180838AE897E00E946E
:103CA0004115DF91CF911F910F910C94E91D019661
:103CB0008770BACFDF91CF911F910F9108959F9296
:103CC000AF92BF92CF92DF92EF92FF920F931F932A
:103CD000CF93DF93CDB7DEB761970FB6F894DEBF11
:103CE0000FBECDBF8C0185E0F801DE011D9601906D
:103CF0000D928A95E1F7F80190818181E2803091FF
:103D00008A0760918B0740918D0750918E0741156E
:103D1000510531F06F3F31F421E03F3F19F403C00A
:103D200021E001C020E0F22FF1709F2E20FD23C181
:103D3000F801C380D4802AE8A22E27E0B22EF090AA
:103D40008C07F601E41BF50BFF2009F4CEC020918F
:103D50008F07E83CF10508F099C0422F407F09F039
:103D600051C0681311C039130FC0FE2CE1100CC0F4
:103D70002F70206120938F07C5010E94411580910B
:103D80008F07F801858337C1CD2831F08F3F31F49B
:103D900021E09F3F19F403C021E001C020E020FD95
:103DA00003C021E02E2502C020E030E0F22FF170A8
:103DB000FF2E20FF1DC02091C1074091900756E0C3
:103DC000241709F4F6C030E0529FF001539FF00D24
:103DD0001124EF56F84F6181861306C06081961357
:103DE00003C06281E61204C02F5F3F4F2770E8CF07
:103DF000FE2CEE2009F4FFC080918F078160809334
:103E00008F0750C0681307C0391305C0E11003C005
:103E1000F80125838DC09D878E878D859E850E94A4
:103E2000EA1C882369F1EE2059F120918F07822F37
:103E300082958F7090E0029774F080918A0790913C
:103E40008B0798878F831986DB86CA862C87CE01DD
:103E500007960E94411586E0F801AAE8B7E00190B4
:103E60000D928A95E1F70E94F31D0DC06817E1F0ED
:103E70009D878E878D859E850E94EA1C81111EC0BC
:103E8000C8010E944115FF24F394B5C0422F407F22
:103E900069F78AE897E00E94411586E0F5011192E2
:103EA0008A95E9F7F12CA7C03913E2CFE110E0CFF2
:103EB000F8012583C8010E94411557C0EE2001F387
:103EC00020918F07822F82958F7090E002971CF2CD
:103ED00080918A0790918B079A8389831B82DD8268
:103EE000CC822E83CE010196B4CFE83CF105E8F5F3
:103EF000FE2CEE2029F2681327C0391325C020912B
:103F00008F0720FD18C0822F82958F70482F50E0B8
:103F10004115510581F0F80125834F30510541F0DD
:103F20008F5F982F9295907F822F8F70892B85833A
:103F3000C8010E94411586E0F801AAE8B7E00190A7
:103F40000D928A95E1F757C09D878E878D859E8556
:103F50000E94EA1C81117FCF80918F07816080933E
:103F60008F07C8010E94411546C086E0F5011192F5
:103F70008A95E9F740C0EE2009F482CF9D878E87AD
:103F80008D859E850E94EA1CF82E882309F478CF3F
:103F900086E0F801AAE8B7E001900D928A95E1F772
:103FA00080918A0790918B070E94DF1C0E94F31D6D
:103FB00022C09D878E878D859E850E94DF1C292FBC
:103FC00022952F70223028F49F7039F0811105C09E
:103FD0000BC0243028F49F7049F4805E883020F0B4
:103FE000C8010E9441159F2CF92C05C0F80195814C
:103FF000907F99F7F9CF8F2D61960FB6F894DEBFB9
:104000000FBECDBFDF91CF911F910F91FF90EF9029
:10401000DF90CF90BF90AF909F90089510922E08A0
:1040200080914801882331F08091060487FF02C007
:104030008EE101C086E0ECE6F7E0DF011D928A9593
:10404000E9F70C948F1C9091060492FF0DC0282F65
:104050002871283019F4877F846006C0282F2471C6
:10406000243011F48B7F886093FF0DC0282F2871B6
:10407000283119F4877E846106C0282F24712431E9
:1040800011F48B7E88612091070420FF0DC0382F2A
:104090003871383019F4877F816006C0382F31714C
:1040A000313011F48E7F886021FF0DC0282F2871D8
:1040B000283119F4877E816106C0282F21712131B2
:1040C00011F48E7E886194FD877E0895F894E82F20
:1040D000E295EF70F0E031A1282F2F7081E090E0A1
:1040E00001C0880F2A95EAF7982F9095932391A302
:1040F00092A1892B82A378940895CF93DF930E9495
:10410000C412EC018238910559F1A0F48133910574
:1041100009F473C040F48932910509F467C08A97A5
:1041200009F472C084C08533910509F458C0C99759
:10413000B9F07DC0833E910571F138F4803E910560
:10414000B1F0823E910511F172C0863E9105B9F140
:10415000873E9105C9F1843E910509F068C024C0ED
:104160008091060480FD5DC081FD5BC060C08091D0
:10417000060480FD50C08091070480FF36C1809105
:10418000060484FD30C1C3EED0E02FC18091060447
:1041900082FF2BC1F4CF8091060482FD3FC0809145
:1041A000070480FD3EC0EBCF8091070481FF1DC155
:1041B0008091060484FD17C1C7EED0E016C180913E
:1041C000060483FF12C1F4CF8091060483FD2CC046
:1041D0008091070481FFECCFC4EED0E006C180914E
:1041E000060485FF02C1C9E2D0E0FFC08091060449
:1041F00085FFFBC0C5E3D0E0F8C08091060486FFD0
:10420000F4C0CAE2D0E0F1C08091060486FFEDC0A0
:10421000C1E3D0E0EAC0C9E3D0E0E7C0C2EED0E03D
:10422000E4C0C0EED0E0E1C0C6EED0E0DEC0C11513
:1042300082E5D80708F066C0C11591E5D90728F0D6
:10424000DC2FCC27C16FD06AD0C0C83ED10560F545
:10425000C03ED10508F0C9C0C83AD105B0F4C53A8E
:10426000D10540F0C55AD0E0C654DC4FC881D0E03B
:10427000D064BBC0C130D10509F4B7C008F4B3C0E5
:10428000C430D10508F4AFC0B0C0CF3BD10508F0B1
:10429000AAC0C85AD0E0CC0FDD1FC354DC4F099030
:1042A000D881C02DD464A1C0C11520E5D207E0F0AB
:1042B000CE0174E0969587957A95E1F783709C2FEF
:1042C000937021E030E002C0220F331F9A95E2F78D
:1042D0003C68382BCF70C695C69580E2C89FE00138
:1042E0001124C22BD32B81C0C11580E4D80718F04C
:1042F000DF70D06A7AC0CE019A9581159F4108F48B
:1043000074C071C0C11586E5D807F0F5C11595E5F3
:10431000D90750F08C2F0E9423208F71C82FD0E036
:10432000DC2FCC27D06261C0C11524E5D20728F06C
:10433000DC2FCC27C46FD06A58C09E01237033276E
:104340008C2F86958695C115D34578F4C1E0D0E0D1
:1043500002C0CC0FDD1F2A95E2F720E2829FC00148
:104360001124C82BD92BDC6840C0C1E0D0E002C0CA
:10437000CC0FDD1F2A95E2F720E2829FC0011124B5
:10438000C82BD92BDA6831C0C1152AE5D207E8F469
:10439000C11589E5D80780F08C2F8F700E942320EB
:1043A00094E0D695C7959A95E1F7CF70D0E0DC2FD1
:1043B000CC27D069C82B19C0C11598E5D90798F04A
:1043C000DC2FCC27C06FD06A10C0CE01905681156B
:1043D000904248F48D2F8F710E942320DD27D062F8
:1043E0008F71D82B02C0C0E0D0E0CE01DF91CF9119
:1043F0000895CF92DF92EF92FF926C01EE24FF249A
:10440000C114D104E104F10421F0C701B60120E197
:1044100001C020E0C72ED82EE92EFF24C114D104FC
:10442000E104F10419F0285FC701B6016B017C01BA
:1044300054E0F694E794D794C7945A95D1F7C114F1
:10444000D104E104F10419F02C5FC701B6016B013E
:104450007C0142E0F694E794D794C7944A95D1F74B
:10446000C114D104E104F10419F02E5FC701B601B3
:10447000DC01CB01B695A79597958795892B8A2B5B
:104480008B2B09F02F5F822FFF90EF90DF90CF9062
:10449000089581E08093E00080E28093D800E9EC09
:1044A000F0E010828FE097E20197F1F700C0000082
:1044B0001DBA109268001CBC10BE1FBA10927A0080
:1044C00010926E0010926F001092700010927100A6
:1044D00010821092BC0011B814B817B81AB81DB8E1
:1044E00010BA12B815B818B81BB81EB811BA0C9487
:1044F000007E0895882311F084EC01C084E8809345
:10450000BC0080E49FE1A0E0B0E02091BC0027FD6A
:1045100008C00097A105B10561F00197A109B10993
:10452000F4CF892B8A2B8B2B21F08091BB0090E05C
:1045300008958FEF9FEF0895DB01FC0120E030E04C
:1045400084E82A173B071CF591919093BB00809358
:10455000BC0040E45FE160E070E09091BC0097FD3A
:104560000AC0411551056105710599F04150510985
:1045700061097109F2CF452B462B472B51F09091E1
:10458000B900987F983229F42F5F3F4FDACFC901E5
:1045900008958FEF9FEF089584E98093BC00809188
:1045A000BC0084FDFCCF0895262F94EA9093BC00B4
:1045B00040E45FE160E070E09091BC0097FD0AC0CC
:1045C000411551056105710549F0415051096109D5
:1045D0007109F2CF452B462B472B19F48FEF9FEF34
:1045E00008959091B900987F983011F09031B1F70B
:1045F000682F660F622B6093BB0084E88093BC0039
:1046000080E49FE1A0E0B0E02091BC0027FD08C05D
:104610000097A105B10511F30197A109B109F4CFE4
:10462000892B8A2B8B2BD1F28091B900887F88311E
:1046300011F0803499F680E090E00895FF920F9396
:104640001F93CF93DF931F92CDB7DEB78B01FC0191
:10465000F1808DE1898360E08F2D0E94D42297FD47
:104660001AC061E070E0CE0101960E949C2297FD85
:1046700012C061E08F2D0E94D42297FD0CC080E013
:104680000E947A2297FD07C0F80180830E94CC2205
:1046900021E090E001C0282F822F0F90DF91CF9171
:1046A0001F910F91FF9008950F931F93CF93DF9366
:1046B000EB018A0160E00E94D42297FD09C0B80195
:1046C000CE010E949C22EC0197FF0E94CC22CE01D9
:1046D000DF91CF911F910F910895CF93DF9300D079
:1046E0001F92CDB7DEB720914F013091500140911C
:1046F000510129833A834B8343E050E0BE016F5F51
:104700007F4FFC0180810E9454230F900F900F90E7
:10471000DF91CF9108958F929F92AF92BF92CF92E7
:10472000DF92EF92FF920F931F93CF93DF93CDB75A
:10473000DEB729970FB6F894DEBF0FBECDBF7C0160
:10474000B42EA52E962E872E690160E0FC01808193
:104750000E94D42297FD22C019821A8286E0800F1F
:104760008B831C820D838E829F82A886B98669E026
:1047700070E0CE0101960E949C2297FD0FC0B80107
:10478000C6010E949C2297FD09C00E94CC22C7014D
:104790000E946D2397FD02C0912F01C0082F802F2A
:1047A00029960FB6F894DEBF0FBECDBFDF91CF9133
:1047B0001F910F91FF90EF90DF90CF90BF90AF903F
:1047C0009F908F9008950F931F93CF93DF9300D006
:1047D00000D0CDB7DEB709831A832B833C8304E076
:1047E00010E09E012F5F3F4F0E948B230F900F9090
:1047F0000F900F90DF91CF911F910F910895EF923D
:10480000FF920F931F93CF93DF9300D000D0CDB7CB
:10481000DEB77C01162F19821A821B821C829E0130
:104820002F5F3F4F48E259E060E87FEBFC01808159
:1048300091810E94BD2697FD36C089819A81AB8106
:10484000BC8141E050E060E070E0F701028004C00C
:10485000440F551F661F771F0A94D2F7112329F0C2
:10486000842B952BA62BB72B08C0409550956095AF
:10487000709584239523A623B72389839A83AB83DA
:10488000BC8309811A812B813C8148E259E060E8B0
:104890007FEBF701808191810E94E32318161906AE
:1048A00014F480E090E00F900F900F900F90DF9144
:1048B000CF911F910F91FF90EF9008950F931F9349
:1048C000CF93DF9300D01F92CDB7DEB78C01BE012E
:1048D0006D5F7F4F0E941E2397FD2EC08B81F801D4
:1048E0009281981739F18283982F9370923039F022
:1048F000869586958370823081F460E001C061E026
:10490000F801838194810E94FF2397FD15C087E7FA
:104910008A83AE014E5F5F4F05C086E68983AE0194
:104920004F5F5F4F63E2F80181810E949126181664
:10493000190614F480E090E00F900F900F90DF9133
:10494000CF911F910F9108950F931F93CF93DF93F2
:104950001F92CDB7DEB78C01BE016F5F7F4F0E9403
:104960001E2397FD12C09981292F2370F80183819E
:104970009481211102C060E001C061E00E94FF2328
:104980001816190614F480E090E00F90DF91CF9193
:104990001F910F910895CF92DF92EF92FF920F93A4
:1049A0001F93CF93DF9300D000D01F92CDB7DEB717
:1049B0006C018FEFF6018283E380F480F70142817E
:1049C0005381648175814D5F534F6F47704480817F
:1049D00091811D8201E010E09E012B5F3F4F0E94FC
:1049E0008B2397FD3CC060E0C7010E94FF23198222
:1049F0001A821B821C829E012F5F3F4F48E059E0C4
:104A000060E87FEBF701808191810E94BD2697FDD0
:104A100026C001E010E020E030E0F701028004C091
:104A2000000F111F221F331F0A94D2F789819A8128
:104A3000AB81BC81082B192B2A2B3B2B09831A83B2
:104A40002B833C8348E059E060E87FEB80819181D3
:104A50000E94E3231816190614F480E090E00097F2
:104A6000C9F4F6012081222369F0213099F485E010
:104A70008983AE014F5F5F4F6AE1F60181810E9439
:104A8000912603C0C6010E94A4241816190614F426
:104A900080E090E00F900F900F900F900F90DF91BB
:104AA000CF911F910F91FF90EF90DF90CF900895DD
:104AB0000F931F93CF93DF9300D000D000D0CDB7DA
:104AC000DEB71092BA0080E28093B8001092BC006A
:104AD0008FE19EE40197F1F700C000000B9A139A52
:104AE0009FEF20E782E0915020408040E1F700C036
:104AF00000008CE08E8301E010E09E012A5F3F4FB2
:104B00004AEF50E360E87FEB85E291E00E948B235F
:104B100097FD4CC01D829E012B5F3F4F42E154E345
:104B200062ED7FEB85E291E00E948B2397FD3EC012
:104B300019821A821B821C829E012F5F3F4F48E020
:104B400054E362ED7FEB85E291E00E94BD2697FD84
:104B50002DC009811A812B813C81016009831A8350
:104B60002B833C8348E054E362ED7FEB85E291E0E8
:104B70000E94E32397FD1AC004E813E323E030E02A
:104B800040E050E360E87FEB85E291E00E94E323A0
:104B900097FD0CC004E813E324E030E048E450E95A
:104BA00060E87FEB85E291E00E94E32383E491E0FB
:104BB0000E94CB2487E391E00E94CB2482E391E022
:104BC0000E94CB248091520190915301A0915401F5
:104BD00089839A83AB8343E050E0BE016F5F7F4FD0
:104BE000809125010E94542304E610E083E491E0C3
:104BF0000E94A4248FE19EE40197F1F700C0000019
:104C00000150110999F726960FB6F894DEBF0FBE32
:104C1000CDBFDF91CF911F910F91089520911F0675
:104C2000211110C00E94F921843060F495E0989F12
:104C3000F0011124E95FFE4FAFE8B8E001900D925A
:104C40009A95E1F7089590911F06911112C08093F3
:104C50000A0180930F0180931401809319016091E0
:104C60001A0670911B0680911C0690911D060C94EB
:104C70000E26089544E150E063E875E0882361F072
:104C800087E091E00E94E7304BE351E067E975E08F
:104C90008FED94E00C94E73087E091E00E94C930FA
:104CA0004BE351E067E975E08FED94E00C94C93077
:104CB00080918F08837029F08C6980938F081092FF
:104CC000060181E080931F060895EF92FF920F93F3
:104CD0001F93CF93DF937C018B010E94272D8111BD
:104CE00019C0E70101151105A1F08091E80085FDCB
:104CF0000AC08091E8008E778093E8000E94272DFB
:104D0000882381F307C089918093F1000150110934
:104D1000E9CF80E0DF91CF911F910F91FF90EF904D
:104D200008950F931F93CF93DF931F92CDB7DEB7F4
:104D300069838A0160E00E94D42297FD13C061E07C
:104D400070E0CE0101960E949C2297FD0BC061E0AD
:104D500070E0C8010E949C228C0197FD05C00E9452
:104D6000CC2202C0282F02C0202F912F822F0F901B
:104D7000DF91CF911F910F910895CF92DF92EF9223
:104D8000FF920F931F93CF93DF93CDB7DEB72F978B
:104D90000FB6F894DEBF0FBECDBF7C0189011A8625
:104DA0001B861C861D8619821A8286E0D82EDB821D
:104DB00081E08C8384E08D837E836F83588749876D
:104DC00049E050E0BE016F5F7F4FF70180810E9494
:104DD000542397FD40C0C7010E946D2397FD3BC03F
:104DE00060E0F70180810E94D42297FD34C01E86C6
:104DF000DF8662E070E0CE010E960E949C2297FD55
:104E00002AC061E0F70180810E94D42297FD23C06F
:104E100081E00E947A2297FD1EC06E01FAE0CF0E5B
:104E2000D11CE12CF12C8FEFE81AF80A81E094E014
:104E3000E916F1040CF080E00E947A2297FD0BC085
:104E4000F60181936F01F4E0EF16F10461F70E941F
:104E5000CC2284E090E097FD09C04A855B856C8593
:104E60007D85F80140835183628373832F960FB64B
:104E7000F894DEBF0FBECDBFDF91CF911F910F9190
:104E8000FF90EF90DF90CF9008956F927F928F9276
:104E90009F92AF92BF92CF92DF92EF920F931F93A8
:104EA000CF93DF933C01C091490185E1C89FC02D9C
:104EB0001124D5E1DC0FDA3608F0D9E660919308C9
:104EC000669580918B0890918C080E946613182F2C
:104ED000CD1708F044C08C2E912CF401EF5AFC4FF2
:104EE000908180914A018923C1F1F401EE0FFF1FE7
:104EF000E158FD4FC080D12C80E7C81AD108F401D9
:104F0000EE0FFF1FE058FD4FA080B12CE0E2AE1A7B
:104F1000B108CC9C9001CD9C300D300D1124AA9C81
:104F2000C001AB9C900D900D1124820F931F0E9425
:104F30000C13082F6091900870919108809192084D
:104F4000E12E9501A601F30109950E947013462FE9
:104F5000282F672FC4010E94D312CF5FB9CF81E001
:104F6000D93608F080E0DF91CF911F910F91EF903B
:104F7000DF90CF90BF90AF909F908F907F906F9079
:104F80000895CF92DF92EF92FF920F931F93CF93EA
:104F9000DF936C01C091490185E1C89FC02D1124A8
:104FA000D5E1DC0FDA3608F0D9E660919308669512
:104FB00080918B0890918C080E946613182FCD1752
:104FC00078F5EC2EF12CF701EF5AFC4F908180918F
:104FD0004A01892319F1F701EE0FFF1FE058FD4F39
:104FE000208130E020523109F701EE0FFF1FE15818
:104FF000FD4F408150E040575109609190087091F9
:10500000910880919208012FF60109950E94701372
:10501000462F282F672FC7010E94D312CF5FCFCF13
:1050200081E0D93608F080E0DF91CF911F910F9198
:10503000FF90EF90DF90CF900895DF92EF92FF9274
:105040000F931F93CF93DF937C01C091490185E1BA
:10505000C89FC02D1124D5E1DC0FDA3608F0D9E65F
:10506000609193086695669580918B0890918C0865
:105070000E946613D82ECD17F0F40C2F10E0F80123
:10508000EF5AFC4F908180914A01892391F0609101
:10509000900870919108809192082D2D4C2FF70166
:1050A00009950E947013462F282F672FC8010E9470
:1050B000D312CF5FE0CF81E0D93608F080E0DF91F6
:1050C000CF911F910F91FF90EF90DF9008959F92E5
:1050D000AF92BF92CF92DF92EF92FF920F931F9306
:1050E000CF93DF936C01C091490185E1C89FC02D2A
:1050F0001124D5E1DC0FDA3608F0D9E66091930887
:105100006695669580918B0890918C080E94661335
:10511000182F80E4810F0E94EB1290E8F92EF80E10
:10512000812F0E94EB1220E8922E980ECD1700F5E9
:10513000AC2EB12CF501EF5AFC4F908180914A01C1
:105140008923A1F060919008709191088091920854
:10515000E12E0C2F292D4F2DF60109950E94701379
:10516000462F282F672FC5010E94D312CF5FDECFB5
:1051700081E0D93608F080E0DF91CF911F910F9147
:10518000FF90EF90DF90CF90BF90AF909F900895E9
:10519000CF92DF92EF92FF920F931F93CF93DF9303
:1051A0006C01C091490185E1C89FC02D1124D5E152
:1051B000DC0FDA3608F0D9E62091930830E040E0C1
:1051C00050E06FEF7FEF80E090E00E941B3189019B
:1051D000CD17E8F5EC2EF12CF701EF5AFC4F90813A
:1051E00080914A01892389F190916208915097FD3D
:1051F00015C0492F092E000C550BFA01EE59F74F37
:105200008189C813F3CF440F551FFA01EE59F74FA8
:10521000218D328D2017310748F701C09801609128
:105220009308C9010E946613AC01609190087091C7
:10523000910880919208F60109950E947013462FFB
:10524000282F672FC7010E94D312CF5FC1CF81E003
:10525000D93608F080E0DF91CF911F910F91FF9038
:10526000EF90DF90CF9008952F923F924F925F92F0
:105270006F927F928F929F92AF92BF92CF92DF9266
:10528000EF92FF920F931F93CF93DF93CDB7DEB7CB
:1052900027970FB6F894DEBF0FBECDBF282E4B0167
:1052A0002091490185E1289F802D11248E83182F9C
:1052B0001B5E1A3608F019E63091620839839E8128
:1052C000911708F077C08E81682E712CF301EF5A88
:1052D000FC4F908180914A01892309F467C0309086
:1052E000900840909108522C1F82C301880F991F8B
:1052F000DC01A158BD4FBB83AA83C301880F991F4E
:10530000FC01E058FD4FFD83EC83F9815F16E0F569
:10531000E52CF12CAA81BB81CC90D12CF701EE5960
:10532000F74F8181C81AD108AC81BD81AC90B12CF6
:105330008185A81AB108CC9C9001CD9C300D300D10
:105340001124AA9CC001AB9C900D900D1124820FDA
:10535000931F0E940C13082FF701EE0FFF1FEE5949
:10536000F74F60919308818D928D0E9466137C01A6
:105370009501A601632D742D8F81F4010995362EB8
:10538000472E8F835394C1CF209192088F81382F5D
:10539000329F312D1124832F632D742D0E947013A1
:1053A000462F282F672FC3010E94D3128E818F5F53
:1053B0008E8385CF81E0193608F080E027960FB6FE
:1053C000F894DEBF0FBECDBFDF91CF911F910F913B
:1053D000FF90EF90DF90CF90BF90AF909F908F9015
:1053E0007F906F905F904F903F902F9008951F9304
:1053F000CF93DF93CDB7DEB7AA970FB6F894DEBF91
:105400000FBECDBFEAE5F8E08091F100819348E05E
:10541000E236F407C9F780915B08833009F460C075
:1054200030F4813071F0823009F49AC0B1C08A3012
:1054300009F486C08B3009F46BC0893009F0A8C02C
:1054400020C080915A08813A09F0A2C08091E800FA
:10545000877F8093E80080915E0890915F08892B98
:1054600021F460E286E398E003C060E080E090E031
:1054700070E00E94E52E8091E8008B778093E80031
:1054800087C080915A08813209F082C080915E08FD
:1054900090915F08009719F0029709F079C0809108
:1054A000E800877F8093E8008091E80082FD05C0D6
:1054B000809158088111F8CF6BC08091F2009091D3
:1054C000F300029729F48091F1008B7F813021F461
:1054D0008091F100809335088091E8008B7754C06B
:1054E00080915A08813A09F053C080915E089091EA
:1054F0005F08892B09F04CC08091E800877F80937A
:10550000E8008091E80080FFFCCF8091480137C01F
:1055100080915A088132E1F580915E0890915F0890
:10552000892BB1F58091E800877F8093E8000E9485
:105530005A2D80915C08809348010E940E2028C05B
:1055400080915A08813221F58091E800877F80930D
:10555000E8000E945A2D80915D088093340818C09D
:1055600080915A08813AA1F48091E800877F809366
:10557000E8008091E80080FFFCCF809134088093A0
:10558000F1008091E8008E778093E8000E945A2D08
:105590008091E80083FFDAC180915A0890915B08FE
:1055A000492F50E04A30510508F0D0C1FA01EF55BB
:1055B000FF4F0C94A631803821F0823809F0C6C123
:1055C00008C08091560890915708992389F082600D
:1055D0000FC080915E088F70873008F0B7C180934C
:1055E000E9008091EB0085FB882780F91092E900A3
:1055F0009091E800977F9093E8008093F1001092DB
:10560000F1006DC1282F2D7F09F0A0C1882319F06A
:10561000823061F09BC180915C08813009F096C1B5
:10562000933009F080E0809357082EC080915C0889
:1056300081112AC080915E088F702FEF280F2630CD
:1056400008F084C18093E9002091EB0020FF1CC08A
:10565000933021F48091EB00806214C09091EB00B4
:1056600090619093EB0021E030E0A90102C0440F6B
:10567000551F8A95E2F74093EA001092EA00809164
:10568000EB0088608093EB001092E9008091E800C5
:10569000877F8093E8000E945A2D58C1811156C11E
:1056A00010915C081F778091E3008078812B8093B4
:1056B000E3008091E800877F8093E8000E945A2DE4
:1056C0008091E80080FFFCCF8091E30080688093A8
:1056D000E300111102C082E001C083E0809358080A
:1056E00035C18058823008F031C120915C0830917A
:1056F0005D082C3D53E0350779F583E08A838AE223
:1057000089834FB7F894DE01139620E03EE051E222
:10571000E32FF0E050935700E49120FF03C0E2959F
:10572000EF703F5FEF708E2F90E0EA3010F0C79679
:1057300001C0C0968D939D932F5F243149F74FBFD1
:105740008091E800877F8093E8006AE270E0CE01F4
:1057500001960E94E52EB1C080915E0890915F088D
:10576000432F552743305105A9F068F441305105C6
:1057700009F4FBC04230510509F0E8C08BE590E028
:10578000E5E6F8E04BC04132510529F142325105BE
:1057900089F1DCC0C901992781309105A1F058F049
:1057A000029709F0D3C0E2EDF8E0E4918E2F90E08B
:1057B000E2EDF8E030C0E0E5F9E0E4918E2F90E012
:1057C000E0E5F9E028C0ECE3F9E0E4918E2F90E009
:1057D000ECE3F9E020C08330910508F0B7C0880FF2
:1057E000991FFC01EF52FE4F0190F081E02D89E0FE
:1057F00090E014C08330910508F0A8C0FC01EE0FC2
:10580000FF1FE553FE4F0190F081E02DDC01A8530E
:10581000BE4F8C9190E0009709F498C02091E80069
:10582000277F2093E80020916008309161082817B5
:10583000390708F4C90140E0009771F12091580838
:105840002223D9F12530C9F12091E80023FD35C08C
:105850002091E80022FD2DC02091E80020FFECCF30
:105860002091F2003091F300009759F02830310573
:1058700040F444914093F100319601972F5F3F4FE0
:10588000F3CF41E02830310509F040E02091E800F5
:105890002E772093E800D0CF4111D0CF0AC080915D
:1058A0005808882351F0853041F08091E80083FD4D
:1058B00004C08091E80082FFF2CF8091E8008B77EE
:1058C0008093E80043C0803809F040C08091E80030
:1058D000877F8093E800809159088093F100809140
:1058E000E8008E77D6CE811131C080915C0890910E
:1058F0005D089927029754F58091E800877F80938F
:10590000E80010915C08109359080E945A2D11115B
:1059100006C08091E30087FD02C081E001C084E001
:105920008093580842E061EC81E00E94792D42E2C8
:1059300061EC84E00E94792D42E261EC82E00E94F9
:10594000792D42E260EC83E00E94792D8091E8009D
:1059500083FF10C08091E800877F8093E8008091EA
:10596000EB0080628093EB0005C082E190E0E0EC08
:10597000F8E054CFAA960FB6F894DEBF0FBECDBFA5
:10598000DF91CF911F9108951F920F920FB60F9242
:1059900011242F933F934F935F936F937F938F9334
:1059A0009F93AF93BF93CF93DF93EF93FF93C091F8
:1059B000E900CF708091EC00D82FD17080FDD0E845
:1059C0001092E9008091F000877F8093F000789436
:1059D0000E94F7291092E9008091F000886080937E
:1059E000F000CD2BCF70C093E900FF91EF91DF91D4
:1059F000CF91BF91AF919F918F917F916F915F9167
:105A00004F913F912F910F900FBE0F901F901895BF
:105A1000E8EDF0E080818C7F80831092E2001092AC
:105A2000DA001092E100A0EEB0E08C9181608C93DE
:105A300080818F77808319BCA7EDB0E08C918E7F39
:105A40008C9380818F7E808310929408089520919A
:105A5000E4003091E50095E64091EC00842F8170E0
:105A600040FF23C08091E80080FD1DC08091580850
:105A7000882399F0853099F08091EB0085FD11C065
:105A80004091E4005091E5002417350729F3915027
:105A900011F09A01E1CF84E0089582E0089583E057
:105AA000089581E0089580E008954091E80042FF64
:105AB000DDCF089580915A0887FF11C08091E800DA
:105AC00082FD05C0809158088111F8CF11C08091E6
:105AD000E8008B770BC080915808882349F08091AB
