:100000000C94AA040C94F1040C94F1040C94F104E3
:100010000C94F1040C94F1040C94F1040C94F1048C
:100020000C94F1040C94F1040C943F2E0C94F32CDA
:100030000C94811B0C94F1040C94F1040C94F104C5
:100040000C94F1040C94F1040C94F1040C94F1045C
:100050000C94F1040C944F1B0C94F1040C94F104D7
:100060000C94F1040C94F1040C94F1040C94F1043C
:100070000C94F1040C94F1040C94F1040C94F1042C
:100080000C94F1040C94F1040C94F1040C94F1041C
:100090000C94F1040C94F1044F0858088308C0082C
:1000A000FE0840098309860989098C098F0992098C
:1000B000950998099B099E09A309A609A909AE09F2
:1000C000B309B609B909BE09FA09360A390A3E0A5E
:1000D000490A4C0A570A5A0A650A680A730A760AD4
:1000E000810A870AF70A3C0B3C0C420C470CE60DD0
:1000F000E60D500CE60DE60D5A0C6B0C950CB40C8D
:10010000D50C070D360D5E0D910D890DDC0D5C18BB
:100110005C1896189618E9188C1A8C1A8C1A0519FE
:10012000E319F419F4193B1D3B1D4E1D4E1D441DD2
:100130004E1D4E1D4E1D3B1D3B1D491D4E1D4E1D92
:10014000491DD824FF24A326FF24A3264B256E2572
:10015000A3266026702629003A003B003C003D00A3
:100160003E003F0040004100420043004400450083
:100170004C0035001E001F0020002100220023003B
:1001800024002500260027002D002E002A002B0029
:1001900014001A000800150017001C0018000C00BD
:1001A000120013002F003000310039000400160047
:1001B000070009000A000B000D000E000F003300BD
:1001C000340028004A00E1001D001B000600190051
:1001D000050011001000360037003800E50052001D
:1001E0004B00E000E2000151E3002C004D002C0028
:1001F000E400E6000151500051004F004E000000A5
:1002000000000000AB00AE00AC00000000000000E9
:100210000000000000004600000000000000000098
:1002200056005500540000000000000000000000CF
:1002300000005300000000000000000057006100B3
:1002400060000000000000000000000000005F00EF
:10025000000000000000000000005E005D000000E3
:10026000000000000000000000005C000000000032
:100270000000000058005B005A0000000000000071
:100280000000000000005900000000000000000015
:1002900000006300000000000000000000000000FB
:1002A000000062000000005C01000100010001008C
:1002B0000100010001000100010001000100010036
:1002C0000100010001000100010001000100010026
:1002D000010001000100C35CCB5CCA5C0100460068
:1002E000010001000100010001004A004E004B0026
:1002F0004D000100010001000100010001000100AA
:100300000100010001005000510052004F000100A7
:1003100001000100AE000100010001000100010028
:1003200001000100010001000100010001004B007B
:10033000A90001000100010001000100A800010066
:100340000100010001004A004E004D00AA0000001B
:10035000000000000100010001000000000000009A
:10036000000000000000010000000000000000008C
:10037000010001000100000000000000000000007A
:10038000000001000000000000000000010001006A
:10039000010000000000000000000000000001005B
:1003A000000000000000000000000100010000004B
:1003B000000000000000000000000100000000003C
:1003C000000000000100010001000000000000002A
:1003D000000000000000010000000000000000001C
:1003E000000001000000000000000000000000000C
:1003F00000000100000001000100010001000100F7
:1004000001000100010001000100010001000100E4
:1004100001000100010001000100010001000100D4
:1004200001000100010001000100010001000100C4
:1004300001000100010001000100010001000100B4
:1004400001000100010001000100010001000100A4
:100450000100010001000100010001000100010094
:100460000100010001000100010001000100010084
:100470000100010001000100010001000100010074
:100480000100010001000100010001000100010064
:100490000100010001000100010001000100000055
:1004A0000000000001000100010000000000000049
:1004B000000000000000010000000000000000003B
:1004C0000100010001000000000000000000000029
:1004D0000000010000000000000000000100010019
:1004E000010000000000000000000000000001000A
:1004F00000000000000000000000010001000000FA
:1005000000000000000000000000010000000000EA
:1005100000000000010001000100000000000000D8
:1005200000000000000001000000000000000000CA
:1005300000000100000000000000000000000000BA
:1005400000000100000001000100010001000100A5
:100550000100010001000100010001000100010093
:100560000100010001000100010001000100010083
:100570000100010001000100010001000100010073
:100580000100010001000100010001000100010063
:100590000100010001000100010001000100010053
:1005A0000100010001000100010001000100010043
:1005B0000100010001000100010001000100010033
:1005C0000100010001000100010001000100010023
:1005D0000100010001000100010001000100010013
:1005E0000100010001000100010001000100000004
:1005F00000000000010001000100000000000000F8
:1006000000000000000001000000000000000000E9
:1006100001000100010000000000000000000000D7
:1006200000000100000000000000000001000100C7
:1006300001000000000000000000000000000100B8
:1006400000000000000000000000010001000000A8
:100650000000000000000000000001000000000099
:100660000000000001000100010000000000000087
:100670000000000000000100000000000000000079
:100680000000010000000000000000000000000069
:1006900000000100000005010980A1018503190186
:1006A0002AB700150126B700950175108100C00515
:1006B0000C0901A101850419012AA002150126A037
:1006C00002950175108100C005010906A10185058B
:1006D000050719E029E71500250195087501810234
:1006E0000507190029EF1500250195F07501810214
:1006F00005081901290595057501910295017503F4
:100700009101C00660FF0961A1010962150026FF81
:10071000009520750881020963150026FF009520C9
:1007200075089102C005010906A101050719E02914
:10073000E71500250195087501810295017508816D
:10074000010507190029FF150026FF009506750809
:10075000810005081901290595057501910295018A
:1007600075039101C009025B00030100A0FA0904AE
:1007700000000103010100092111010001224000D4
:100780000705810308000A090401000203000000B4
:100790000921110100012222000705820320000126
:1007A0000705030320000109040200010300000003
:1007B000092111010001226D000705840320000AB0
:1007C000120110010000000884330700010001023B
:1007D000000168034C00610075006E006300680052
:1007E0002000480065006100760079002000430089
:1007F0006F006E006600690067007500720061009E
:1008000062006C00650020004B006500790062000A
:100810006F00610072006400200028006C0061001D
:1008200075006E00630068005F006800650061008D
:10083000760079005F0031002900000012035300A8
:1008400079007300740065006D0037003600000009
:100850000403090400010101010101010101020277
:10086000020202020202020303030303030303045E
:100870000404040404040505050505060606060629
:10088000070707070708080808090909090A0A0AE3
:100890000B0B0B0C0C0C0D0D0D0E0E0E0F0F0F1085
:1008A000101111111212131314141515161617170F
:1008B000181819191A1A1B1B1C1D1D1E1E1F20207B
:1008C000212222232424252626272829292A2B2CC5
:1008D0002D2D2E2F30313232333435363738393AE8
:1008E0003B3C3D3E3F404142434445464748494AE0
:1008F0004C4D4E4F50515354555658595A5B5D5EAE
:100900005F616264656668696B6C6D6F7072737548
:1009100077787A7B7D7E8082838587888A8C8E8FAC
:1009200091939596989A9C9EA0A2A3A5A7A9ABADDA
:10093000AFB1B3B5B7BABCBEC0C2C4C6C9CBCDCFC8
:10094000D1D4D6D8DBDDDFE2E4E7E9EBEEF0F3F576
:10095000F8FAFDFF11241FBECFEFD0E1DEBFCDBFFF
:1009600004B603FE27C08091990890919A08A0913F
:100970009B08B0919C088730904BA740B04BD1F4B6
:100980001092990810929A0810929B0810929C0855
:1009900014BE84B7877F84BF0FB6F894A895809162
:1009A0006000886180936000109260000FBEE0E0FC
:1009B000F8E7099513E0A0E0B1E0EAEEF3E602C043
:1009C00005900D92A03FB107D9F728E0A0EFB3E062
:1009D00001C01D92A939B207E1F70E94F3040C94FB
:1009E000F3310C940000CF93DF93CDB7DEB7AB9714
:1009F0000FB6F894DEBF0FBECDBF84B7877F84BF2C
:100A00000FB6F894A895809160008861809360008B
:100A1000109260000FBE91E080E80FB6F8948093CA
:100A20006100909361000FBE85B7806885BF85B770
:100A3000806885BF82ED9AE19093F1038093F00383
:100A40000E94372D0E94DD2D8091E200846080930A
:100A5000E200789480911B078823A1F01091E900AF
:100A60001F709091EC00892F817090FD80E8182B09
:100A70001092E9008091E80083FD0E94F4231F702A
:100A80001093E90082E084BD93E095BD9DE797BD9A
:100A900080936E0005E811E041E9C42E41E0D42EB8
:100AA000D8018D918D010E94670EC016D106C1F745
:100AB00001E911E03FE9C32E31E0D32EF801819125
:100AC0008F010E94670EC016D106C1F7E2EFF3E076
:100AD0008AE094E0AAECB4E0119211921D921D926A
:100AE0008E179F07C9F780E090E00E9410318B3E7F
:100AF0009E4F11F00E94181C10922507EEE3F7E0BC
:100B00008EE497E02FEF3FEF219331938E179F07ED
:100B1000D9F710920F04E8E2F4E088E394E02FEFB5
:100B20003FEF219331938E179F07D9F780E090E034
:100B30000E9410318B3E9E4F21F00E94181C0E9493
:100B4000602B45E050E06CE170E082E597E00E94A8
:100B5000F830809152078C7F11F40E94602B0E9424
:100B6000DE138FE097E20197F1F700C00000AFE0DD
:100B7000B7E21197F1F700C000000E94DE138091E8
:100B8000CA0480FF14C06FEF7FEF80E490E00E9402
:100B900044316FEF82E490E00E9426316FEF7FEFE7
:100BA00080E090E00E9444310E94F61402C00E944E
:100BB000281380E490E00E9410318C3E964739F46F
:100BC00082E490E00E94083191E0823009F090E0E8
:100BD00090FD3AC000E010E0680120EBC21A2EEF51
:100BE000D20A4801ECE18E0E911CF801EA5AFE4F40
:100BF000A590B4906B2DC8018D5B9F4F0E9426314C
:100C00006A2DC8018C5B9F4F0E9426310E5F1F4FDB
:100C10008016910651F78401C814D90411F7860192
:100C2000F0E4CF16F5E0DF06B9F681E00E94551535
:100C30006CEE76E780E490E00E94443162E082E46A
:100C400090E00E94263103C080E00E94551560911B
:100C50001E0670911F0680912006909121060E9429
:100C6000291580E090E00E9410318B3E9E4F11F0DC
:100C70000E94181C82E090E00E9408318093B10429
:100C80000E94071C90930B0480930A0483E090E079
:100C90000E940831682F70E080E090E00E941E1EE4
:100CA00060911E0670911F0680912006909121068A
:100CB0000E94291560910A04606860930A041091EB
:100CC0000B0484E090E00E942631612F81E290E0E5
:100CD0000E9426318BE191E090930D0480930C04E7
:100CE00022242394312C80911B07853009F054C0B5
:100CF00080E4E82EDD24D39498E1F92E1AE1809166
:100D00001B07853009F042C080911B07843051F1E8
:100D100040E060E080E00E945C2BD092AF04109233
:100D20000E0468E170E00FB6F894A8956093600037
:100D30000FBEE092600083B7817F846083BF83B77A
:100D4000816083BF7894889583B78E7F83BF0FB609
:100D5000F894A8958091600088618093600010925B
:100D600060000FBE80911A07882309F4C8CF0E9443
:100D7000DE13EAECF4E081919191892B09F04DC7E3
:100D800082EE94E08E179F07B1F7B9CF0E944D20F5
:100D90000E94812A1092AF040E94DE13882359F02A
:100DA0008FB7F8944091AB045091AC046091AD04BE
:100DB0007091AE048FBFA2EBB4E0EAECF4E0E12C5A
:100DC000F12C4E2DA190B1908D919D918A259B255E
:100DD000009709F4AEC010E0CC24C394D12C9C0140
:100DE0002C213D21232B09F49EC019A34AA3AC203A
:100DF000BD2081E0A114B10409F480E08BA30E941E
:100E0000751B8160782F9DA38CA349A15AA16BA16A
:100E10008DA10E94B729F701EE0FFF1FEE54FB4F83
:100E200080819181C826D926D182C082AB2881F0E9
:100E30008EE08E9DF0018F9DF00D1124ED52FE4F3E
:100E4000E10FF11D80818F3F19F08BA711E001C0E8
:100E500010E0B0900F04E12EF12CC7018B0D911D15
:100E60000997A4F188E090E06C01CE18DF08B70183
:100E70006F5F7F4F615F7B4FA60180E194E00E942E
:100E8000DB31B701675F7F4F615F7B4FA60188E170
:100E900094E00E94DB31A601440F551FB701660F95
:100EA000771F675E7F4F615F7B4F88E294E00E940F
:100EB000DB31B7016F5E7F4F615F7B4FA60180E240
:100EC00094E00E94DB31BA94B0920F0480910F0439
:100ED00090E0EBA5AE2FB0E09D01220F331F255807
:100EE0003D4FAA0FBB1FBD0164587D4F41E0480F25
:100EF0009117B0F490E0FC01E15FFB4FD9015C91E8
:100F00005183DB015C915187BBA5B18B880F991F81
:100F1000FC01E15FFB4F128E118E91E0842FE6CF32
:100F200080930F041EC01F5FCC0CDD1C1E3009F027
:100F300056CF2FEFE21AF20A3CE0E316F10409F073
:100F400040CF8FEF8EA38FA318A60E94751B8160E0
:100F5000782F9AA789A74EA15FA168A58AA50E94AC
:100F6000B729409138045091390460913A04709146
:100F70003B042FB7F8948091AB049091AC04A091FE
:100F8000AD04B091AE042FBF841B950BA60BB70B1D
:100F90002FB7F894C090AB04D090AC04E090AD04AF
:100FA000F090AE042FBFC0923804D0923904E09282
:100FB0003A04F0923B0460910F04EFE0F4E0462F16
:100FC00050E088248A94982CA12CB12C881A990A74
:100FD000AA0ABB0A651799F0218D328D2901612C6F
:100FE000712C84149504A604B70410F4415004C075
:100FF000280F391F328F218F5F5F3296EBCF4093DE
:101000000F048091AF04811108C010915207812F05
:10101000837019F01695169501C010E080910601B5
:101020008130E9F038F0823009F4A7C3833009F445
:10103000B1C3CDC310924901C0924E07D0924F0761
:10104000E0925007F092510789E2EFE0F4E0A5E268
:10105000B7E001900D928A95E1F781E098C3809105
:10106000050118130DC020915207237030E0409104
:10107000040150E081E02417350719F480E001C035
:1010800081E0817080934B01412F50E0483251053F
:1010900008F061C3FA01E45BFF4F0C94D53188235B
:1010A00009F459C340E060E080E00E945C2B53C328
:1010B000F090490185E1F89EF02C112405E10F0D17
:1010C0000A3608F009E66091530770915407809141
:1010D00055070E94FB2BD62EC72EB82EF01608F00F
:1010E00037C3EF2DF0E0DF01A35BBC4F8C919091F3
:1010F0004A01982331F02B2D4D2D6C2DCF010E94EC
:101100005E2BF394EBCFF090490185E1F89EF02C33
:10111000112405E10F0D0A3608F009E6C0905407C6
:10112000D0905507B09053076B2D7C2D8D2D0E94CC
:10113000FB2BA62E972E882E609156076B0D7C2DCB
:101140008D2D0E94FB2BD62EC72EB82EF01608F040
:10115000FFC28F2D90E0FC01E35BFC4F30812091BA
:101160004A01232359F030FF04C02B2D4D2D6C2D47
:1011700003C0282D4A2D692D0E945E2BF394E6CFE3
:10118000D090490185E1D89ED02C112405E10D0DA8
:101190000A3608F009E6A090540790905507209170
:1011A000560730E4B32E5B2D529F512D1124B52EDE
:1011B000D01608F0CDC2ED2CF12CF701E35BFC4F0B
:1011C000908180914A018923B9F0F701EE0FFF1F4A
:1011D000E458FD4F808182958F70609153078B9DFD
:1011E000600D11247A2D892D0E94FB2B462F282F6C
:1011F000672FC7010E945E2BD394DACFD0904901AC
:1012000085E1D89ED02C112405E10D0D0A3608F099
:1012100009E6A0905407909055072091560780E466
:10122000B82E6B2D629F612D1124B62ED01608F0BA
:101230008FC2ED2CF12CF701E35BFC4F9081809184
:101240004A018923D9F0F701EE0FFF1FE558FD4F42
:101250006081B69EB0011124B5E075956795BA9589
:10126000E1F780915307680F7A2D892D0E94FB2B9F
:10127000462F282F672FC7010E945E2BD394D6CF0D
:10128000F090490185E1F89EF02C112405E10F0D45
:101290000A3608F009E6C0905307D0905407B09082
:1012A00055076091560766956695669580914E073D
:1012B00090914F070E94F12B0E94762B805887FD5A
:1012C0008195880F782F2B2D729F712D1124872FD8
:1012D000B6010E94FB2BD62EC72EB82EF01608F0B2
:1012E00037C2EF2DF0E0DF01A35BBC4F8C919091F2
:1012F0004A01982331F02B2D4D2D6C2DCF010E94EA
:101300005E2BF394EBCF8FE998E21AC083E798E263
:1013100017C088E799E21FC089E599E21CC08EE3F7
:1013200099E21EC082E299E21BC081E798E208C000
:1013300088E698E205C08FE598E202C084E498E26E
:101340000E941A2209C285E398E20AC088EC9BE257
:1013500002C081E199E20E94BE21FEC18DEF98E2B8
:101360000E944221F9C187E098E205C085ED97E22D
:1013700002C087E997E20E946422EEC181111EC07B
:101380006091560720E1620F08F46FEF80914E07DD
:1013900090914F070E94F12B6AE070E00E94AD31FE
:1013A000892B09F0D8C10E94E83069E670E00E94FC
:1013B000C13160914A010E948B2CCDC180914901BD
:1013C00095E1899F802D112405E1080F0A3608F068
:1013D00009E6E82EF12CC02ED12CEC14FD040CF003
:1013E000B7C160914A01C7010E948B2C3FEFE31AFD
:1013F000F30AF3CF81111EC06091560720E1620FFE
:1014000008F46FEF80914E0790914F070E94F12BE7
:1014100065E070E00E94AD31892B09F09CC10E940B
:10142000E83069E670E00E94C13160914A010E9493
:10143000D12C91C18091490195E1899F802D112482
:1014400005E1080F0A3608F009E6E82EF12CC02E57
:10145000D12CEC14FD040CF07BC160914A01C70152
:101460000E94D12C5FEFE51AF50AF3CF80E997E2ED
:1014700002C08AE897E20E94C5226EC180912507CA
:1014800021E0682F621B08F460E0862F61E777E2B5
:101490003BC061E777E237C08091250721E0782FD4
:1014A000721B08F470E0872F69E377E22DC069E3CF
:1014B00077E229C08091250721E0382F321B08F4FC
:1014C00030E0832F67E077E21FC067E077E21BC060
:1014D0008091250721E0582F521B08F450E0852FFA
:1014E0006FEE76E211C06FEE76E20DC080912507B7
:1014F00021E0682F621B08F460E0862F69ED76E238
:1015000003C069ED76E280E00E94312325C180911D
:10151000A504811125C063ED71E040E050E0942FF7
:101520009295907F20E030E0FB01E20FF31F808175
:10153000893638F4E82FF0E0E45CFB4F892F822BEA
:1015400080832F5F3F4F2E30310571F74F5F5F4F24
:10155000625F7F4F4C30510511F781E08093A50405
:10156000D090490185E1D89ED02C112405E10D0DC4
:101570000A3608F009E660911E0670911F068091F8
:101580002006909121060E94FA0FB82E6091530711
:1015900070915407809155070E94FB2BA62E972E21
:1015A000882ED01608F0D4C0ED2CF12CF701E35BA7
:1015B000FC4F908180914A018923B9F0F701E45CE6
:1015C000FB4F6081462F4F7062956F708B2D0E948C
:1015D000232B029720F420E040E060E003C0282D98
:1015E0004A2D692DC7010E945E2BD394DACF9090CB
:1015F000490185E1989E902C112405E1090D0A36D8
:1016000008F009E6EE24EA94F12C901608F0A0C048
:10161000E92DF0E0DF01A35BBC4F9C9180914A0172
:10162000892341F1DF01AA0FBB1FAE0FBF1FAD51D0
:10163000BB4FAC901196CC90119712968C919091D3
:101640005507A99E50011124C99E60011124899F4C
:10165000C0011124B7010E94AD31262FC501B70189
:101660000E94AD31462FC601B7010E94AD31CF01B6
:101670000E945E2B9394C9CFC090490195E1C99E09
:10168000C02C112405E10C0D0A3608F009E6811181
:1016900006C08091AA048F5F8093AA0404C01092B0
:1016A000AA041092A9048091AA04811147C08091D4
:1016B000A904883029F41092A8041092A9043EC00D
:1016C000A82FB0E0AA0FBB1FA156BE4FEC911196F8
:1016D0009C917EE0E79FF0011124ED52FE4FE90F4F
:1016E000F11D90819F3F21F09093A60491E001C0ED
:1016F00090E09093A8048F5F8093A9041FC0EC2C06
:10170000F12CF701E35BFC4F908180914A01892322
:10171000A1F06091AA046C0D2091A804E6EAF4E01F
:1017200080E77FEF90E092130CC00E94FB2B462FC6
:10173000282F672FC7010E945E2BC394C016F8F2B2
:1017400007C03191C31202C08FEF70E09F5FEBCFF3
:1017500081E0093608F080E0909149019F5F909305
:101760004901811134C082E08093060180914B01D0
:1017700081112DC0112351F02AC0109305018091D1
:1017800052078370809304010E94962983E080931E
:1017900006011DC040914E0750914F0760915007C0
:1017A000709151072FB7F8948091AB049091AC04DD
:1017B000A091AD04B091AE042FBF841B950BA60B76
:1017C000B70B4097A105B10510F0109206010E94D9
:1017D000812A9091B004891721F00E94812A809378
:1017E000B00480911B07843009F07DCA83E08093A8
:1017F000E9008091E80082FF76CA8091E80085FFC9
:1018000023C00E94562D81111DC050E2E52EF12CFF
:10181000CE0101966C0109C08091F100D6018D9333
:101820006D01B1E0EB1AF10869F08091E80085FDE7
:10183000F3CF8091E8008B778093E8000E94562DCB
:10184000882399F391E001C090E08091E8008B77C4
:101850008093E800992309F446CA81E08A83E981EC
:101860008E2F90E0FC013197E331F10508F0AEC115
:10187000EC58FF4F0C94D53186E78B838CEE8C832C
:1018800081E016C14EE150E065E571E004C04EE133
:1018900050E06DE671E0CE0103960E94E43195C1FF
:1018A00080912306882309F491C11A8281E08093F4
:1018B00022068CC18B81843008F088C16C816C3029
:1018C00008F084C14D814E3008F080C10E94232B66
:1018D0008E839F837AC12B81243008F077C19C814D
:1018E0009C3008F073C18D818E3008F06FC11E816D
:1018F0006F8140E551E0249F7001259FF00C112479
:10190000ECE19E9FE00CF11C1124E80EF11CE80EA6
:10191000F11CF3E4EF0EF11CC7010E942631612F88
:10192000C70101960E94263150C180912306811182
:101930004DC18B81803F49F0813F49F0823F49F0A2
:10194000833F09F043C1E3E005C0E0E003C0E1E00C
:1019500001C0E2E025E0E29FF0011124E95FFE4FC3
:1019600083818C8380EBA4C08091230681112EC1DA
:101970008B819C81903B08F090EB803F49F0813F48
:1019800049F0823F49F0833F09F020C1E3E005C000
:10199000E0E003C0E1E001C0E2E035E0E39FF001F8
:1019A0001124E95FFE4F9383A8C080912306811123
:1019B0000DC1EB81E93658F0E03FC1F0E13FC1F0E5
:1019C000E23FC1F0E33F09F001C1E3E014C0F0E001
:1019D000CF01880F991FE80FF91FED51FB4F81814F
:1019E0008C8380818D8382818E83EFC0E0E003C091
:1019F000E1E001C0E2E055E0E59FF0011124E95F7C
:101A0000FE4F81818C8382818D831E82DEC0809116
:101A100023068111DBC0EB818D819C81E93658F072
:101A2000E03FB1F0E13FB1F0E23FB1F0E33F09F058
:101A3000CDC0E3E012C02E81F0E0AF01440F551F8E
:101A4000E40FF51FED51FB4F808391832283BDC0CE
:101A5000E0E003C0E1E001C0E2E065E0E69FF00104
:101A60001124E95FFE4F9183828347C08091230652
:101A70008111ACC0EB81E43008F0A8C02E2F30E01B
:101A800075E0E79FF0011124E95FFE4F9081969584
:101A90009695EFEAF1E0419194130CC08C8385E0B8
:101AA000829FF001839FF00D1124E95FFE4F848136
:101AB0008D838BC08F5F8F3071F788C08091230634
:101AC000811184C0EB81E43008F080C0AC81AF307C
:101AD00008F07CC02D8185E0E89FF0011124E95FCA
:101AE000FE4FB0E0A155BE4F8C91982F990F990FE2
:101AF00080818370892B808324831A8260911E06E3
:101B000070911F0680912006909121060E94291550
:101B10005DC080912306811159C081E00E94551556
:101B200054C08CE08B838EE08C838AECE82E84E0BA
:101B3000F82E1CE0A0E0B4E040E050E0B03258F5F0
:101B4000F70160817181C101042E02C0880F991FC5
:101B50000A94E2F7682379238B2F90E091010A2EF3
:101B600001C0220F0A94EAF7672B51F061E070E0A0
:101B70006C0F7D1F860F971FFC013081232B0AC03D
:101B800061E070E06C0F7D1F860F971F2095FC01B0
:101B9000308123232083AF5FA83010F0BF5FA0E027
:101BA0004F5F5F4F4E30510549F61150F2E0EF0E96
:101BB000F11C1111C1CF09C00E944D2081E09B8111
:101BC000911101C080E08093E2041A8280911B078A
:101BD000843009F088C81091E9001F709091EC00E2
:101BE000892F817090FD80E8182B82E08093E900B6
:101BF0008091E80080FF0DC040E050E060E270E0BE
:101C0000CE0101960E9462208091E8008E77809339
:101C1000E8001F701093E90066C8F9BC19BD09B44B
:101C200000FEFDCF8091D8008F7D8093D8008091F9
:101C3000E00082608093E0008091E00081FDFCCFB5
:101C40000E944D200C947F0690910A0492FF0DC0D3
:101C5000282F2871283019F4877F846006C0282F28
:101C60002471243011F48B7F886093FF0DC0282FDE
:101C70002871283119F4877E846106C0282F2471C9
:101C8000243111F48B7E886120910B0420FF0DC05C
:101C9000382F3871383019F4877F816006C0382FAB
:101CA0003171313011F48E7F886021FF0DC0282FF3
:101CB0002871283119F4877E816106C0282F21718F
:101CC000213111F48E7E886194FD877E0895F89409
:101CD000E82FE295EF70F0E031A1282F2F7081E01E
:101CE00090E001C0880F2A95EAF7982F90959323EA
:101CF00091A392A1892B82A378940895CF93DF9327
:101D00000E944F2BEC018238910559F1A0F48133E8
:101D1000910509F473C040F48932910509F467C054
:101D20008A9709F472C084C08533910509F458C0BC
:101D3000C997B9F07DC0833E910571F138F4803EBA
:101D40009105B1F0823E910511F172C0863E910578
:101D5000B9F1873E9105C9F1843E910509F068C04B
:101D600024C080910A0480FD5DC081FD5BC060C01D
:101D700080910A0480FD50C080910B0480FF36C121
:101D800080910A0484FD30C1C3EED0E02FC1809160
:101D90000A0482FF2BC1F4CF80910A0482FD3FC068
:101DA00080910B0480FD3EC0EBCF80910B0481FF3E
:101DB0001DC180910A0484FD17C1C7EED0E016C191
:101DC00080910A0483FF12C1F4CF80910A0483FD3D
:101DD0002CC080910B0481FFECCFC4EED0E006C193
:101DE00080910A0485FF02C1C9E2D0E0FFC0809162
:101DF0000A0485FFFBC0C5E3D0E0F8C080910A0467
:101E000086FFF4C0CAE2D0E0F1C080910A0486FFE8
:101E1000EDC0C1E3D0E0EAC0C9E3D0E0E7C0C2EE64
:101E2000D0E0E4C0C0EED0E0E1C0C6EED0E0DEC05D
:101E3000C11582E5D80708F066C0C11591E5D9073C
:101E400028F0DC2FCC27C16FD06AD0C0C83ED105A6
:101E500060F5C03ED10508F0C9C0C83AD105B0F45C
:101E6000C53AD10540F0C55AD0E0C254DC4FC88114
:101E7000D0E0D064BBC0C130D10509F4B7C008F4CC
:101E8000B3C0C430D10508F4AFC0B0C0CF3BD1055A
:101E900008F0AAC0C85AD0E0CC0FDD1FCF53DC4FEA
:101EA0000990D881C02DD464A1C0C11520E5D20706
:101EB000E0F0CE0174E0969587957A95E1F783700E
:101EC0009C2F937021E030E002C0220F331F9A95BF
:101ED000E2F73C68382BCF70C695C69580E2C89F64
:101EE000E0011124C22BD32B81C0C11580E4D80797
:101EF00018F0DF70D06A7AC0CE019A9581159F41A3
:101F000008F474C071C0C11586E5D807F0F5C11595
:101F100095E5D90750F08C2F0E94240E8F71C82FA1
:101F2000D0E0DC2FCC27D06261C0C11524E5D207F8
:101F300028F0DC2FCC27C46FD06A58C09E012370D4
:101F400033278C2F86958695C115D34578F4C1E04B
:101F5000D0E002C0CC0FDD1F2A95E2F720E2829F7D
:101F6000C0011124C82BD92BDC6840C0C1E0D0E0EF
:101F700002C0CC0FDD1F2A95E2F720E2829FC0014C
:101F80001124C82BD92BDA6831C0C1152AE5D20734
:101F9000E8F4C11589E5D80780F08C2F8F700E9476
:101FA000240E94E0D695C7959A95E1F7CF70D0E0CE
:101FB000DC2FCC27D069C82B19C0C11598E5D907EB
:101FC00098F0DC2FCC27C06FD06A10C0CE0190569D
:101FD0008115904248F48D2F8F710E94240EDD27C9
:101FE000D0628F71D82B02C0C0E0D0E0CE01DF916B
:101FF000CF910895CF92DF92EF92FF926C01EE2481
:10200000FF24C114D104E104F10421F0C701B60199
:1020100020E101C020E0C72ED82EE92EFF24C114F4
:10202000D104E104F10419F0285FC701B6016B0186
:102030007C0154E0F694E794D794C7945A95D1F76D
:10204000C114D104E104F10419F02C5FC701B601F9
:102050006B017C0142E0F694E794D794C7944A95CB
:10206000D1F7C114D104E104F10419F02E5FC701C6
:10207000B601DC01CB01B695A79597958795892B7D
:102080008A2B8B2B09F02F5F822FFF90EF90DF9030
:10209000CF900895882311F084EC01C084E88093E8
:1020A000BC0080E49FE1A0E0B0E02091BC0027FDEF
:1020B00008C00097A105B10561F00197A109B10918
:1020C000F4CF892B8A2B8B2B21F08091BB0090E0E1
:1020D00008958FEF9FEF0895DB01FC0120E030E0D1
:1020E00084E82A173B071CF591919093BB008093DD
:1020F000BC0040E45FE160E070E09091BC0097FDBF
:102100000AC0411551056105710599F04150510909
:1021100061097109F2CF452B462B472B51F0909165
:10212000B900987F983229F42F5F3F4FDACFC90169
:1021300008958FEF9FEF089584E98093BC0080910C
:10214000BC0084FDFCCF0895262F94EA9093BC0038
:1021500040E45FE160E070E09091BC0097FD0AC050
:10216000411551056105710549F041505109610959
:102170007109F2CF452B462B472B19F48FEF9FEFB8
:1021800008959091B900987F983011F09031B1F78F
:10219000682F660F622B6093BB0084E88093BC00BD
:1021A00080E49FE1A0E0B0E02091BC0027FD08C0E2
:1021B0000097A105B10511F30197A109B109F4CF69
:1021C000892B8A2B8B2BD1F28091B900887F8831A3
:1021D00011F0803499F680E090E00895FF920F931B
:1021E0001F93CF93DF931F92CDB7DEB78B01FC0116
:1021F000F1808DE1898360E08F2D0E94A41097FD0E
:102200001AC061E070E0CE0101960E946C1097FD4B
:1022100012C061E08F2D0E94A41097FD0CC080E0D9
:102220000E944A1097FD07C0F80180830E949C100D
:1022300021E090E001C0282F822F0F90DF91CF91F5
:102240001F910F91FF9008950F931F93CF93DF93EA
:10225000EB018A0160E00E94A41097FD09C0B8015B
:10226000CE010E946C10EC0197FF0E949C10CE01E1
:10227000DF91CF911F910F910895CF93DF9300D0FD
:102280001F92CDB7DEB720914C0130914D014091A6
:102290004E0129833A834B8343E050E0BE016F5FD8
:1022A0007F4FFC0180810E9424110F900F900F90AE
:1022B000DF91CF9108958F929F92AF92BF92CF926C
:1022C000DF92EF92FF920F931F93CF93DF93CDB7DF
:1022D000DEB729970FB6F894DEBF0FBECDBF7C01E5
:1022E000B42EA52E962E872E690160E0FC01808118
:1022F0000E94A41097FD22C019821A8286E0800FE6
:102300008B831C820D838E829F82A886B98669E0AA
:1023100070E0CE0101960E946C1097FD0FC0B801CD
:10232000C6010E946C1097FD09C00E949C10C70155
:102330000E943D1197FD02C0912F01C0082F802FF0
:1023400029960FB6F894DEBF0FBECDBFDF91CF91B7
:102350001F910F91FF90EF90DF90CF90BF90AF90C3
:102360009F908F9008950F931F93CF93DF9300D08A
:1023700000D0CDB7DEB709831A832B833C8304E0FA
:1023800010E09E012F5F3F4F0E945B110F900F9056
:102390000F900F90DF91CF911F910F910895EF92C1
:1023A000FF920F931F93CF93DF9300D000D0CDB750
:1023B000DEB77C01162F19821A821B821C829E01B5
:1023C0002F5F3F4F48E259E060E87FEBFC018081DE
:1023D00091810E94BA2097FD36C089819A81AB8194
:1023E000BC8141E050E060E070E0F701028004C091
:1023F000440F551F661F771F0A94D2F7112329F047
:10240000842B952BA62BB72B08C040955095609533
:10241000709584239523A623B72389839A83AB835E
:10242000BC8309811A812B813C8148E259E060E834
:102430007FEBF701808191810E94B3111816190674
:1024400014F480E090E00F900F900F900F90DF91C8
:10245000CF911F910F91FF90EF9008950F931F93CD
:10246000CF93DF9300D01F92CDB7DEB78C01BE01B2
:102470006D5F7F4F0E94EE1097FD2EC08B81F8019B
:102480009281981739F18283982F9370923039F0A6
:10249000869586958370823081F460E001C061E0AA
:1024A000F801838194810E94CF1197FD15C087E7C1
:1024B0008A83AE014E5F5F4F05C086E68983AE0119
:1024C0004F5F5F4F63E2F80181810E948E201816F2
:1024D000190614F480E090E00F900F900F90DF91B8
:1024E000CF911F910F9108950F931F93CF93DF9377
:1024F0001F92CDB7DEB78C01BE016F5F7F4F0E9488
:10250000EE1097FD12C09981292F2370F801838165
:102510009481211102C060E001C061E00E94CF11EE
:102520001816190614F480E090E00F90DF91CF9117
:102530001F910F910895CF92DF92EF92FF920F9328
:102540001F93CF93DF9300D000D01F92CDB7DEB79B
:102550006C018FEFF6018283E380F480F701428102
:102560005381648175814D5F534F6F477044808103
:1025700091811D8201E010E09E012B5F3F4F0E9480
:102580005B1197FD3CC060E0C7010E94CF1119822A
:102590001A821B821C829E012F5F3F4F48E059E048
:1025A00060E87FEBF701808191810E94BA2097FD5E
:1025B00026C001E010E020E030E0F701028004C016
:1025C000000F111F221F331F0A94D2F789819A81AD
:1025D000AB81BC81082B192B2A2B3B2B09831A8337
:1025E0002B833C8348E059E060E87FEB8081918158
:1025F0000E94B3111816190614F480E090E00097B9
:10260000C9F4F6012081222369F0213099F485E094
:102610008983AE014F5F5F4F6AE1F60181810E94BD
:102620008E2003C0C6010E9474121816190614F4F5
:1026300080E090E00F900F900F900F900F90DF913F
:10264000CF911F910F91FF90EF90DF90CF90089561
:102650000F931F93CF93DF9300D000D000D0CDB75E
:10266000DEB71092BA0080E28093B8001092BC00EE
:102670008FE19EE40197F1F700C000000B9A139AD6
:102680009FEF20E782E0915020408040E1F700C0BA
:1026900000008CE08E8301E010E09E012A5F3F4F36
:1026A0004AEF50E360E87FEB8CE391E00E945B111E
:1026B00097FD4CC01D829E012B5F3F4F42E154E3CA
:1026C00062ED7FEB8CE391E00E945B1197FD3EC0D1
:1026D00019821A821B821C829E012F5F3F4F48E0A5
:1026E00054E362ED7FEB8CE391E00E94BA2097FD0A
:1026F0002DC009811A812B813C81016009831A83D5
:102700002B833C8348E054E362ED7FEB8CE391E064
:102710000E94B31197FD1AC004E813E323E030E0F0
:1027200040E050E360E87FEB8CE391E00E94B3115E
:1027300097FD0CC004E813E324E030E048E450E9DE
:1027400060E87FEB8CE391E00E94B31187E391E0B6
:102750000E949B1282E491E00E949B128DE391E023
:102760000E949B1280914F0190915001A0915101C4
:1027700089839A83AB8343E050E0BE016F5F7F4F54
:1027800080913C010E94241104E610E087E391E06F
:102790000E9474128FE19EE40197F1F700C00000DF
:1027A0000150110999F726960FB6F894DEBF0FBEB7
:1027B000CDBFDF91CF911F910F9108957F928F929E
:1027C0009F92AF92BF92CF92DF92EF92FF920F93C0
:1027D0001F93CF93DF9382EFC82E83E0D82E95E826
:1027E000E92E91E0F92E8601C0E0D0E0712CAA24F8
:1027F000A394B12CB701D7018C91F894E82FE295FE
:10280000EF70F0E021A18F70A50102C0440F551FA9
:102810008A95E2F7CA01922F982B91A392A18095F5
:10282000892382A3789400C0E1E9F1E020E030E060
:10283000812C912C4191842F82958F7090E0DC0146
:1028400090968C9190E04F7002C0959587954A952F
:10285000E2F780FD08C0C501022E02C0880F991F53
:102860000A94E2F702C080E090E0882A992A2F5F5C
:102870003F4F2E303105F1F6BFEFEB1AFB0AFB019B
:1028800080810E94670ECB30D10519F0F0E5FA95F2
:10289000F1F7D8018D919C9111978816990621F036
:1028A0008D929C9281E001C080E0782A21960E5F93
:1028B0001F4FCC30D10509F09DCF772049F081E042
:1028C000809326060E94751B90932506809324060C
:1028D00080912606882311F1209124063091250647
:1028E0004FB7F8948091AB049091AC04A091AD04E3
:1028F000B091AE044FBF821B930B069778F0EAECC1
:10290000F4E08AE094E0D6012D913D916D01219390
:1029100031938A179B07B9F71092260680912206F9
:102920008823D9F1BFEFE0E7F2E0B150E040F0409A
:10293000E1F700C0000081E08093E00080E2809336
:10294000D8001092C9008FE097E20197F1F700C01C
:1029500000001DBA109268001CBC10BE1FBA109275
:102960007A0010926E0010926F0010927000109218
:1029700071001092C9001092BC0011B814B817B8B9
:102980001AB81DB810BA12B815B818B81BB81EB8C6
:1029900011BA0E9428130C945278809127069091C6
:1029A0002806883EA3E09A076CF010922806109241
:1029B000270682E491E00E942E128DE391E00E94AE
:1029C0002E1205C001969093280680932706872D26
:1029D000DF91CF911F910F91FF90EF90DF90CF90FB
:1029E000BF90AF909F908F907F90089581E08093EB
:1029F000E00080E28093D800E9ECF0E010828FE004
:102A000097E20197F1F700C000001DBA109268002C
:102A10001CBC10BE1FBA10927A0010926E00109269
:102A20006F00109270001092710010821092BC0022
:102A300011B814B817B81AB81DB810BA12B815B82A
:102A400018B81BB81EB811BA0E9428130C94007E47
:102A5000089520912306211110C00E94FA0F84309E
:102A600060F495E0989FF0011124E95FFE4FA2E524
:102A7000B7E001900D929A95E1F7089590912306A1
:102A8000911112C080930A0180930F018093140169
:102A90008093190160911E0670911F068091200697
:102AA000909121060C942915089544E150E063E8C3
:102AB00075E0882361F087E091E00E9416314BE3D6
:102AC00051E067E975E083EE94E00C94163187E0FD
:102AD00091E00E94F8304BE351E067E975E083EE46
:102AE00094E00C94F83080915207837029F08C693F
:102AF000809352071092060181E080932306089587
:102B00008F929F92AF92BF92CF92DF92EF92FF92FD
:102B10000F931F93CF93DF9300D000D01F92CDB7B8
:102B2000DEB7FC018081918123813481232B31F038
:102B30009F3F31F491E08F3F19F403C091E001C051
:102B400090E090FD19C57F0185E0DE0111960190AE
:102B50000D928A95E1F7F701228189819A812223DA
:102B600049F00E94DC1C182F682F89819A810E94ED
:102B70007E1D03C00E94521D182F69817A81812F0A
:102B80000E944F2B8C018091E204811132C2011509
:102B9000FCE51F0731F168F4003E110509F45FC040
:102BA000043E110509F460C00932110509F08EC117
:102BB0000EC00A3C3CE5130769F10B3C8CE5180795
:102BC000C1F0033C9CE5190709F080C136C0809133
:102BD0002A06882309F44CC080912906882309F429
:102BE00047C0F7018281882309F403C20E9473154C
:102BF00000C2F7018281882309F4FBC18091550747
:102C0000E4ECF1E092919817B0F001E0EE3BF007B0
:102C1000C9F722C0F7018281882309F4EAC18091B3
:102C20005507EEEBF1E024EC31E02E173F07A1F061
:102C300091918917D0F7892F0FC0F70182818823DE
:102C400009F4D7C180915507811103C080914701D4
:102C500003C08093470180E00E943E15CAC1F7017E
:102C6000828180932A0604C0F7018281809329061D
:102C7000F7018281882309F48EC110922B0602305D
:102C8000FCE51F0708F471C106312CE5120738F086
:102C900098012B5F3C452930310508F066C10E9440
:102CA000071C90930B0480930A0400313CE5130742
:102CB00009F4C3C008F041C008309CE5190709F4C5
:102CC0009AC0F0F40430FCE51F0709F487C068F4EB
:102CD00002303CE5130709F477C003301C4509F0C6
:102CE000E5C080910A04826076C006309CE5190731
:102CF00009F46EC008F07BC080910A0488606BC044
:102D00000C30FCE51F0709F485C068F40A303CE587
:102D1000130709F474C008F079C00E944D20809117
:102D20000A04806858C00E309CE5190709F476C083
:102D300008F07FC080910A048BC00C3FFCE51F07A0
:102D400009F44FC018F503313CE5130709F47DC0C1
:102D500078F401319CE5190709F473C002311C4570
:102D600009F0A4C00E944D2080910A048F7733C0DF
:102D70000531FCE51F0709F472C008F486C00B3F5B
:102D80001C4509F093C080910B043EC001158DE5F0
:102D9000180709F45FC058F40E3FECE51E0709F46C
:102DA00044C008F43FC080910B0482602DC0023003
:102DB0002DE5120709F475C008F45DC003301D4508
:102DC00009F074C060E06EC080910A04816003C0A5
:102DD00080910A04806180930A0468C080910A048B
:102DE00011C080910B04826080930B045FC08091BE
:102DF0000A048062F0CF80910A048064ECCF809155
:102E00000A0488608460E7CF8160EECF80910A0475
:102E10008E7FE1CF80910A048D7FDDCF80910A04FF
:102E2000877FD9CF80910B0418C080910B048D7FD0
:102E3000DBCF80910A048F7ECECF80910A048F7DF4
:102E4000CACF80910A048F7BC6CF80910A04877F06
:102E50008B7FC1CF80910B048D7F8E7FC5CF8091FA
:102E60000A0482FB222720F991E0922790FB82F945
:102E700090FB83F9B0CF80910B04982F90959170BF
:102E80008E7F892B90FB81F9AFCF0E944D208091DE
:102E90000A0487FB222720F991E0922790FB87F90B
:102EA0009ACF61E08EE090E00E94263160910A04A2
:102EB00010910B0484E090E00E942631612F81E2A2
:102EC00090E00E9426310E944D2093C0043FFCE513
:102ED0001F07A1F406E221EE40EE64EF7CE50AC094
:102EE000083D9CE5190709F0C3CE06E221EE41EE4C
:102EF00068ED7CE5C7010E948D2A7BC0053F2CE56B
:102F00001207A0F4093D3CE5130731F407E225EE72
:102F100045EE69ED7CE5EECF0A3D8CE5180701F73B
:102F200008E221E045EE6AED7CE5E4CF063FECE502
:102F30001E0731F406E221EE42EE66EF7CE5DACFC1
:102F4000063FFCE51F0730F407E225EE44EE65EF8F
:102F50007CE5D0CF073F2CE5120709F089CE07E2C8
:102F600025EE46EE67EF7CE5C5CF06313CE513075D
:102F700019F58091F1068A7A91E009F490E0909336
:102F80002C06882311F065E301C069E28DE296E02A
:102F90000E94D21B0EC006311C4509F048C080912A
:102FA0002C06882309F4E6C265E38DE296E00E94D0
:102FB000AA1B0E94881C1DC09801235C3C4524313B
:102FC0003105B8F001159CE5190731F00F3D1C459E
:102FD00071F50E94181C0DC00E944D20FFE70AE108
:102FE00016E0F15000401040E1F700C000000E94E0
:102FF000F6148091EE06877009F4BEC2F701828153
:10300000882309F4B9C282E00F900F900F900F90BF
:103010000F90DF91CF911F910F91FF90EF90DF9074
:10302000CF90BF90AF909F908F900C94E41DF701CC
:1030300000811181882349F0C8010E94DC1CD82E30
:10304000682FC8010E947E1D04C0C8010E94521D45
:10305000D82EB8018D2D0E947E0E8C01982EF7017E
:10306000B280A580A2949FE0A9228091EE0687708D
:1030700099F0BB2089F0812F807F803421F080E29D
:10308000800F883048F082E00E94E41D8091EE06B7
:103090008770DD24D3948111D12CC12EC2948FE08E
:1030A000C8228C2D90E08C30910508F035C2FC01CF
:1030B000E957FF4F0C94D531812F807F1F708823F3
:1030C00011F01295107FBB20B9F0112309F40FC243
:1030D00080E2800F883010F0911006C08091F106D8
:1030E000182B1093F10605C08091F006182B109351
:1030F000F0060E94881CFBC1802F0E94852F11239F
:1031000009F40AC2005E1095083010F0911006C054
:103110008091F10618231093F10605C08091F00606
:1031200018231093F0060E94881CF6C1812F807F1F
:103130001F70803211F01295107F992021F0F1E07C
:103140009F16E1F02AC0BB2081F08091F206AA20F0
:1031500051F001E0A01207C0182B181709F4DCC1C8
:103160001093F206D9C1812B10C0AA2021F021E0D2
:10317000A21609F4D1C10E94821C27C0BB2041F0D5
:1031800035E03A1508F4C8C1812F0E947B2FC4C1D5
:1031900084E08A1508F4C0C118C0BB2049F0AA20F9
:1031A00099F3F701858180FFA2C18F708583ECCFF1
:1031B000AA2059F0093309F0ACC1FFEF13EF21E069
:1031C000F15010402040E1F7A2C1812F0E94702FE2
:1031D000A3C1812F86958695837019F0813059F0AF
:1031E0009BC1BB2019F0C801937002C080E090E041
:1031F0000E946B2A97C1BB2019F0C801937002C0CE
:1032000080E090E00E94552A8DC1812F837009F0E3
:1032100069C0B11085C1902F929596959770990FBE
:10322000990F802F8F70882E912CA12CB12C092EF4
:1032300004C0880C991CAA1CBB1C0A94D2F704FF7A
:1032400012C04FE050E060E070E004C0440F551F32
:10325000661F771F9A95D2F7DB01CA01809590957A
:10326000A095B09503C080E090E0DC01169516951E
:10327000412F4370423019F1C8F40091F3061091C8
:10328000F4062091F5063091F606413059F0882970
:103290009929AA29BB29BC01CD016023712382236E
:1032A00093230AC0802A912AA22AB32ABC01CD0105
:1032B000682979298A299B290E941E1E31C18829E3
:1032C0009929AA29BB290091F3061091F4062091AF
:1032D000F5063091F606BC01CD01602771278227E3
:1032E0009327EACFBB2019F0812F817001C086950A
:1032F000882309F415C1902F929596959770990F90
:10330000990F802F8F70882E912CA12CB12C092E13
:1033100004C0880C991CAA1CBB1C0A94D2F704FF99
:1033200012C04FE050E060E070E004C0440F551F51
:10333000661F771F9A95D2F7DB01CA018095909599
:10334000A095B09503C080E090E0DC01169516953D
:10335000412F43704230D9F068F500911E0610915C
:103360001F062091200630912106413059F088290E
:103370009929AA29BB29BC01CD016023712382238D
:1033800093231EC0802A912AA22AB32A13C0882917
:103390009929AA29BB2900911E0610911F06209188
:1033A000200630912106BC01CD01602771278227BC
:1033B000932706C0BC01CD01682979298A299B2958
:1033C0000E94A91DADC01F70BB2039F0812F0E9443
:1033D000FD1D802F0E947B2FA3C0802F0E94702F85
:1033E000812F0E94BF1D9CC0802F32EF931609F4DD
:1033F00040C0391538F090EF991661F0E1EF9E1654
:1034000099F170C0F3EF9F16D9F124EF921609F4E9
:103410004EC068C0BB2019F134E03A1508F47CC0F6
:103420001F7181E090E0A0E0B0E0AC01BD0104C0FC
:10343000440F551F661F771F1A95D2F780911E06FD
:1034400090911F06A0912006B09121068A019B0150
:10345000082719272A273B27C901B80125C025E0DD
:103460002A1508F459C0DCCFBB2029F0812F8F71B9
:103470002CC0BB20D9F3812F8F710E94BF1D4CC07F
:10348000BB2079F01F7181E090E0A0E0B0E0BC01CA
:10349000CD0104C0660F771F881F991F1A95D2F7B8
:1034A00003C060E070E0CB010E94A91D35C0BB20C5
:1034B00079F01F71812F0E94FD1D38E0139FC0011C
:1034C000112483608093EE06812F0E94FD1D24C08D
:1034D00081E00E94E41D81E08A15F0F482E00E9400
:1034E000E41D1AC0BB2039F0AA2009F4BFCF802FF9
:1034F0000E94E12F11C0AA2009F4BDCF893349F4FD
:103500009FEFE3EFF1E09150E040F040E1F700C0C1
:103510000000802F0E94852F88EF8C0D843010F4DE
:103520000E94812ADD2041F18091EE0680FD24C0B9
:10353000F70112828595859585950E94FD1DC7012D
:103540000E9480158091EE068595859585950F9052
:103550000F900F900F900F90DF91CF911F910F91CF
:10356000FF90EF90DF90CF90BF90AF909F908F90A3
:103570000C94BF1D69E219CD0F900F900F900F9022
:103580000F90DF91CF911F910F91FF90EF90DF90FF
:10359000CF90BF90AF909F908F90089508958091A5
:1035A000F806089580E00895CF93DF9300D01F922E
:1035B000CDB7DEB790911B07943011F589837B83DB
:1035C0006A839093E9008FEF9091E800815095FD18
:1035D00006C09AE69A95F1F700C08111F5CF809167
:1035E000E80085FF0DC040E050E063E070E0CE01F0
:1035F00001960E9462208091E8008E778093E80017
:103600000F900F900F90DF91CF910895BC0184E04F
:103610000C94D41ABC0183E00C94D41ACF93DF939A
:1036200020914801222339F020910A0427FF03C08A
:1036300060E224E002C068E021E02093E9002FEF7F
:103640003091E800215035FD06C03AE63A95F1F791
:1036500000C02111F5CF2091E80025FF1DC0EC012D
:1036600080914801811105C040E050E068E070E0C1
:1036700003C070E040E050E0CE010E9462208091E3
:10368000E8008E778093E80080E2FE01A9EFB6E0C3
:1036900001900D928A95E1F7DF91CF91089578948A
:1036A0001F920F920FB60F9211248F939F93AF9397
:1036B000BF938091AB049091AC04A091AD04B09104
:1036C000AE040196A11DB11D8093AB049093AC0490
:1036D000A093AD04B093AE04BF91AF919F918F9131
:1036E0000F900FBE0F901F9018952FB7F8948091F0
:1036F000AB049091AC04A091AD04B091AE042FBF87
:1037000008951F920F920FB60F9211248F939F93DB
:10371000AF93BF9380910E04811113C08091AB04CD
:103720009091AC04A091AD04B091AE044196A11D5E
:10373000B11D8093AB049093AC04A093AD04B093FF
:10374000AE04BF91AF919F918F910F900FBE0F90DC
:103750001F901895209148012223C9F020910A0456
:1037600027FF15C0262F2695269526952E31C8F4BD
:10377000FC01E20FF11D677081E090E001C0880F4D
:103780006A95EAF780959281892382830895FC01E6
:1037900006962281621301C012823196E817F9075A
:1037A000C1F70895209148012223C1F020910A0415
:1037B00027FF14C0262F2695269526952E3130F505
:1037C000FC01E20FF11D677081E090E001C0880FFD
:1037D0006A95EAF79281892B82830895FC013296DB
:1037E0002FEF30E04191641789F02F3F19F4411118
:1037F00001C0232F3F5F3630A9F72F3F39F0FC017E
:10380000E20FF11D27FDFA95628308950895CF9385
:1038100084E090E00E940831C82F81E290E00E948D
:1038200008312C2F30E0A901582BCA01CF910895FF
:103830006BEE7EEF80E090E00E94443160E082E039
:1038400090E00E94263160E083E090E00E94263103
:103850001092F3061092F4061092F5061092F606F6
:1038600060E084E090E00E94263160E081E290E038
:103870000E94263160E085E090E00E94263160E001
:1038800086E090E00E9426316FEF87E090E00E9492
:10389000263140E050E0BA0188E090E00E943831E3
:1038A00060E08DE090E00E94263140E050E0BA01F7
:1038B00088E190E00E94383160E087E190E00E946A
:1038C000263140E050E0BA018CE190E00E943831AE
:1038D00060E080E290E00E94263140E050E0BA01D2
:1038E00088E190E00E94383140E050E0BA018FE07A
:1038F00090E00E94383140E050E0BA0183E190E06E
:103900000C9438318091F20681111092F2060895DC
:103910009091F1068091F006892B2091EF06982F67
:10392000922B90932D068091F2068823D9F0892B53
:1039300080932D0680914801882331F080910A04FC
:1039400087FF02C08EE101C086E0EFE2F6E090E082
:10395000815028F021912223D9F39F5FF9CF911153
:103960000E94821CE0910C04F0910D043097A9F0A4
:1039700080914801882359F080910A0487FF07C08D
:1039800080912D0680932E0685E080932D0602807F
:10399000F381E02D8DE296E00994089580E090E0B7
:1039A0000E946B2A80E090E00E94552A1092F00657
:1039B0001092EF060C94881CBF92CF92DF92EF9288
:1039C000FF920F931F93CF93DF938C01C0901E063D
:1039D000D0901F06E0902006F09021068091F3061B
:1039E0009091F406A091F506B091F606C82AD92A5E
:1039F000EA2AFB2ACFE1D0E0D701C6010C2E04C091
:103A0000B695A795979587950A94D2F780FD04C03F
:103A1000219790F7B12C07C0BC2EB8018C2F0E94C3
:103A20007E0E0197A9F38B2DDF91CF911F910F91FE
:103A3000FF90EF90DF90CF90BF900895CF93DF93EA
:103A4000EC010E94DC1CBE010E947E0EDF91CF9132
:103A500008950E941E1D292F2F70E92FE295EF7007
:103A60004E2F50E0FA013297EE30F105B8F4ED56E2
:103A7000FF4F0C94D531803F99F018F4883E70F4D4
:103A80000FC0843F59F40CC0883E50F0813F31F4A0
:103A900007C0822F869586958695089580E00895C3
:103AA00081E008952EE0929F800D1124682F669585
:103AB00066956695982F977085E0689FB0011124F0
:103AC00040E050E080E0FB01E40FF51FEB57F94FB9
:103AD000208130E0092E02C0369527950A94E2F73E
:103AE00021703327042E01C0220F0A94EAF7822B9B
:103AF0004F5F5F4F4530510531F708952EE0929F9B
:103B0000800D1124E82FE695E695E695877051E043
:103B100001C0550F8A95EAF785E0E89FF00111246E
:103B2000EB57F94F20E030E070E04081CB01022EEE
:103B300002C0969587950A94E2F781708195842753
:103B40008523842781932F5F3F4F2530310569F707
:103B50000895CF92DF92EF92FF926B017C010E9459
:103B60002915C0921E06D0921F06E0922006F09200
:103B70002106FF90EF90DF90CF900C94CE1C0F9316
:103B80001F9341E050E060E070E004C0440F551F17
:103B9000661F771F8A95D2F740955095609570956E
:103BA00080911E0690911F06A0912006B0912106DB
:103BB0008A019B01082319232A233B23C901B80149
:103BC0001F910F910C94A91D2091EE0680958223E0
:103BD0008093EE06982F977079F430E0482F082EE6
:103BE000000C550B2417350739F08595859585957B
:103BF0000E94BF1D1092EE0608950F931F9341E09F
:103C000050E060E070E004C0440F551F661F771F4E
:103C10008A95D2F780911E0690911F06A0912006EA
:103C2000B09121068A019B01082B192B2A2B3B2BD3
:103C3000C901B8011F910F910C94A91D6093F3065F
:103C40007093F4068093F5069093F6060C94CE1CC0
:103C50008091840690915306891719F08F5F8770C1
:103C6000FBCF08950F931F93CF93DF93809152065C
:103C700082958F7009F05DC080914F06882309F40A
:103C800058C0809184061091530660914D06709142
:103C90004E06C0915006D091510691E06F3F09F059
:103CA00090E0292F06E0811709F443C0209721F006
:103CB0007F3F21F030E003C031E001C0322F90E0BF
:103CC00030FD34C0089FF001099FF00D1124DF0181
:103CD000AC5AB94F11963C911197371327C03C91BC
:103CE000361324C012963C91129731111FC01396BF
:103CF0004D915C9114974C1B5D0B483C5105B0F401
:103D0000809152068F70806180935206E75AF94F76
:103D100080818F70806180838DE496E00E948015A1
:103D2000DF91CF911F910F910C94281E01968770FF
:103D3000BACFDF91CF911F910F9108959F92AF92CB
:103D4000BF92CF92DF92EF92FF920F931F93CF9388
:103D5000DF93CDB7DEB761970FB6F894DEBF0FBE25
:103D6000CDBF8C0185E0F801DE011D9601900D921A
:103D70008A95E1F7F80190818181E28030914D06CA
:103D800060914E06409150065091510641155105E3
:103D900031F06F3F31F421E03F3F19F403C021E0DF
:103DA00001C020E0F22FF1709F2E20FD23C1F80109
:103DB000C380D4802DE4A22E26E0B22EF0904F06D0
:103DC000F601E41BF50BFF2009F4CEC0209152064A
:103DD000E83CF10508F099C0422F407F09F051C03E
:103DE000681311C039130FC0FE2CE1100CC02F70E6
:103DF000206120935206C5010E94801580915206D1
:103E0000F801858337C1CD2831F08F3F31F421E0AF
:103E10009F3F19F403C021E001C020E020FD03C052
:103E200021E02E2502C020E030E0F22FF170FF2EBD
:103E300020FF1DC0209184064091530656E02417B0
:103E400009F4F6C030E0529FF001539FF00D1124A9
:103E5000EC5AF94F6181861306C06081961303C046
:103E60006281E61204C02F5F3F4F2770E8CFFE2C1F
:103E7000EE2009F4FFC080915206816080935206C3
:103E800050C0681307C0391305C0E11003C0F80122
:103E900025838DC09D878E878D859E850E94291DD7
:103EA000882369F1EE2059F120915206822F8295E4
:103EB0008F7090E0029774F080914D0690914E06BD
:103EC00098878F831986DB86CA862C87CE01079652
:103ED0000E94801586E0F801ADE4B6E001900D92F5
:103EE0008A95E1F70E94321E0DC06817E1F09D87A8
:103EF0008E878D859E850E94291D81111EC0C80157
:103F00000E948015FF24F394B5C0422F407F69F7CB
:103F10008DE496E00E94801586E0F50111928A9565
:103F2000E9F7F12CA7C03913E2CFE110E0CFF80197
:103F30002583C8010E94801557C0EE2001F320910F
:103F40005206822F82958F7090E002971CF280912A
:103F50004D0690914E069A8389831B82DD82CC8226
:103F60002E83CE010196B4CFE83CF105E8F5FE2C96
:103F7000EE2029F2681327C0391325C0209152067C
:103F800020FD18C0822F82958F70482F50E0411578
:103F9000510581F0F80125834F30510541F08F5FC5
:103FA000982F9295907F822F8F70892B8583C801DF
:103FB0000E94801586E0F801ADE4B6E001900D9214
:103FC0008A95E1F757C09D878E878D859E850E94D3
:103FD000291D81117FCF8091520681608093520606
:103FE000C8010E94801546C086E0F50111928A95AD
:103FF000E9F740C0EE2009F482CF9D878E878D853A
:104000009E850E94291DF82E882309F478CF86E02A
:10401000F801ADE4B6E001900D928A95E1F7809148
:104020004D0690914E060E941E1D0E94321E22C017
:104030009D878E878D859E850E941E1D292F229526
:104040002F70223028F49F7039F0811105C00BC009
:10405000243028F49F7049F4805E883020F0C80135
:104060000E9480159F2CF92C05C0F8019581907F46
:1040700099F7F9CF8F2D61960FB6F894DEBF0FBE7A
:10408000CDBFDF91CF911F910F91FF90EF90DF9007
:10409000CF90BF90AF909F9008951092F1068091BD
:1040A0004801882331F080910A0487FF02C08EE125
:1040B00001C086E0EFE2F6E0DF011D928A95E9F7A4
:1040C0000C94CE1CEF92FF920F931F93CF93DF932C
:1040D0007C018B010E94562D811119C0E701011549
:1040E0001105A1F08091E80085FD0AC08091E800EB
:1040F0008E778093E8000E94562D882381F307C0B5
:1041000089918093F10001501109E9CF80E0DF919E
:10411000CF911F910F91FF90EF9008950F931F93F0
:10412000CF93DF931F92CDB7DEB769838A0160E03A
:104130000E94A41097FD13C061E070E0CE010196CB
:104140000E946C1097FD0BC061E070E0C8010E94F6
:104150006C108C0197FD05C00E949C1002C0282F96
:1041600002C0202F912F822F0F90DF91CF911F91AE
:104170000F910895CF92DF92EF92FF920F931F93CA
:10418000CF93DF93CDB7DEB72F970FB6F894DEBF8E
:104190000FBECDBF7C0189011A861B861C861D8639
:1041A00019821A8286E0D82EDB8281E08C8384E03B
:1041B0008D837E836F835887498749E050E0BE0135
:1041C0006F5F7F4FF70180810E94241197FD40C0EF
:1041D000C7010E943D1197FD3BC060E0F70180815F
:1041E0000E94A41097FD34C01E86DF8662E070E056
:1041F000CE010E960E946C1097FD2AC061E0F70177
:1042000080810E94A41097FD23C081E00E944A1083
:1042100097FD1EC06E01FAE0CF0ED11CE12CF12CEF
:104220008FEFE81AF80A81E094E0E916F1040CF047
:1042300080E00E944A1097FD0BC0F60181936F0148
:10424000F4E0EF16F10461F70E949C1084E090E026
:1042500097FD09C04A855B856C857D85F8014083A3
:104260005183628373832F960FB6F894DEBF0FBE1F
:10427000CDBFDF91CF911F910F91FF90EF90DF9015
:10428000CF9008956F927F928F929F92AF92BF923C
:10429000CF92DF92EF920F931F93CF93DF933C0166
:1042A000C091490185E1C89FC02D1124D5E1DC0FE3
:1042B000DA3608F0D9E660915607669580914E0788
:1042C00090914F070E94F12B182FCD1708F044C092
:1042D0008C2E912CF401E35BFC4F908180914A017C
:1042E0008923C1F1F401EE0FFF1FE558FD4FC08097
:1042F000D12C80E7C81AD108F401EE0FFF1FE45853
:10430000FD4FA080B12CE0E2AE1AB108CC9C900128
:10431000CD9C300D300D1124AA9CC001AB9C900D9A
:10432000900D1124820F931F0E94972B082F6091EC
:1043300053077091540780915507E12E9501A6010E
:10434000F30109950E94FB2B462F282F672FC401EC
:104350000E945E2BCF5FB9CF81E0D93608F080E0B4
:10436000DF91CF911F910F91EF90DF90CF90BF9091
:10437000AF909F908F907F906F900895CF92DF9233
:10438000EF92FF920F931F93CF93DF936C01C09135
:10439000490185E1C89FC02D1124D5E1DC0FDA3633
:1043A00008F0D9E660915607669580914E07909186
:1043B0004F070E94F12B182FCD1778F5EC2EF12C1A
:1043C000F701E35BFC4F908180914A01892319F149
:1043D000F701EE0FFF1FE458FD4F208130E020521F
:1043E0003109F701EE0FFF1FE558FD4F408150E006
:1043F00040575109609153077091540780915507B8
:10440000012FF60109950E94FB2B462F282F672FBD
:10441000C7010E945E2BCF5FCFCF81E0D93608F075
:1044200080E0DF91CF911F910F91FF90EF90DF908F
:10443000CF900895DF92EF92FF920F931F93CF9347
:10444000DF937C01C091490185E1C89FC02D1124F3
:10445000D5E1DC0FDA3608F0D9E6609156076695AB
:10446000669580914E0790914F070E94F12BD82EB0
:10447000CD17F0F40C2F10E0F801E35BFC4F9081B6
:1044800080914A01892391F06091530770915407FC
:10449000809155072D2D4C2FF70109950E94FB2B7C
:1044A000462F282F672FC8010E945E2BCF5FE0CFD9
:1044B00081E0D93608F080E0DF91CF911F910F9114
:1044C000FF90EF90DF9008959F92AF92BF92CF92AE
:1044D000DF92EF92FF920F931F93CF93DF936C01C4
:1044E000C091490185E1C89FC02D1124D5E1DC0FA1
:1044F000DA3608F0D9E660915607669566958091A0
:104500004E0790914F070E94F12B182F80E4810FE6
:104510000E94762B90E8F92EF80E812F0E94762BC0
:1045200020E8922E980ECD1700F5AC2EB12CF50197
:10453000E35BFC4F908180914A018923A1F0609157
:1045400053077091540780915507E12E0C2F292DA8
:104550004F2DF60109950E94FB2B462F282F672F20
:10456000C5010E945E2BCF5FDECF81E0D93608F017
:1045700080E0DF91CF911F910F91FF90EF90DF903E
:10458000CF90BF90AF909F900895CF92DF92EF921F
:10459000FF920F931F93CF93DF936C01C09149015A
:1045A00085E1C89FC02D1124D5E1DC0FDA3608F073
:1045B000D9E62091560730E040E050E06FEF7FEF02
:1045C00080E090E00E944A318901CD17E8F5EC2E99
:1045D000F12CF701E35BFC4F908180914A01892324
:1045E00089F190912507915097FD15C0492F092E0B
:1045F000000C550BFA01EB5DF84F8189C813F3CF1E
:10460000440F551FFA01EB5DF84F218D328D2017B5
:10461000310748F701C0980160915607C9010E940F
:10462000F12BAC01609153077091540780915507AD
:10463000F60109950E94FB2B462F282F672FC701F3
:104640000E945E2BCF5FC1CF81E0D93608F080E0B9
:10465000DF91CF911F910F91FF90EF90DF90CF905E
:1046600008952F923F924F925F926F927F928F9216
:104670009F92AF92BF92CF92DF92EF92FF920F93F1
:104680001F93CF93DF93CDB7DEB727970FB6F8947C
:10469000DEBF0FBECDBF282E4B012091490185E121
:1046A000289F802D11248E83182F1B5E1A3608F048
:1046B00019E63091250739839E81911708F077C05C
:1046C0008E81682E712CF301E35BFC4F9081809109
:1046D0004A01892309F467C030905307409054077A
:1046E000522C1F82C301880F991FDC01A558BD4FB2
:1046F000BB83AA83C301880F991FFC01E458FD4FB7
:10470000FD83EC83F9815F16E0F5E52CF12CAA819D
:10471000BB81CC90D12CF701EB5DF84F8181C81A99
:10472000D108AC81BD81AC90B12C8185A81AB108AB
:10473000CC9C9001CD9C300D300D1124AA9CC00161
:10474000AB9C900D900D1124820F931F0E94972B0C
:10475000082FF701EE0FFF1FEB5DF84F6091560732
:10476000818D928D0E94F12B7C019501A601632D14
:10477000742D8F81F4010995362E472E8F83539423
:10478000C1CF209155078F81382F329F312D1124B1
:10479000832F632D742D0E94FB2B462F282F672F0C
:1047A000C3010E945E2B8E818F5F8E8385CF81E057
:1047B000193608F080E027960FB6F894DEBF0FBEDA
:1047C000CDBFDF91CF911F910F91FF90EF90DF90C0
:1047D000CF90BF90AF909F908F907F906F905F90A1
:1047E0004F903F902F9008951F93CF93DF93CDB7B5
:1047F000DEB7AA970FB6F894DEBF0FBECDBFEDE1CE
:10480000F7E08091F100819347E0E532F407C9F7C2
:1048100080911E07833009F460C030F4813071F05C
:10482000823009F49AC0B1C08A3009F486C08B3056
:1048300009F46BC0893009F0A8C020C080911D0721
:10484000813A09F0A2C08091E800877F8093E80058
:104850008091210790912207892B21F460E289EF52
:1048600096E003C060E080E090E070E00E94142FCA
:104870008091E8008B778093E80087C080911D07C6
:10488000813209F082C08091210790912207009720
:1048900019F0029709F079C08091E800877F809332
:1048A000E8008091E80082FD05C080911B0781111E
:1048B000F8CF6BC08091F2009091F300029729F439
:1048C0008091F1008B7F813021F48091F100809301
:1048D000F8068091E8008B7754C080911D07813ADB
:1048E00009F053C08091210790912207892B09F08C
:1048F0004CC08091E800877F8093E8008091E800B9
:1049000080FFFCCF8091480137C080911D07813224
:10491000E1F58091210790912207892BB1F58091D3
:10492000E800877F8093E8000E94892D80911F070F
:10493000809348010E944D2028C080911D0781323C
:1049400021F58091E800877F8093E8000E94892DFF
:10495000809120078093F70618C080911D07813A47
:10496000A1F48091E800877F8093E8008091E800BF
:1049700080FFFCCF8091F7068093F1008091E800E2
:104980008E778093E8000E94892D8091E80083FF54
:10499000DAC180911D0790911E07492F50E04A30DF
:1049A000510508F0D0C1FA01EF55FF4F0C94D531F5
:1049B000803821F0823809F0C6C108C080911907FB
:1049C00090911A07992389F082600FC08091210786
:1049D0008F70873008F0B7C18093E9008091EB00B9
:1049E00085FB882780F91092E9009091E800977F75
:1049F0009093E8008093F1001092F1006DC1282F90
:104A00002D7F09F0A0C1882319F0823061F09BC18D
:104A100080911F07813009F096C1933009F080E042
:104A200080931A072EC080911F0781112AC08091A0
:104A300021078F702FEF280F263008F084C1809354
:104A4000E9002091EB0020FF1CC0933021F48091FD
:104A5000EB00806214C09091EB0090619093EB00AA
:104A600021E030E0A90102C0440F551F8A95E2F70A
:104A70004093EA001092EA008091EB0088608093F6
:104A8000EB001092E9008091E800877F8093E800B6
:104A90000E94892D58C1811156C110911F071F779F
:104AA0008091E3008078812B8093E3008091E8007F
:104AB000877F8093E8000E94892D8091E80080FF25
:104AC000FCCF8091E30080688093E300111102C065
:104AD00082E001C083E080931B0735C1805882309B
:104AE00008F031C120911F07309120072C3D53E081
:104AF000350779F583E08A838AE289834FB7F89492
:104B0000DE01139620E03EE051E2E32FF0E0509307
:104B10005700E49120FF03C0E295EF703F5FEF7014
:104B20008E2F90E0EA3010F0C79601C0C0968D93AA
:104B30009D932F5F243149F74FBF8091E800877F15
:104B40008093E8006AE270E0CE0101960E94142F83
:104B5000B1C08091210790912207432F5527433000
:104B60005105A9F068F44130510509F4FBC0423009
:104B7000510509F0E8C08BE590E0E5E6F7E04BC0B1
:104B80004132510529F14232510589F1DCC0C90198
:104B9000992781309105A1F058F0029709F0D3C010
:104BA000E2EDF7E0E4918E2F90E0E2EDF7E030C027
:104BB000E0E5F8E0E4918E2F90E0E0E5F8E028C031
:104BC000ECE3F8E0E4918E2F90E0ECE3F8E020C015
:104BD0008330910508F0B7C0880F991FFC01E3539B
:104BE000FE4F0190F081E02D89E090E014C0833009
:104BF000910508F0A8C0FC01EE0FFF1FE953FE4F1E
:104C00000190F081E02DDC01AC53BE4F8C9190E01F
:104C1000009709F498C02091E800277F2093E800CE
:104C200020912307309124072817390708F4C90178
:104C300040E0009771F120911B072223D9F1253024
:104C4000C9F12091E80023FD35C02091E80022FD44
:104C50002DC02091E80020FFECCF2091F200309190
:104C6000F300009759F02830310540F44491409307
:104C7000F100319601972F5F3F4FF3CF41E028308D
:104C8000310509F040E02091E8002E772093E800FC
:104C9000D0CF4111D0CF0AC080911B07882351F09B
:104CA000853041F08091E80083FD04C08091E800E8
:104CB00082FFF2CF8091E8008B778093E80043C0B9
:104CC000803809F040C08091E800877F8093E80039
:104CD00080911C078093F1008091E8008E77D6CEFA
:104CE000811131C080911F07909120079927029769
:104CF00054F58091E800877F8093E80010911F07AA
:104D000010931C070E94892D111106C08091E300A9
:104D100087FD02C081E001C084E080931B0742E070
:104D200061EC81E00E94A82D42E261EC84E00E94E7
:104D3000A82D42E261EC82E00E94A82D42E260ECE4
:104D400083E00E94A82D8091E80083FF10C080912D
:104D5000E800877F8093E8008091EB008062809379
:104D6000EB0005C082E190E0E0ECF7E054CFAA96BA
:104D70000FB6F894DEBF0FBECDBFDF91CF911F916C
:104D80000895E7E5F7E098E0E239F90729F0818333
:104D9000608342833396F7CF0895FC01EE0FFF1F27
:104DA0008E0F9F1FFC01E95AF84F618340832283D5
:104DB0000895EF92FF920F939701201B31092F3F27
:104DC000310519F010F02FEF30E02095382F320F19
:104DD00008F43FEF832F0F91FF90EF900895EF922B
:104DE000FF920F939701201B31092F3F310519F0D6
:104DF00010F02FEF30E0322F3095482F430F08F49A
:104E00004FEF842F620F0F91FF90EF900895EF9274
:104E1000FF920F93972F093438F4B701601B710983
:104E20006F3F710519F010F06FEF70E0485F5F4F52
:104E30004131510540F0A901485F5F4F41315105B3
:104E400010F06FEF70E06095482F460F08F44FEFB9
:104E5000842F37FF02C02D5F3F4F3595279535953D
:104E6000279560915307620F792F0F91FF90EF9074
:104E70000895EF92FF920F93E00EF11CF90137FFB6
:104E800003C0F195E195F10924E0EE0FFF1F2A958B
:104E9000E1F7EF3FF10519F014F0EFEFF0E09A01C0
:104EA00057FF03C031952195310994E0220F331F3C
:104EB0009A95E1F72E173F070CF4F901EE0DFF1D4F
:104EC000EF3FF10519F010F0EFEFF0E02E2F2095F5
:104ED000382F320F08F43FEF832F0F91FF90EF90A0
:104EE0000895EF92FF920F93970195E0099F200D8F
:104EF000311D11242F3F310519F010F02FEF30E054
:104F00002095382F320F08F43FEF832F0F91FF9039
:104F1000EF90089522E8241B08F420E0620F089522
:104F20004095282F429F412D1124842F08950F93DF
:104F30001F9310E0F801EE0FFF1FE558FD4F908121
:104F4000905797FD9195000F111FF801E458FD4F00
:104F5000E081F0E0B097DF01AA0FBB1F8D010E0FBB
:104F60001F1F2003D001219FB00D1124E8E3F0E0C2
:104F7000E91BF10997FDF3959F01220F331F89016A
:104F80000E0F1F1F40039001419F300D11242A0F67
:104F90003B1F37FF02C021583F4F220F232F221FF4
:104FA000330B620F1F910F9108950F931F93522F90
:104FB00010E0F801EE0FFF1FE458FD4FE081F0E034
:104FC000B097EE0FFF1F9F015203D001539FB00D0A
:104FD0001124000F111FF801E558FD4F008110E06A
:104FE00000571109000F111F40039001419F300D20
:104FF00011242A0F3B1F37FF02C021583F4F220FB9
:10500000232F221F330B620F1F910F9108950F93CF
:105010001F93522F10E0F801EE0FFF1FE458FD4FD1
:10502000E081F0E0B0979F015203D001539FB00D93
:105030001124000F111FF801E558FD4F008110E009
:105040000057110940039001419F300D11242A0F90
:105050003B1F37FF02C021583F4F220F232F221F33
:10506000330B620F1F910F910895EF920F931F93CF
:1050700093E0099F80011124159507956E2D600F0F
:105080001F910F91EF900895A22F50E0FA01EE0FBB
:10509000FF1FE458FD4F9081905297FD9195440F6A
:1050A000551FFA01E558FD4F3081232F30E02A1BB0
:1050B0003109290F311D97FD3A95620F0895E42FAC
:1050C000F0E0EE0FFF1FE458FD4F6081621B089572
:1050D000E42FF0E0EE0FFF1FE558FD4F6081621BEB
:1050E0000895622F0895E42FF0E0EE0FFF1FE558BA
:1050F000FD4F408134EE439F412D1124E82FF0E015
:1051000050E0445E5F4FDA01A21BB1099D01B7FF79
:1051100003C031952195310993E0220F331F9A95F1
:10512000E1F7AF01421B530B9A0157FF02C020E089
:1051300030E0582F259F212D1124822F0895E42F30
:10514000F0E0EE0FFF1FE558FD4F408134EE439F26
:10515000412D1124E72FF0E050E0445E5F4FDA016B
:10516000A21BB1099D01B7FF03C0319521953109FB
:1051700093E0220F331F9A95E1F7AF01421B530BC7
:105180009A0157FF02C020E030E0279F212D112413
:10519000722F0895FC019B01009721F477FF2BC02B
:1051A00080E80895AC0197FF04C044275527481BA9
:1051B000590BB901640F751F37FD0CC0241B350B4B
:1051C000C901A5E0880F991FAA95E1F70E94C13196
:1051D00080E20CC0CB0165E0880F991F6A95E1F76A
:1051E000BA01621B730B0E94C13180E6861BF7FF78
:1051F00003C08195089580E00895EF920F93CF93B7
:10520000DF93D72FC82FC9010E19BA010E94CA28EF
:10521000602F681B7D2F8C2FDF91CF910F91EF9026
:1052200008950F93CF93DF93D72FC82FC901BA01E9
:105230000E94CA28682F600F7D2F8C2FDF91CF919D
:105240000F910895EF920F931F93CF93DF93D62F73
:10525000C72F182FC9010E19010FBA010E94CA28C1
:10526000081B202F219F212D1124822F6D2F7C2F91
:10527000DF91CF911F910F91EF900895EF920F93CF
:105280001F93CF93DF93D62F172FC82FC9010E1965
:10529000070FBA010E94CA28702F781B719F712DC9
:1052A00011246D2F8C2FDF91CF911F910F91EF90D3
:1052B0000895FF920F931F93CF93DF93F62ED72F6E
:1052C000182FC901C12FC01BBA010E94CA28982FEC
:1052D000990F890FC81B2C2F219F212D1124822F5C
:1052E0006F2D7D2FDF91CF911F910F91FF9008952A
:1052F000FF920F931F93CF93DF93F62E172FD82F84
:10530000C901C72FC01BBA010E94CA28982F990F44
:10531000890F7C2F781B719F712D11246F2D8D2F7C
:10532000DF91CF911F910F91FF900895879A81B3DC
:105330008F7791B390682FB7F894E7E5F7E038E0FE
:10534000E239F30761F0319148E091BB37FF81BB4F
:10535000330F000000C081BB4A95B9F7F0CF2FBFD3
:105360008FE292E00197F1F700C0000008951F93CB
:10537000CF93DF93CDB7DEB767970FB6F894DEBF54
:105380000FBECDBF342F4B8B252F5C8B6D8B7E8B4F
:105390008F8B4E895F8961111092F00686E0FE01C5
:1053A0003D96DF01982F1D929A95E9F73D872E874C
:1053B0006F87598B488BDE01179601900D928A9565
:1053C000E1F7CE0107960E949E1E81113EC086E045
:1053D000FE013796DE01119601900D928A95E1F754
:1053E000FF81E8856A857B856115710531F0EF3FA6
:1053F00031F481E0FF3F19F403C081E001C080E097
:1054000080FD23C02091530630E0C90101968770CA
:1054100099274091840650E08417950779F1F98324
:10542000EA837D836C8396E0929FD001939FB00DB9
:105430001124AC5AB94FFE01319601900D929A9504
:10544000E1F7809353060E94281E16E0809184069F
:10545000909153068917F9F0189FC00111248C5AB6
:10546000994F0E949E1E8823B1F08091840690E09F
:1054700001968770992780938406E8CF0E944D207B
:105480001092530610928406EDE4F6E086E0DF0108
:105490001D928A95E9F767960FB6F894DEBF0FBEA6
:1054A000CDBFDF91CF911F91089520919608309143
:1054B00097082817390771F09093970880939608FA
:1054C000E0910C04F0910D04309721F00084F185F7
:1054D000E02D09940895209194083091950828179B
:1054E000390771F09093950880939408E0910C042B
:1054F000F0910D04309721F00680F781E02D09949A
:105500000895E0910C04F0910D04309721F0019082
:10551000F081E02D099480E00895EF92FF920F93BF
:10552000CF93DF93C42FD22FFC0182818823D1F047
:1055300040932B060E94751B9093930880939208CA
:1055400080E28C0F883008F078C0C77081E001C01D
:10555000880FCA95EAF7DF91CF910F91FF90EF90F6
:105560000C947B2F80912B06481356C020919208F3
:10557000309193084FB7F8948091AB049091AC04AC
:10558000A091AD04B091AE044FBF821B930B883C39
:10559000910508F041C0CD17C9F080E28C0F88302A
:1055A00040F4C77081E001C0880FCA95EAF70E94F5
:1055B000702F80E28D0F883048F481E09D2F977026
:1055C00001C0880F9A95EAF70E947B2F093319F0E2
:1055D000E12CF12C03C080E5E82EF12C802F0E94F5
:1055E000E12FE114F10451F08FEC97E00197F1F70E
:1055F00000C0000091E0E91AF108F3CF802F0E946B
:10560000852F80E28D0F8830C0F4D77081E001C013
:10561000880FDA95EAF70AC080E28C0F883068F4C8
:10562000C77081E001C0880FCA95EAF7DF91CF917A
:105630000F91FF90EF900C94702FDF91CF910F910D
:10564000FF90EF9008950F931F93CF93DF9350E057
:10565000440F551F2CE1629F400D511D112420E580
:1056600031E0682F629FC001639F900D1124480FA5
:10567000591FEA01CD5BDF4FCE010E940831082F90
:1056800010E0102F0027CE0101960E9408319801EA
:10569000282BC901DF91CF911F910F910895462FBB
:1056A000843038F47C3028F46E3018F4672F0C9472
:1056B000232B80E090E008950C94C1260C94CD2615
:1056C000E2E5F7E08DE380838091520190915301F0
:1056D000A091540181839283A3838FE7848345E063
:1056E00050E06CE170E0CF010C941631482F982FF8
:1056F00046FD9095E92FEF739F7046FD9F5FE29501
:10570000EF70EE0FF0E0EA54FC4F2181299F802DCD
:10571000212D112482958F702295207F822B30813C
:10572000982F930F892F47FD819580580895BC01CC
:105730008230910508F40895613E8EE1780748F4BF
:105740009B0195E0369527959A95E1F748E0420F41
:1057500001C04FEF91E0242F30E0290F311D359526
:105760002795229FF001239FF00DF00D11246E1755
:105770007F0718F44FEF420F04C02F3F39F091E03C
:10578000920F491740F78FEF890F08958FEF089513
:105790000F93CF93DF93D72FC82F47FD4195E8E3B1
:1057A000F0E0CF01841B910947FD9395889FB001DC
:1057B000899F700D700D1124229FC001239F900DB1
:1057C000900D1124860F971F0E94972B682F660F4C
:1057D000860F682F600F7D2F8C2FDF91CF910F9157
:1057E000089520E030E0869F212D969F200D311DE9
:1057F0001124C9010895CF92DF92EF92FF920F9387
:105800001F93CF93DF93F62E472FE82FF0E071110F
:1058100006C0EC5AF74F8491782F682F73C0272F5A
:1058200030E0EC5AF74FE491FE2F0E2F10E056E0D7
:10583000659FC0011124CFEFD0E0BE010E94AD31C1
:105840005BEA5603C001579F900D11248F0D911DE7
:105850008F0D911D982F990F980F7E01E21AF30A70
:10586000E09ED001E19EB00DF09EB00D11248B2F73
:10587000499FA0011124452F55277E01E41AF50AFE
:10588000E09EA001E19E500DF09E500D11246E018E
:10589000C91AD108C29E7001C39EF00CD29EF00CB2
:1058A00011242F2D3327C21BD30BC09F9001C19F02
:1058B000300DD09F300D1124932F6230710591F07F
:1058C00048F461157105E1F061307105B9F49E2F5E
:1058D000E52F16C06430710569F040F0663071053F
:1058E00079F00CC09E2FEB2F832F0AC0EB2F8F2F48
:1058F000952F06C09B2F8E2FE32F02C09B2F852F45
:105900007E2F692FDF91CF911F910F91FF90EF9024
:10591000DF90CF900895DF92EF92FF920F931F9345
:10592000CF93DF93EC01FC01E35BFC4F9081692393
:1059300081F1D09054070091550710915307E12E43
:10594000F12C0E94E830282FC7018C549F4F68E645
:1059500071E00E94C1318E199F0997FD03969595BC
:105960008795959587952370612F289F600D112449
:105970007D2D802F0E94FB2B462F282F672FCE01D5
:10598000DF91CF911F910F91FF90EF90DF900C94DA
:105990005E2BDF91CF911F910F91FF90EF90DF90E1
:1059A00008951F93CF93DF93FC01E35BFC4F2081AD
:1059B0006223A9F0EC010E94E830182F0E94E83021
:1059C000612F782F809155070E94FB2B462F282F9F
:1059D000672FCE01DF91CF911F910C945E2BDF9149
:1059E000CF911F9108951F920F920FB60F9211241D
:1059F0002F933F934F935F936F937F938F939F93D7
:105A0000AF93BF93CF93DF93EF93FF93C091E900E0
:105A1000CF708091EC00D82FD17080FDD0E810922B
:105A2000E9008091F000877F8093F00078940E94D5
:105A3000F4231092E9008091F00088608093F000D8
:105A4000CD2BCF70C093E900FF91EF91DF91CF9103
:105A5000BF91AF919F918F917F916F915F914F9186
:105A60003F912F910F900FBE0F901F901895E8ED6A
:105A7000F0E080818C7F80831092E2001092DA0047
:105A80001092E100A0EEB0E08C9181608C93808157
:105A90008F77808319BCA7EDB0E08C918E7F8C93BB
:105AA00080818F7E80831092980808952091E40071
:105AB0003091E50095E64091EC00842F817040FF25
:105AC00023C08091E80080FD1DC080911B078823C2
:105AD00099F0853099F08091EB0085FD11C04091DF
