:100000000C944E030C9495030C9495030C94950357
:100010000C9495030C9495030C9495030C94950300
:100020000C9495030C9495030C94E52C0C94992B4B
:100030000C94CC1A0C9495030C9495030C94950392
:100040000C9495030C9495030C9495030C949503D0
:100050000C9495030C949A1A0C9495030C949503A4
:100060000C9495030C9495030C9495030C949503B0
:100070000C9495030C9495030C9495030C949503A0
:100080000C9495030C9495030C9495030C94950390
:100090000C9495030C94950390079907CC071008CE
:1000A0005608A008EC08EF08F408F708FC08FF0859
:1000B000040907090A090D09100913091609190984
:1000C0001C091F092209270963099F09A209A70919
:1000D000B209B509C009C309CE09D109DC09DF0994
:1000E000EA09F009680AB50AB30BB90BBE0B590D42
:1000F000590DC70B590D590DD10BE20B080C270CEC
:10010000480C7A0CA90CD10C040DFC0C4F0DA71750
:10011000A717E117E1173418D719D719D7195018AD
:100120002E193F193F19861C861C991C991C8F1C7F
:10013000991C991C991C861C861C941C991C991C42
:10014000941C23244A24EE254A24EE259624B9241F
:10015000EE25AB25BB2529003A003B003C003D00C5
:100160003E003F0040004100420043004400450083
:100170004C0035001E001F0020002100220023003B
:1001800024002500260027002D002E002A002B0029
:1001900014001A000800150017001C0018000C00BD
:1001A000120013002F003000310039000400160047
:1001B000070009000A000B000D000E000F003300BD
:1001C000340028004A00E1001D001B000600190051
:1001D000050011001000360037003800E50052001D
:1001E0004B00E000E2000151E3002C004D002C0028
:1001F000E400E6000151500051004F004E00005C49
:1002000001000100010001000100010001000100E6
:1002100001000100010001000100010001000100D6
:100220000100010001000100010001000100C35CA8
:10023000CB5CCA5C01004600010001000100010026
:1002400001004A004E004B004D000100010001007A
:100250000100010001000100010001000100500047
:10026000510052004F00010001000100AE000100EA
:100270000100010001000100010001000100010076
:100280000100010001004B00A90001000100010074
:1002900001000100A80001000100010001004A0066
:1002A0004E004D00AA000100010001000100010004
:1002B0000100010001000100010001000100010036
:1002C0000100010001000100010001000100010026
:1002D0000100010001000100010001000100010016
:1002E0000100010001000100010001000100010006
:1002F00001000100010001000100010001000100F6
:1003000001000100010001000100010001000100E5
:1003100001000100010001000100010001000100D5
:1003200001000100010001000100010001000100C5
:1003300001000100010001000100010001000100B5
:1003400001000100010001000100010001000100A5
:100350000100010001000100010001000100010095
:100360000100010001000100010001000100010085
:100370000100010001000100010001000100010075
:100380000100010001000100010001000100010065
:100390000100010001000100010001000100010055
:1003A0000100010001000100010001000100010045
:1003B0000100010001000100010001000100010035
:1003C0000100010001000100010001000100010025
:1003D0000100010001000100010001000100010015
:1003E0000100010001000100010001000100010005
:1003F00001000100010000010101010101010101F1
:1004000002020202020202020203030303030303C5
:100410000304040404040404050505050506060692
:100420000606070707070708080808090909090A4F
:100430000A0A0B0B0B0C0C0C0D0D0D0E0E0E0F0FF4
:100440000F10101111111212131314141515161682
:100450001717181819191A1A1B1B1C1D1D1E1E1FF1
:100460002020212222232424252626272829292A40
:100470002B2C2D2D2E2F3031323233343536373868
:10048000393A3B3C3D3E3F40414243444546474864
:10049000494A4C4D4E4F50515354555658595A5B3A
:1004A0005D5E5F616264656668696B6C6D6F7072DA
:1004B000737577787A7B7D7E8082838587888A8C46
:1004C0008E8F91939596989A9C9EA0A2A3A5A7A97A
:1004D000ABADAFB1B3B5B7BABCBEC0C2C4C6C9CB71
:1004E000CDCFD1D4D6D8DBDDDFE2E4E7E9EBEEF027
:1004F000F3F5F8FAFDFF05010980A1018503190153
:100500002AB700150126B700950175108100C005B6
:100510000C0901A101850419012AA002150126A0D8
:1005200002950175108100C005010906A10185052C
:10053000050719E029E715002501950875018102D5
:100540000507190029EF1500250195F075018102B5
:100550000508190129059505750191029501750395
:100560009101C00660FF0961A1010962150026FF23
:10057000009520750881020963150026FF0095206B
:1005800075089102C005010906A101050719E029B6
:10059000E71500250195087501810295017508810F
:1005A000010507190029FF150026FF0095067508AB
:1005B000810005081901290595057501910295012C
:1005C00075039101C009025B00030100A0FA090450
:1005D0000000010301010009211101000122400076
:1005E0000705810308000A09040100020300000056
:1005F00009211101000122220007058203200001C8
:1006000007050303200001090402000103000000A4
:10061000092111010001226D000705840320000A51
:1006200012011001000000088433060001000102DD
:10063000000150034C00610075006E00630068000B
:10064000200043006F006E006600690067007500BF
:100650007200610062006C00650020004B006500C4
:10066000790062006F0061007200640020002800C1
:100670006C00610075006E00630068005F0032006E
:100680002900000012035300790073007400650014
:100690006D003700360000000403090411241FBE5A
:1006A000CFEFD0E1DEBFCDBF04B603FE27C08091FF
:1006B0000E0790910F07A0911007B0911107873096
:1006C000904BA740B04BD1F410920E0710920F0739
:1006D000109210071092110714BE84B7877F84BF51
:1006E0000FB6F894A89580916000886180936000AF
:1006F000109260000FBEE0E0F8E7099513E0A0E07B
:10070000B1E0E6E3F1E602C005900D92AE34B10728
:10071000D9F727E0AEE4B3E001C01D92AE30B207D6
:10072000E1F70E9497030C9499300C940000CF934A
:10073000DF93CDB7DEB7AD970FB6F894DEBF0FBE2F
:10074000CDBF84B7877F84BF0FB6F894A8958091FA
:100750006000886180936000109260000FBE91E09D
:1007600080E80FB6F89480936100909361000FBE0B
:1007700085B7806885BF85B7806885BF8DE19AE1C0
:1007800090934F0380934E030E94DD2B0E94832C95
:100790008091E20084608093E20078948091D10699
:1007A0008823A1F01091E9001F709091EC00892F2F
:1007B000817090FD80E8182B1092E9008091E8008C
:1007C00083FD0E943F231F701093E90082E084BDE7
:1007D00093E095BD9DE797BD80936E000CE711E017
:1007E00072E8E72E71E0F72ED8018D918D010E94FD
:1007F0004F26E016F106C1F702E811E060E9E62EA7
:1008000061E0F62EF80181918F010E944F26E016DB
:10081000F106C1F7E0E5F3E08CE593E0ABEFB3E080
:10082000119211921D921D928E179F07C9F780E0B9
:1008300090E00E94B62F8B3E9E4F11F00E94631BEA
:100840001092DB06E4EFF6E084E097E02FEF3FEF55
:10085000219331938E179F07D9F710926103EAE72E
:10086000F3E08FEF9FEF8193919323E0EA38F20753
:10087000D1F780E090E00E94B62F8B3E9E4F21F092
:100880000E94631B0E94421245E050E06CE170E060
:1008900088E097E00E949E2F809108078C7F11F4DA
:1008A0000E9442120B9A13981092BA0080E2809331
:1008B000B8001092BC008FE19EE40197F1F700C0F0
:1008C0000000139A9FEFA0E7B2E09150A040B04023
:1008D000E1F700C000008CE08CA701E010E09E0171
:1008E000245D3F4F4AEF50E360E87FEB85E291E003
:1008F0000E94752997FD4CC01BA69E01255D3F4FA8
:1009000042E154E362ED7FEB85E291E00E947529BC
:1009100097FD3EC019821A821B821C829E012F5FA6
:100920003F4F48E054E362ED7FEB85E291E00E94A7
:10093000052097FD2DC009811A812B813C81016022
:1009400009831A832B833C8348E054E362ED7FEBF9
:1009500085E291E00E94CD2997FD1AC004E813E3D7
:1009600023E030E040E050E360E87FEB85E291E097
:100970000E94CD2997FD0CC004E813E324E030E089
:1009800048E450E960E87FEB85E291E00E94CD29E0
:1009900080E291E00E94B52A8BE191E00E94B52AA5
:1009A00086E191E00E94B52A80914C0190914D0121
:1009B000A0914E0189839A83AB8343E050E0BE014E
:1009C0006F5F7F4F809125010E943E2904E610E071
:1009D00080E291E00E948E2AEFE1FEE43197F1F788
:1009E00000C000000150110999F70E94D5138FE053
:1009F00097E20197F1F700C00000AFE0B7E211976E
:100A0000F1F700C000000E94D5138091FB0380FF26
:100A100013C06FEF7FEF80E490E00E94EA2F6FEF4A
:100A200082E490E00E94CC2F6FEF7FEF80E090E0B7
:100A30000E94EA2F0E94322880E490E00E94B62FA4
:100A40008C3E964739F482E490E00E94AE2F91E00C
:100A5000823009F090E090FD39C000E010E07801AC
:100A600028EAE20EF11C5801ECE1AE0EB11CF801CF
:100A7000EA5AFE4FC590D4906D2DC8018D5B9F4FF3
:100A80000E94CC2F6C2DC8018C5B9F4F0E94CC2FF5
:100A90000E5F1F4FA016B10651F78501EA14FB0443
:100AA00011F78701F0EAEF16F2E0FF06C1F681E0E8
:100AB0000E946E2B6CEE76E780E490E00E94EA2FB5
:100AC00062E082E490E00E94CC2F03C080E00E94AC
:100AD0006E2B60910405709105058091060590913B
:100AE00007050E94422B80E090E00E94B62F8B3ECB
:100AF0009E4F11F00E94631B82E090E00E94AE2F97
:100B00008093EE030E94521B90935D0380935C03DD
:100B100083E090E00E94AE2F682F70E080E090E0CC
:100B20000E94691D6091040570910505809106057C
:100B3000909107050E94422B60915C03606860936E
:100B40005C0310915D0384E090E00E94CC2F612F44
:100B500081E290E00E94CC2F8DE391E090935F03BF
:100B600080935E0322242394312C8091D10685301A
:100B700009F053C040E4F42EEE24E39408E11AE1B6
:100B80008091D106853009F042C08091D106843031
:100B900051F140E060E080E00E943E12E092EC0300
:100BA0001092600368E170E00FB6F894A895609326
:100BB00060000FBEF092600083B7817F846083BFC6
:100BC00083B7816083BF7894889583B78E7F83BF16
:100BD0000FB6F894A89580916000886180936000BA
:100BE000109260000FBE8091D006882309F4C8CF10
:100BF0000E94D513EBEFF3E081919191892B09F0DD
:100C000090C787E094E08E179F07B1F7B9CF0E9495
:100C1000981F0E9468111092EC030E94D51388233C
:100C200059F08FB7F8944091E8035091E90360912F
:100C3000EA037091EB038FBFAFEEB3E0EBEFF3E0AD
:100C4000E12CF12C4E2DA190B1908D919D918A2592
:100C50009B25009709F4AEC010E0CC24C394D12C9E
:100C60009C012C213D21232B09F49EC019A34AA3EA
:100C7000AC20BD2081E0A114B10409F480E08BA375
:100C80000E94C01A8160782F9DA38CA349A15AA10C
:100C90006BA18DA10E949E10F701EE0FFF1FE15185
:100CA000FC4F80819181C826D926D182C082AB2891
:100CB00089F08EE08E9DF0018F9DF00D1124E4539C
:100CC000FE4FE10FF11D80818F3F21F08DA7DD24C4
:100CD000D39401C0D12CC0906103ED2CF12CC7013D
:100CE0008C0D911D09979CF108E010E00E191F0969
:100CF000B7016F5F7F4F6F597C4FA80182E693E089
:100D00000E948130B701675F7F4F6F597C4FA80108
:100D10008AE693E00E948130A801440F551FB70175
:100D2000660F771F675E7F4F6F597C4F8AE793E0AE
:100D30000E948130B7016F5E7F4F6F597C4FA801D1
:100D400082E793E00E948130CA94C092610380914F
:100D5000610390E0EDA5AE2FB0E09D01220F331F9F
:100D6000205E3D4FAA0FBB1FBD016F5D7D4F41E06F
:100D7000480F9D15B0F490E0FC01EF59FC4FD901EC
:100D80005C915183DB015C915187BDA5B18B880FCC
:100D9000991FFC01EF59FC4F128E118E91E0842FA8
:100DA000E6CF809361031EC01F5FCC0CDD1C1E309C
:100DB00009F056CF2FEFE21AF20A36E0E316F104FB
:100DC00009F040CF8FEF8EA38FA318A60E94C01A00
:100DD0008160782F9AA789A74EA15FA168A58AA5EF
:100DE0000E949E1040918A0350918B0360918C0366
:100DF00070918D032FB7F8948091E8039091E903E7
:100E0000A091EA03B091EB032FBF841B950BA60BB7
:100E1000B70B2FB7F894C090E803D090E903E090A7
:100E2000EA03F090EB032FBFC0928A03D0928B03AA
:100E3000E0928C03F0928D0360916103E1E6F3E0B0
:100E4000462F50E044244A94542C612C712C481AAB
:100E5000590A6A0A7B0A651799F0218D328D49017A
:100E6000A12CB12C481459046A047B0410F441509D
:100E700004C0280F391F328F218F5F5F3296EBCF6E
:100E8000409361038091EC03811108C01091080721
:100E9000812F837019F01695169501C010E080918E
:100EA00028018130E9F038F0823009F4DFC3833063
:100EB00009F4E9C305C410924901C0920407D09215
:100EC0000507E0920607F092070789E2E1E6F3E002
:100ED000ABEDB6E001900D928A95E1F781E0D0C3C9
:100EE0008091270118130DC020910807237030E06E
:100EF0004091260150E081E02417350719F480E085
:100F000001C081E0817080934B01412F50E0483255
:100F1000510508F099C3FA01E45BFF4F0C947B3054
:100F2000882309F491C340E060E080E00E943E1213
:100F30008BC30091490181E1089F002D112421E11B
:100F4000F22EF00E54E55F1510F494E5F92E609141
:100F5000090770910A0780910B070E94DD12E62EA7
:100F6000D72EC82E0F1590F4E02FF0E0DF01A85324
:100F7000BD4F8C9190914A01982331F02C2D4E2D2C
:100F80006D2DCF010E9440120F5FECCF81E063E531
:100F90006F1508F05AC358C30091490181E1089FB9
:100FA000002D112481E1F82EF00E74E57F1510F468
:100FB000B4E5FB2ED0900A07E0900B07C09009071C
:100FC000B6018E2D0E94DD12B62EA72E782E6091CE
:100FD0000C076C0D7D2D8E2D0E94DD12E62ED72E76
:100FE000C82E0F15B8F4802F90E0FC01E853FD4F98
:100FF000308120914A01232359F030FF04C02C2D69
:101000004E2D6D2D03C0272D4B2D6A2D0E944012B1
:101010000F5FE7CF81E093E59F1508F016C314C377
:101020000091490181E1089F002D1124A1E1DA2EF0
:10103000D00EA4E5AD1510F4F4E5DF2EB0900A074C
:10104000A0900B0720910C07E0E4CE2E3C2D329FA0
:10105000312D1124C32E0D1518F5E02EF12CF701BA
:10106000E853FD4F908180914A018923B9F0F7013F
:10107000EE0FFF1FEF5DFD4F808182958F706091B5
:1010800009078C9D600D11247B2D8A2D0E94DD1295
:10109000462F282F672FC7010E9440120F5FDBCF1A
:1010A00081E053E55D1508F0D0C2CEC20091490140
:1010B00081E1089F002D112461E1D62ED00E64E558
:1010C0006D1510F454E5D52EB0900A07A0900B07CB
:1010D00020910C0740E4C42E7C2D729F712D1124A9
:1010E000C72E0D1538F5E02EF12CF701E853FD4F12
:1010F000908180914A018923D9F0F701EE0FFF1FFB
:10110000E05EFD4F6081C69EB001112435E075950B
:1011100067953A95E1F780910907680F7B2D8A2D35
:101120000E94DD12462F282F672FC7010E94401210
:101130000F5FD7CF81E093E59D1508F086C284C28A
:101140000091490181E1089F002D112491E1F92EC0
:10115000F00EA4E5AF1510F484E5F82ED090090741
:10116000E0900A07C0900B0760910C0766956695A2
:10117000669580910407909105070E94D3120E9402
:101180005812805887FD8195880F282F3C2D239F6A
:10119000212D1124822F6D2D7E2D0E94DD12E62E31
:1011A000D72EC82E0F1590F4E02FF0E0DF01A853E2
:1011B000BD4F8C9190914A01982331F02C2D4E2DEA
:1011C0006D2DCF010E9440120F5FECCF81E053E5FF
:1011D0005F1508F03AC238C286E89FE002C08AE58F
:1011E0009FE00E94652131C28FE590E102C080E45A
:1011F00090E10E94092129C285E290E102C089E0C4
:1012000090E10E948D2021C288E59FE0EACF8FE423
:101210009FE0E7CF86E49FE0E4CF8BE29FE0E1CF61
:101220008CE19FE0EECF8AEA92E1E3CF88EF9FE086
:10123000E0CF84EE9FE0E5CF8EEE9EE005C08CEB24
:101240009EE002C08EE79EE00E94AF21FEC18111A8
:101250001EC060910C0720E1620F08F46FEF8091CF
:101260000407909105070E94D3126AE070E00E9483
:101270005330892B09F0E8C10E948E2F64E570E09D
:101280000E94673060914A010E946D13DDC1809118
:10129000490191E1899F802D112401E1080F053555
:1012A00008F004E5E82EF12CC02ED12CEC14FD043E
:1012B0000CF0C7C160914A01C7010E946D136FEF26
:1012C000E61AF60AF3CF81111EC060910C0720E1E7
:1012D000620F08F46FEF80910407909105070E9458
:1012E000D31265E070E00E945330892B09F0ACC145
:1012F0000E948E2F64E570E00E94673060914A0181
:101300000E94B313A1C18091490191E1899F802D71
:10131000112401E1080F053508F004E5E82EF12C51
:10132000C02ED12CEC14FD040CF08BC160914A014D
:10133000C7010E94B3137FEFE71AF70AF3CF87E7DD
:101340009EE002C081E79EE00E9410227EC1809153
:10135000DB0621E0382F321B08F430E0832F68E5EC
:101360007EE03BC068E57EE037C08091DB0621E08F
:10137000582F521B08F450E0852F60E27EE02DC00C
:1013800060E27EE029C08091DB0621E0682F621BCD
:1013900008F460E0862F6EEE7DE01FC06EEE7DE00B
:1013A0001BC08091DB0621E0782F721B08F470E0EF
:1013B000872F66ED7DE011C066ED7DE00DC0809168
:1013C000DB0621E0382F321B08F430E0832F60EC7D
:1013D0007DE003C060EC7DE080E00E947C2235C1AE
:1013E0008091E203811125C06CEC71E040E050E097
:1013F000942F9295907F20E030E0FB01E20FF31FE5
:101400008081843538F4E82FF0E0E257FC4F892FD3
:10141000822B80832F5F3F4F2E30310571F74F5F56
:101420005F4F625F7F4F4630510511F781E0809337
:10143000E2030091490181E1089F002D1124B1E1EF
:10144000DB2ED00E54E55D1510F4A4E5DA2E609184
:1014500004057091050580910605909107050E948D
:10146000E227C82E6091090770910A0780910B0747
:101470000E94DD12B62EA72E782E0D1518F5E02E3F
:10148000F12CF701E853FD4F908180914A018923A7
:10149000B9F0F701E257FC4F6081462F4F7062951B
:1014A0006F708C2D0E940A12029720F420E040E019
:1014B00060E003C0272D4B2D6A2DC7010E9440120A
:1014C0000F5FDBCF81E063E56D1508F0BEC0BCC0E7
:1014D0000091490181E1089F002D1124F1E17F2E47
:1014E000700E74E5771510F4E4E57E2EEE24EA9490
:1014F000F12C0715A0F5E02FF0E0DF01A853BD4F58
:101500009C9180914A01892341F1DF01AA0FBB1F01
:10151000AE0FBF1FA85FBB4FAC901196CC90119738
:1015200012968C9190910B07A99E50011124C99E8F
:1015300060011124899FC0011124B7010E9453301A
:10154000262FC501B7010E945330462FC601B701AF
:101550000E945330CF010E9440120F5FCACF81E03A
:1015600093E5971508F071C06FC0D090490191E1E3
:10157000D99ED02C112401E10D0D053508F004E5AC
:10158000811106C08091E7038F5F8093E70304C059
:101590001092E7031092E6038091E703811147C0A0
:1015A0008091E603883029F41092E5031092E60357
:1015B0003EC0A82FB0E0AA0FBB1FA057BE4FEC91B2
:1015C00011969C91AEE0EA9FF0011124E453FE4F86
:1015D000E90FF11D90819F3F21F09093E30391E08B
:1015E00001C090E09093E5038F5F8093E6031FC0F6
:1015F000ED2CF12CF701E853FD4F908180914A01C9
:101600008923A1F06091E7036D0D2091E503E3EEDE
:10161000F3E080E77FEF90E092130CC00E94DD12B0
:10162000462F282F672FC7010E944012D394D0164F
:10163000F8F207C03191D31202C08FEF70E09F5FC4
:10164000EBCF81E0043508F080E0909149019F5F85
:1016500090934901811134C082E0809328018091E8
:101660004B0181112DC0112351F02AC01093270185
:10167000809108078370809326010E947D1083E08B
:10168000809328011DC04091040750910507609187
:101690000607709107072FB7F8948091E80390919F
:1016A000E903A091EA03B091EB032FBF841B950BD4
:1016B000A60BB70B4097A105B10510F010922801B9
:1016C0000E9468119091ED03891721F00E94681122
:1016D0008093ED038091D106843009F046CA83E0FF
:1016E0008093E9008091E80082FF3FCA8091E80082
:1016F00085FF21C00E94FC2B81111BC000E210E07D
:10170000FE0131967F0108C08091F100D7018D93D1
:101710007D010150110969F08091E80085FDF4CF49
:101720008091E8008B778093E8000E94FC2B88234F
:1017300099F391E001C090E08091E8008B7780936D
:10174000E800992309F411CA81E08A83E9818E2F88
:1017500090E0FC013197E331F10508F0AAC1EC58A3
:10176000FF4F0C947B3086E78B838CEE8C8381E07B
:1017700012C14EE150E065E571E004C04EE150E079
:1017800067E671E0CE0103960E948A3091C1809194
:101790000905882309F48DC11A8281E08093080528
:1017A00088C18B81843008F084C16C81663008F078
:1017B00080C14D814E3008F07CC10E940A128E8398
:1017C0009F8376C19B81943008F073C10C810630F1
:1017D00008F06FC18D818E3008F06BC1FE806F8183
:1017E000BCE10B9F80011124E8EA9E9F000D111DB2
:1017F0001124080F111D080F111D0D5B1F4FC8018B
:101800000E94CC2F6F2DC80101960E94CC2F50C191
:101810008091090581114DC18B81803F49F0813F45
:1018200049F0823F49F0833F09F043C1E3E005C03E
:10183000E0E003C0E1E001C0E2E025E0E29FF0016A
:101840001124E75DFE4F83818C8380EBA4C08091DF
:10185000090581112EC18B819C81903B08F090EB92
:10186000803F49F0813F49F0823F49F0833F09F0D2
:1018700020C1E3E005C0E0E003C0E1E001C0E2E038
:1018800035E0E39FF0011124E75DFE4F9383A8C08C
:101890008091090581110DC1EB81E43558F0E03FDD
:1018A000C1F0E13FC1F0E23FC1F0E33F09F001C107
:1018B000E3E014C0F0E0CF01880F991FE80FF91F93
:1018C000E85FFB4F81818C8380818D8382818E8351
:1018D000EFC0E0E003C0E1E001C0E2E055E0E59FD9
:1018E000F0011124E75DFE4F81818C8382818D831D
:1018F0001E82DEC0809109058111DBC0EB818D81E4
:101900009C81E43558F0E03FB1F0E13FB1F0E23FB7
:10191000B1F0E33F09F0CDC0E3E012C02E81F0E06A
:10192000AF01440F551FE40FF51FE85FFB4F8083A5
:1019300091832283BDC0E0E003C0E1E001C0E2E0AA
:1019400065E0E69FF0011124E75DFE4F91838283FD
:1019500047C0809109058111ACC0EB81E43008F0EB
:10196000A8C02E2F30E075E0E79FF0011124E75D5D
:10197000FE4F908196959695E0EAF1E0419194139F
:101980000CC08C8385E0829FF001839FF00D1124B1
:10199000E75DFE4F84818D838BC08F5F8F3071F741
:1019A00088C080910905811184C0EB81E43008F082
:1019B00080C0AC81AF3008F07CC02D8185E0E89F0D
:1019C000F0011124E75DFE4FB0E0A056BE4F8C91B0
:1019D000982F990F990F80818370892B808324839E
:1019E0001A82609104057091050580910605909119
:1019F00007050E94422B5DC080910905811159C0E5
:101A000081E00E946E2B54C086E08B838EE08C8335
:101A10008BEFE82E83E0F82E16E0A0E0B4E040E083
:101A200050E0B03258F5F70160817181C101042E98
:101A300002C0880F991F0A94E2F7682379238B2F3D
:101A400090E091010A2E01C0220F0A94EAF7672B59
:101A500051F061E070E06C0F7D1F860F971FFC0155
:101A60003081232B0AC061E070E06C0F7D1F860F70
:101A7000971F2095FC01308123232083AF5FA8307E
:101A800010F0BF5FA0E04F5F5F4F4E30510549F649
:101A90001150F2E0EF0EF11C1111C1CF09C00E94EC
:101AA000981F81E09B81911101C080E08093070421
:101AB0001A828091D106843009F51091E9001F70D7
:101AC0009091EC00892F817090FD80E8182B82E0C6
:101AD0008093E9008091E80080FF0DC040E050E075
:101AE00060E270E0CE0101960E94AD1F8091E80097
:101AF0008E778093E8001F701093E90080910805AD
:101B0000882311F40C94B5052FEF30E752E02150F3
:101B100030405040E1F700C000000E9432280C9491
:101B2000B50509BD19BD09B400FEFDCF8091D800EF
:101B30008F7D8093D8008091E00082608093E000E8
:101B40008091E00081FDFCCF0E94981F0C94C0059D
:101B5000EFE0F5E096E0EB30F90729F08183608350
:101B600042833396F7CF0895FC01EE0FFF1F8E0FCF
:101B70009F1FFC01E15FFA4F618340832283089538
:101B8000EF92FF920F939701201B31092F3F3105F0
:101B900019F010F02FEF30E02095382F320F08F4B5
:101BA0003FEF832F0F91FF90EF900895EF92FF92F8
:101BB0000F939701201B31092F3F310519F010F0C9
:101BC0002FEF30E0322F3095482F430F08F44FEFBE
:101BD000842F620F0F91FF90EF900895EF92FF9284
:101BE0000F93972F093438F4B701601B71096F3FC9
:101BF000710519F010F06FEF70E0485F5F4F4131F1
:101C0000510540F0A901485F5F4F4131510510F087
:101C10006FEF70E06095482F460F08F44FEF842F68
:101C200037FF02C02D5F3F4F359527953595279596
:101C300060910907620F792F0F91FF90EF9008953F
:101C4000EF92FF920F93E00EF11CF90137FF03C0F2
:101C5000F195E195F10924E0EE0FFF1F2A95E1F7D8
:101C6000EF3FF10519F014F0EFEFF0E09A0157FFA4
:101C700003C031952195310994E0220F331F9A95C5
:101C8000E1F72E173F070CF4F901EE0DFF1DEF3FB2
:101C9000F10519F010F0EFEFF0E02E2F2095382F1E
:101CA000320F08F43FEF832F0F91FF90EF900895CC
:101CB000EF92FF920F93970195E0099F200D311D40
:101CC00011242F3F310519F010F02FEF30E020954F
:101CD000382F320F08F43FEF832F0F91FF90EF90D2
:101CE000089522E8241B08F420E0620F089540952F
:101CF000282F429F412D1124842F08950F931F9365
:101D000010E0F801EE0FFF1FE05EFD4F908190574D
:101D100097FD9195000F111FF801EF5DFD4FE081D8
:101D2000F0E0B097DF01AA0FBB1F8D010E0F1F1F40
:101D30002003D001219FB00D1124E8E3F0E0E91B5E
:101D4000F10997FDF3959F01220F331F89010E0FB3
:101D50001F1F40039001419F300D11242A0F3B1F8C
:101D600037FF02C021583F4F220F232F221F330B72
:101D7000620F1F910F9108950F931F93522F10E040
:101D8000F801EE0FFF1FEF5DFD4FE081F0E0B0972F
:101D9000EE0FFF1F9F015203D001539FB00D11247E
:101DA000000F111FF801E05EFD4F008110E00057A9
:101DB0001109000F111F40039001419F300D1124A4
:101DC0002A0F3B1F37FF02C021583F4F220F232FFE
:101DD000221F330B620F1F910F9108950F931F93D2
:101DE000522F10E0F801EE0FFF1FEF5DFD4FE08175
:101DF000F0E0B0979F015203D001539FB00D112422
:101E0000000F111FF801E05EFD4F008110E0005748
:101E1000110940039001419F300D11242A0F3B1FEF
:101E200037FF02C021583F4F220F232F221F330BB1
:101E3000620F1F910F910895EF920F931F9393E0FC
:101E4000099F80011124159507956E2D600F1F9134
:101E50000F91EF900895A22F50E0FA01EE0FFF1FAF
:101E6000EF5DFD4F9081905297FD9195440F551F66
:101E7000FA01E05EFD4F3081232F30E02A1B31094B
:101E8000290F311D97FD3A95620F0895E42FF0E078
:101E9000EE0FFF1FEF5DFD4F6081621B0895E42F81
:101EA000F0E0EE0FFF1FE05EFD4F6081621B0895C2
:101EB000622F0895E42FF0E0EE0FFF1FE05EFD4F6C
:101EC000408134EE439F412D1124E82FF0E050E093
:101ED000445E5F4FDA01A21BB1099D01B7FF03C049
:101EE00031952195310993E0220F331F9A95E1F73F
:101EF000AF01421B530B9A0157FF02C020E030E0B4
:101F0000582F259F212D1124822F0895E42FF0E0D2
:101F1000EE0FFF1FE05EFD4F408134EE439F412DE9
:101F20001124E72FF0E050E0445E5F4FDA01A21B7E
:101F3000B1099D01B7FF03C031952195310993E0A7
:101F4000220F331F9A95E1F7AF01421B530B9A0101
:101F500057FF02C020E030E0279F212D1124722F6F
:101F60000895FC019B01009721F477FF2BC080E8C6
:101F70000895AC0197FF04C044275527481B590B0F
:101F8000B901640F751F37FD0CC0241B350BC90147
:101F9000A5E0880F991FAA95E1F70E94673080E2BB
:101FA0000CC0CB0165E0880F991F6A95E1F7BA0173
:101FB000621B730B0E94673080E6861BF7FF03C02D
:101FC0008195089580E00895EF920F93CF93DF936A
:101FD000D72FC82FC9010E19BA010E94B10F602F67
:101FE000681B7D2F8C2FDF91CF910F91EF9008957B
:101FF0000F93CF93DF93D72FC82FC901BA010E9447
:10200000B10F682F600F7D2F8C2FDF91CF910F9133
:102010000895EF920F931F93CF93DF93D62FC72F7F
:10202000182FC9010E19010FBA010E94B10F081B28
:10203000202F219F212D1124822F6D2F7C2FDF91A6
:10204000CF911F910F91EF900895EF920F931F93EF
:10205000CF93DF93D62F172FC82FC9010E19070F63
:10206000BA010E94B10F702F781B719F712D11243E
:102070006D2F8C2FDF91CF911F910F91EF900895CD
:10208000FF920F931F93CF93DF93F62ED72F182F26
:10209000C901C12FC01BBA010E94B10F982F990F1F
:1020A000890FC81B2C2F219F212D1124822F6F2DCA
:1020B0007D2FDF91CF911F910F91FF900895FF9297
:1020C0000F931F93CF93DF93F62E172FD82FC901AD
:1020D000C72FC01BBA010E94B10F982F990F890F0B
:1020E0007C2F781B719F712D11246F2D8D2FDF9107
:1020F000CF911F910F91FF900895879A81B38F77A9
:1021000091B390682FB7F894EFE0F5E036E0EB304C
:10211000F30761F0319148E091BB37FF81BB330F8A
:10212000000000C081BB4A95B9F7F0CF2FBF8FE206
:1021300092E00197F1F700C0000008951F93CF933C
:10214000DF93CDB7DEB767970FB6F894DEBF0FBE4B
:10215000CDBF342F4B8B252F5C8B6D8B7E8B8F8B64
:102160004E895F8961111092A60686E0FE013D96B8
:10217000DF01982F1D929A95E9F73D872E876F878B
:10218000598B488BDE01179601900D928A95E1F7E5
:10219000CE0107960E94E91D81113EC086E0FE0136
:1021A0003796DE01119601900D928A95E1F7FF8135
:1021B000E8856A857B856115710531F0EF3F31F463
:1021C00081E0FF3F19F403C081E001C080E080FDA1
:1021D00023C020913B0630E0C90101968770992702
:1021E00040916C0650E08417950779F1F983EA83F2
:1021F0007D836C8396E0929FD001939FB00D112454
:10220000A45CB94FFE01319601900D929A95E1F7C9
:1022100080933B060E94731D16E080916C0690919E
:102220003B068917F9F0189FC0011124845C994F6F
:102230000E94E91D8823B1F080916C0690E0019620
:102240008770992780936C06E8CF0E94981F1092A0
:102250003B0610926C06E5E3F6E086E0DF011D9296
:102260008A95E9F767960FB6F894DEBF0FBECDBF2B
:10227000DF91CF911F91089520910F0630911006A4
:102280002817390771F09093100680930F06E0919C
:102290005E03F0915F03309721F00084F185E02D1B
:1022A0000994089520910D0630910E0628173907DC
:1022B00071F090930E0680930D06E0915E03F0910D
:1022C0005F03309721F00680F781E02D099408958F
:1022D000E0915E03F0915F03309721F00190F0816F
:1022E000E02D099480E00895EF92FF920F93CF9331
:1022F000DF93C42FD22FFC0182818823D1F0409339
:1023000013060E94C01A90930C0680930B0680E27D
:102310008C0F883008F078C0C77081E001C0880F4A
:10232000CA95EAF7DF91CF910F91FF90EF900C944F
:10233000212E80911306481356C020910B06309130
:102340000C064FB7F8948091E8039091E903A091AF
:10235000EA03B091EB034FBF821B930B883C9105BE
:1023600008F041C0CD17C9F080E28C0F883040F4EE
:10237000C77081E001C0880FCA95EAF70E94162E47
:1023800080E28D0F883048F481E09D2F977001C066
:10239000880F9A95EAF70E94212E093319F0E12C53
:1023A000F12C03C080E5E82EF12C802F0E94872EAF
:1023B000E114F10451F08FEC97E00197F1F700C0C0
:1023C000000091E0E91AF108F3CF802F0E942B2E34
:1023D00080E28D0F8830C0F4D77081E001C0880F93
:1023E000DA95EAF70AC080E28C0F883068F4C7708B
:1023F00081E001C0880FCA95EAF7DF91CF910F9174
:10240000FF90EF900C94162EDF91CF910F91FF90DB
:10241000EF9008950F931F93CF93DF93C42FD0E0D5
:10242000CC0FDD1F2CE1629FC00DD11D112438EAB5
:10243000839FC00DD11D1124CD5BDF4FCE010E94C3
:10244000AE2F082F10E0102F0027CE0101960E941A
:10245000AE2F9801282BC901DF91CF911F910F91C9
:102460000895462F843038F4763028F46E3018F40E
:10247000672F0C940A1280E090E008950C94A80D48
:102480000C94B40DE8E0F7E08DE3808380914F0178
:1024900090915001A091510181839283A3838FE792
:1024A000848345E050E06CE170E0CF010C94BC2FD8
:1024B000482F982F46FD9095E92FEF739F7046FDAA
:1024C0009F5FE295EF70EE0FF0E0E155FE4F218146
:1024D000299F802D212D112482958F702295207F98
:1024E000822B3081982F930F892F47FD819580583B
:1024F0000895BC018230910508F40895613E8EE193
:10250000780748F49B0195E0369527959A95E1F771
:1025100048E0420F01C04FEF91E0242F30E0290F37
:10252000311D35952795229FF001239FF00DF00D69
:1025300011246E177F0718F44FEF420F04C02F3F8E
:1025400039F091E0920F491740F78FEF890F089506
:102550008FEF08950F93CF93DF93D72FC82F47FDA9
:102560004195E8E3F0E0CF01841B910947FD939585
:10257000889FB001899F700D700D1124229FC001AA
:10258000239F900D900D1124860F971F0E947912A2
:10259000682F660F860F682F600F7D2F8C2FDF91BD
:1025A000CF910F91089520E030E0869F212D969FD6
:1025B000200D311D1124C9010895CF92DF92EF92B1
:1025C000FF920F931F93CF93DF93F62E472FE82FA1
:1025D000F0E0711106C0EA50FC4F8491782F682F0B
:1025E00073C0272F30E0EA50FC4FE491FE2F0E2FEE
:1025F00010E056E0659FC0011124CFEFD0E0BE018E
:102600000E9453305BEA5603C001579F900D11247E
:102610008F0D911D8F0D911D982F990F980F7E0191
:10262000E21AF30AE09ED001E19EB00DF09EB00DDB
:1026300011248B2F499FA0011124452F55277E017E
:10264000E41AF50AE09EA001E19E500DF09E500DA7
:1026500011246E01C91AD108C29E7001C39EF00CEC
:10266000D29EF00C11242F2D3327C21BD30BC09FF9
:102670009001C19F300DD09F300D1124932F6230F7
:10268000710591F048F461157105E1F06130710553
:10269000B9F49E2FE52F16C06430710569F040F043
:1026A0006630710579F00CC09E2FEB2F832F0AC086
:1026B000EB2F8F2F952F06C09B2F8E2FE32F02C05D
:1026C0009B2F852F7E2F692FDF91CF911F910F9127
:1026D000FF90EF90DF90CF900895DF92EF92FF92FE
:1026E0000F931F93CF93DF93EC01FC01E853FD4F51
:1026F0009081692381F1D0900A0700910B07109116
:102700000907E12EF12C0E948E2F282FC7018C542F
:102710009F4F68E671E00E9467308E199F0997FD10
:10272000039695958795959587952370612F289F9A
:10273000600D11247D2D802F0E94DD12462F282F41
:10274000672FCE01DF91CF911F910F91FF90EF90F6
:10275000DF900C944012DF91CF911F910F91FF9069
:10276000EF90DF9008951F93CF93DF93FC01E85320
:10277000FD4F20816223A9F0EC010E948E2F182FBB
:102780000E948E2F612F782F80910B070E94DD12FF
:10279000462F282F672FCE01DF91CF911F910C94E8
:1027A0004012DF91CF911F9108959F92AF92BF92F7
:1027B000CF92DF92EF92FF920F931F93CF93DF930D
:1027C00000E513E08CE7E82E81E0F82EC0E0D0E0D1
:1027D000912CCC24C394D12CB701D7018C91F894BF
:1027E000E82FE295EF70F0E021A18F70A60102C002
:1027F000440F551F8A95E2F7CA01922F982B91A397
:1028000092A18095892382A3789400C0E2E8F1E048
:1028100020E030E0A12CB12C4191842F82958F7063
:1028200090E0DC0190968C9190E04F7002C09595FD
:1028300087954A95E2F780FD08C0C601022E02C0C6
:10284000880F991F0A94E2F702C080E090E0A82A5E
:10285000B92A2F5F3F4F2E303105F1F6BFEFEB1A4B
:10286000FB0AFB0180810E944F26C530D10519F07B
:10287000F0E5FA95F1F7D8018D919C911197A81682
:10288000B90621F0AD92BC9281E001C080E0982AA7
:1028900021960E5F1F4FC630D10509F09DCF9920BC
:1028A00049F081E080930C050E94C01A90930B05BB
:1028B00080930A0580910C05882309F445C0209176
:1028C0000A0530910B054FB7F8948091E803909179
:1028D000E903A091EA03B091EB034FBF821B930B76
:1028E000069790F180915003909151039093FC03CF
:1028F0008093FB0380915203909153039093FE03C6
:102900008093FD03809154039091550390930004AC
:102910008093FF0380915603909157039093020494
:10292000809301048091580390915903909304047B
:102930008093030480915A0390915B039093060463
:102940008093050410920C0580910D0590910E0561
:10295000883EB3E09B076CF010920E0510920D05B7
:102960008BE191E00E94482A86E191E00E94482A8A
:1029700005C0019690930E0580930D05892DDF917A
:10298000CF911F910F91FF90EF90DF90CF90BF906C
:10299000AF909F9008958F929F92AF92BF92CF92E7
:1029A000DF92EF92FF920F931F93CF93DF9300D0AC
:1029B00000D01F92CDB7DEB7FC01808191812381C9
:1029C0003481232B31F09F3F31F491E08F3F19F494
:1029D00003C091E001C090E090FD19C57F0185E042
:1029E000DE01119601900D928A95E1F7F70122819F
:1029F00089819A81222349F00E94271C182F682F71
:102A000089819A810E94C91C03C00E949D1C182FB5
:102A100069817A81812F0E9431128C018091070493
:102A2000811132C20115FCE51F0731F168F4003E47
:102A3000110509F45FC0043E110509F460C00932B4
:102A4000110509F08EC10EC00A3C3CE5130769F17F
:102A50000B3C8CE51807C1F0033C9CE5190709F015
:102A600080C136C080911206882309F44CC0809141
:102A70001106882309F447C0F7018281882309F4ED
:102A800003C20E948C2B00C2F7018281882309F4C3
:102A9000FBC180910B07EDEBF1E092919817B0F03C
:102AA00001E0E73BF007C9F722C0F70182818823E4
:102AB00009F4EAC180910B07E7EBF1E02DEB31E07F
:102AC0002E173F07A1F091918917D0F7892F0FC0DA
:102AD000F7018281882309F4D7C180910B07811106
:102AE00003C08091470103C08093470180E00E94AA
:102AF000572BCAC1F70182818093120604C0F701E7
:102B0000828180931106F7018281882309F48EC1A6
:102B1000109213060230FCE51F0708F471C106315C
:102B20002CE5120738F098012B5F3C452930310520
:102B300008F066C10E94521B90935D0380935C0372
:102B400000313CE5130709F4C3C008F041C0083068
:102B50009CE5190709F49AC0F0F40430FCE51F075E
:102B600009F487C068F402303CE5130709F477C024
:102B700003301C4509F0E5C080915C03826076C09B
:102B800006309CE5190709F46EC008F07BC08091FF
:102B90005C0388606BC00C30FCE51F0709F485C03E
:102BA00068F40A303CE5130709F474C008F079C0F2
:102BB0000E94981F80915C03806858C00E309CE58D
:102BC000190709F476C008F07FC080915C038BC0C0
:102BD0000C3FFCE51F0709F44FC018F503313CE535
:102BE000130709F47DC078F401319CE5190709F455
:102BF00073C002311C4509F0A4C00E94981F809147
:102C00005C038F7733C00531FCE51F0709F472C000
:102C100008F486C00B3F1C4509F093C080915D030A
:102C20003EC001158DE5180709F45FC058F40E3F4A
:102C3000ECE51E0709F444C008F43FC080915D0331
:102C400082602DC002302DE5120709F475C008F42A
:102C50005DC003301D4509F074C060E06EC0809116
:102C60005C03816003C080915C03806180935C039E
:102C700068C080915C0311C080915D038260809385
:102C80005D035FC080915C038062F0CF80915C0344
:102C90008064ECCF80915C0388608460E7CF8160C2
:102CA000EECF80915C038E7FE1CF80915C038D7FBE
:102CB000DDCF80915C03877FD9CF80915D0318C001
:102CC00080915D038D7FDBCF80915C038F7ECECFC3
:102CD00080915C038F7DCACF80915C038F7BC6CFD0
:102CE00080915C03877F8B7FC1CF80915D038D7F57
:102CF0008E7FC5CF80915C0382FB222720F991E073
:102D0000922790FB82F990FB83F9B0CF80915D030D
:102D1000982F909591708E7F892B90FB81F9AFCF82
:102D20000E94981F80915C0387FB222720F991E085
:102D3000922790FB87F99ACF61E08EE090E00E94A5
:102D4000CC2F60915C0310915D0384E090E00E94C1
:102D5000CC2F612F81E290E00E94CC2F0E94981F1F
:102D600093C0043FFCE51F07A1F406E221EE40EE0C
:102D700064EF7CE50AC0083D9CE5190709F0C3CE65
:102D800006E221EE41EE68ED7CE5C7010E94741178
:102D90007BC0053F2CE51207A0F4093D3CE5130775
:102DA00031F407E225EE45EE69ED7CE5EECF0A3D14
:102DB0008CE5180701F708E221E045EE6AED7CE5B5
:102DC000E4CF063FECE51E0731F406E221EE42EEC9
:102DD00066EF7CE5DACF063FFCE51F0730F407E23B
:102DE00025EE44EE65EF7CE5D0CF073F2CE51207DA
:102DF00009F089CE07E225EE46EE67EF7CE5C5CF08
:102E000006313CE5130719F58091A7068A7A91E00F
:102E100009F490E090931406882311F065E301C053
:102E200069E285E196E00E941D1B0EC006311C453B
:102E300009F048C080911406882309F4E6C265E3CE
:102E400085E196E00E94F51A0E94D31B1DC09801EF
:102E5000235C3C4524313105B8F001159CE5190788
:102E600031F00F3D1C4571F50E94631B0DC00E949F
:102E7000981FFFE70AE116E0F15000401040E1F72B
:102E800000C000000E9432288091A406877009F4D7
:102E9000BEC2F7018281882309F4B9C282E00F9093
:102EA0000F900F900F900F90DF91CF911F910F9186
:102EB000FF90EF90DF90CF90BF90AF909F908F905A
:102EC0000C942F1DF70100811181882349F0C8015E
:102ED0000E94271CD82E682FC8010E94C91C04C05C
:102EE000C8010E949D1CD82EB8018D2D0E94662617
:102EF0008C01982EF701B280A580A2949FE0A922B0
:102F00008091A406877099F0BB2089F0812F807F83
:102F1000803421F080E2800F883048F082E00E9407
:102F20002F1D8091A4068770DD24D3948111D12CAC
:102F3000C12EC2948FE0C8228C2D90E08C30910578
:102F400008F035C2FC01E957FF4F0C947B30812F0C
:102F5000807F1F70882311F01295107FBB20B9F07D
:102F6000112309F40FC280E2800F883010F0911015
:102F700006C08091A706182B1093A70605C0809164
:102F8000A606182B1093A6060E94D31BFBC1802F08
:102F90000E942B2E112309F40AC2005E10950830FE
:102FA00010F0911006C08091A70618231093A70671
:102FB00005C08091A60618231093A6060E94D31B75
:102FC000F6C1812F807F1F70803211F01295107F23
:102FD000992021F0F1E09F16E1F02AC0BB2081F09A
:102FE0008091A806AA2051F001E0A01207C0182B7A
:102FF000181709F4DCC11093A806D9C1812B10C0A1
:10300000AA2021F021E0A21609F4D1C10E94CD1B13
:1030100027C0BB2041F035E03A1508F4C8C1812F24
:103020000E94212EC4C184E08A1508F4C0C118C0D2
:10303000BB2049F0AA2099F3F701858180FFA2C146
:103040008F708583ECCFAA2059F0093309F0ACC109
:10305000FFEF13EF21E0F15010402040E1F7A2C153
:10306000812F0E94162EA3C1812F8695869583708D
:1030700019F0813059F09BC1BB2019F0C801937041
:1030800002C080E090E00E94521197C1BB2019F06D
:10309000C801937002C080E090E00E943C118DC195
:1030A000812F837009F069C0B11085C1902F92956E
:1030B00096959770990F990F802F8F70882E912C6D
:1030C000A12CB12C092E04C0880C991CAA1CBB1C75
:1030D0000A94D2F704FF12C04FE050E060E070E0C5
:1030E00004C0440F551F661F771F9A95D2F7DB0166
:1030F000CA0180959095A095B09503C080E090E0BE
:10310000DC0116951695412F4370423019F1C8F431
:103110000091A9061091AA062091AB063091AC0649
:10312000413059F088299929AA29BB29BC01CD0130
:1031300060237123822393230AC0802A912AA22A22
:10314000B32ABC01CD01682979298A299B290E94CB
:10315000691D31C188299929AA29BB290091A9068D
:103160001091AA062091AB063091AC06BC01CD01AE
:103170006027712782279327EACFBB2019F0812F80
:10318000817001C08695882309F415C1902F92950E
:1031900096959770990F990F802F8F70882E912C8C
:1031A000A12CB12C092E04C0880C991CAA1CBB1C94
:1031B0000A94D2F704FF12C04FE050E060E070E0E4
:1031C00004C0440F551F661F771F9A95D2F7DB0185
:1031D000CA0180959095A095B09503C080E090E0DD
:1031E000DC0116951695412F43704230D9F068F5F1
:1031F0000091040510910505209106053091070501
:10320000413059F088299929AA29BB29BC01CD014F
:1032100060237123822393231EC0802A912AA22A2D
:10322000B32A13C088299929AA29BB29009104052A
:10323000109105052091060530910705BC01CD01CF
:10324000602771278227932706C0BC01CD0168291A
:1032500079298A299B290E94F41CADC01F70BB20CC
:1032600039F0812F0E94481D802F0E94212EA3C07B
:10327000802F0E94162E812F0E940A1D9CC0802F35
:1032800032EF931609F440C0391538F090EF9916D3
:1032900061F0E1EF9E1699F170C0F3EF9F16D9F13E
:1032A00024EF921609F44EC068C0BB2019F134E037
:1032B0003A1508F47CC01F7181E090E0A0E0B0E016
:1032C000AC01BD0104C0440F551F661F771F1A953E
:1032D000D2F78091040590910505A0910605B09163
:1032E00007058A019B01082719272A273B27C901BF
:1032F000B80125C025E02A1508F459C0DCCFBB2051
:1033000029F0812F8F712CC0BB20D9F3812F8F71B1
:103310000E940A1D4CC0BB2079F01F7181E090E033
:10332000A0E0B0E0BC01CD0104C0660F771F881F8C
:10333000991F1A95D2F703C060E070E0CB010E949C
:10334000F41C35C0BB2079F01F71812F0E94481DED
:1033500038E0139FC001112483608093A406812F5D
:103360000E94481D24C081E00E942F1D81E08A1523
:10337000F0F482E00E942F1D1AC0BB2039F0AA2071
:1033800009F4BFCF802F0E94872E11C0AA2009F414
:10339000BDCF893349F49FEFE3EFF1E09150E04076
:1033A000F040E1F700C00000802F0E942B2E88EF34
:1033B0008C0D843010F40E946811DD2041F1809161
:1033C000A40680FD24C0F701128285958595859518
:1033D0000E94481DC7010E94CB148091A4068595C8
:1033E000859585950F900F900F900F900F90DF911E
:1033F000CF911F910F91FF90EF90DF90CF90BF90F2
:10340000AF909F908F900C940A1D69E219CD0F9098
:103410000F900F900F900F90DF91CF911F910F9110
:10342000FF90EF90DF90CF90BF90AF909F908F90E4
:10343000089508958091AE06089580E00895CF9391
:10344000DF9300D01F92CDB7DEB79091D1069430B4
:1034500011F589837B836A839093E9008FEF9091C4
:10346000E800815095FD06C09AE69A95F1F700C0F4
:103470008111F5CF8091E80085FF0DC040E050E05C
:1034800063E070E0CE0101960E94AD1F8091E800DC
:103490008E778093E8000F900F900F90DF91CF917F
:1034A0000895BC0184E00C941F1ABC0183E00C94C5
:1034B0001F1ACF93DF9320914801222339F02091E6
:1034C0005C0327FF03C060E224E002C068E021E063
:1034D0002093E9002FEF3091E800215035FD06C020
:1034E0003AE63A95F1F700C02111F5CF2091E800B6
:1034F00025FF1DC0EC0180914801811105C040E00D
:1035000050E068E070E003C070E040E050E0CE01C1
:103510000E94AD1F8091E8008E778093E80080E2E2
:10352000FE01AFEAB6E001900D928A95E1F7DF91D6
:10353000CF91089578941F920F920FB60F92112495
:103540008F939F93AF93BF938091E8039091E9038A
:10355000A091EA03B091EB030196A11DB11D8093E8
:10356000E8039093E903A093EA03B093EB03BF91C0
:10357000AF919F918F910F900FBE0F901F90189554
:103580002FB7F8948091E8039091E903A091EA03A2
:10359000B091EB032FBF08951F920F920FB60F92B9
:1035A00011248F939F93AF93BF93809160038111F8
:1035B00013C08091E8039091E903A091EA03B091D0
:1035C000EB034196A11DB11D8093E8039093E9039D
:1035D000A093EA03B093EB03BF91AF919F918F91BA
:1035E0000F900FBE0F901F90189520914801222335
:1035F000C9F020915C0327FF15C0262F269526953C
:1036000026952E31C8F4FC01E20FF11D677081E0B0
:1036100090E001C0880F6A95EAF78095928189232E
:1036200082830895FC0106962281621301C01282F2
:103630003196E817F907C1F7089520914801222330
:10364000C1F020915C0327FF14C0262F26952695F4
:1036500026952E3130F5FC01E20FF11D677081E0F7
:1036600090E001C0880F6A95EAF79281892B8283E6
:103670000895FC0132962FEF30E04191641789F0F4
:103680002F3F19F4411101C0232F3F5F3630A9F7B6
:103690002F3F39F0FC01E20FF11D27FDFA956283FF
:1036A00008950895CF9384E090E00E94AE2FC82F34
:1036B00081E290E00E94AE2F2C2F30E0A901582B20
:1036C000CA01CF9108956BEE7EEF80E090E00E94FA
:1036D000EA2F60E082E090E00E94CC2F60E083E07F
:1036E00090E00E94CC2F1092A9061092AA06109288
:1036F000AB061092AC0660E084E090E00E94CC2F14
:1037000060E081E290E00E94CC2F60E085E090E0F4
:103710000E94CC2F60E086E090E00E94CC2F6FEFFB
:1037200087E090E00E94CC2F40E050E0BA0188E0B2
:1037300090E00E94DE2F60E08DE090E00E94CC2FB0
:1037400040E050E0BA0188E190E00E94DE2F60E0A6
:1037500087E190E00E94CC2F40E050E0BA018CE17C
:1037600090E00E94DE2F60E080E290E00E94CC2F8B
:1037700040E050E0BA0188E190E00E94DE2F40E096
:1037800050E0BA018FE090E00E94DE2F40E050E070
:10379000BA0183E190E00C94DE2F8091A80681119C
:1037A0001092A80608959091A7068091A606892BED
:1037B0002091A506982F922B909315068091A8062C
:1037C0008823D9F0892B809315068091480188239E
:1037D00031F080915C0387FF02C08EE101C086E07A
:1037E000E7E1F6E090E0815028F021912223D9F31F
:1037F0009F5FF9CF91110E94CD1BE0915E03F09184
:103800005F033097A9F080914801882359F0809197
:103810005C0387FF07C0809115068093160685E03C
:10382000809315060280F381E02D85E196E00994EE
:10383000089580E090E00E94521180E090E00E94A4
:103840003C111092A6061092A5060C94D31BBF92B1
:10385000CF92DF92EF92FF920F931F93CF93DF935C
:103860008C01C0900405D0900505E0900605F0900D
:1038700007058091A9069091AA06A091AB06B09188
:10388000AC06C82AD92AEA2AFB2ACFE1D0E0D70120
:10389000C6010C2E04C0B695A795979587950A94F6
:1038A000D2F780FD04C0219790F7B12C07C0BC2E41
:1038B000B8018C2F0E9466260197A9F38B2DDF910A
:1038C000CF911F910F91FF90EF90DF90CF90BF901D
:1038D0000895CF93DF93EC010E94271CBE010E9444
:1038E0006626DF91CF9108950E94691C292F2F70C1
:1038F000E92FE295EF704E2F50E0FA013297EE304B
:10390000F105B8F4ED56FF4F0C947B30803F99F0F1
:1039100018F4883E70F40FC0843F59F40CC0883E00
:1039200050F0813F31F407C0822F869586958695A9
:10393000089580E0089581E008952EE0929F800D23
:103940001124682F669566956695982F977085E087
:10395000689FB001112440E050E080E0FB01E40FDB
:10396000F51FE359F94F208130E0092E02C036954A
:1039700027950A94E2F721703327042E01C0220F05
:103980000A94EAF7822B4F5F5F4F4530510531F7BC
:1039900008952EE0929F800D1124E82FE695E6957C
:1039A000E695877051E001C0550F8A95EAF785E0EA
:1039B000E89FF0011124E359F94F20E030E070E076
:1039C0004081CB01022E02C0969587950A94E2F7BA
:1039D0008170819584278523842781932F5F3F4FB2
:1039E0002530310569F70895CF92DF92EF92FF926B
:1039F0006B017C010E94422BC0920405D092050508
:103A0000E0920605F0920705FF90EF90DF90CF90CF
:103A10000C94191C0F931F9341E050E060E070E09C
:103A200004C0440F551F661F771F8A95D2F7409533
:103A30005095609570958091040590910505A09131
:103A40000605B09107058A019B01082319232A2343
:103A50003B23C901B8011F910F910C94F41C2091D4
:103A6000A406809582238093A406982F977079F4FA
:103A700030E0482F082E000C550B2417350739F07D
:103A80008595859585950E940A1D1092A406089536
:103A90000F931F9341E050E060E070E004C0440FDA
:103AA000551F661F771F8A95D2F780910405909164
:103AB0000505A0910605B09107058A019B01082B19
:103AC000192B2A2B3B2BC901B8011F910F910C9484
:103AD000F41C6093A9067093AA068093AB0690939A
:103AE000AC060C94191C80916C0690913B068917CA
:103AF00019F08F5F8770FBCF08950F931F93CF93BB
:103B0000DF9380913A0682958F7009F05DC08091B5
:103B10003706882309F458C080916C0610913B0643
:103B20006091350670913606C0913806D0913906FD
:103B300091E06F3F09F090E0292F06E0811709F42A
:103B400043C0209721F07F3F21F030E003C031E0F7
:103B500001C0322F90E030FD34C0089FF001099F72
:103B6000F00D1124DF01A45CB94F11963C9111971F
:103B7000371327C03C91361324C012963C911297FC
:103B800031111FC013964D915C9114974C1B5D0B26
:103B9000483C5105B0F480913A068F708061809363
:103BA0003A06EF5BF94F80818F708061808385E3F7
:103BB00096E00E94CB14DF91CF911F910F910C944E
:103BC000731D01968770BACFDF91CF911F910F912E
:103BD00008959F92AF92BF92CF92DF92EF92FF92A1
:103BE0000F931F93CF93DF93CDB7DEB761970FB6D7
:103BF000F894DEBF0FBECDBF8C0185E0F801DE0179
:103C00001D9601900D928A95E1F7F80190818181CE
:103C1000E280309135066091360640913806509129
:103C200039064115510531F06F3F31F421E03F3F36
:103C300019F403C021E001C020E0F22FF1709F2EA3
:103C400020FD23C1F801C380D48025E3A22E26E005
:103C5000B22EF0903706F601E41BF50BFF2009F4B5
:103C6000CEC020913A06E83CF10508F099C0422FF9
:103C7000407F09F051C0681311C039130FC0FE2CEA
:103C8000E1100CC02F70206120933A06C5010E94FC
:103C9000CB1480913A06F801858337C1CD2831F0E5
:103CA0008F3F31F421E09F3F19F403C021E001C0B0
:103CB00020E020FD03C021E02E2502C020E030E0FE
:103CC000F22FF170FF2E20FF1DC020916C06409155
:103CD0003B0656E0241709F4F6C030E0529FF0018D
:103CE000539FF00D1124E45CF94F6181861306C0E7
:103CF0006081961303C06281E61204C02F5F3F4FBC
:103D00002770E8CFFE2CEE2009F4FFC080913A0620
:103D1000816080933A0650C0681307C0391305C00C
:103D2000E11003C0F80125838DC09D878E878D85A6
:103D30009E850E94741C882369F1EE2059F1209120
:103D40003A06822F82958F7090E0029774F08091EE
:103D500035069091360698878F831986DB86CA864A
:103D60002C87CE0107960E94CB1486E0F801A5E3CC
:103D7000B6E001900D928A95E1F70E947D1D0DC07D
:103D80006817E1F09D878E878D859E850E94741C43
:103D900081111EC0C8010E94CB14FF24F394B5C04A
:103DA000422F407F69F785E396E00E94CB1486E0BE
:103DB000F50111928A95E9F7F12CA7C03913E2CFEA
:103DC000E110E0CFF8012583C8010E94CB1457C051
:103DD000EE2001F320913A06822F82958F7090E0B9
:103DE00002971CF280913506909136069A8389835A
:103DF0001B82DD82CC822E83CE010196B4CFE83CBB
:103E0000F105E8F5FE2CEE2029F2681327C03913DE
:103E100025C020913A0620FD18C0822F82958F7010
:103E2000482F50E04115510581F0F80125834F30AE
:103E3000510541F08F5F982F9295907F822F8F7060
:103E4000892B8583C8010E94CB1486E0F801A5E385
:103E5000B6E001900D928A95E1F757C09D878E8755
:103E60008D859E850E94741C81117FCF80913A06BA
:103E7000816080933A06C8010E94CB1446C086E058
:103E8000F50111928A95E9F740C0EE2009F482CF3E
:103E90009D878E878D859E850E94741CF82E8823B1
:103EA00009F478CF86E0F801A5E3B6E001900D9221
:103EB0008A95E1F780913506909136060E94691C3B
:103EC0000E947D1D22C09D878E878D859E850E94C4
:103ED000691C292F22952F70223028F49F7039F009
:103EE000811105C00BC0243028F49F7049F4805E16
:103EF000883020F0C8010E94CB149F2CF92C05C0FB
:103F0000F8019581907F99F7F9CF8F2D61960FB6C3
:103F1000F894DEBF0FBECDBFDF91CF911F910F91FF
:103F2000FF90EF90DF90CF90BF90AF909F9008955B
:103F30001092A70680914801882331F080915C039C
:103F400087FF02C08EE101C086E0E7E1F6E0DF0115
:103F50001D928A95E9F70C94191CEF92FF920F932A
:103F60001F93CF93DF937C018B010E94FC2B811167
:103F700019C0E70101151105A1F08091E80085FD48
:103F80000AC08091E8008E778093E8000E94FC2BA5
:103F9000882381F307C089918093F10001501109B2
:103FA000E9CF80E0DF91CF911F910F91FF90EF90CB
:103FB00008950F931F93CF93DF931F92CDB7DEB772
:103FC00069838A0160E00E94BE2897FD13C061E00A
:103FD00070E0CE0101960E94862897FD0BC061E03B
:103FE00070E0C8010E9486288C0197FD05C00E94E0
:103FF000B62802C0282F02C0202F912F822F0F90A9
:10400000DF91CF911F910F910895CF92DF92EF92A0
:10401000FF920F931F93CF93DF93CDB7DEB72F9708
:104020000FB6F894DEBF0FBECDBF7C0189011A86A2
:104030001B861C861D8619821A8286E0D82EDB829A
:1040400081E08C8384E08D837E836F8358874987EA
:1040500049E050E0BE016F5F7F4FF70180810E9411
:104060003E2997FD40C0C7010E94572997FD3BC0DC
:1040700060E0F70180810E94BE2897FD34C01E8653
:10408000DF8662E070E0CE010E960E94862897FDE2
:104090002AC061E0F70180810E94BE2897FD23C0FD
:1040A00081E00E94642897FD1EC06E01FAE0CF0EE9
:1040B000D11CE12CF12C8FEFE81AF80A81E094E092
:1040C000E916F1040CF080E00E94642897FD0BC013
:1040D000F60181936F01F4E0EF16F10461F70E949D
:1040E000B62884E090E097FD09C04A855B856C8521
:1040F0007D85F80140835183628373832F960FB6C9
:10410000F894DEBF0FBECDBFDF91CF911F910F910D
:10411000FF90EF90DF90CF9008956F927F928F92F3
:104120009F92AF92BF92CF92DF92EF920F931F9325
:10413000CF93DF933C01C091490181E1C89FC02D1D
:104140001124D1E1DC0FD53508F0D4E560910C07DE
:10415000669580910407909105070E94D312182F4D
:10416000CD1708F044C08C2E912CF401E853FD4F7C
:10417000908180914A018923C1F1F401EE0FFF1F64
:10418000E05EFD4FC080D12C80E7C81AD108F40151
:10419000EE0FFF1FEF5DFD4FA080B12CE0E2AE1AE5
:1041A000B108CC9C9001CD9C300D300D1124AA9CFF
:1041B000C001AB9C900D900D1124820F931F0E94A3
:1041C0007912082F6091090770910A0780910B07F7
:1041D000E12E9501A601F30109950E94DD12462FFB
:1041E000282F672FC4010E944012CF5FB9CF81E012
:1041F000D43508F080E0DF91CF911F910F91EF90BF
:10420000DF90CF90BF90AF909F908F907F906F90F6
:104210000895CF92DF92EF92FF920F931F93CF9367
:10422000DF936C01C091490181E1C89FC02D112429
:10423000D1E1DC0FD53508F0D4E560910C07669527
:1042400080910407909105070E94D312182FCD1773
:1042500078F5EC2EF12CF701E853FD4F9081809119
:104260004A01892319F1F701EE0FFF1FEF5DFD4FA2
:10427000208130E020523109F701EE0FFF1FE05E90
:10428000FD4F408150E040575109609109077091FE
:104290000A0780910B07012FF60109950E94DD1294
:1042A000462F282F672FC7010E944012CF5FCFCF24
:1042B00081E0D43508F080E0DF91CF911F910F911C
:1042C000FF90EF90DF90CF900895DF92EF92FF92F2
:1042D0000F931F93CF93DF937C01C091490181E13C
:1042E000C89FC02D1124D1E1DC0FD53508F0D4E5ED
:1042F00060910C076695669580910407909105077B
:104300000E94D312D82ECD17F0F40C2F10E0F80134
:10431000E853FD4F908180914A01892391F060918B
:10432000090770910A0780910B072D2D4C2FF7017B
:1043300009950E94DD12462F282F672FC8010E9481
:104340004012CF5FE0CF81E0D43508F080E0DF910C
:10435000CF911F910F91FF90EF90DF9008959F9262
:10436000AF92BF92CF92DF92EF92FF920F931F9383
:10437000CF93DF936C01C091490181E1C89FC02DAB
:104380001124D1E1DC0FD53508F0D4E560910C079C
:104390006695669580910407909105070E94D31257
:1043A000182F80E4810F0E94581290E8F92EF80E21
:1043B000812F0E94581220E8922E980ECD1700F5FA
:1043C000AC2EB12CF501E853FD4F908180914A014C
:1043D0008923A1F06091090770910A0780910B076A
:1043E000E12E0C2F292D4F2DF60109950E94DD128B
:1043F000462F282F672FC5010E944012CF5FDECFC6
:1044000081E0D43508F080E0DF91CF911F910F91CA
:10441000FF90EF90DF90CF90BF90AF909F90089566
:10442000CF92DF92EF92FF920F931F93CF93DF9380
:104430006C01C091490181E1C89FC02D1124D1E1D7
:10444000DC0FD53508F0D4E520910C0730E040E0D2
:1044500050E06FEF7FEF80E090E00E94F02F890145
:10446000CD17E8F5EC2EF12CF701E853FD4F9081C4
:1044700080914A01892389F19091DB06915097FD43
:1044800015C0492F092E000C550BFA01E552F94FC2
:104490008189C813F3CF440F551FFA01E552F94F34
:1044A000218D328D2017310748F701C098016091A6
:1044B0000C07C9010E94D312AC01609109077091E9
:1044C0000A0780910B07F60109950E94DD12462F1D
:1044D000282F672FC7010E944012CF5FC1CF81E014
:1044E000D43508F080E0DF91CF911F910F91FF90BC
:1044F000EF90DF90CF9008952F923F924F925F926E
:104500006F927F928F929F92AF92BF92CF92DF92E3
:10451000EF92FF920F931F93CF93DF93CDB7DEB748
:1045200027970FB6F894DEBF0FBECDBF282E4B01E4
:104530002091490181E1289F802D11248E83182F1D
:104540001F5E153508F014E53091DB0639839E8136
:10455000911708F077C08E81682E712CF301E85313
:10456000FD4F908180914A01892309F467C0309002
:10457000090740900A07522C1F82C301880F991F18
:10458000DC01A05EBD4FBB83AA83C301880F991FC6
:10459000FC01EF5DFD4FFD83EC83F9815F16E0F5D3
:1045A000E52CF12CAA81BB81CC90D12CF701E552EE
:1045B000F94F8181C81AD108AC81BD81AC90B12C72
:1045C0008185A81AB108CC9C9001CD9C300D300D8E
:1045D0001124AA9CC001AB9C900D900D1124820F58
:1045E000931F0E947912082FF701EE0FFF1FE5526B
:1045F000F94F60910C07818D928D0E94D3127C013E
:104600009501A601632D742D8F81F4010995362E35
:10461000472E8F835394C1CF20910B078F81382F62
:10462000329F312D1124832F632D742D0E94DD12B2
:10463000462F282F672FC3010E9440128E818F5F63
:104640008E8385CF81E0143508F080E027960FB681
:10465000F894DEBF0FBECDBFDF91CF911F910F91B8
:10466000FF90EF90DF90CF90BF90AF909F908F9092
:104670007F906F905F904F903F902F9008951F9381
:10468000CF93DF93CDB7DEB7AA970FB6F894DEBF0E
:104690000FBECDBFE3EDF6E08091F100819346E0DF
:1046A000EB3DF407C9F78091D406833009F460C06C
:1046B00030F4813071F0823009F49AC0B1C08A3090
:1046C00009F486C08B3009F46BC0893009F0A8C0AA
:1046D00020C08091D306813A09F0A2C08091E80001
:1046E000877F8093E8008091D7069091D806892B28
:1046F00021F460E28FEA96E003C060E080E090E0A1
:1047000070E00E94BA2D8091E8008B778093E800DA
:1047100087C08091D306813209F082C08091D7068C
:104720009091D806009719F0029709F079C080910E
:10473000E800877F8093E8008091E80082FD05C053
:104740008091D1068111F8CF6BC08091F2009091D9
:10475000F300029729F48091F1008B7F813021F4DE
:104760008091F1008093AE068091E8008B7754C071
:104770008091D306813A09F053C08091D706909179
:10478000D806892B09F04CC08091E800877F809380
:10479000E8008091E80080FFFCCF8091480137C09D
:1047A0008091D3068132E1F58091D7069091D806A9
:1047B000892BB1F58091E800877F8093E8000E9403
:1047C0002F2C8091D506809348010E94981F28C005
:1047D0008091D306813221F58091E800877F809314
:1047E000E8000E942F2C8091D6068093AD0618C059
:1047F0008091D306813AA1F48091E800877F80936D
:10480000E8008091E80080FFFCCF8091AD068093A6
:10481000F1008091E8008E778093E8000E942F2CB1
:104820008091E80083FFDAC18091D3069091D4068D
:10483000492F50E04A30510508F0D0C1FA01EF5538
:10484000FF4F0C947B30803821F0823809F0C6C1CC
:1048500008C08091CF069091D006992389F082609C
:104860000FC08091D7068F70873008F0B7C1809352
:10487000E9008091EB0085FB882780F91092E90020
:104880009091E800977F9093E8008093F100109258
:10489000F1006DC1282F2D7F09F0A0C1882319F0E8
:1048A000823061F09BC18091D506813009F096C1BC
:1048B000933009F080E08093D0062EC08091D50619
:1048C00081112AC08091D7068F702FEF280F2630D4
:1048D00008F084C18093E9002091EB0020FF1CC008
:1048E000933021F48091EB00806214C09091EB0032
:1048F00090619093EB0021E030E0A90102C0440FE9
:10490000551F8A95E2F74093EA001092EA008091E1
:10491000EB0088608093EB001092E9008091E80042
:10492000877F8093E8000E942F2C58C1811156C1C7
:104930001091D5061F778091E3008078812B8093BA
:10494000E3008091E800877F8093E8000E942F2C8D
:104950008091E80080FFFCCF8091E3008068809325
:10496000E300111102C082E001C083E08093D10610
:1049700035C18058823008F031C12091D506309180
:10498000D6062C3D53E0350779F583E08A838AE229
:1049900089834FB7F894DE01139620E03EE051E2A0
:1049A000E32FF0E050935700E49120FF03C0E2951D
:1049B000EF703F5FEF708E2F90E0EA3010F0C796F7
:1049C00001C0C0968D939D932F5F243149F74FBF4F
:1049D0008091E800877F8093E8006AE270E0CE0172
:1049E00001960E94BA2DB1C08091D7069091D80649
:1049F000432F552743305105A9F068F44130510544
:104A000009F4FBC04230510509F0E8C08BE590E0A5
:104A1000E5ECF5E04BC04132510529F14232510538
:104A200089F1DCC0C901992781309105A1F058F0C6
:104A3000029709F0D3C0E2E3F6E0E4918E2F90E014
:104A4000E2E3F6E030C0E8E9F6E0E4918E2F90E092
:104A5000E8E9F6E028C0E4E8F6E0E4918E2F90E083
:104A6000E4E8F6E020C08330910508F0B7C0880F75
:104A7000991FFC01EA53FE4F0190F081E02D89E07F
:104A800090E014C08330910508F0A8C0FC01EE0F3F
:104A9000FF1FE054FE4F0190F081E02DDC01A35494
:104AA000BE4F8C9190E0009709F498C02091E800E7
:104AB000277F2093E8002091D9063091DA06281745
:104AC000390708F4C90140E0009771F12091D1063F
:104AD0002223D9F12530C9F12091E80023FD35C00A
:104AE0002091E80022FD2DC02091E80020FFECCFAE
:104AF0002091F2003091F300009759F028303105F1
:104B000040F444914093F100319601972F5F3F4F5D
:104B1000F3CF41E02830310509F040E02091E80072
:104B20002E772093E800D0CF4111D0CF0AC08091DA
:104B3000D106882351F0853041F08091E80083FD53
:104B400004C08091E80082FFF2CF8091E8008B776B
:104B50008093E80043C0803809F040C08091E800AD
:104B6000877F8093E8008091D2068093F100809146
:104B7000E8008E77D6CE811131C08091D506909114
:104B8000D6069927029754F58091E800877F809395
:104B9000E8001091D5061093D2060E942F2C111117
:104BA00006C08091E30087FD02C081E001C084E07F
:104BB0008093D10642E061EC81E00E944E2C42E2FB
:104BC00061EC84E00E944E2C42E261EC82E00E94A3
:104BD0004E2C42E260EC83E00E944E2C8091E80073
:104BE00083FF10C08091E800877F8093E800809168
:104BF000EB0080628093EB0005C082E190E0E0E290
:104C0000F6E054CFAA960FB6F894DEBF0FBECDBF24
:104C1000DF91CF911F91089590915C0392FF0DC099
:104C2000282F2871283019F4877F846006C0282F28
:104C30002471243011F48B7F886093FF0DC0282FDE
:104C40002871283119F4877E846106C0282F2471C9
:104C5000243111F48B7E886120915D0320FF0DC00B
:104C6000382F3871383019F4877F816006C0382FAB
:104C70003171313011F48E7F886021FF0DC0282FF3
:104C80002871283119F4877E816106C0282F21718F
:104C9000213111F48E7E886194FD877E0895F89409
:104CA000E82FE295EF70F0E031A1282F2F7081E01E
:104CB00090E001C0880F2A95EAF7982F90959323EA
:104CC00091A392A1892B82A378940895CF93DF9327
:104CD0000E943112EC018238910559F1A0F4813320
:104CE000910509F473C040F48932910509F467C055
:104CF0008A9709F472C084C08533910509F458C0BD
:104D0000C997B9F07DC0833E910571F138F4803EBA
:104D10009105B1F0823E910511F172C0863E910578
:104D2000B9F1873E9105C9F1843E910509F068C04B
:104D300024C080915C0380FD5DC081FD5BC060C0CC
:104D400080915C0380FD50C080915D0380FF36C17F
:104D500080915C0384FD30C1C3EED0E02FC180910F
:104D60005C0382FF2BC1F4CF80915C0382FD3FC0C6
:104D700080915D0380FD3EC0EBCF80915D0381FF9C
:104D80001DC180915C0384FD17C1C7EED0E016C140
:104D900080915C0383FF12C1F4CF80915C0383FD9B
:104DA0002CC080915D0381FFECCFC4EED0E006C142
:104DB00080915C0385FF02C1C9E2D0E0FFC0809111
:104DC0005C0385FFFBC0C5E3D0E0F8C080915C03C5
:104DD00086FFF4C0CAE2D0E0F1C080915C0386FF98
:104DE000EDC0C1E3D0E0EAC0C9E3D0E0E7C0C2EE65
:104DF000D0E0E4C0C0EED0E0E1C0C6EED0E0DEC05E
:104E0000C11582E5D80708F066C0C11591E5D9073C
:104E100028F0DC2FCC27C16FD06AD0C0C83ED105A6
:104E200060F5C03ED10508F0C9C0C83AD105B0F45C
:104E3000C53AD10540F0C55AD0E0C45EDC4FC88108
:104E4000D0E0D064BBC0C130D10509F4B7C008F4CC
:104E5000B3C0C430D10508F4AFC0B0C0CF3BD1055A
:104E600008F0AAC0C85AD0E0CC0FDD1FC15EDC4FED
:104E70000990D881C02DD464A1C0C11520E5D20706
:104E8000E0F0CE0174E0969587957A95E1F783700E
:104E90009C2F937021E030E002C0220F331F9A95BF
:104EA000E2F73C68382BCF70C695C69580E2C89F64
:104EB000E0011124C22BD32B81C0C11580E4D80797
:104EC00018F0DF70D06A7AC0CE019A9581159F41A3
:104ED00008F474C071C0C11586E5D807F0F5C11596
:104EE00095E5D90750F08C2F0E940C268F71C82FA2
:104EF000D0E0DC2FCC27D06261C0C11524E5D207F9
:104F000028F0DC2FCC27C46FD06A58C09E012370D4
:104F100033278C2F86958695C115D34578F4C1E04B
:104F2000D0E002C0CC0FDD1F2A95E2F720E2829F7D
:104F3000C0011124C82BD92BDC6840C0C1E0D0E0EF
:104F400002C0CC0FDD1F2A95E2F720E2829FC0014C
:104F50001124C82BD92BDA6831C0C1152AE5D20734
:104F6000E8F4C11589E5D80780F08C2F8F700E9476
:104F70000C2694E0D695C7959A95E1F7CF70D0E0CE
:104F8000DC2FCC27D069C82B19C0C11598E5D907EB
:104F900098F0DC2FCC27C06FD06A10C0CE0190569D
:104FA0008115904248F48D2F8F710E940C26DD27C9
:104FB000D0628F71D82B02C0C0E0D0E0CE01DF916B
:104FC000CF910895CF92DF92EF92FF926C01EE2481
:104FD000FF24C114D104E104F10421F0C701B6019A
:104FE00020E101C020E0C72ED82EE92EFF24C114F5
:104FF000D104E104F10419F0285FC701B6016B0187
:105000007C0154E0F694E794D794C7945A95D1F76D
:10501000C114D104E104F10419F02C5FC701B601F9
:105020006B017C0142E0F694E794D794C7944A95CB
:10503000D1F7C114D104E104F10419F02E5FC701C6
:10504000B601DC01CB01B695A79597958795892B7D
:105050008A2B8B2B09F02F5F822FFF90EF90DF9030
:10506000CF90089581E08093E00080E28093D800A3
:10507000E9ECF0E010828FE097E20197F1F700C0D1
:1050800000001DBA109268001CBC10BE1FBA10921E
:105090007A0010926E0010926F00109270001092C1
:1050A000710010821092BC0088E081B914B817B862
:1050B0001AB81DB810BA82B915B818B81BB81EB8FE
:1050C00011BA0C94007E0895882311F084EC01C07D
:1050D00084E88093BC0080E49FE1A0E0B0E02091F0
:1050E000BC0027FD08C00097A105B10561F001973C
:1050F000A109B109F4CF892B8A2B8B2B21F0809148
:10510000BB0090E008958FEF9FEF0895DB01FC0155
:1051100020E030E084E82A173B071CF5919190933A
:10512000BB008093BC0040E45FE160E070E09091E0
:10513000BC0097FD0AC0411551056105710599F044
:105140004150510961097109F2CF452B462B472B7C
:1051500051F09091B900987F983229F42F5F3F4F1A
:10516000DACFC90108958FEF9FEF089584E9809306
:10517000BC008091BC0084FDFCCF0895262F94EAEA
:105180009093BC0040E45FE160E070E09091BC006F
:1051900097FD0AC0411551056105710549F041505F
:1051A000510961097109F2CF452B462B472B19F4A0
:1051B0008FEF9FEF08959091B900987F983011F08C
:1051C0009031B1F7682F660F622B6093BB0084E8C3
:1051D0008093BC0080E49FE1A0E0B0E02091BC009F
:1051E00027FD08C00097A105B10511F30197A1099A
:1051F000B109F4CF892B8A2B8B2BD1F28091B90086
:10520000887F883111F0803499F680E090E008952D
:10521000FF920F931F93CF93DF931F92CDB7DEB70B
:105220008B01FC01F1808DE1898360E08F2D0E946C
:10523000BE2897FD1AC061E070E0CE0101960E9481
:10524000862897FD12C061E08F2D0E94BE2897FD31
:105250000CC080E00E94642897FD07C0F80180839D
:105260000E94B62821E090E001C0282F822F0F90E5
:10527000DF91CF911F910F91FF9008950F931F938E
:10528000CF93DF93EB018A0160E00E94BE2897FD77
:1052900009C0B801CE010E948628EC0197FF0E9448
:1052A000B628CE01DF91CF911F910F910895CF9332
:1052B000DF9300D01F92CDB7DEB72091520130911D
:1052C00053014091540129833A834B8343E050E0DA
:1052D000BE016F5F7F4FFC0180810E943E290F90CD
:1052E0000F900F90DF91CF9108958F929F92AF9280
:1052F000BF92CF92DF92EF92FF920F931F93CF93C3
:10530000DF93CDB7DEB729970FB6F894DEBF0FBE97
:10531000CDBF7C01B42EA52E962E872E690160E0AC
:10532000FC0180810E94BE2897FD22C019821A824A
:1053300086E0800F8B831C820D838E829F82A886DD
:10534000B98669E070E0CE0101960E94862897FD3B
:105350000FC0B801C6010E94862897FD09C00E94AF
:10536000B628C7010E94572997FD02C0912F01C09E
:10537000082F802F29960FB6F894DEBF0FBECDBF41
:10538000DF91CF911F910F91FF90EF90DF90CF9021
:10539000BF90AF909F908F9008950F931F93CF93DE
:1053A000DF9300D000D0CDB7DEB709831A832B83FB
:1053B0003C8304E010E09E012F5F3F4F0E9475295F
:1053C0000F900F900F900F90DF91CF911F910F9141
:1053D0000895EF92FF920F931F93CF93DF9300D026
:1053E00000D0CDB7DEB77C01162F19821A821B823E
:1053F0001C829E012F5F3F4F48E259E060E87FEB3F
:10540000FC01808191810E94052097FD36C0898131
:105410009A81AB81BC8141E050E060E070E0F7012F
:10542000028004C0440F551F661F771F0A94D2F7ED
:10543000112329F0842B952BA62BB72B08C0409560
:1054400050956095709584239523A623B72389836F
:105450009A83AB83BC8309811A812B813C8148E20A
:1054600059E060E87FEBF701808191810E94CD29AE
:105470001816190614F480E090E00F900F900F902A
:105480000F90DF91CF911F910F91FF90EF900895B2
:105490000F931F93CF93DF9300D01F92CDB7DEB74A
:1054A0008C01BE016D5F7F4F0E94082997FD2EC0C1
:1054B0008B81F8019281981739F18283982F93702C
:1054C000923039F0869586958370823081F460E061
:1054D00001C061E0F801838194810E94E92997FD70
:1054E00015C087E78A83AE014E5F5F4F05C086E631
:1054F0008983AE014F5F5F4F63E2F80181810E94B3
:10550000D91F1816190614F480E090E00F900F9040
:105510000F90DF91CF911F910F9108950F931F93DB
:10552000CF93DF931F92CDB7DEB78C01BE016F5FC3
:105530007F4F0E94082997FD12C09981292F23705F
:10554000F80183819481211102C060E001C061E013
:105550000E94E9291816190614F480E090E00F90D3
:10556000DF91CF911F910F910895CF92DF92EF922B
:10557000FF920F931F93CF93DF9300D000D01F9221
:10558000CDB7DEB76C018FEFF6018283E380F48044
:10559000F70142815381648175814D5F534F6F479D
:1055A0007044808191811D8201E010E09E012B5F9B
:1055B0003F4F0E94752997FD3CC060E0C7010E94E3
:1055C000E92919821A821B821C829E012F5F3F4F9C
:1055D00048E059E060E87FEBF701808191810E940B
:1055E000052097FD26C001E010E020E030E0F70143
:1055F000028004C0000F111F221F331F0A94D2F72C
:1056000089819A81AB81BC81082B192B2A2B3B2BDA
:1056100009831A832B833C8348E059E060E87FEBE1
:10562000808191810E94CD291816190614F480E01A
:1056300090E00097C9F4F6012081222369F021301F
:1056400099F485E08983AE014F5F5F4F6AE1F6010F
:1056500081810E94D91F03C0C6010E948E2A18169C
:10566000190614F480E090E00F900F900F900F90C7
:105670000F90DF91CF911F910F91FF90EF90DF90EE
:10568000CF90089520910905211110C00E94E227B2
:10569000843060F495E0989FF0011124E75DFE4F9F
:1056A000A8E0B7E001900D929A95E1F708959091E6
:1056B0000905911112C080932C01809331018093D0
:1056C000360180933B01609104057091050580913E
:1056D0000605909107050C94422B089544E150E093
:1056E00063EE72E0882361F089E291E00E94BC2FB2
:1056F0004CEF50E067EF72E088E094E00C94BC2F30
:1057000089E291E00E949E2F4CEF50E067EF72E03B
:1057100088E094E00C949E2F80910807837029F014
:105720008C69809308071092280181E08093090515
:1057300008951F920F920FB60F9211242F933F934B
:105740004F935F936F937F938F939F93AF93BF9389
:10575000CF93DF93EF93FF93C091E900CF708091D7
:10576000EC00D82FD17080FDD0E81092E900809134
:10577000F000877F8093F00078940E943F2310927E
:10578000E9008091F00088608093F000CD2BCF700D
:10579000C093E900FF91EF91DF91CF91BF91AF915D
:1057A0009F918F917F916F915F914F913F912F9139
:1057B0000F900FBE0F901F901895E8EDF0E08081DC
:1057C0008C7F80831092E2001092DA001092E10048
:1057D000A0EEB0E08C9181608C9380818F77808384
:1057E00019BCA7EDB0E08C918E7F8C9380818F7E69
:1057F000808310920D0708952091E4003091E50018
:1058000095E64091EC00842F817040FF23C0809189
:10581000E80080FD1DC08091D106882399F0853075
:1058200099F08091EB0085FD11C04091E40050910A
:10583000E5002417350729F3915011F09A01E1CFC3
:1058400084E0089582E0089583E0089581E008955A
:1058500080E008954091E80042FFDDCF08958091F7
:10586000D30687FF11C08091E80082FD05C08091BA
:10587000D1068111F8CF11C08091E8008B770BC061
:105880008091D106882349F08091E80080FFF8CF0D
:105890008091E8008E778093E8000895982F9730E4
:1058A00068F59093E900981739F07091EC00209119
:1058B000ED005091F00003C0242F762F50E021FD21
:1058C00002C09F5FECCF3091EB003E7F3093EB0046
:1058D0003091ED003D7F3093ED003091EB00316071
:1058E0003093EB007093EC002093ED005093F000A8
:1058F0002091EE0027FDE5CF80E008958F70809322
:10590000E90081E00895CF92DF92EF92FF920F932A
:105910001F93CF93DF93C8EDD0E088818F7E88837B
:10592000E7EDF0E080818160808381E080930D0766
:1059300088818C7F888302EE10E0D8011C9210923F
:10594000DA0081EEC82ED12CD6011C9288818F7787
:10595000888388818068888388818F7D888380811F
:105960008068808319BC1092D1061092D2061092E2
:10597000D0061092CF0690EEE92EF12CF70180812F
:105980008B7F808388818160888342E060E080E053
:105990000E944E2CD6018C918E7F8C93F8018081D1
:1059A00081608083808188608083D7018C918E7F25
:1059B0008C93888180618883DF91CF911F910F91B3
:1059C000FF90EF90DF90CF9008951F920F920FB647
:1059D0000F9211242F933F934F935F936F937F9375
:1059E0008F939F93AF93BF93EF93FF938091E100C9
:1059F00082FF09C08091E20082FF05C08091E10032
:105A00008B7F8093E1008091DA0080FF2AC0809133
:105A1000D80080FF26C08091DA008E7F8093DA0064
:105A20008091D90080FF18C088E189BD8AE189BDD5
:105A300009B400FEFDCF81E08093D10680910D076F
:105A400081110FC00E94DD2B0E94832C8091E20007
:105A500084608093E20005C019BC1092D1061092B8
:105A60000D078091E10080FF17C08091E20080FF68
:105A700013C08091E2008E7F8093E2008091E2006B
:105A800080618093E2008091D80080628093D8008A
:105A900019BC85E08093D1068091E10084FF2EC07F
:105AA0008091E20084FF2AC088E189BD8AE189BD36
:105AB00009B400FEFDCF8091D8008F7D8093D8007F
:105AC0008091E1008F7E8093E1008091E2008F7EE3
:105AD0008093E2008091E20081608093E2008091F7
