:100000000C944E030C9495030C9495030C94950357
:100010000C9495030C9495030C9495030C94950300
:100020000C9495030C9495030C94FB2C0C94AF2B1F
:100030000C94421A0C9495030C9495030C9495031C
:100040000C9495030C9495030C9495030C949503D0
:100050000C9495030C94101A0C9495030C9495032E
:100060000C9495030C9495030C9495030C949503B0
:100070000C9495030C9495030C9495030C949503A0
:100080000C9495030C9495030C9495030C94950390
:100090000C9495030C949503F206FB062607630760
:1000A000A107E307260829082C082F08320835087D
:1000B00038083B083E084108460849084C085108E2
:1000C000560859085C0861089D08D908DC08E10851
:1000D000EC08EF08FA08FD0808090B0916091909C8
:1000E00024092A099A09DF09DF0AE50AEA0A870CC6
:1000F000870CF30A870C870CFD0A0E0B350B540B8B
:10010000750BA70BD60BFF0B320C2A0C7D0C1D17A1
:100110001D1757175717AA174D194D194D19C617FF
:10012000A418B518B518FC1BFC1B0F1C0F1C051CD4
:100130000F1C0F1C0F1CFC1BFC1B0A1C0F1C0F1C94
:100140000A1C9923C0236425C02364250C242F2472
:1001500064252125312529003A003B003C003D0063
:100160003E003F0040004100420043004400450083
:100170004C0035001E001F0020002100220023003B
:1001800024002500260027002D002E002A002B0029
:1001900014001A000800150017001C0018000C00BD
:1001A000120013002F003000310039000400160047
:1001B000070009000A000B000D000E000F003300BD
:1001C000340028004A00E1001D001B000600190051
:1001D000050011001000360037003800E50052001D
:1001E0004B00E000E2000151E3002C004D002C0028
:1001F000E400E6000151500051004F004E00005C49
:1002000001000100010001000100010001000100E6
:1002100001000100010001000100010001000100D6
:100220000100010001000100010001000100C35CA8
:10023000CB5CCA5C01004600010001000100010026
:1002400001004A004E004B004D000100010001007A
:100250000100010001000100010001000100500047
:10026000510052004F00010001000100AE000100EA
:100270000100010001000100010001000100010076
:100280000100010001004B00A90001000100010074
:1002900001000100A80001000100010001004A0066
:1002A0004E004D00AA000100010001000100010004
:1002B0000100010001000100010001000100010036
:1002C0000100010001000100010001000100010026
:1002D0000100010001000100010001000100010016
:1002E0000100010001000100010001000100010006
:1002F00001000100010001000100010001000100F6
:1003000001000100010001000100010001000100E5
:1003100001000100010001000100010001000100D5
:1003200001000100010001000100010001000100C5
:1003300001000100010001000100010001000100B5
:1003400001000100010001000100010001000100A5
:100350000100010001000100010001000100010095
:100360000100010001000100010001000100010085
:100370000100010001000100010001000100010075
:100380000100010001000100010001000100010065
:100390000100010001000100010001000100010055
:1003A0000100010001000100010001000100010045
:1003B0000100010001000100010001000100010035
:1003C0000100010001000100010001000100010025
:1003D0000100010001000100010001000100010015
:1003E0000100010001000100010001000100010005
:1003F00001000100010005010980A1018503190127
:100400002AB700150126B700950175108100C005B7
:100410000C0901A101850419012AA002150126A0D9
:1004200002950175108100C005010906A10185052D
:10043000050719E029E715002501950875018102D6
:100440000507190029EF1500250195F075018102B6
:100450000508190129059505750191029501750396
:100460009101C00660FF0961A1010962150026FF24
:10047000009520750881020963150026FF0095206C
:1004800075089102C005010906A101050719E029B7
:10049000E715002501950875018102950175088110
:1004A000010507190029FF150026FF0095067508AC
:1004B000810005081901290595057501910295012D
:1004C00075039101C009025B00030100A0FA090451
:1004D0000000010301010009211101000122400077
:1004E0000705810308000A09040100020300000057
:1004F00009211101000122220007058203200001C9
:1005000007050303200001090402000103000000A5
:10051000092111010001226D000705840320000A52
:1005200012011001000000088433060001000102DE
:10053000000150034C00610075006E00630068000C
:10054000200043006F006E006600690067007500C0
:100550007200610062006C00650020004B006500C5
:10056000790062006F0061007200640020002800C2
:100570006C00610075006E00630068005F0032006F
:100580002900000012035300790073007400650015
:100590006D0037003600000004030904000101016A
:1005A0000101010101010202020202020202020330
:1005B0000303030303030304040404040404050500
:1005C00005050506060606060707070707080808C3
:1005D00008090909090A0A0A0B0B0B0C0C0C0D0D72
:1005E0000D0E0E0E0F0F0F1010111111121213130A
:1005F0001414151516161717181819191A1A1B1B83
:100600001C1D1D1E1E1F20202122222324242526DE
:1006100026272829292A2B2C2D2D2E2F3031323216
:10062000333435363738393A3B3C3D3E3F40414222
:10063000434445464748494A4C4D4E4F5051535408
:10064000555658595A5B5D5E5F61626465666869BC
:100650006B6C6D6F7072737577787A7B7D7E80823C
:10066000838587888A8C8E8F91939596989A9C9E85
:10067000A0A2A3A5A7A9ABADAFB1B3B5B7BABCBE95
:10068000C0C2C4C6C9CBCDCFD1D4D6D8DBDDDFE262
:10069000E4E7E9EBEEF0F3F5F8FAFDFF11241FBEF5
:1006A000CFEFD0E1DEBFCDBF04B603FE27C08091FF
:1006B000100790911107A0911207B091130787308E
:1006C000904BA740B04BD1F4109210071092110735
:1006D000109212071092130714BE84B7877F84BF4D
:1006E0000FB6F894A89580916000886180936000AF
:1006F000109260000FBEE0E0F8E7099513E0A0E07B
:10070000B1E0E2E6F1E602C005900D92A035B10736
:10071000D9F727E0A0E5B3E001C01D92A031B207F0
:10072000E1F70E9497030C94AF300C940000CF9334
:10073000DF93CDB7DEB7AB970FB6F894DEBF0FBE31
:10074000CDBF84B7877F84BF0FB6F894A8958091FA
:100750006000886180936000109260000FBE91E09D
:1007600080E80FB6F89480936100909361000FBE0B
:1007700085B7806885BF85B7806885BF83E999E1C3
:1007800090935103809350030E94F32B0E94992C65
:100790008091E20084608093E20078948091D1059A
:1007A0008823A1F01091E9001F709091EC00892F2F
:1007B000817090FD80E8182B1092E9008091E8008C
:1007C00083FD0E94B5221F701093E90082E084BD72
:1007D00093E095BD9DE797BD80936E000FE711E014
:1007E00045E8C42E41E0D42ED8018D918D010E94A0
:1007F000080DC016D106C1F705E811E033E9C32E94
:1008000031E0D32EF80181918F010E94080DC016AE
:10081000D106C1F7E2E5F3E08EE593E0ADEFB3E09A
:10082000119211921D921D928E179F07C9F780E0B9
:1008300090E00E94CC2F8B3E9E4F11F00E94D91A5F
:100840001092DB05E4EFF5E084E096E02FEF3FEF58
:10085000219331938E179F07D9F710926303ECE72A
:10086000F3E08CE893E02FEF3FEF219331938E1765
:100870009F07D9F780E090E00E94CC2F8B3E9E4FDF
:1008800021F00E94D91A0E941C2A45E050E06CE138
:1008900070E088E096E00E94B42F809108068C7F7B
:1008A00011F40E941C2A0E9480128FE097E20197A7
:1008B000F1F700C00000AFE0B7E21197F1F700C018
:1008C00000000E9480128091FD0380FF14C06FEF32
:1008D0007FEF80E490E00E9400306FEF82E490E0D0
:1008E0000E94E22F6FEF7FEF80E090E00E940030E7
:1008F0000E94B61302C00E94C91180E490E00E94D9
:10090000CC2F8C3E964739F482E490E00E94C42FAD
:1009100091E0823009F090E090FD39C000E010E0F5
:10092000680128EAC20ED11C4801ECE18E0E911C30
:10093000F801EA5AFE4FA590B4906B2DC8018D5B6B
:100940009F4F0E94E22F6A2DC8018C5B9F4F0E942F
:10095000E22F0E5F1F4F8016910651F78401C814D5
:10096000D90411F78601F0EACF16F2E0DF06C1F6EE
:1009700081E00E9416146CEE76E780E490E00E941D
:10098000003062E082E490E00E94E22F03C080E049
:100990000E94161460910605709107058091080564
:1009A000909109050E94EA1380E090E00E94CC2F0C
:1009B0008B3E9E4F11F00E94D91A82E090E00E9477
:1009C000C42F8093F0030E94C81A90935F03809312
:1009D0005E0383E090E00E94C42F682F70E080E007
:1009E00090E00E94DF1C60910605709107058091E0
:1009F0000805909109050E94EA1360915E03606802
:100A000060935E0310915F0384E090E00E94E22F08
:100A1000612F81E290E00E94E22F8BE191E09093C0
:100A200061038093600322242394312C8091D105AB
:100A3000853009F054C080E4E82EDD24D39498E199
:100A4000F92E1AE18091D105853009F042C08091DC
:100A5000D105843051F140E060E080E00E94182A26
:100A6000D092EE031092620368E170E00FB6F89442
:100A7000A895609360000FBEE092600083B7817F0D
:100A8000846083BF83B7816083BF7894889583B780
:100A90008E7F83BF0FB6F894A8958091600088611F
:100AA00080936000109260000FBE8091D005882373
:100AB00009F4C8CF0E948012EDEFF3E0819191918B
:100AC000892B09F04BC789E094E08E179F07B1F797
:100AD000B9CF0E940E1F0E9442291092EE030E947D
:100AE0008012882359F08FB7F8944091EA0350910F
:100AF000EB036091EC037091ED038FBFA1EFB3E0C6
:100B0000EDEFF3E0E12CF12C4E2DA190B1908D9101
:100B10009D918A259B25009709F4AEC010E0CC2456
:100B2000C394D12C9C012C213D21232B09F49EC080
:100B300019A34AA3AC20BD2081E0A114B10409F49B
:100B400080E08BA30E94361A8160782F9DA38CA32E
:100B500049A15AA16BA18DA10E947828F701EE0F3F
:100B6000FF1FEF50FC4F80819181C826D926D1828A
:100B7000C082AB2881F08EE08E9DF0018F9DF00D3C
:100B80001124E953FE4FE10FF11D80818F3F19F0D1
:100B90008BA711E001C010E0B0906303E12EF12CAF
:100BA000C7018B0D911D0997A4F188E090E06C01BD
:100BB000CE18DF08B7016F5F7F4F6D597C4FA601DC
:100BC00084E693E00E949730B701675F7F4F6D59CD
:100BD0007C4FA6018CE693E00E949730A601440F5B
:100BE000551FB701660F771F675E7F4F6D597C4FAA
:100BF0008CE793E00E949730B7016F5E7F4F6D598D
:100C00007C4FA60184E793E00E949730BA94B0929B
:100C100063038091630390E0EBA5AE2FB0E09D01EC
:100C2000220F331F255E3D4FAA0FBB1FBD01645E1F
:100C30007D4F41E0480F9117B0F490E0FC01ED5971
:100C4000FC4FD9015C915183DB015C915187BBA5BD
:100C5000B18B880F991FFC01ED59FC4F128E118E3C
:100C600091E0842FE6CF809363031EC01F5FCC0CFE
:100C7000DD1C1E3009F056CF2FEFE21AF20A36E0E3
:100C8000E316F10409F040CF8FEF8EA38FA318A6CF
:100C90000E94361A8160782F9AA789A74EA15FA17A
:100CA00068A58AA50E94782840918C0350918D03F5
:100CB00060918E0370918F032FB7F8948091EA03AF
:100CC0009091EB03A091EC03B091ED032FBF841B37
:100CD000950BA60BB70B2FB7F894C090EA03D090F2
:100CE000EB03E090EC03F090ED032FBFC0928C0378
:100CF000D0928D03E0928E03F0928F036091630394
:100D0000E3E6F3E0462F50E088248A94982CA12C47
:100D1000B12C881A990AAA0ABB0A651799F0218D85
:100D2000328D2901612C712C84149504A604B7041A
:100D300010F4415004C0280F391F328F218F5F5F9C
:100D40003296EBCF409363038091EE03811108C08C
:100D500010910806812F837019F01695169501C021
:100D600010E0809106018130E9F038F0823009F41A
:100D7000A7C3833009F4B1C3CDC310924901C09217
:100D80000406D0920506E0920606F092070689E274
:100D9000E3E6F3E0ABEDB5E001900D928A95E1F763
:100DA00081E098C38091050118130DC020910806B9
:100DB000237030E04091040150E081E024173507B2
:100DC00019F480E001C081E0817080934B01412FD4
:100DD00050E04832510508F061C3FA01E45BFF4F6F
:100DE0000C949130882309F459C340E060E080E01E
:100DF0000E94182A53C3F090490181E1F89EF02C1B
:100E0000112401E10F0D053508F004E56091090694
:100E100070910A0680910B060E94B72AD62EC72E23
:100E2000B82EF01608F037C3EF2DF0E0DF01AD5318
:100E3000BD4F8C9190914A01982331F02B2D4D2D6F
:100E40006C2DCF010E941A2AF394EBCFF090490148
:100E500081E1F89EF02C112401E10F0D053508F019
:100E600004E5C0900A06D0900B06B09009066B2DE1
:100E70007C2D8D2D0E94B72AA62E972E882E60914C
:100E80000C066B0D7C2D8D2D0E94B72AD62EC72EF9
:100E9000B82EF01608F0FFC28F2D90E0FC01ED5344
:100EA000FD4F308120914A01232359F030FF04C0C7
:100EB0002B2D4D2D6C2D03C0282D4A2D692D0E9400
:100EC0001A2AF394E6CFD090490181E1D89ED02C24
:100ED000112401E10D0D053508F004E5A0900A0686
:100EE00090900B0620910C0630E4B32E5B2D529FA0
:100EF000512D1124B52ED01608F0CDC2ED2CF12CB9
:100F0000F701ED53FD4F908180914A018923B9F09B
:100F1000F701EE0FFF1FE45EFD4F808182958F7019
:100F2000609109068B9D600D11247A2D892D0E94F8
:100F3000B72A462F282F672FC7010E941A2AD39459
:100F4000DACFD090490181E1D89ED02C112401E163
:100F50000D0D053508F004E5A0900A0690900B06EB
:100F600020910C0680E4B82E6B2D629F612D112418
:100F7000B62ED01608F08FC2ED2CF12CF701ED53F0
:100F8000FD4F908180914A018923D9F0F701EE0F3E
:100F9000FF1FE55EFD4F6081B69EB0011124B5E0F4
:100FA00075956795BA95E1F780910906680F7A2DD6
:100FB000892D0E94B72A462F282F672FC7010E942C
:100FC0001A2AD394D6CFF090490181E1F89EF02CF3
:100FD000112401E10F0D053508F004E5C090090664
:100FE000D0900A06B0900B0660910C066695669547
:100FF000669580910406909105060E94AD2A0E9494
:10100000322A805887FD8195880F782F2B2D729F6B
:10101000712D1124872FB6010E94B72AD62EC72E14
:10102000B82EF01608F037C2EF2DF0E0DF01AD5317
:10103000BD4F8C9190914A01982331F02B2D4D2D6D
:101040006C2DCF010E941A2AF394EBCF80E697E231
:101050001AC084E397E217C089E398E21FC08AE1CF
:1010600098E21CC08FEF97E21EC083EE97E21BC090
:1010700082E397E208C089E297E205C080E297E246
:1010800002C085E097E20E94DB2009C286EF96E26B
:101090000AC084E89AE202C082ED97E20E947F20B3
:1010A000FEC18EEB97E20E940320F9C188EC96E224
:1010B00005C086E996E202C088E596E20E942521F5
:1010C000EEC181111EC060910C0620E1620F08F490
:1010D0006FEF80910406909105060E94AD2A6AE0A8
:1010E00070E00E946930892B09F0D8C10E94A42FBA
:1010F00064E570E00E947D3060914A010E94472BB8
:10110000CDC18091490191E1899F802D112401E198
:10111000080F053508F004E5E82EF12CC02ED12C7F
:10112000EC14FD040CF0B7C160914A01C7010E94A4
:10113000472B3FEFE31AF30AF3CF81111EC06091F2
:101140000C0620E1620F08F46FEF80910406909185
:1011500005060E94AD2A65E070E00E946930892B87
:1011600009F09CC10E94A42F64E570E00E947D30CC
:1011700060914A010E948D2B91C18091490191E1BA
:10118000899F802D112401E1080F053508F004E541
:10119000E82EF12CC02ED12CEC14FD040CF07BC1F8
:1011A00060914A01C7010E948D2B5FEFE51AF50A95
:1011B000F3CF81E596E202C08BE496E20E9486219D
:1011C0006EC18091DB0521E0682F621B08F460E0AE
:1011D000862F62E376E23BC062E376E237C080911D
:1011E000DB0521E0782F721B08F470E0872F6AEF8F
:1011F00075E22DC06AEF75E229C08091DB0521E020
:10120000382F321B08F430E0832F68EC75E21FC0E2
:1012100068EC75E21BC08091DB0521E0582F521B62
:1012200008F450E0852F60EB75E211C060EB75E2C9
:101230000DC08091DB0521E0682F621B08F460E09F
:10124000862F6AE975E203C06AE975E280E00E94D0
:10125000F22125C18091E403811125C067EC71E082
:1012600040E050E0942F9295907F20E030E0FB0129
:10127000E20FF31F8081843538F4E82FF0E0E05767
:10128000FC4F892F822B80832F5F3F4F2E303105FB
:1012900071F74F5F5F4F625F7F4F4630510511F727
:1012A00081E08093E403D090490181E1D89ED02C65
:1012B000112401E10D0D053508F004E560910605E6
:1012C0007091070580910805909109050E949B0E79
:1012D000B82E6091090670910A0680910B060E9453
:1012E000B72AA62E972E882ED01608F0D4C0ED2C43
:1012F000F12CF701ED53FD4F908180914A01892334
:10130000B9F0F701E057FC4F6081462F4F706295AE
:101310006F708B2D0E94E429029720F420E040E0BA
:1013200060E003C0282D4A2D692DC7010E941A2AAA
:10133000D394DACF9090490181E1989E902C1124AA
:1013400001E1090D053508F004E5EE24EA94F12CDD
:10135000901608F0A0C0E92DF0E0DF01AD53BD4FBD
:101360009C9180914A01892341F1DF01AA0FBB1FA3
:10137000AE0FBF1FA65FBB4FAC901196CC901197DC
:1013800012968C9190910B06A99E50011124C99E32
:1013900060011124899FC0011124B7010E946930A6
:1013A000262FC501B7010E946930462FC601B7013B
:1013B0000E946930CF010E941A2A9394C9CFC0902D
:1013C000490191E1C99EC02C112401E10C0D0535A4
:1013D00008F004E5811106C08091E9038F5F8093D6
:1013E000E90304C01092E9031092E8038091E90335
:1013F000811147C08091E803883029F41092E703F7
:101400001092E8033EC0A82FB0E0AA0FBB1FAD5654
:10141000BE4FEC9111969C917EE0E79FF001112464
:10142000E953FE4FE90FF11D90819F3F21F090930A
:10143000E50391E001C090E09093E7038F5F809314
:10144000E8031FC0EC2CF12CF701ED53FD4F908108
:1014500080914A018923A1F06091E9036C0D2091EC
:10146000E703E5EEF3E080E77FEF90E092130CC036
:101470000E94B72A462F282F672FC7010E941A2AD9
:10148000C394C016F8F207C03191C31202C08FEFA7
:1014900070E09F5FEBCF81E0043508F080E0909131
:1014A00049019F5F90934901811134C082E080938C
:1014B000060180914B0181112DC0112351F02AC0EA
:1014C00010930501809108068370809304010E94A7
:1014D000572883E0809306011DC040910406509177
:1014E000050660910606709107062FB7F894809163
:1014F000EA039091EB03A091EC03B091ED032FBFB1
:10150000841B950BA60BB70B4097A105B10510F0F6
:10151000109206010E9442299091EF03891721F051
:101520000E9442298093EF038091D105843009F015
:101530007DCA83E08093E9008091E80082FF76CA4B
:101540008091E80085FF23C00E94122C81111DC0EC
:1015500050E2E52EF12CCE0101966C0109C080917C
:10156000F100D6018D936D01B1E0EB1AF10869F03D
:101570008091E80085FDF3CF8091E8008B77809320
:10158000E8000E94122C882399F391E001C090E0BA
:101590008091E8008B778093E800992309F446CA8C
:1015A00081E08A83E9818E2F90E0FC013197E3315D
:1015B000F10508F0ACC1EC58FF4F0C94913086E770
:1015C0008B838CEE8C8381E014C14EE150E065E5A5
:1015D00071E004C04EE150E067E671E0CE01039691
:1015E0000E94A03093C180910B05882309F48FC11C
:1015F0001A8281E080930A058AC18B81843008F0C9
:1016000086C16C81663008F082C14D814E3008F091
:101610007EC10E94E4298E839F8378C12B81243070
:1016200008F075C18C81863008F071C19D819E30B3
:1016300008F06DC11E816F81ECE18E9F7001112455
:10164000F8EA2F9FE00CF11C1124E90EF11CE90EC1
:10165000F11C23E4E20EF11CC7010E94E22F612F6E
:10166000C70101960E94E22F51C180910B058111A3
:101670004EC18B81803F49F0813F49F0823F49F064
:10168000833F09F044C1E3E005C0E0E003C0E1E0CE
:1016900001C0E2E035E0E39FF0011124E95FFE4F75
:1016A00083818C8380EBA5C080910B0581112FC1B4
:1016B0008B819C81903B08F090EB803F49F0813F0B
:1016C00049F0823F49F0833F09F021C1E3E005C0C2
:1016D000E0E003C0E1E001C0E2E055E0E59FF00199
:1016E0001124E95FFE4F9383A9C080910B058111FE
:1016F0000EC1EB81E43558F0E03FC1F0E13FC1F0AD
:10170000E23FC1F0E33F09F002C1E3E014C0F0E0C2
:10171000CF01880F991FE80FF91FE65FFB4F81810A
:101720008C8380818D8382818E83F0C0E0E003C052
:10173000E1E001C0E2E065E0E69FF0011124E95F2D
:10174000FE4F81818C8382818D831E82DFC08091D8
:101750000B058111DCC0EB818D819C81E43558F053
:10176000E03FB1F0E13FB1F0E23FB1F0E33F09F01B
:10177000CEC0E3E012C02E81F0E0AF01440F551F50
:10178000E40FF51FE65FFB4F808391832283BEC089
:10179000E0E003C0E1E001C0E2E075E0E79FF001B6
:1017A0001124E95FFE4F9183828348C080910B052D
:1017B0008111ADC0EB81E43008F0A9C02E2F30E0DC
:1017C00085E0E89FF0011124E95FFE4F9081969536
:1017D0009695E3EAF1E080E0419194130CC08C838C
:1017E00085E0829FF001839FF00D1124E95FFE4F99
:1017F00084818D838BC08F5F8F3071F788C080911B
:101800000B05811184C0EB81E43008F080C0AC810D
:10181000AF3008F07CC02D8195E0E99FF0011124E4
:10182000E95FFE4FB0E0AD55BE4F8C91982F990FF8
:10183000990F80818370892B808324831A82609121
:1018400006057091070580910805909109050E9491
:10185000EA135DC080910B05811159C081E00E949F
:10186000161454C086E08B838EE08C838DEFE82EB7
:1018700083E0F82E16E0A0E0B4E040E050E0B032A3
:1018800058F5F70160817181C101042E02C0880FF3
:10189000991F0A94E2F7682379238B2F90E0910136
:1018A0000A2E01C0220F0A94EAF7672B51F061E07B
:1018B00070E06C0F7D1F860F971FFC013081232B7A
:1018C0000AC061E070E06C0F7D1F860F971F2095A6
:1018D000FC01308123232083AF5FA83010F0BF5F6D
:1018E000A0E04F5F5F4F4E30510549F61150F2E0D6
:1018F000EF0EF11C1111C1CF09C00E940E1F81E033
:101900009B81911101C080E0809309041A8280912B
:10191000D105843009F08AC81091E9001F709091B8
:10192000EC00892F817090FD80E8182B82E0809375
:10193000E9008091E80080FF0DC040E050E060E2E7
:1019400070E0CE0101960E94231F8091E8008E77FF
:101950008093E8001F701093E90068C8F9BC19BDB6
:1019600009B400FEFDCF8091D8008F7D8093D80010
:101970008091E00082608093E0008091E00081FD32
:10198000FCCF0E940E1F0C94220590915E0392FFE3
:101990000DC0282F2871283019F4877F846006C075
:1019A000282F2471243011F48B7F886093FF0DC0A1
:1019B000282F2871283119F4877E846106C0282FCA
:1019C0002471243111F48B7E886120915F0320FF04
:1019D0000DC0382F3871383019F4877F816006C008
:1019E000382F3171313011F48E7F886021FF0DC0A6
:1019F000282F2871283119F4877E816106C0282F8D
:101A00002171213111F48E7E886194FD877E0895C5
:101A1000F894E82FE295EF70F0E031A1282F2F70B5
:101A200081E090E001C0880F2A95EAF7982F909501
:101A3000932391A392A1892B82A378940895CF93A5
:101A4000DF930E940B2AEC018238910559F1A0F432
:101A50008133910509F473C040F48932910509F48A
:101A600067C08A9709F472C084C08533910509F470
:101A700058C0C997B9F07DC0833E910571F138F423
:101A8000803E9105B1F0823E910511F172C0863E13
:101A90009105B9F1873E9105C9F1843E910509F0A0
:101AA00068C024C080915E0380FD5DC081FD5BC085
:101AB00060C080915E0380FD50C080915F0380FF15
:101AC00036C180915E0384FD30C1C3EED0E02FC1EA
:101AD00080915E0382FF2BC1F4CF80915E0382FD73
:101AE0003FC080915F0380FD3EC0EBCF80915F03DC
:101AF00081FF1DC180915E0384FD17C1C7EED0E058
:101B000016C180915E0383FF12C1F4CF80915E0302
:101B100083FD2CC080915F0381FFECCFC4EED0E049
:101B200006C180915E0385FF02C1C9E2D0E0FFC01B
:101B300080915E0385FFFBC0C5E3D0E0F8C08091D3
:101B40005E0386FFF4C0CAE2D0E0F1C080915E037C
:101B500086FFEDC0C1E3D0E0EAC0C9E3D0E0E7C052
:101B6000C2EED0E0E4C0C0EED0E0E1C0C6EED0E00E
:101B7000DEC0C11582E5D80708F066C0C11591E541
:101B8000D90728F0DC2FCC27C16FD06AD0C0C83E5F
:101B9000D10560F5C03ED10508F0C9C0C83AD105ED
:101BA000B0F4C53AD10540F0C55AD0E0C15EDC4F73
:101BB000C881D0E0D064BBC0C130D10509F4B7C042
:101BC00008F4B3C0C430D10508F4AFC0B0C0CF3BF7
:101BD000D10508F0AAC0C85AD0E0CC0FDD1FCE5DF9
:101BE000DC4F0990D881C02DD464A1C0C11520E577
:101BF000D207E0F0CE0174E0969587957A95E1F7EB
:101C000083709C2F937021E030E002C0220F331FBD
:101C10009A95E2F73C68382BCF70C695C69580E25E
:101C2000C89FE0011124C22BD32B81C0C11580E4D1
:101C3000D80718F0DF70D06A7AC0CE019A95811566
:101C40009F4108F474C071C0C11586E5D807F0F54E
:101C5000C11595E5D90750F08C2F0E94C50C8F71E6
:101C6000C82FD0E0DC2FCC27D06261C0C11524E59D
:101C7000D20728F0DC2FCC27C46FD06A58C09E0151
:101C8000237033278C2F86958695C115D34578F41C
:101C9000C1E0D0E002C0CC0FDD1F2A95E2F720E2C0
:101CA000829FC0011124C82BD92BDC6840C0C1E041
:101CB000D0E002C0CC0FDD1F2A95E2F720E2829F20
:101CC000C0011124C82BD92BDA6831C0C1152AE50F
:101CD000D207E8F4C11589E5D80780F08C2F8F7002
:101CE0000E94C50C94E0D695C7959A95E1F7CF7000
:101CF000D0E0DC2FCC27D069C82B19C0C11598E5DE
:101D0000D90798F0DC2FCC27C06FD06A10C0CE0165
:101D100090568115904248F48D2F8F710E94C50C0A
:101D2000DD27D0628F71D82B02C0C0E0D0E0CE0199
:101D3000DF91CF910895CF92DF92EF92FF926C01E5
:101D4000EE24FF24C114D104E104F10421F0C70101
:101D5000B60120E101C020E0C72ED82EE92EFF24D5
:101D6000C114D104E104F10419F0285FC701B601E0
:101D70006B017C0154E0F694E794D794C7945A958C
:101D8000D1F7C114D104E104F10419F02C5FC701AB
:101D9000B6016B017C0142E0F694E794D794C794B6
:101DA0004A95D1F7C114D104E104F10419F02E5F72
:101DB000C701B601DC01CB01B695A795979587952C
:101DC000892B8A2B8B2B09F02F5F822FFF90EF90AE
:101DD000DF90CF900895882311F084EC01C084E84F
:101DE0008093BC0080E49FE1A0E0B0E02091BC00C3
:101DF00027FD08C00097A105B10561F00197A10971
:101E0000B109F4CF892B8A2B8B2B21F08091BB0059
:101E100090E008958FEF9FEF0895DB01FC0120E033
:101E200030E084E82A173B071CF591919093BB00A2
:101E30008093BC0040E45FE160E070E09091BC0002
:101E400097FD0AC0411551056105710599F0415092
:101E5000510961097109F2CF452B462B472B51F0EF
:101E60009091B900987F983229F42F5F3F4FDACFD5
:101E7000C90108958FEF9FEF089584E98093BC0016
:101E80008091BC0084FDFCCF0895262F94EA9093A6
:101E9000BC0040E45FE160E070E09091BC0097FD21
:101EA0000AC0411551056105710549F041505109BC
:101EB00061097109F2CF452B462B472B19F48FEF9F
:101EC0009FEF08959091B900987F983011F090316C
:101ED000B1F7682F660F622B6093BB0084E8809394
:101EE000BC0080E49FE1A0E0B0E02091BC0027FDB1
:101EF00008C00097A105B10511F30197A109B10927
:101F0000F4CF892B8A2B8B2BD1F28091B900887F5B
:101F1000883111F0803499F680E090E00895FF92C6
:101F20000F931F93CF93DF931F92CDB7DEB78B0133
:101F3000FC01F1808DE1898360E08F2D0E94450FC7
:101F400097FD1AC061E070E0CE0101960E940D0F6E
:101F500097FD12C061E08F2D0E94450F97FD0CC0C8
:101F600080E00E94EB0E97FD07C0F80180830E947D
:101F70003D0F21E090E001C0282F822F0F90DF91CC
:101F8000CF911F910F91FF9008950F931F93CF93BF
:101F9000DF93EB018A0160E00E94450F97FD09C0C5
:101FA000B801CE010E940D0FEC0197FF0E943D0F7A
:101FB000CE01DF91CF911F910F910895CF93DF93C1
:101FC00000D01F92CDB7DEB720914C0130914D016A
:101FD00040914E0129833A834B8343E050E0BE0198
:101FE0006F5F7F4FFC0180810E94C50F0F900F90A3
:101FF0000F90DF91CF9108958F929F92AF92BF92F1
:10200000CF92DF92EF92FF920F931F93CF93DF93C4
:10201000CDB7DEB729970FB6F894DEBF0FBECDBFA0
:102020007C01B42EA52E962E872E690160E0FC015E
:1020300080810E94450F97FD22C019821A8286E096
:10204000800F8B831C820D838E829F82A886B98627
:1020500069E070E0CE0101960E940D0F97FD0FC060
:10206000B801C6010E940D0F97FD09C00E943D0FE7
:10207000C7010E94DE0F97FD02C0912F01C0082FFB
:10208000802F29960FB6F894DEBF0FBECDBFDF912B
:10209000CF911F910F91FF90EF90DF90CF90BF9065
:1020A000AF909F908F9008950F931F93CF93DF93DE
:1020B00000D000D0CDB7DEB709831A832B833C83D1
:1020C00004E010E09E012F5F3F4F0E94FC0F0F9035
:1020D0000F900F900F90DF91CF911F910F91089566
:1020E000EF92FF920F931F93CF93DF9300D000D016
:1020F000CDB7DEB77C01162F19821A821B821C8293
:102100009E012F5F3F4F48E259E060E87FEBFC0102
:10211000808191810E947B1F97FD36C089819A81C1
:10212000AB81BC8141E050E060E070E0F7010280EB
:1021300004C0440F551F661F771F0A94D2F711235E
:1021400029F0842B952BA62BB72B08C040955095D2
:102150006095709584239523A623B72389839A835A
:10216000AB83BC8309811A812B813C8148E259E011
:1021700060E87FEBF701808191810E94541018166E
:10218000190614F480E090E00F900F900F900F90DC
:10219000DF91CF911F910F91FF90EF9008950F93D2
:1021A0001F93CF93DF9300D01F92CDB7DEB78C0182
:1021B000BE016D5F7F4F0E948F0F97FD2EC08B81F8
:1021C000F8019281981739F18283982F9370923099
:1021D00039F0869586958370823081F460E001C085
:1021E00061E0F801838194810E94701097FD15C011
:1021F00087E78A83AE014E5F5F4F05C086E689831D
:10220000AE014F5F5F4F63E2F80181810E944F1F73
:102210001816190614F480E090E00F900F900F90BC
:10222000DF91CF911F910F9108950F931F93CF933B
:10223000DF931F92CDB7DEB78C01BE016F5F7F4F7A
:102240000E948F0F97FD12C09981292F2370F801EA
:1022500083819481211102C060E001C061E00E948D
:1022600070101816190614F480E090E00F90DF91BA
:10227000CF911F910F910895CF92DF92EF92FF922D
:102280000F931F93CF93DF9300D000D01F92CDB751
:10229000DEB76C018FEFF6018283E380F480F701F3
:1022A00042815381648175814D5F534F6F47704404
:1022B000808191811D8201E010E09E012B5F3F4FE4
:1022C0000E94FC0F97FD3CC060E0C7010E947010A7
:1022D00019821A821B821C829E012F5F3F4F48E0A9
:1022E00059E060E87FEBF701808191810E947B1FBC
:1022F00097FD26C001E010E020E030E0F701028009
:1023000004C0000F111F221F331F0A94D2F78981C6
:102310009A81AB81BC81082B192B2A2B3B2B09837B
:102320001A832B833C8348E059E060E87FEB80818F
:1023300091810E9454101816190614F480E090E060
:102340000097C9F4F6012081222369F0213099F425
:1023500085E08983AE014F5F5F4F6AE1F6018181BD
:102360000E944F1F03C0C6010E94151118161906BE
:1023700014F480E090E00F900F900F900F900F906A
:10238000DF91CF911F910F91FF90EF90DF90CF9051
:1023900008950F931F93CF93DF9300D000D000D008
:1023A000CDB7DEB70B9A13981092BA0080E28093F3
:1023B000B8001092BC008FE19EE40197F1F700C0D5
:1023C0000000139A9FEF20E782E091502040804068
:1023D000E1F700C000008CE08E8301E010E09E0178
:1023E0002A5F3F4F4AEF50E360E87FEB8CE391E0D8
:1023F0000E94FC0F97FD4CC01D829E012B5F3F4F3A
:1024000042E154E362ED7FEB8CE391E00E94FC0F2C
:1024100097FD3EC019821A821B821C829E012F5F8B
:102420003F4F48E054E362ED7FEB8CE391E00E9484
:102430007B1F97FD2DC009811A812B813C81016092
:1024400009831A832B833C8348E054E362ED7FEBDE
:102450008CE391E00E94541097FD1AC004E813E346
:1024600023E030E040E050E360E87FEB8CE391E074
:102470000E94541097FD0CC004E813E324E030E000
:1024800048E450E960E87FEB8CE391E00E9454104F
:1024900087E391E00E943C1182E491E00E943C11AC
:1024A0008DE391E00E943C1180914F019091500189
:1024B000A091510189839A83AB8343E050E0BE0130
:1024C0006F5F7F4F80913C010E94C50F04E610E0D2
:1024D00087E391E00E9415118FE19EE40197F1F7E7
:1024E00000C000000150110999F726960FB6F89424
:1024F000DEBF0FBECDBFDF91CF911F910F91089529
:102500009F92AF92BF92CF92DF92EF92FF920F9382
:102510001F93CF93DF9302E513E08FE7E82E81E06E
:10252000F82EC0E0D0E0912CCC24C394D12CB7017C
:10253000D7018C91F894E82FE295EF70F0E021A19B
:102540008F70A60102C0440F551F8A95E2F7CA0199
:10255000922F982B91A392A18095892382A378949E
:1025600000C0E5E8F1E020E030E0A12CB12C419181
:10257000842F82958F7090E0DC0190968C9190E092
:102580004F7002C0959587954A95E2F780FD08C087
:10259000C601022E02C0880F991F0A94E2F702C0FA
:1025A00080E090E0A82AB92A2F5F3F4F2E303105F6
:1025B000F1F6BFEFEB1AFB0AFB0180810E94080DC8
:1025C000C530D10519F0F0E5FA95F1F7D8018D91F4
:1025D0009C911197A816B90621F0AD92BC9281E0AA
:1025E00001C080E0982A21960E5F1F4FC630D105AA
:1025F00009F09DCF992049F081E080930E050E945B
:10260000361A90930D0580930C0580910E05882352
:1026100009F445C020910C0530910D054FB7F89491
:102620008091EA039091EB03A091EC03B091ED034C
:102630004FBF821B930B069790F1809152039091AC
:1026400053039093FE038093FD0380915403909174
:102650005503909300048093FF038091560390915B
:102660005703909302048093010480915803909142
:102670005903909304048093030480915A0390912A
:102680005B03909306048093050480915C03909112
:102690005D03909308048093070410920E058091C7
:1026A0000A058823E1F1BFEFE0E7F2E0B150E04036
:1026B000F040E1F700C0000081E08093E00080E29C
:1026C0008093D8001092C9008FE097E20197F1F74C
:1026D00000C000001DBA109268001CBC10BE1FBADA
:1026E00010927A0010926E0010926F00109270009B
:1026F000109271001092C9001092BC0088E081B95C
:1027000014B817B81AB81DB810BA82B915B818B8E5
:102710001BB81EB811BA0E94C9110C94527880914E
:102720000F0590911005883EA3E09A076CF0109277
:10273000100510920F0582E491E00E94CF108DE306
:1027400091E00E94CF1005C00196909310058093F0
:102750000F05892DDF91CF911F910F91FF90EF9081
:10276000DF90CF90BF90AF909F90089581E08093CD
:10277000E00080E28093D800E9ECF0E010828FE086
:1027800097E20197F1F700C000001DBA10926800AF
:102790001CBC10BE1FBA10927A0010926E001092EC
:1027A0006F00109270001092710010821092BC00A5
:1027B00088E081B914B817B81AB81DB810BA82B930
:1027C00015B818B81BB81EB811BA0E94C9110C94DC
:1027D000007E089520910B05211110C00E949B0ED0
:1027E000843060F495E0989FF0011124E95FFE4F7A
:1027F000A8E0B6E001900D929A95E1F708959091C6
:102800000B05911112C080930A0180930F018093F0
:10281000140180931901609106057091070580915C
:102820000805909109050C94EA13089544E150E0DD
:1028300063EE72E0882361F087E091E00E94D22F7E
:102840004CEF50E067EF72E08AE094E00C94D22FF6
:1028500087E091E00E94B42F4CEF50E067EF72E008
:102860008AE094E00C94B42F80910806837029F0DC
:102870008C69809308061092060181E080930B0515
:1028800008958F929F92AF92BF92CF92DF92EF9274
:10289000FF920F931F93CF93DF9300D000D01F922E
:1028A000CDB7DEB7FC018081918123813481232B58
:1028B00031F09F3F31F491E08F3F19F403C091E074
:1028C00001C090E090FD19C57F0185E0DE01119601
:1028D00001900D928A95E1F7F701228189819A8111
:1028E000222349F00E949D1B182F682F89819A810D
:1028F0000E943F1C03C00E94131C182F69817A811B
:10290000812F0E940B2A8C0180910904811132C20F
:102910000115FCE51F0731F168F4003E110509F4CB
:102920005FC0043E110509F460C00932110509F0C9
:102930008EC10EC00A3C3CE5130769F10B3C8CE5E7
:102940001807C1F0033C9CE5190709F080C136C0A7
:1029500080911205882309F44CC0809111058823C9
:1029600009F447C0F7018281882309F403C20E9459
:10297000341400C2F7018281882309F4FBC18091DD
:102980000B06E8EBF1E092919817B0F001E0E23B22
:10299000F007C9F722C0F7018281882309F4EAC150
:1029A00080910B06E2EBF1E028EB31E02E173F07B8
:1029B000A1F091918917D0F7892F0FC0F70182817B
:1029C000882309F4D7C180910B06811103C080913F
:1029D000470103C08093470180E00E94FF13CAC1F2
:1029E000F70182818093120504C0F70182818093F0
:1029F0001105F7018281882309F48EC11092130515
:102A00000230FCE51F0708F471C106312CE51207FE
:102A100038F098012B5F3C452930310508F066C13C
:102A20000E94C81A90935F0380935E0300313CE5D7
:102A3000130709F4C3C008F041C008309CE519072A
:102A400009F49AC0F0F40430FCE51F0709F487C0CC
:102A500068F402303CE5130709F477C003301C45E5
:102A600009F0E5C080915E03826076C006309CE587
:102A7000190709F46EC008F07BC080915E0388607E
:102A80006BC00C30FCE51F0709F485C068F40A3000
:102A90003CE5130709F474C008F079C00E940E1FCA
:102AA00080915E03806858C00E309CE5190709F4D8
:102AB00076C008F07FC080915E038BC00C3FFCE5C0
:102AC0001F0709F44FC018F503313CE5130709F45B
:102AD0007DC078F401319CE5190709F473C0023117
:102AE0001C4509F0A4C00E940E1F80915E038F77E1
:102AF00033C00531FCE51F0709F472C008F486C035
:102B00000B3F1C4509F093C080915F033EC0011547
:102B10008DE5180709F45FC058F40E3FECE51E0779
:102B200009F444C008F43FC080915F0382602DC067
:102B300002302DE5120709F475C008F45DC00330BA
:102B40001D4509F074C060E06EC080915E03816035
:102B500003C080915E03806180935E0368C08091B2
:102B60005E0311C080915F03826080935F035FC04A
:102B700080915E038062F0CF80915E038064ECCF31
:102B800080915E0388608460E7CF8160EECF8091A2
:102B90005E038E7FE1CF80915E038D7FDDCF8091DC
:102BA0005E03877FD9CF80915F0318C080915F0358
:102BB0008D7FDBCF80915E038F7ECECF80915E03D1
:102BC0008F7DCACF80915E038F7BC6CF80915E03DD
:102BD000877F8B7FC1CF80915F038D7F8E7FC5CF35
:102BE00080915E0382FB222720F991E0922790FBDF
:102BF00082F990FB83F9B0CF80915F03982F909575
:102C000091708E7F892B90FB81F9AFCF0E940E1FB0
:102C100080915E0387FB222720F991E0922790FBA9
:102C200087F99ACF61E08EE090E00E94E22F6091F8
:102C30005E0310915F0384E090E00E94E22F612F19
:102C400081E290E00E94E22F0E940E1F93C0043F99
:102C5000FCE51F07A1F406E221EE40EE64EF7CE5FF
:102C60000AC0083D9CE5190709F0C3CE06E221EE33
:102C700041EE68ED7CE5C7010E944E297BC0053F0F
:102C80002CE51207A0F4093D3CE5130731F407E2F7
:102C900025EE45EE69ED7CE5EECF0A3D8CE51807A3
:102CA00001F708E221E045EE6AED7CE5E4CF063F5E
:102CB000ECE51E0731F406E221EE42EE66EF7CE51C
:102CC000DACF063FFCE51F0730F407E225EE44EEBD
:102CD00065EF7CE5D0CF073F2CE5120709F089CEE0
:102CE00007E225EE46EE67EF7CE5C5CF06313CE511
:102CF000130719F58091A7058A7A91E009F490E00D
:102D000090931405882311F065E301C069E285E121
:102D100095E00E94931A0EC006311C4509F048C088
:102D200080911405882309F4E6C265E385E195E006
:102D30000E946B1A0E94491B1DC09801235C3C45F0
:102D400024313105B8F001159CE5190731F00F3D2C
:102D50001C4571F50E94D91A0DC00E940E1FFFE795
:102D60000AE116E0F15000401040E1F700C0000019
:102D70000E94B6138091A405877009F4BEC2F701C2
:102D80008281882309F4B9C282E00F900F900F90DE
:102D90000F900F90DF91CF911F910F91FF90EF90C7
:102DA000DF90CF90BF90AF909F908F900C94A51C18
:102DB000F70100811181882349F0C8010E949D1B01
:102DC000D82E682FC8010E943F1C04C0C8010E9471
:102DD000131CD82EB8018D2D0E941F0D8C01982E2A
:102DE000F701B280A580A2949FE0A9228091A4055A
:102DF000877099F0BB2089F0812F807F803421F08B
:102E000080E2800F883048F082E00E94A51C80910B
:102E1000A4058770DD24D3948111D12CC12EC294D6
:102E20008FE0C8228C2D90E08C30910508F035C2DF
:102E3000FC01E957FF4F0C949130812F807F1F7068
:102E4000882311F01295107FBB20B9F0112309F4EB
:102E50000FC280E2800F883010F0911006C0809180
:102E6000A705182B1093A70505C08091A605182B60
:102E70001093A6050E94491BFBC1802F0E94412E82
:102E8000112309F40AC2005E1095083010F0911069
:102E900006C08091A70518231093A70505C080914F
:102EA000A60518231093A6050E94491BF6C1812F81
:102EB000807F1F70803211F01295107F992021F0D1
:102EC000F1E09F16E1F02AC0BB2081F08091A805B7
:102ED000AA2051F001E0A01207C0182B181709F41E
:102EE000DCC11093A805D9C1812B10C0AA2021F004
:102EF00021E0A21609F4D1C10E94431B27C0BB20C8
:102F000041F035E03A1508F4C8C1812F0E94372EF0
:102F1000C4C184E08A1508F4C0C118C0BB2049F0C0
:102F2000AA2099F3F701858180FFA2C18F70858364
:102F3000ECCFAA2059F0093309F0ACC1FFEF13EF31
:102F400021E0F15010402040E1F7A2C1812F0E9402
:102F50002C2EA3C1812F86958695837019F0813020
:102F600059F09BC1BB2019F0C801937002C080E0EA
:102F700090E00E942C2997C1BB2019F0C8019370E2
:102F800002C080E090E00E9416298DC1812F8370DD
:102F900009F069C0B11085C1902F929596959770F0
:102FA000990F990F802F8F70882E912CA12CB12C06
:102FB000092E04C0880C991CAA1CBB1C0A94D2F7C9
:102FC00004FF12C04FE050E060E070E004C0440F26
:102FD000551F661F771F9A95D2F7DB01CA018095AE
:102FE0009095A095B09503C080E090E0DC01169527
:102FF0001695412F4370423019F1C8F40091A9058C
:103000001091AA052091AB053091AC05413059F0E3
:1030100088299929AA29BB29BC01CD0160237123E4
:10302000822393230AC0802A912AA22AB32ABC01B0
:10303000CD01682979298A299B290E94DF1C31C189
:1030400088299929AA29BB290091A9051091AA05C7
:103050002091AB053091AC05BC01CD0160277127F3
:1030600082279327EACFBB2019F0812F817001C0FE
:103070008695882309F415C1902F9295969597709F
:10308000990F990F802F8F70882E912CA12CB12C25
:10309000092E04C0880C991CAA1CBB1C0A94D2F7E8
:1030A00004FF12C04FE050E060E070E004C0440F45
:1030B000551F661F771F9A95D2F7DB01CA018095CD
:1030C0009095A095B09503C080E090E0DC01169546
:1030D0001695412F43704230D9F068F500910605EE
:1030E000109107052091080530910905413059F0EC
:1030F00088299929AA29BB29BC01CD016023712304
:10310000822393231EC0802A912AA22AB32A13C0A5
:1031100088299929AA29BB2900910605109107053C
:103120002091080530910905BC01CD016027712768
:103130008227932706C0BC01CD01682979298A29F5
:103140009B290E946A1CADC01F70BB2039F0812FE3
:103150000E94BE1C802F0E94372EA3C0802F0E9489
:103160002C2E812F0E94801C9CC0802F32EF931642
:1031700009F440C0391538F090EF991661F0E1EF8D
:103180009E1699F170C0F3EF9F16D9F124EF9216B5
:1031900009F44EC068C0BB2019F134E03A1508F4B8
:1031A0007CC01F7181E090E0A0E0B0E0AC01BD0107
:1031B00004C0440F551F661F771F1A95D2F78091E0
:1031C000060590910705A0910805B09109058A01AF
:1031D0009B01082719272A273B27C901B80125C0C9
:1031E00025E02A1508F459C0DCCFBB2029F0812F37
:1031F0008F712CC0BB20D9F3812F8F710E94801C4E
:103200004CC0BB2079F01F7181E090E0A0E0B0E0FD
:10321000BC01CD0104C0660F771F881F991F1A9546
:10322000D2F703C060E070E0CB010E946A1C35C099
:10323000BB2079F01F71812F0E94BE1C38E0139FC4
:10324000C001112483608093A405812F0E94BE1CBD
:1032500024C081E00E94A51C81E08A15F0F482E080
:103260000E94A51C1AC0BB2039F0AA2009F4BFCFC8
:10327000802F0E949D2E11C0AA2009F4BDCF893352
:1032800049F49FEFE3EFF1E09150E040F040E1F7C7
:1032900000C00000802F0E94412E88EF8C0D8430EA
:1032A00010F40E944229DD2041F18091A40580FDA7
:1032B00024C0F70112828595859585950E94BE1CD4
:1032C000C7010E9441148091A40585958595859537
:1032D0000F900F900F900F900F90DF91CF911F9153
:1032E0000F91FF90EF90DF90CF90BF90AF909F90A5
:1032F0008F900C94801C69E219CD0F900F900F9065
:103300000F900F90DF91CF911F910F91FF90EF9051
:10331000DF90CF90BF90AF909F908F9008950895C9
:103320008091AE05089580E00895CF93DF9300D09B
:103330001F92CDB7DEB79091D105943011F58983F6
:103340007B836A839093E9008FEF9091E80081502E
:1033500095FD06C09AE69A95F1F700C08111F5CF68
:103360008091E80085FF0DC040E050E063E070E030
:10337000CE0101960E94231F8091E8008E778093F2
:10338000E8000F900F900F90DF91CF910895BC014E
:1033900084E00C949519BC0183E00C949519CF93AB
:1033A000DF9320914801222339F020915E0327FF0B
:1033B00003C060E224E002C068E021E02093E9005D
:1033C0002FEF3091E800215035FD06C03AE63A95DE
:1033D000F1F700C02111F5CF2091E80025FF1DC0B5
:1033E000EC0180914801811105C040E050E068E0A7
:1033F00070E003C070E040E050E0CE010E94231F67
:103400008091E8008E778093E80080E2FE01AFEAC9
:10341000B5E001900D928A95E1F7DF91CF91089583
:1034200078941F920F920FB60F9211248F939F934F
:10343000AF93BF938091EA039091EB03A091EC03CB
:10344000B091ED030196A11DB11D8093EA03909305
:10345000EB03A093EC03B093ED03BF91AF919F9169
:103460008F910F900FBE0F901F9018952FB7F89463
:103470008091EA039091EB03A091EC03B091ED03EE
:103480002FBF08951F920F920FB60F9211248F93A2
:103490009F93AF93BF9380916203811113C080917A
:1034A000EA039091EB03A091EC03B091ED034196F8
:1034B000A11DB11D8093EA039093EB03A093EC034D
:1034C000B093ED03BF91AF919F918F910F900FBE7D
:1034D0000F901F901895209148012223C9F0209148
:1034E0005E0327FF15C0262F2695269526952E319B
:1034F000C8F4FC01E20FF11D677081E090E001C0AB
:10350000880F6A95EAF780959281892382830895CE
:10351000FC0106962281621301C012823196E817DF
:10352000F907C1F70895209148012223C1F02091A5
:103530005E0327FF14C0262F2695269526952E314B
:1035400030F5FC01E20FF11D677081E090E001C0F1
:10355000880F6A95EAF79281892B82830895FC018E
:1035600032962FEF30E04191641789F02F3F19F424
:10357000411101C0232F3F5F3630A9F72F3F39F0AB
:10358000FC01E20FF11D27FDFA956283089508956D
:10359000CF9384E090E00E94C42FC82F81E290E096
:1035A0000E94C42F2C2F30E0A901582BCA01CF91C3
:1035B00008956BEE7EEF80E090E00E94003060E0C6
:1035C00082E090E00E94E22F60E083E090E00E94C1
:1035D000E22F1092A9051092AA051092AB05109245
:1035E000AC0560E084E090E00E94E22F60E081E2C0
:1035F00090E00E94E22F60E085E090E00E94E22FE0
:1036000060E086E090E00E94E22F6FEF87E090E0BC
:103610000E94E22F40E050E0BA0188E090E00E9472
:10362000F42F60E08DE090E00E94E22F40E050E057
:10363000BA0188E190E00E94F42F60E087E190E019
:103640000E94E22F40E050E0BA018CE190E00E943D
:10365000F42F60E080E290E00E94E22F40E050E032
:10366000BA0188E190E00E94F42F40E050E0BA01F6
:103670008FE090E00E94F42F40E050E0BA0183E137
:1036800090E00C94F42F8091A80581111092A80568
:1036900008959091A7058091A605892B2091A505F5
:1036A000982F922B909315058091A8058823D9F027
:1036B000892B8093150580914801882331F08091F2
:1036C0005E0387FF02C08EE101C086E0E7E1F5E01E
:1036D00090E0815028F021912223D9F39F5FF9CF08
:1036E00091110E94431BE0916003F09161033097B8
:1036F000A9F080914801882359F080915E0387FFEB
:1037000007C0809115058093160585E08093150507
:103710000280F381E02D85E195E00994089580E031
:1037200090E00E942C2980E090E00E9416291092DF
:10373000A6051092A5050C94491BBF92CF92DF926B
:10374000EF92FF920F931F93CF93DF938C01C09062
:103750000605D0900705E0900805F09009058091D6
:10376000A9059091AA05A091AB05B091AC05C82A16
:10377000D92AEA2AFB2ACFE1D0E0D701C6010C2ED4
:1037800004C0B695A795979587950A94D2F780FDC2
:1037900004C0219790F7B12C07C0BC2EB8018C2F24
:1037A0000E941F0D0197A9F38B2DDF91CF911F91DF
:1037B0000F91FF90EF90DF90CF90BF900895CF933F
:1037C000DF93EC010E949D1BBE010E941F0DDF9143
:1037D000CF9108950E94DF1B292F2F70E92FE295CA
:1037E000EF704E2F50E0FA013297EE30F105B8F449
:1037F000ED56FF4F0C949130803F99F018F4883EBD
:1038000070F40FC0843F59F40CC0883E50F0813FE3
:1038100031F407C0822F869586958695089580E0BD
:10382000089581E008952EE0929F800D1124682F65
:10383000669566956695982F977085E0689FB001AC
:10384000112440E050E080E0FB01E40FF51FE35954
:10385000FA4F208130E0092E02C0369527950A9450
:10386000E2F721703327042E01C0220F0A94EAF7F1
:10387000822B4F5F5F4F4530510531F708952EE0A1
:10388000929F800D1124E82FE695E695E6958770C6
:1038900051E001C0550F8A95EAF785E0E89FF001F5
:1038A0001124E359FA4F20E030E070E04081CB0171
:1038B000022E02C0969587950A94E2F78170819551
:1038C00084278523842781932F5F3F4F253031053F
:1038D00069F70895CF92DF92EF92FF926B017C011E
:1038E0000E94EA13C0920605D0920705E0920805EF
:1038F000F0920905FF90EF90DF90CF900C948F1B12
:103900000F931F9341E050E060E070E004C0440F6B
:10391000551F661F771F8A95D2F740955095609581
:1039200070958091060590910705A0910805B091CA
:1039300009058A019B01082319232A233B23C90176
:10394000B8011F910F910C946A1C2091A4058095D9
:1039500082238093A405982F977079F430E0482F44
:10396000082E000C550B2417350739F085958595E1
:1039700085950E94801C1092A40508950F931F93B3
:1039800041E050E060E070E004C0440F551F661F46
:10399000771F8A95D2F78091060590910705A0912F
:1039A0000805B09109058A019B01082B192B2A2BC8
:1039B0003B2BC901B8011F910F910C946A1C6093B5
:1039C000A9057093AA058093AB059093AC050C9460
:1039D0008F1B80916C0590913B05891719F08F5FC3
:1039E0008770FBCF08950F931F93CF93DF93809140
:1039F0003A0582958F7009F05DC080913705882364
:103A000009F458C080916C0510913B056091350513
:103A100070913605C0913805D091390591E06F3F1E
:103A200009F090E0292F06E0811709F443C02097A0
:103A300021F07F3F21F030E003C031E001C0322FA0
:103A400090E030FD34C0089FF001099FF00D112473
:103A5000DF01A45CBA4F11963C911197371327C030
:103A60003C91361324C012963C91129731111FC01D
:103A700013964D915C9114974C1B5D0B483C51057E
:103A8000B0F480913A058F70806180933A05EF5BC6
:103A9000FA4F80818F708061808385E395E00E947A
:103AA0004114DF91CF911F910F910C94E91C019665
:103AB0008770BACFDF91CF911F910F9108959F9298
:103AC000AF92BF92CF92DF92EF92FF920F931F932C
:103AD000CF93DF93CDB7DEB761970FB6F894DEBF13
:103AE0000FBECDBF8C0185E0F801DE011D9601906F
:103AF0000D928A95E1F7F80190818181E280309101
:103B000035056091360540913805509139054115CC
:103B1000510531F06F3F31F421E03F3F19F403C00C
:103B200021E001C020E0F22FF1709F2E20FD23C183
:103B3000F801C380D48025E3A22E25E0B22EF090B8
:103B40003705F601E41BF50BFF2009F4CEC02091E8
:103B50003A05E83CF10508F099C0422F407F09F092
:103B600051C0681311C039130FC0FE2CE1100CC0F6
:103B70002F70206120933A05C5010E944114809165
:103B80003A05F801858337C1CD2831F08F3F31F4F4
:103B900021E09F3F19F403C021E001C020E020FD97
:103BA00003C021E02E2502C020E030E0F22FF170AA
:103BB000FF2E20FF1DC020916C0540913B0556E073
:103BC000241709F4F6C030E0529FF001539FF00D26
:103BD0001124E45CFA4F6181861306C0608196135C
:103BE00003C06281E61204C02F5F3F4F2770E8CF09
:103BF000FE2CEE2009F4FFC080913A05816080938D
:103C00003A0550C0681307C0391305C0E11003C05E
:103C1000F80125838DC09D878E878D859E850E94A6
:103C2000EA1B882369F1EE2059F120913A05822F91
:103C300082958F7090E0029774F080913505909195
:103C4000360598878F831986DB86CA862C87CE0136
:103C500007960E94411486E0F801A5E3B5E00190C3
:103C60000D928A95E1F70E94F31C0DC06817E1F0F0
:103C70009D878E878D859E850E94EA1B81111EC0BF
:103C8000C8010E944114FF24F394B5C0422F407F25
:103C900069F785E395E00E94411486E0F5011192F1
:103CA0008A95E9F7F12CA7C03913E2CFE110E0CFF4
:103CB000F8012583C8010E94411457C0EE2001F38A
:103CC00020913A05822F82958F7090E002971CF226
:103CD00080913505909136059A8389831B82DD8218
:103CE000CC822E83CE010196B4CFE83CF105E8F5F5
:103CF000FE2CEE2029F2681327C0391325C020912D
:103D00003A0520FD18C0822F82958F70482F50E011
:103D10004115510581F0F80125834F30510541F0DF
:103D20008F5F982F9295907F822F8F70892B85833C
:103D3000C8010E94411486E0F801A5E3B5E00190B6
:103D40000D928A95E1F757C09D878E878D859E8558
:103D50000E94EA1B81117FCF80913A058160809398
:103D60003A05C8010E94411446C086E0F50111924F
:103D70008A95E9F740C0EE2009F482CF9D878E87AF
:103D80008D859E850E94EA1BF82E882309F478CF42
:103D900086E0F801A5E3B5E001900D928A95E1F780
:103DA00080913505909136050E94DF1B0E94F31C1F
:103DB00022C09D878E878D859E850E94DF1B292FBF
:103DC00022952F70223028F49F7039F0811105C0A0
:103DD0000BC0243028F49F7049F4805E883020F0B6
:103DE000C8010E9441149F2CF92C05C0F80195814F
:103DF000907F99F7F9CF8F2D61960FB6F894DEBFBB
:103E00000FBECDBFDF91CF911F910F91FF90EF902B
:103E1000DF90CF90BF90AF909F9008951092A7052C
:103E200080914801882331F080915E0387FF02C0B2
:103E30008EE101C086E0E7E1F5E0DF011D928A95A1
:103E4000E9F70C948F1BEF92FF920F931F93CF9380
:103E5000DF937C018B010E94122C811119C0E701B4
:103E600001151105A1F08091E80085FD0AC080913F
:103E7000E8008E778093E8000E94122C882381F35B
:103E800007C089918093F10001501109E9CF80E0CA
:103E9000DF91CF911F910F91FF90EF9008950F93B5
:103EA0001F93CF93DF931F92CDB7DEB769838A014B
:103EB00060E00E94450F97FD13C061E070E0CE0105
:103EC00001960E940D0F97FD0BC061E070E0C801E4
:103ED0000E940D0F8C0197FD05C00E943D0F02C08E
:103EE000282F02C0202F912F822F0F90DF91CF918A
:103EF0001F910F910895CF92DF92EF92FF920F934F
:103F00001F93CF93DF93CDB7DEB72F970FB6F894FB
:103F1000DEBF0FBECDBF7C0189011A861B861C86C1
:103F20001D8619821A8286E0D82EDB8281E08C837E
:103F300084E08D837E836F835887498749E050E012
:103F4000BE016F5F7F4FF70180810E94C50F97FD13
:103F500040C0C7010E94DE0F97FD3BC060E0F70143
:103F600080810E94450F97FD34C01E86DF8662E087
:103F700070E0CE010E960E940D0F97FD2AC061E001
:103F8000F70180810E94450F97FD23C081E00E94C8
:103F9000EB0E97FD1EC06E01FAE0CF0ED11CE12C96
:103FA000F12C8FEFE81AF80A81E094E0E916F104A9
:103FB0000CF080E00E94EB0E97FD0BC0F6018193A0
:103FC0006F01F4E0EF16F10461F70E943D0F84E009
:103FD00090E097FD09C04A855B856C857D85F80179
:103FE00040835183628373832F960FB6F894DEBFAC
:103FF0000FBECDBFDF91CF911F910F91FF90EF903A
:10400000DF90CF9008956F927F928F929F92AF92A0
:10401000BF92CF92DF92EF920F931F93CF93DF93D4
:104020003C01C091490181E1C89FC02D1124D1E11B
:10403000DC0FD53508F0D4E560910C0666958091CB
:104040000406909105060E94AD2A182FCD1708F09E
:1040500044C08C2E912CF401ED53FD4F9081809142
:104060004A018923C1F1F401EE0FFF1FE55EFD4F08
:10407000C080D12C80E7C81AD108F401EE0FFF1FD1
:10408000E45EFD4FA080B12CE0E2AE1AB108CC9CFA
:104090009001CD9C300D300D1124AA9CC001AB9C29
:1040A000900D900D1124820F931F0E94532A082F08
:1040B0006091090670910A0680910B06E12E950128
:1040C000A601F30109950E94B72A462F282F672FD2
:1040D000C4010E941A2ACF5FB9CF81E0D43508F01D
:1040E00080E0DF91CF911F910F91EF90DF90CF9003
:1040F000BF90AF909F908F907F906F900895CF92D8
:10410000DF92EF92FF920F931F93CF93DF936C0197
:10411000C091490181E1C89FC02D1124D1E1DC0F7C
:10412000D53508F0D4E560910C06669580910406BB
:10413000909105060E94AD2A182FCD1778F5EC2E28
:10414000F12CF701ED53FD4F908180914A018923B5
:1041500019F1F701EE0FFF1FE45EFD4F208130E003
:1041600020523109F701EE0FFF1FE55EFD4F408140
:1041700050E0405751096091090670910A068091FC
:104180000B06012FF60109950E94B72A462F282F0A
:10419000672FC7010E941A2ACF5FCFCF81E0D435A5
:1041A00008F080E0DF91CF911F910F91FF90EF9089
:1041B000DF90CF900895DF92EF92FF920F931F93BD
:1041C000CF93DF937C01C091490181E1C89FC02D4D
:1041D0001124D1E1DC0FD53508F0D4E560910C064F
:1041E0006695669580910406909105060E94AD2A19
:1041F000D82ECD17F0F40C2F10E0F801ED53FD4F41
:10420000908180914A01892391F060910906709113
:104210000A0680910B062D2D4C2FF70109950E945F
:10422000B72A462F282F672FC8010E941A2ACF5F6E
:10423000E0CF81E0D43508F080E0DF91CF911F918D
:104240000F91FF90EF90DF9008959F92AF92BF92F1
:10425000CF92DF92EF92FF920F931F93CF93DF9352
:104260006C01C091490181E1C89FC02D1124D1E1A9
:10427000DC0FD53508F0D4E560910C06669566959F
:1042800080910406909105060E94AD2A182F80E4C3
:10429000810F0E94322A90E8F92EF80E812F0E9499
:1042A000322A20E8922E980ECD1700F5AC2EB12CB4
:1042B000F501ED53FD4F908180914A018923A1F0D2
:1042C0006091090670910A0680910B06E12E0C2F71
:1042D000292D4F2DF60109950E94B72A462F282F28
:1042E000672FC5010E941A2ACF5FDECF81E0D43547
:1042F00008F080E0DF91CF911F910F91FF90EF9038
:10430000DF90CF90BF90AF909F900895CF92DF92B3
:10431000EF92FF920F931F93CF93DF936C01C091A5
:10432000490181E1C89FC02D1124D1E1DC0FD535B1
:1043300008F0D4E520910C0630E040E050E06FEF4B
:104340007FEF80E090E00E9406308901CD17E8F50C
:10435000EC2EF12CF701ED53FD4F908180914A0135
:10436000892389F19091DB05915097FD15C0492F64
:10437000092E000C550BFA01E552FA4F8189C8133A
:10438000F3CF440F551FFA01E552FA4F218D328DBC
:104390002017310748F701C0980160910C06C90148
:1043A0000E94AD2AAC016091090670910A068091C5
:1043B0000B06F60109950E94B72A462F282F672F72
:1043C000C7010E941A2ACF5FC1CF81E0D43508F01F
:1043D00080E0DF91CF911F910F91FF90EF90DF90E0
:1043E000CF9008952F923F924F925F926F927F925B
:1043F0008F929F92AF92BF92CF92DF92EF92FF92F5
:104400000F931F93CF93DF93CDB7DEB727970FB6E8
:10441000F894DEBF0FBECDBF282E4B01209149017D
:1044200081E1289F802D11248E83182F1F5E153562
:1044300008F014E53091DB0539839E81911708F06F
:1044400077C08E81682E712CF301ED53FD4F908162
:1044500080914A01892309F467C030900906409091
:104460000A06522C1F82C301880F991FDC01A55E2A
:10447000BD4FBB83AA83C301880F991FFC01E45E73
:10448000FD4FFD83EC83F9815F16E0F5E52CF12CFF
:10449000AA81BB81CC90D12CF701E552FA4F8181E2
:1044A000C81AD108AC81BD81AC90B12C8185A81A05
:1044B000B108CC9C9001CD9C300D300D1124AA9CEC
:1044C000C001AB9C900D900D1124820F931F0E9490
:1044D000532A082FF701EE0FFF1FE552FA4F6091A4
:1044E0000C06818D928D0E94AD2A7C019501A6015A
:1044F000632D742D8F81F4010995362E472E8F83FD
:104500005394C1CF20910B068F81382F329F312DCC
:104510001124832F632D742D0E94B72A462F282F34
:10452000672FC3010E941A2A8E818F5F8E8385CFE9
:1045300081E0143508F080E027960FB6F894DEBFCE
:104540000FBECDBFDF91CF911F910F91FF90EF90E4
:10455000DF90CF90BF90AF909F908F907F906F90A3
:104560005F904F903F902F9008951F93CF93DF93CC
:10457000CDB7DEB7AA970FB6F894DEBF0FBECDBF9A
:10458000E3EDF5E08091F100819345E0EB3DF40728
:10459000C9F78091D405833009F460C030F48130CC
:1045A00071F0823009F49AC0B1C08A3009F486C033
:1045B0008B3009F46BC0893009F0A8C020C080910D
:1045C000D305813A09F0A2C08091E800877F8093EB
:1045D000E8008091D7059091D805892B21F460E2FD
:1045E0008FEA95E003C060E080E090E070E00E9418
:1045F000D02D8091E8008B778093E80087C0809170
:10460000D305813209F082C08091D7059091D805F9
:10461000009719F0029709F079C08091E800877F30
:104620008093E8008091E80082FD05C08091D1056B
:104630008111F8CF6BC08091F2009091F300029746
:1046400029F48091F1008B7F813021F48091F10079
:104650008093AE058091E8008B7754C08091D3059C
:10466000813A09F053C08091D7059091D805892BE4
:1046700009F04CC08091E800877F8093E80080912A
:10468000E80080FFFCCF8091480137C08091D305BE
:104690008132E1F58091D7059091D805892BB1F54C
:1046A0008091E800877F8093E8000E94452C8091EC
:1046B000D505809348010E940E1F28C08091D30524
:1046C000813221F58091E800877F8093E8000E9485
:1046D000452C8091D6058093AD0518C08091D305F7
:1046E000813AA1F48091E800877F8093E80080916F
:1046F000E80080FFFCCF8091AD058093F1008091B0
:10470000E8008E778093E8000E94452C8091E800B5
:1047100083FFDAC18091D3059091D405492F50E0F1
:104720004A30510508F0D0C1FA01EF55FF4F0C9403
:104730009130803821F0823809F0C6C108C08091DC
:10474000CF059091D005992389F082600FC08091A8
:10475000D7058F70873008F0B7C18093E90080914A
:10476000EB0085FB882780F91092E9009091E80022
:10477000977F9093E8008093F1001092F1006DC153
:10478000282F2D7F09F0A0C1882319F0823061F015
:104790009BC18091D505813009F096C1933009F015
:1047A00080E08093D0052EC08091D50581112AC06C
:1047B0008091D7058F702FEF280F263008F084C125
:1047C0008093E9002091EB0020FF1CC0933021F47E
:1047D0008091EB00806214C09091EB009061909307
:1047E000EB0021E030E0A90102C0440F551F8A957B
:1047F000E2F74093EA001092EA008091EB008860B3
:104800008093EB001092E9008091E800877F80930D
:10481000E8000E94452C58C1811156C11091D50560
:104820001F778091E3008078812B8093E300809153
:10483000E800877F8093E8000E94452C8091E80083
:1048400080FFFCCF8091E30080688093E30011112A
:1048500002C082E001C083E08093D10535C1805859
:10486000823008F031C12091D5053091D6052C3D1C
:1048700053E0350779F583E08A838AE289834FB76D
:10488000F894DE01139620E03EE051E2E32FF0E0E1
:1048900050935700E49120FF03C0E295EF703F5F13
:1048A000EF708E2F90E0EA3010F0C79601C0C096EE
:1048B0008D939D932F5F243149F74FBF8091E8007E
:1048C000877F8093E8006AE270E0CE0101960E9443
:1048D000D02DB1C08091D7059091D805432F552791
:1048E00043305105A9F068F44130510509F4FBC08B
:1048F0004230510509F0E8C08BE590E0E5ECF4E0CA
:104900004BC04132510529F14232510589F1DCC0D9
:10491000C901992781309105A1F058F0029709F05B
:10492000D3C0E2E3F5E0E4918E2F90E0E2E3F5E01E
:1049300030C0E8E9F5E0E4918E2F90E0E8E9F5E099
:1049400028C0E4E8F5E0E4918E2F90E0E4E8F5E09B
:1049500020C08330910508F0B7C0880F991FFC0173
:10496000EF53FE4F0190F081E02D89E090E014C0FC
:104970008330910508F0A8C0FC01EE0FFF1FE5543D
:10498000FE4F0190F081E02DDC01A854BE4F8C91C8
:1049900090E0009709F498C02091E800277F2093C9
:1049A000E8002091D9053091DA052817390708F475
:1049B000C90140E0009771F12091D1052223D9F17E
:1049C0002530C9F12091E80023FD35C02091E80091
:1049D00022FD2DC02091E80020FFECCF2091F200B5
:1049E0003091F300009759F02830310540F444919C
:1049F0004093F100319601972F5F3F4FF3CF41E095
:104A00002830310509F040E02091E8002E7720930E
:104A1000E800D0CF4111D0CF0AC08091D1058823C2
:104A200051F0853041F08091E80083FD04C0809111
:104A3000E80082FFF2CF8091E8008B778093E80056
:104A400043C0803809F040C08091E800877F8093A0
:104A5000E8008091D2058093F1008091E8008E7784
:104A6000D6CE811131C08091D5059091D605992778
:104A7000029754F58091E800877F8093E8001091B9
:104A8000D5051093D2050E94452C111106C08091C6
:104A9000E30087FD02C081E001C084E08093D1057E
:104AA00042E061EC81E00E94642C42E261EC84E02F
:104AB0000E94642C42E261EC82E00E94642C42E29B
:104AC00060EC83E00E94642C8091E80083FF10C0BA
:104AD0008091E800877F8093E8008091EB008062FE
:104AE0008093EB0005C082E190E0E0E2F5E054CF76
:104AF000AA960FB6F894DEBF0FBECDBFDF91CF915F
:104B00001F910895EDE0F6E097E0E930F90729F00C
:104B10008183608342833396F7CF0895FC01EE0FC3
:104B2000FF1F8E0F9F1FFC01E35FF94F61834083DE
:104B300022830895EF92FF920F939701201B310972
:104B40002F3F310519F010F02FEF30E02095382F6E
:104B5000320F08F43FEF832F0F91FF90EF900895ED
:104B6000EF92FF920F939701201B31092F3F3105E0
:104B700019F010F02FEF30E0322F3095482F430F0F
:104B800008F44FEF842F620F0F91FF90EF9008957C
:104B9000EF92FF920F93972F093438F4B701601BFF
:104BA00071096F3F710519F010F06FEF70E0485F09
:104BB0005F4F4131510540F0A901485F5F4F4131DE
:104BC000510510F06FEF70E06095482F460F08F424
:104BD0004FEF842F37FF02C02D5F3F4F359527954C
:104BE0003595279560910906620F792F0F91FF90F7
:104BF000EF900895EF92FF920F93E00EF11CF901F0
:104C000037FF03C0F195E195F10924E0EE0FFF1F96
:104C10002A95E1F7EF3FF10519F014F0EFEFF0E01E
:104C20009A0157FF03C031952195310994E0220F75
:104C3000331F9A95E1F72E173F070CF4F901EE0D9B
:104C4000FF1DEF3FF10519F010F0EFEFF0E02E2F10
:104C50002095382F320F08F43FEF832F0F91FF90EC
:104C6000EF900895EF92FF920F93970195E0099FBF
:104C7000200D311D11242F3F310519F010F02FEFB9
:104C800030E02095382F320F08F43FEF832F0F913B
:104C9000FF90EF90089522E8241B08F420E0620FB3
:104CA00008954095282F429F412D1124842F089567
:104CB0000F931F9310E0F801EE0FFF1FE55EFD4F0D
:104CC0009081905797FD9195000F111FF801E45EB8
:104CD000FD4FE081F0E0B097DF01AA0FBB1F8D010F
:104CE0000E0F1F1F2003D001219FB00D1124E8E3F8
:104CF000F0E0E91BF10997FDF3959F01220F331FA7
:104D000089010E0F1F1F40039001419F300D112498
:104D10002A0F3B1F37FF02C021583F4F220F232F7E
:104D2000221F330B620F1F910F9108950F931F9352
:104D3000522F10E0F801EE0FFF1FE45EFD4FE081FF
:104D4000F0E0B097EE0FFF1F9F015203D001539F79
:104D5000B00D1124000F111FF801E55EFD4F008119
:104D600010E000571109000F111F40039001419FEF
:104D7000300D11242A0F3B1F37FF02C021583F4F2F
:104D8000220F232F221F330B620F1F910F910895C3
:104D90000F931F93522F10E0F801EE0FFF1FE45EF8
:104DA000FD4FE081F0E0B0979F015203D001539F87
:104DB000B00D1124000F111FF801E55EFD4F0081B9
:104DC00010E00057110940039001419F300D11245C
:104DD0002A0F3B1F37FF02C021583F4F220F232FBE
:104DE000221F330B620F1F910F910895EF920F93C3
:104DF0001F9393E0099F80011124159507956E2D4F
:104E0000600F1F910F91EF900895A22F50E0FA01CB
:104E1000EE0FFF1FE45EFD4F9081905297FD91953C
:104E2000440F551FFA01E55EFD4F3081232F30E01E
:104E30002A1B3109290F311D97FD3A95620F0895FC
:104E4000E42FF0E0EE0FFF1FE45EFD4F6081621B78
:104E50000895E42FF0E0EE0FFF1FE55EFD4F608147
:104E6000621B0895622F0895E42FF0E0EE0FFF1FFC
:104E7000E55EFD4F408134EE439F412D1124E82F24
:104E8000F0E050E0445E5F4FDA01A21BB1099D01E2
:104E9000B7FF03C031952195310993E0220F331FED
:104EA0009A95E1F7AF01421B530B9A0157FF02C0DD
:104EB00020E030E0582F259F212D1124822F0895C6
:104EC000E42FF0E0EE0FFF1FE55EFD4F408134EE72
:104ED000439F412D1124E72FF0E050E0445E5F4FE7
:104EE000DA01A21BB1099D01B7FF03C031952195DD
:104EF000310993E0220F331F9A95E1F7AF01421B6E
:104F0000530B9A0157FF02C020E030E0279F212D6C
:104F10001124722F0895FC019B01009721F477FF63
:104F20002BC080E80895AC0197FF04C044275527A3
:104F3000481B590BB901640F751F37FD0CC0241BAA
:104F4000350BC901A5E0880F991FAA95E1F70E94CA
:104F50007D3080E20CC0CB0165E0880F991F6A9517
:104F6000E1F7BA01621B730B0E947D3080E6861B5D
:104F7000F7FF03C08195089580E00895EF920F93A5
:104F8000CF93DF93D72FC82FC9010E19BA010E9402
:104F90008B27602F681B7D2F8C2FDF91CF910F9176
:104FA000EF9008950F93CF93DF93D72FC82FC901A8
:104FB000BA010E948B27682F600F7D2F8C2FDF9105
:104FC000CF910F910895EF920F931F93CF93DF939B
:104FD000D62FC72F182FC9010E19010FBA010E9431
:104FE0008B27081B202F219F212D1124822F6D2F0D
:104FF0007C2FDF91CF911F910F91EF900895EF9249
:105000000F931F93CF93DF93D62F172FC82FC9016C
:105010000E19070FBA010E948B27702F781B719F02
:10502000712D11246D2F8C2FDF91CF911F910F9136
:10503000EF900895FF920F931F93CF93DF93F62E77
:10504000D72F182FC901C12FC01BBA010E948B276F
:10505000982F990F890FC81B2C2F219F212D1124C8
:10506000822F6F2D7D2FDF91CF911F910F91FF9098
:105070000895FF920F931F93CF93DF93F62E172F70
:10508000D82FC901C72FC01BBA010E948B27982FA8
:10509000990F890F7C2F781B719F712D11246F2D13
:1050A0008D2FDF91CF911F910F91FF900895879AD7
:1050B00081B38F7791B390682FB7F894EDE0F6E065
:1050C00037E0E930F30761F0319148E091BB37FFF9
:1050D00081BB330F000000C081BB4A95B9F7F0CF08
:1050E0002FBF8FE292E00197F1F700C00000089512
:1050F0001F93CF93DF93CDB7DEB767970FB6F894C2
:10510000DEBF0FBECDBF342F4B8B252F5C8B6D8B3D
:105110007E8B8F8B4E895F8961111092A60586E088
:10512000FE013D96DF01982F1D929A95E9F73D8784
:105130002E876F87598B488BDE01179601900D9251
:105140008A95E1F7CE0107960E945F1D81113EC04E
:1051500086E0FE013796DE01119601900D928A9548
:10516000E1F7FF81E8856A857B856115710531F07E
:10517000EF3F31F481E0FF3F19F403C081E001C04B
:1051800080E080FD23C020913B0530E0C9010196FD
:105190008770992740916C0550E08417950779F145
:1051A000F983EA837D836C8396E0929FD001939F7D
:1051B000B00D1124A45CBA4FFE01319601900D92FE
:1051C0009A95E1F780933B050E94E91C16E08091D7
:1051D0006C0590913B058917F9F0189FC0011124C7
:1051E000845C9A4F0E945F1D8823B1F080916C050A
:1051F00090E001968770992780936C05E8CF0E9414
:105200000E1F10923B0510926C05E5E3F5E086E079
:10521000DF011D928A95E9F767960FB6F894DEBF15
:105220000FBECDBFDF91CF911F91089520910D0743
:1052300030910E072817390771F090930E0780936D
:105240000D07E0916003F0916103309721F0008435
:10525000F185E02D0994089520910B0730910C07FA
:105260002817390771F090930C0780930B07E09192
:105270006003F0916103309721F00680F781E02D03
:1052800009940895E0916003F0916103309721F053
:105290000190F081E02D099480E00895EF92FF9253
:1052A0000F93CF93DF93C42FD22FFC0182818823E9
:1052B000D1F0409313050E94361A90930A07809309
:1052C000090780E28C0F883008F078C0C77081E051
:1052D00001C0880FCA95EAF7DF91CF910F91FF9037
:1052E000EF900C94372E80911305481356C02091EF
:1052F000090730910A074FB7F8948091EA0390911B
:10530000EB03A091EC03B091ED034FBF821B930B15
:10531000883C910508F041C0CD17C9F080E28C0FA0
:10532000883040F4C77081E001C0880FCA95EAF761
:105330000E942C2E80E28D0F883048F481E09D2F52
:10534000977001C0880F9A95EAF70E94372E0933AB
:1053500019F0E12CF12C03C080E5E82EF12C802F10
:105360000E949D2EE114F10451F08FEC97E001971B
:10537000F1F700C0000091E0E91AF108F3CF802FA7
:105380000E94412E80E28D0F8830C0F4D77081E0FA
:1053900001C0880FDA95EAF70AC080E28C0F8830E6
:1053A00068F4C77081E001C0880FCA95EAF7DF9101
:1053B000CF910F91FF90EF900C942C2EDF91CF9115
:1053C0000F91FF90EF9008950F931F93CF93DF936A
:1053D000C42FD0E0CC0FDD1F2CE1629FC00DD11D8A
:1053E000112438EA839FC00DD11D1124CD5BDF4FFE
:1053F000CE010E94C42F082F10E0102F0027CE01ED
:1054000001960E94C42F9801282BC901DF91CF91EA
:105410001F910F910895462F843038F4763028F488
:105420006E3018F4672F0C94E42980E090E0089522
:105430000C9482250C948E25E8E0F6E08DE38083C1
:105440008091520190915301A091540181839283E4
:10545000A3838FE7848345E050E06CE170E0CF01E7
:105460000C94D22F482F982F46FD9095E92FEF737B
:105470009F7046FD9F5FE295EF70EE0FF0E0E95EF2
:10548000FC4F2181299F802D212D112482958F7021
:105490002295207F822B3081982F930F892F47FDF3
:1054A000819580580895BC018230910508F40895D3
:1054B000613E8EE1780748F49B0195E0369527958B
:1054C0009A95E1F748E0420F01C04FEF91E0242F99
:1054D00030E0290F311D35952795229FF001239F3C
:1054E000F00DF00D11246E177F0718F44FEF420FE7
:1054F00004C02F3F39F091E0920F491740F78FEF2A
:10550000890F08958FEF08950F93CF93DF93D72FCF
:10551000C82F47FD4195E8E3F0E0CF01841B9109D6
:1055200047FD9395889FB001899F700D700D1124E0
:10553000229FC001239F900D900D1124860F971F6D
:105540000E94532A682F660F860F682F600F7D2FE9
:105550008C2FDF91CF910F91089520E030E0869F4E
:10556000212D969F200D311D1124C9010895CF9240
:10557000DF92EF92FF920F931F93CF93DF93F62E5C
:10558000472FE82FF0E0711106C0E456FA4F8491DE
:10559000782F682F73C0272F30E0E456FA4FE4913C
:1055A000FE2F0E2F10E056E0659FC0011124CFEFB3
:1055B000D0E0BE010E9469305BEA5603C001579FEC
:1055C000900D11248F0D911D8F0D911D982F990F06
:1055D000980F7E01E21AF30AE09ED001E19EB00D21
:1055E000F09EB00D11248B2F499FA0011124452F4F
:1055F00055277E01E41AF50AE09EA001E19E500DB8
:10560000F09E500D11246E01C91AD108C29E70017E
:10561000C39EF00CD29EF00C11242F2D3327C21BF9
:10562000D30BC09F9001C19F300DD09F300D11242E
:10563000932F6230710591F048F461157105E1F026
:1056400061307105B9F49E2FE52F16C064307105E5
:1056500069F040F06630710579F00CC09E2FEB2F99
:10566000832F0AC0EB2F8F2F952F06C09B2F8E2FD5
:10567000E32F02C09B2F852F7E2F692FDF91CF91C3
:105680001F910F91FF90EF90DF90CF900895DF92E0
:10569000EF92FF920F931F93CF93DF93EC01FC01E6
:1056A000ED53FD4F9081692381F1D0900A0600915E
:1056B0000B0610910906E12EF12C0E94A42F282F31
:1056C000C7018C549F4F68E671E00E947D308E19AF
:1056D0009F0997FD039695958795959587952370D6
:1056E000612F289F600D11247D2D802F0E94B72AE5
:1056F000462F282F672FCE01DF91CF911F910F9159
:10570000FF90EF90DF900C941A2ADF91CF911F91B8
:105710000F91FF90EF90DF9008951F93CF93DF9349
:10572000FC01ED53FD4F20816223A9F0EC010E94A2
:10573000A42F182F0E94A42F612F782F80910B0681
:105740000E94B72A462F282F672FCE01DF91CF91D5
:105750001F910C941A2ADF91CF911F9108951F92E7
:105760000F920FB60F9211242F933F934F935F9395
:105770006F937F938F939F93AF93BF93CF93DF9359
:10578000EF93FF93C091E900CF708091EC00D82F88
:10579000D17080FDD0E81092E9008091F000877F01
:1057A0008093F00078940E94B5221092E9008091D5
:1057B000F00088608093F000CD2BCF70C093E9009B
:1057C000FF91EF91DF91CF91BF91AF919F918F9119
:1057D0007F916F915F914F913F912F910F900FBEED
:1057E0000F901F901895E8EDF0E080818C7F80830A
:1057F0001092E2001092DA001092E100A0EEB0E008
:105800008C9181608C9380818F77808319BCA7ED08
:10581000B0E08C918E7F8C9380818F7E80831092FC
:105820000F0708952091E4003091E50095E640913E
:10583000EC00842F817040FF23C08091E80080FD40
:105840001DC08091D105882399F0853099F0809111
:10585000EB0085FD11C04091E4005091E500241754
:10586000350729F3915011F09A01E1CF84E00895B2
:1058700082E0089583E0089581E0089580E008952E
:105880004091E80042FFDDCF08958091D30587FF66
:1058900011C08091E80082FD05C08091D105811181
:1058A000F8CF11C08091E8008B770BC08091D105B3
:1058B000882349F08091E80080FFF8CF8091E800CC
:1058C0008E778093E8000895982F973068F590932D
:1058D000E900981739F07091EC002091ED0050919B
:1058E000F00003C0242F762F50E021FD02C09F5FFF
:1058F000ECCF3091EB003E7F3093EB003091ED0028
:105900003D7F3093ED003091EB0031603093EB0040
:105910007093EC002093ED005093F0002091EE0086
:1059200027FDE5CF80E008958F708093E90081E046
:105930000895CF92DF92EF92FF920F931F93CF9330
:10594000DF93C8EDD0E088818F7E8883E7EDF0E0BB
:1059500080818160808381E080930F0788818C7FC4
:10596000888302EE10E0D8011C921092DA0081EEDA
:10597000C82ED12CD6011C9288818F77888388818C
:105980008068888388818F7D888380818068808318
:1059900019BC1092D1051092D2051092D005109228
:1059A000CF0590EEE92EF12CF70180818B7F80836B
:1059B00088818160888342E060E080E00E94642CFE
:1059C000D6018C918E7F8C93F801808181608083D9
:1059D000808188608083D7018C918E7F8C938881B1
:1059E00080618883DF91CF911F910F91FF90EF909D
:1059F000DF90CF9008951F920F920FB60F9211244F
:105A00002F933F934F935F936F937F938F939F93C6
:105A1000AF93BF93EF93FF938091E10082FF09C0A2
:105A20008091E20082FF05C08091E1008B7F80932E
:105A3000E1008091DA0080FF2AC08091D80080FFC9
:105A400026C08091DA008E7F8093DA008091D900A1
:105A500080FF18C088E189BD8AE189BD09B400FED4
:105A6000FDCF81E08093D10580910F0781110FC098
:105A70000E94F32B0E94992C8091E2008460809315
:105A8000E20005C019BC1092D10510920F07809159
:105A9000E10080FF17C08091E20080FF13C0809179
:105AA000E2008E7F8093E2008091E200806180932B
:105AB000E2008091D80080628093D80019BC85E014
:105AC0008093D1058091E10084FF2EC08091E20097
:105AD00084FF2AC088E189BD8AE189BD09B400FE3E
