:100000000C941B030C9462030C9462030C94620323
:100010000C9462030C9462030C9462030C946203CC
:100020000C9462030C9462030C941A280C94CE2650
:100030000C94421C0C9462030C9462030C946203B3
:100040000C9462030C9462030C9462030C9462039C
:100050000C9462030C94101C0C9462030C946203C5
:100060000C9462030C9462030C9462030C9462037C
:100070000C9462030C9462030C9462030C9462036C
:100080000C9462030C9462030C9462030C9462035C
:100090000C9462030C946203BD06C606F1062E079B
:1000A0006C07AE07F107F407F707FA07FD0700082A
:1000B0000308060809080C081108140817081C088A
:1000C0002108240827082C086808A408A708AC08F9
:1000D000B708BA08C508C808D308D608E108E40874
:1000E000EF08F5086509AA09AA0AB00AB50A520C70
:1000F000520CBE0A520C520CC80AD90A000B1F0B34
:10010000400B720BA10BCA0BFD0BF50B480CF91839
:10011000F918331933198619291B291B291BA21910
:10012000801A911A911AFC1DFC1D0F1E0F1E051E30
:100130000F1E0F1E0F1EFC1DFC1D0A1E0F1E0F1E84
:100140000A1EE5240C25B0260C25B02658257B2553
:10015000B0266D267D2629001E001F0020002100EC
:100160002200230024002500260027002D002E0059
:100170002A002B0014001A000800150017001C00AC
:1001800018000C00120013002F003000310039005D
:1001900004001600070009000A000B000D000E0005
:1001A0000F003300340028004A00E1001D001B004E
:1001B0000600190005001100100036003700380055
:1001C000E50052004B00E000E2000151E3002C008A
:1001D0004D002C00E400E6000151500051004F009A
:1001E0004E0035003A003B003C003D003E003F0021
:1001F0004000410042004300440045004C004600DE
:10020000010001000100010001004A004E004B0006
:100210004D000100CB5CCA5CC35C01000100010021
:100220000100010001005000510052004F00010088
:1002300001000100AE000100010001000100010009
:1002400001000100010001000100010001004B005C
:10025000A90001000100010001000100A800010047
:100260000100010001004A004E004D00AA000100FB
:100270000100010001000100010001000100010076
:100280000100010001000100010001000100010066
:100290000100010001000100010001000100010056
:1002A0000100010001000100010001000100010046
:1002B0000100010001000100010001000100010036
:1002C0000100010001000100010001000100010026
:1002D0000100010001000100010001000100010016
:1002E0000100010001000100010001000100010006
:1002F00001000100010001000100010001000100F6
:1003000001000100010001000100010001000100E5
:1003100001000100010001000100010001000100D5
:1003200001000100010001000100010001000100C5
:1003300001000100010001000100010001000100B5
:1003400001000100010001000100010001000100A5
:100350000100010001000100010001000100010095
:100360000100010001000100010001000100010085
:100370000100010001000100010001000100010075
:100380000100010001000001010101010101010161
:100390000202020202020202020303030303030336
:1003A0000304040404040404050505050506060603
:1003B0000606070707070708080808090909090AC0
:1003C0000A0A0B0B0B0C0C0C0D0D0D0E0E0E0F0F65
:1003D0000F101011111112121313141415151616F3
:1003E0001717181819191A1A1B1B1C1D1D1E1E1F62
:1003F0002020212222232424252626272829292AB1
:100400002B2C2D2D2E2F30313232333435363738D8
:10041000393A3B3C3D3E3F404142434445464748D4
:10042000494A4C4D4E4F50515354555658595A5BAA
:100430005D5E5F616264656668696B6C6D6F70724A
:10044000737577787A7B7D7E8082838587888A8CB6
:100450008E8F91939596989A9C9EA0A2A3A5A7A9EA
:10046000ABADAFB1B3B5B7BABCBEC0C2C4C6C9CBE1
:10047000CDCFD1D4D6D8DBDDDFE2E4E7E9EBEEF097
:10048000F3F5F8FAFDFF05010980A10185031901C3
:100490002AB700150126B700950175108100C00527
:1004A0000C0901A101850419012AA002150126A049
:1004B00002950175108100C005010906A10185059D
:1004C000050719E029E71500250195087501810246
:1004D0000507190029EF1500250195F07501810226
:1004E0000508190129059505750191029501750306
:1004F0009101C00660FF0961A1010962150026FF94
:10050000009520750881020963150026FF009520DB
:1005100075089102C005010906A101050719E02926
:10052000E71500250195087501810295017508817F
:10053000010507190029FF150026FF00950675081B
:10054000810005081901290595057501910295019C
:1005500075039101C009025B00030100A0FA0904C0
:1005600000000103010100092111010001224000E6
:100570000705810308000A090401000203000000C6
:100580000921110100012222000705820320000138
:100590000705030320000109040200010300000015
:1005A000092111010001226D000705840320000AC2
:1005B000120110010000000884330500010001024F
:1005C00000015A034C00610075006E006300680072
:1005D000200043006F006E00660069006700750030
:1005E0007200610062006C00650020004B00650035
:1005F000790062006F006100720064002000280032
:100600006C00610075006E00630068005F006C00A4
:100610006900740065005F003100290000001203CA
:10062000530079007300740065006D0037003600D8
:1006300000000403090411241FBECFEFD0E1DEBF88
:10064000CDBF04B603FE27C080913C0690913D06C5
:10065000A0913E06B0913F068730904BA740B04B2B
:10066000D1F410923C0610923D0610923E06109274
:100670003F0614BE84B7877F84BF0FB6F894A89551
:1006800080916000886180936000109260000FBECE
:10069000E0E0F8E7099512E0A0E0B1E0E0EAF7E574
:1006A00002C005900D92A03FB107D9F726E0A0EF58
:1006B000B2E001C01D92AC33B207E1F70E946403BF
:1006C0000C94CE2B0C940000CF93DF93CDB7DEB704
:1006D000AB970FB6F894DEBF0FBECDBF84B7877F50
:1006E00084BF0FB6F894A8958091600088618093CC
:1006F0006000109260000FBE91E080E80FB6F894A1
:1007000080936100909361000FBE85B7806885BFBC
:1007100085B7806885BF8FE69BE19093F102809357
:10072000F0020E9412270E94B8278091E2008460A4
:100730008093E20078948091FF058823A1F01091C6
:10074000E9001F709091EC00892F817090FD80E886
:10075000182B1092E9008091E80083FD0E9401248B
:100760001F701093E90082E084BD93E095BD9DE782
:1007700097BD80936E0081EF0E94101382EF0E945C
:10078000101383EF0E94101384EF0E94101385EF63
:100790000E9410130DE511E03BE6C32E31E0D32E8D
:1007A000D8018D918D010E941013C016D106C1F79A
:1007B000E2EFF2E08CEF92E0ABE8B3E0119211923D
:1007C0001D921D928E179F07C9F780E090E00E944E
:1007D000EB2A8B3E9E4F11F00E94D91C1092090605
:1007E000E2E2F6E082E396E02FEF3FEF21933193D0
:1007F0008E179F07D9F710920103EAE1F3E08AE22E
:1008000093E02FEF3FEF219331938E179F07D9F796
:1008100080E090E00E94EB2A8B3E9E4F21F00E94E8
:10082000D91C0E947D1145E050E06CE170E086E348
:1008300096E00E94D32A809136068C7F11F40E94A4
:100840007D110E9427138FE097E20197F1F700C016
:100850000000AFE0B7E21197F1F700C000000E947E
:10086000271380918B0380FF13C06FEF7FEF80E42D
:1008700090E00E941F2B6FEF82E490E00E94012B1A
:100880006FEF7FEF80E090E00E941F2B0E94EC1B37
:1008900080E490E00E94EB2A8C3E964739F482E493
:1008A00090E00E94E32A91E0823009F090E090FD10
:1008B00039C000E010E058012CE8A20EB11C48013C
:1008C000ECE18E0E911CF801EA5AFE4FC590D490CF
:1008D0006D2DC8018D5B9F4F0E94012B6C2DC801AF
:1008E0008C5B9F4F0E94012B0E5F1F4F801691065D
:1008F00051F784018A149B0411F78401F0E38F16E9
:10090000F2E09F06C1F681E00E94F2156CEE76E7F8
:1009100080E490E00E941F2B62E082E490E00E945D
:10092000012B03C080E00E94F21560916804709171
:10093000690480916A0490916B040E94C61580E05E
:1009400090E00E94EB2A8B3E9E4F11F00E94D91C32
:1009500082E090E00E94E32A809380030E94C81CFA
:100960009093FD028093FC0283E090E00E94E32AD2
:10097000682F70E080E090E00E94DF1E60916804C4
:100980007091690480916A0490916B040E94C6156D
:100990006091FC0260686093FC021091FD0284E0AB
:1009A00090E00E94012B612F81E290E00E94012BD8
:1009B0008BE191E09093FF028093FE022224239426
:1009C000312C8091FF05853009F054C080E4E82E79
:1009D000DD24D39498E1F92E1AE18091FF0585304A
:1009E00009F042C08091FF05843051F140E060E0A1
:1009F00080E00E947911D0927E031092000368E19A
:100A000070E00FB6F894A895609360000FBEE09276
:100A1000600083B7817F846083BF83B7816083BFB9
:100A20007894889583B78E7F83BF0FB6F894A89586
:100A300080916000886180936000109260000FBE1A
:100A40008091FE05882309F4C8CF0E942713EBE8A4
:100A5000F3E081919191892B09F05BC785E993E0DF
:100A60008E179F07B1F7B9CF0E940E210E94A310E5
:100A700010927E030E942713882359F08FB7F894B1
:100A800040917A0350917B0360917C0370917D03C8
:100A90008FBFA1E8B3E0EBE8F3E0E12CF12C4E2DA1
:100AA000A190B1908D919D918A259B25009709F485
:100AB000AEC010E0CC24C394D12C9C012C213D214C
:100AC000232B09F49EC019A34AA3AC20BD2081E0CA
:100AD000A114B10409F480E08BA30E94361C81604C
:100AE000782F9DA38CA349A15AA16BA18DA10E942F
:100AF000D90FF701EE0FFF1FEF57FC4F8081918157
:100B0000C826D926D182C082AB2881F08EE08E9D86
:100B1000F0018F9DF00D1124E955FE4FE10FF11DFD
:100B200080818F3F19F08BA711E001C010E0B090D9
:100B30000103E12EF12CC7018B0D911D0997A4F142
:100B400088E090E06C01CE18DF08B7016F5F7F4F3F
:100B50006F5F7C4FA60182E093E00E94B62BB70145
:100B6000675F7F4F6F5F7C4FA6018AE093E00E9432
:100B7000B62BA601440F551FB701660F771F675E9E
:100B80007F4F6F5F7C4F8AE193E00E94B62BB701E5
:100B90006F5E7F4F6F5F7C4FA60182E193E00E9402
:100BA000B62BBA94B09201038091010390E0EBA5BB
:100BB000AE2FB0E09D01220F331F23513E4FAA0FED
:100BC000BB1FBD0162517E4F41E0480F9117B0F449
:100BD00090E0FC01EF5FFC4FD9015C915183DB0198
:100BE0005C915187BBA5B18B880F991FFC01EF5F0A
:100BF000FC4F128E118E91E0842FE6CF809301037B
:100C00001EC01F5FCC0CDD1C1E3009F056CF2FEF2D
:100C1000E21AF20A35E0E316F10409F040CF8FEF53
:100C20008EA38FA318A60E94361C8160782F9AA7E6
:100C300089A74EA15FA168A58AA50E94D90F4091FE
:100C40002A0350912B0360912C0370912D032FB731
:100C5000F89480917A0390917B03A0917C03B091EA
:100C60007D032FBF841B950BA60BB70B2FB7F894F2
:100C7000C0907A03D0907B03E0907C03F0907D03DA
:100C80002FBFC0922A03D0922B03E0922C03F09244
:100C90002D0360910103E1E0F3E0462F50E088244A
:100CA0008A94982CA12CB12C881A990AAA0ABB0AFA
:100CB000651799F0218D328D2901612C712C8414D6
:100CC0009504A604B70410F4415004C0280F391F3E
:100CD000328F218F5F5F3296EBCF4093010380917B
:100CE0007E03811108C010913606812F837019F0A0
:100CF0001695169501C010E0809106018130E9F04B
:100D000038F0823009F4A7C3833009F4B1C3CDC3EE
:100D100010922701C0923206D0923306E092340638
:100D2000F092350689E2E1E0F3E0A9E0B6E0019057
:100D30000D928A95E1F781E098C38091050118131F
:100D40000DC020913606237030E04091040150E040
:100D500081E02417350719F480E001C081E081703B
:100D600080932901412F50E04832510508F061C3BA
:100D7000FA01E45BFF4F0C94B02B882309F459C3AC
:100D800040E060E080E00E94791153C3F0902701B9
:100D90008EE0F89EF02C11240EE00F0D073408F0C1
:100DA00006E46091370670913806809139060E94FA
:100DB0001812D62EC72EB82EF01608F037C3EF2D16
:100DC000F0E0DF01A758BD4F8C9190912801982346
:100DD00031F02B2D4D2D6C2DCF010E947B11F39402
:100DE000EBCFF09027018EE0F89EF02C11240EE05E
:100DF0000F0D073408F006E4C0903806D09039068D
:100E0000B09037066B2D7C2D8D2D0E941812A62ECA
:100E1000972E882E60913A066B0D7C2D8D2D0E94A9
:100E20001812D62EC72EB82EF01608F0FFC28F2D3E
:100E300090E0FC01E758FD4F3081209128012323E9
:100E400059F030FF04C02B2D4D2D6C2D03C0282DE3
:100E50004A2D692D0E947B11F394E6CFD090270193
:100E60008EE0D89ED02C11240EE00D0D073408F032
:100E700006E4A09038069090390620913A0630E4B6
:100E8000B32E5B2D529F512D1124B52ED01608F094
:100E9000CDC2ED2CF12CF701E758FD4F90818091E8
:100EA00028018923B9F0F701EE0FFF1FE251FE4F31
:100EB000808182958F70609137068B9D600D112423
:100EC0007A2D892D0E941812462F282F672FC701CF
:100ED0000E947B11D394DACFD09027018EE0D89E68
:100EE000D02C11240EE00D0D073408F006E4A0907C
:100EF00038069090390620913A0680E4B82E6B2D82
:100F0000629F612D1124B62ED01608F08FC2ED2CF1
:100F1000F12CF701E758FD4F90818091280189233A
:100F2000D9F0F701EE0FFF1FE351FE4F6081B69E2F
:100F3000B0011124B5E075956795BA95E1F78091F8
:100F40003706680F7A2D892D0E941812462F282FF8
:100F5000672FC7010E947B11D394D6CFF090270151
:100F60008EE0F89EF02C11240EE00F0D073408F0EF
:100F700006E4C0903706D0903806B09039066091EC
:100F80003A0666956695669580913206909133068D
:100F90000E940E120E949311805887FD8195880F40
:100FA000782F2B2D729F712D1124872FB6010E944F
:100FB0001812D62EC72EB82EF01608F037C2EF2D15
:100FC000F0E0DF01A758BD4F8C9190912801982344
:100FD00031F02B2D4D2D6C2DCF010E947B11F39400
:100FE000EBCF8EE79EE01AC082E59EE017C087E552
:100FF0009FE01FC088E39FE01CC08DE19FE01EC002
:1010000081E09FE01BC080E59EE008C087E49EE091
:1010100005C08EE39EE002C083E29EE00E9427228C
:1010200009C284E19EE00AC085EE91E102C080EF32
:101030009EE00E94CB21FEC18CED9EE00E944F21DC
:10104000F9C186EE9DE005C084EB9DE002C086E715
:101050009DE00E947122EEC181111EC060913A068E
:1010600020E1620F08F46FEF809132069091330611
:101070000E940E126AE070E00E94882B892B09F012
:10108000D8C10E94C32A66E470E00E949C2B609144
:1010900028010E94A812CDC1809127019EE0899F5E
:1010A000802D11240EE0080F073408F006E4E82E26
:1010B000F12CC02ED12CEC14FD040CF0B7C16091C2
:1010C0002801C7010E94A8123FEFE31AF30AF3CFE9
:1010D00081111EC060913A0620E1620F08F46FEFA3
:1010E00080913206909133060E940E1265E070E006
:1010F0000E94882B892B09F09CC10E94C32A66E4B8
:1011000070E00E949C2B609128010E94EE1291C118
:10111000809127019EE0899F802D11240EE0080F09
:10112000073408F006E4E82EF12CC02ED12CEC1484
:10113000FD040CF07BC160912801C7010E94EE12F2
:101140005FEFE51AF50AF3CF8FE69DE002C089E66E
:101150009DE00E94D2226EC18091090621E0682F95
:10116000621B08F460E0862F60E57DE03BC060E52F
:101170007DE037C08091090621E0782F721B08F4CA
:1011800070E0872F68E17DE02DC068E17DE029C037
:101190008091090621E0382F321B08F430E0832FBC
:1011A00066EE7CE01FC066EE7CE01BC08091090605
:1011B00021E0582F521B08F450E0852F6EEC7CE0A4
:1011C00011C06EEC7CE00DC08091090621E0682F13
:1011D000621B08F460E0862F68EB7CE003C068EBDC
:1011E0007CE080E00E943E2325C180917403811140
:1011F00025C067EA71E040E050E0942F9295907F1F
:1012000020E030E0FB01E20FF31F8081863438F4E8
:10121000E82FF0E0E25DFC4F892F822B80832F5F67
:101220003F4F2E30310571F74F5F5F4F625F7F4F49
:101230004530510511F781E080937403D090270168
:101240008EE0D89ED02C11240EE00D0D073408F04E
:1012500006E4609168047091690480916A04909139
:101260006B040E947615B82E60913706709138068F
:10127000809139060E941812A62E972E882ED0161D
:1012800008F0D4C0ED2CF12CF701E758FD4F908108
:10129000809128018923B9F0F701E25DFC4F60815C
:1012A000462F4F7062956F708B2D0E9445110297EB
:1012B00020F420E040E060E003C0282D4A2D692D95
:1012C000C7010E947B11D394DACF909027018EE062
:1012D000989E902C11240EE0090D073408F006E4C6
:1012E000EE24EA94F12C901608F0A0C0E92DF0E06D
:1012F000DF01A758BD4F9C9180912801892341F1BE
:10130000DF01AA0FBB1FAE0FBF1FAA56BC4FAC9088
:101310001196CC90119712968C9190913906A99EB6
:1013200050011124C99E60011124899FC00111241C
:10133000B7010E94882B262FC501B7010E94882B78
:10134000462FC601B7010E94882BCF010E947B1156
:101350009394C9CFC09027019EE0C99EC02C112450
:101360000EE00C0D073408F006E4811106C08091F0
:1013700079038F5F8093790304C0109279031092F0
:10138000780380917903811147C080917803883078
:1013900029F410927703109278033EC0A82FB0E092
:1013A000AA0FBB1FA559BE4FEC9111969C917EE0F0
:1013B000E79FF0011124E955FE4FE90FF11D9081DF
:1013C0009F3F21F09093750391E001C090E09093CE
:1013D00077038F5F809378031FC0EC2CF12CF7010B
:1013E000E758FD4F9081809128018923A1F06091F9
:1013F00079036C0D20917703E5E7F3E080E77FEF59
:1014000090E092130CC00E941812462F282F672FCD
:10141000C7010E947B11C394C016F8F207C0319136
:10142000C31202C08FEF70E09F5FEBCF81E0063404
:1014300008F080E0909127019F5F90932701811130
:1014400034C082E0809306018091290181112DC072
:10145000112351F02AC01093050180913606837044
:10146000809304010E94B80F83E0809306011DC0A1
:1014700040913206509133066091340670913506E2
:101480002FB7F89480917A0390917B03A0917C030D
:10149000B0917D032FBF841B950BA60BB70B409714
:1014A000A105B10510F0109206010E94A3109091C1
:1014B0007F03891721F00E94A31080937F038091FE
:1014C000FF05843009F07DCA83E08093E9008091B4
:1014D000E80082FF76CA8091E80085FF23C00E9461
:1014E000312781111DC050E2E52EF12CCE0101966D
:1014F0006C0109C08091F100D6018D936D01B1E0BE
:10150000EB1AF10869F08091E80085FDF3CF809136
:10151000E8008B778093E8000E943127882399F3B5
:1015200091E001C090E08091E8008B778093E80023
:10153000992309F446CA81E08A83E9818E2F90E0DD
:10154000FC013197E331F10508F0ACC1EC58FF4FD5
:101550000C94B02B86E78B838CEE8C8381E014C1D6
:101560004EE150E06DE271E004C04EE150E064E411
:1015700071E0CE0103960E94BF2B93C180916D0450
:10158000882309F48FC11A8281E080936C048AC198
:101590008B81843008F086C16C81653008F082C18F
:1015A0004D814E3008F07EC10E9445118E839F838D
:1015B00078C12B81243008F075C18C81853008F00A
:1015C00071C19D819E3008F06DC11E816F81ECE17B
:1015D0008E9F70011124FCE82F9FE00CF11C112458
:1015E000E90EF11CE90EF11C23E4E20EF11CC70127
:1015F0000E94012B612FC70101960E94012B51C14E
:1016000080916D0481114EC18B81803F49F0813FF3
:1016100049F0823F49F0833F09F044C1E3E005C04F
:10162000E0E003C0E1E001C0E2E035E0E39FF0016B
:101630001124E95FFE4F83818C8380EBA5C08091EC
:101640006D0481112FC18B819C81903B08F090EB40
:10165000803F49F0813F49F0823F49F0833F09F0E4
:1016600021C1E3E005C0E0E003C0E1E001C0E2E049
:1016700055E0E59FF0011124E95FFE4F9383A9C077
:1016800080916D0481110EC1EB81E63458F0E03F8A
:10169000C1F0E13FC1F0E23FC1F0E33F09F002C118
:1016A000E3E014C0F0E0CF01880F991FE80FF91FA5
:1016B000EA56FC4F81818C8380818D8382818E8369
:1016C000F0C0E0E003C0E1E001C0E2E065E0E69FD9
:1016D000F0011124E95FFE4F81818C8382818D832B
:1016E0001E82DFC080916D048111DCC0EB818D8191
:1016F0009C81E63458F0E03FB1F0E13FB1F0E23FC9
:10170000B1F0E33F09F0CEC0E3E012C02E81F0E07B
:10171000AF01440F551FE40FF51FEA56FC4F8083BD
:1017200091832283BEC0E0E003C0E1E001C0E2E0BB
:1017300075E0E79FF0011124E95FFE4F91838283FA
:1017400048C080916D048111ADC0EB81E43008F098
:10175000A9C02E2F30E085E0E89FF0011124E95F59
:10176000FE4F908196959695EBE7F1E080E04191F0
:1017700094130CC08C8385E0829FF001839FF00D51
:101780001124E95FFE4F84818D838BC08F5F8F3082
:1017900071F788C080916D04811184C0EB81E430C1
:1017A00008F080C0AC81AF3008F07CC02D8195E09E
:1017B000E99FF0011124E95FFE4FB0E0A558BE4F4C
:1017C0008C91982F990F990F80818370892B80833A
:1017D00024831A82609168047091690480916A047C
:1017E00090916B040E94C6155DC080916D048111BB
:1017F00059C081E00E94F21554C085E08B838EE0D1
:101800008C838BE8E82E83E0F82E15E0A0E0B4E0AE
:1018100040E050E0B03258F5F70160817181C101BC
:10182000042E02C0880F991F0A94E2F768237923D7
:101830008B2F90E091010A2E01C0220F0A94EAF743
:10184000672B51F061E070E06C0F7D1F860F971FD2
:10185000FC013081232B0AC061E070E06C0F7D1F1A
:10186000860F971F2095FC01308123232083AF5FD3
:10187000A83010F0BF5FA0E04F5F5F4F4E305105C2
:1018800049F61150F2E0EF0EF11C1111C1CF09C061
:101890000E940E2181E09B81911101C080E0809324
:1018A00095031A828091FF05843009F51091E900B3
:1018B0001F709091EC00892F817090FD80E8182BAB
:1018C00082E08093E9008091E80080FF0DC040E055
:1018D00050E060E270E0CE0101960E9423218091E9
:1018E000E8008E778093E8001F701093E9008091E4
:1018F0006C04882309F465C82FEF30E752E02150CB
:1019000030405040E1F700C000000E94EC1B0C94F6
:10191000E104F9BC19BD09B400FEFDCF8091D800E7
:101920008F7D8093D8008091E00082608093E000FA
:101930008091E00081FDFCCF0E940E210C94ED040B
:10194000E1E7F4E095E0E334F90729F0818360836F
:1019500042833396F7CF0895FC01EE0FFF1F8E0FE1
:101960009F1FFC01EF58FB4F618340832283089542
:10197000EF92FF920F939701201B31092F3F310502
:1019800019F010F02FEF30E02095382F320F08F4C7
:101990003FEF832F0F91FF90EF900895EF92FF920A
:1019A0000F939701201B31092F3F310519F010F0DB
:1019B0002FEF30E0322F3095482F430F08F44FEFD0
:1019C000842F620F0F91FF90EF900895EF92FF9296
:1019D0000F93972F093438F4B701601B71096F3FDB
:1019E000710519F010F06FEF70E0485F5F4F413103
:1019F000510540F0A901485F5F4F4131510510F09A
:101A00006FEF70E06095482F460F08F44FEF842F7A
:101A100037FF02C02D5F3F4F3595279535952795A8
:101A200060913706620F792F0F91FF90EF90089524
:101A3000EF92FF920F93E00EF11CF90137FF03C004
:101A4000F195E195F10924E0EE0FFF1F2A95E1F7EA
:101A5000EF3FF10519F014F0EFEFF0E09A0157FFB6
:101A600003C031952195310994E0220F331F9A95D7
:101A7000E1F72E173F070CF4F901EE0DFF1DEF3FC4
:101A8000F10519F010F0EFEFF0E02E2F2095382F30
:101A9000320F08F43FEF832F0F91FF90EF900895DE
:101AA000EF92FF920F93970195E0099F200D311D52
:101AB00011242F3F310519F010F02FEF30E0209561
:101AC000382F320F08F43FEF832F0F91FF90EF90E4
:101AD000089522E8241B08F420E0620F0895409541
:101AE000282F429F412D1124842F08950F931F9377
:101AF00010E0F801EE0FFF1FE351FE4F9081905769
:101B000097FD9195000F111FF801E251FE4FE08102
:101B1000F0E0B097DF01AA0FBB1F8D010E0F1F1F52
:101B20002003D001219FB00D1124E8E3F0E0E91B70
:101B3000F10997FDF3959F01220F331F89010E0FC5
:101B40001F1F40039001419F300D11242A0F3B1F9E
:101B500037FF02C021583F4F220F232F221F330B84
:101B6000620F1F910F9108950F931F93522F10E052
:101B7000F801EE0FFF1FE251FE4FE081F0E0B09759
:101B8000EE0FFF1F9F015203D001539FB00D112490
:101B9000000F111FF801E351FE4F008110E00057C4
:101BA0001109000F111F40039001419F300D1124B6
:101BB0002A0F3B1F37FF02C021583F4F220F232F10
:101BC000221F330B620F1F910F9108950F931F93E4
:101BD000522F10E0F801EE0FFF1FE251FE4FE0819F
:101BE000F0E0B0979F015203D001539FB00D112434
:101BF000000F111FF801E351FE4F008110E0005764
:101C0000110940039001419F300D11242A0F3B1F01
:101C100037FF02C021583F4F220F232F221F330BC3
:101C2000620F1F910F910895EF920F931F9393E00E
:101C3000099F80011124159507956E2D600F1F9146
:101C40000F91EF900895A22F50E0FA01EE0FFF1FC1
:101C5000E251FE4F9081905297FD9195440F551F90
:101C6000FA01E351FE4F3081232F30E02A1B310966
:101C7000290F311D97FD3A95620F0895E42FF0E08A
:101C8000EE0FFF1FE251FE4F6081621B0895E42FAB
:101C9000F0E0EE0FFF1FE351FE4F6081621B0895DD
:101CA000622F0895E42FF0E0EE0FFF1FE351FE4F87
:101CB000408134EE439F412D1124E82FF0E050E0A5
:101CC000445E5F4FDA01A21BB1099D01B7FF03C05B
:101CD00031952195310993E0220F331F9A95E1F751
:101CE000AF01421B530B9A0157FF02C020E030E0C6
:101CF000582F259F212D1124822F0895E42FF0E0E5
:101D0000EE0FFF1FE351FE4F408134EE439F412D04
:101D10001124E72FF0E050E0445E5F4FDA01A21B90
:101D2000B1099D01B7FF03C031952195310993E0B9
:101D3000220F331F9A95E1F7AF01421B530B9A0113
:101D400057FF02C020E030E0279F212D1124722F81
:101D50000895FC019B01009721F477FF2BC080E8D8
:101D60000895AC0197FF04C044275527481B590B21
:101D7000B901640F751F37FD0CC0241B350BC90159
:101D8000A5E0880F991FAA95E1F70E949C2B80E29D
:101D90000CC0CB0165E0880F991F6A95E1F7BA0185
:101DA000621B730B0E949C2B80E6861BF7FF03C00F
:101DB0008195089580E00895EF920F93CF93DF937C
:101DC000D72FC82FC9010E19BA010E94A90E602F82
:101DD000681B7D2F8C2FDF91CF910F91EF9008958D
:101DE0000F93CF93DF93D72FC82FC901BA010E9459
:101DF000A90E682F600F7D2F8C2FDF91CF910F914F
:101E00000895EF920F931F93CF93DF93D62FC72F91
:101E1000182FC9010E19010FBA010E94A90E081B43
:101E2000202F219F212D1124822F6D2F7C2FDF91B8
:101E3000CF911F910F91EF900895EF920F931F9301
:101E4000CF93DF93D62F172FC82FC9010E19070F75
:101E5000BA010E94A90E702F781B719F712D112459
:101E60006D2F8C2FDF91CF911F910F91EF900895DF
:101E7000FF920F931F93CF93DF93F62ED72F182F38
:101E8000C901C12FC01BBA010E94A90E982F990F3A
:101E9000890FC81B2C2F219F212D1124822F6F2DDC
:101EA0007D2FDF91CF911F910F91FF900895FF92A9
:101EB0000F931F93CF93DF93F62E172FD82FC901BF
:101EC000C72FC01BBA010E94A90E982F990F890F26
:101ED0007C2F781B719F712D11246F2D8D2FDF9119
:101EE000CF911F910F91FF9008959091FC0292FF66
:101EF0000DC0282F2871283019F4877F846006C010
:101F0000282F2471243011F48B7F886093FF0DC03B
:101F1000282F2871283119F4877E846106C0282F64
:101F20002471243111F48B7E88612091FD0220FF01
:101F30000DC0382F3871383019F4877F816006C0A2
:101F4000382F3171313011F48E7F886021FF0DC040
:101F5000282F2871283119F4877E816106C0282F27
:101F60002171213111F48E7E886194FD877E089560
:101F7000879A81B38F7791B390682FB7F894E1E790
:101F8000F4E035E0E334F30761F0319148E091BBD0
:101F900037FF81BB330F000000C081BB4A95B9F702
:101FA000F0CF2FBF8FE292E00197F1F700C0000061
:101FB00008951F93CF93DF93CDB7DEB767970FB622
:101FC000F894DEBF0FBECDBF342F4B8B252F5C8B1B
:101FD0006D8B7E8B8F8B4E895F8961111092D4053A
:101FE00086E0FE013D96DF01982F1D929A95E9F754
:101FF0003D872E876F87598B488BDE01179601909E
:102000000D928A95E1F7CE0107960E945F1F81111C
:102010003EC086E0FE013796DE01119601900D92DA
:102020008A95E1F7FF81E8856A857B8561157105F1
:1020300031F0EF3F31F481E0FF3F19F403C081E05C
:1020400001C080E080FD23C02091730530E0C9010C
:102050000196877099274091A40550E08417950751
:1020600079F1F983EA837D836C8396E0929FD001B6
:10207000939FB00D1124AC58BA4FFE0131960190D8
:102080000D929A95E1F7809373050E94E91E16E080
:102090008091A405909173058917F9F0189FC001EC
:1020A00011248C589A4F0E945F1F8823B1F08091B1
:1020B000A40590E00196877099278093A405E8CF46
:1020C0000E940E21109273051092A405EDE6F5E032
:1020D00086E0DF011D928A95E9F767960FB6F894BE
:1020E000DEBF0FBECDBFDF91CF911F91089520912C
:1020F0004705309148052817390771F09093480536
:1021000080934705E091FE02F091FF02309721F0A5
:102110000084F185E02D09940895209145053091C2
:1021200046052817390771F09093460580934505B9
:10213000E091FE02F091FF02309721F00680F781D6
:10214000E02D09940895E091FE02F091FF0230978E
:1021500021F00190F081E02D099480E00895EF9244
:10216000FF920F93CF93DF93C42FD22FFC01828174
:102170008823D1F040934B050E94361C9093440570
:102180008093430580E28C0F883008F078C0C770D8
:1021900081E001C0880FCA95EAF7DF91CF910F91D6
:1021A000FF90EF900C94562980914B05481356C030
:1021B00020914305309144054FB7F89480917A03FC
:1021C00090917B03A0917C03B0917D034FBF821B54
:1021D000930B883C910508F041C0CD17C9F080E20F
:1021E0008C0F883040F4C77081E001C0880FCA9519
:1021F000EAF70E944B2980E28D0F883048F481E095
:102200009D2F977001C0880F9A95EAF70E94562972
:10221000093319F0E12CF12C03C080E5E82EF12CF4
:10222000802F0E94BC29E114F10451F08FEC97E05B
:102230000197F1F700C0000091E0E91AF108F3CF2F
:10224000802F0E94602980E28D0F8830C0F4D77003
:1022500081E001C0880FDA95EAF70AC080E28C0FAE
:10226000883068F4C77081E001C0880FCA95EAF72A
:10227000DF91CF910F91FF90EF900C944B29DF915C
:10228000CF910F91FF90EF9008950F931F93CF93ED
:10229000DF93C42FD0E0CC0FDD1F2CE1629FC00D77
:1022A000D11D11243CE8839FC00DD11D1124CD5BAD
:1022B000DF4FCE010E94E32A082F10E0102F0027E5
:1022C000CE0101960E94E32A9801282BC901DF91D3
:1022D000CF911F910F910895462F843038F47530B7
:1022E00028F46E3018F4672F0C94451180E090E0CC
:1022F00008950C94A00C0C94AC0CE6E3F6E08DE38E
:10230000808380912A0190912B01A0912C018183DF
:102310009283A3838FE7848345E050E06CE170E013
:10232000CF010C94F12A482F982F46FD9095E92F64
:10233000EF739F7046FD9F5FE295EF70EE0FF0E048
:10234000E657FE4F2181299F802D212D1124829552
:102350008F702295207F822B3081982F930F892FA9
:1023600047FD819580580895BC018230910508F49D
:102370000895613E8EE1780748F49B0195E036951B
:1023800027959A95E1F748E0420F01C04FEF91E0A1
:10239000242F30E0290F311D35952795229FF0011C
:1023A000239FF00DF00D11246E177F0718F44FEFE7
:1023B000420F04C02F3F39F091E0920F491740F7C8
:1023C0008FEF890F08958FEF08950F93CF93DF93C9
:1023D000D72FC82F47FD4195E8E3F0E0CF01841BDC
:1023E000910947FD9395889FB001899F700D700DED
:1023F0001124229FC001239F900D900D1124860F60
:10240000971F0E94B411682F660F860F682F600F08
:102410007D2F8C2FDF91CF910F91089520E030E038
:10242000869F212D969F200D311D1124C9010895ED
:10243000CF92DF92EF92FF920F931F93CF93DF9390
:10244000F62E472FE82FF0E0711106C0EA57FC4F37
:102450008491782F682F73C0272F30E0EA57FC4F04
:10246000E491FE2F0E2F10E056E0659FC00111246D
:10247000CFEFD0E0BE010E94882B5BEA5603C0017B
:10248000579F900D11248F0D911D8F0D911D982F29
:10249000990F980F7E01E21AF30AE09ED001E19EA7
:1024A000B00DF09EB00D11248B2F499FA001112477
:1024B000452F55277E01E41AF50AE09EA001E19E12
:1024C000500DF09E500D11246E01C91AD108C29E04
:1024D0007001C39EF00CD29EF00C11242F2D3327D7
:1024E000C21BD30BC09F9001C19F300DD09F300DF8
:1024F0001124932F6230710591F048F46115710534
:10250000E1F061307105B9F49E2FE52F16C06430FB
:10251000710569F040F06630710579F00CC09E2FAE
:10252000EB2F832F0AC0EB2F8F2F952F06C09B2FE9
:102530008E2FE32F02C09B2F852F7E2F692FDF91D7
:10254000CF911F910F91FF90EF90DF90CF90089562
:10255000DF92EF92FF920F931F93CF93DF93EC01E3
:10256000FC01E758FD4F9081692381F1D090380636
:102570000091390610913706E12EF12C0E94C32AF2
:10258000282FC7018C549F4F68E671E00E949C2B56
:102590008E199F0997FD0396959587959595879533
:1025A0002370612F289F600D11247D2D802F0E94A4
:1025B0001812462F282F672FCE01DF91CF911F9140
:1025C0000F91FF90EF90DF900C947B11DF91CF91F2
:1025D0001F910F91FF90EF90DF9008951F93CF937D
:1025E000DF93FC01E758FD4F20816223A9F0EC0145
:1025F0000E94C32A182F0E94C32A612F782F80912E
:1026000039060E941812462F282F672FCE01DF911E
:10261000CF911F910C947B11DF91CF911F91089561
:10262000F894E82FE295EF70F0E031A1282F2F7099
:1026300081E090E001C0880F2A95EAF7982F9095E5
:10264000932391A392A1892B82A3789408959F92BA
:10265000AF92BF92CF92DF92EF92FF920F931F93B0
:10266000CF93DF9302EF12E088E5E82E81E0F82EA9
:10267000C0E0D0E0912CCC24C394D12CB701D70179
:102680008C91F894E82FE295EF70F0E021A18F7023
:10269000A60102C0440F551F8A95E2F7CA01922F86
:1026A000982B91A392A18095892382A3789400C04E
:1026B000EDE5F1E020E030E0A12CB12C4191842F38
:1026C00082958F7090E0DC0190968C9190E04F7035
:1026D00002C0959587954A95E2F780FD08C0C6012E
:1026E000022E02C0880F991F0A94E2F702C080E010
:1026F00090E0A82AB92A2F5F3F4F2E303105F1F61E
:10270000BFEFEB1AFB0AFB0180810E941013C4305B
:10271000D10519F0F0E5FA95F1F7D8018D919C916A
:102720001197A816B90621F0AD92BC9281E001C0C4
:1027300080E0982A21960E5F1F4FC530D10509F021
:102740009DCF992049F081E0809370040E94361C4F
:1027500090936F0480936E04809170048823E9F154
:1027600020916E0430916F044FB7F89480917A03F2
:1027700090917B03A0917C03B0917D034FBF821B9E
:10278000930B069750F18091F2029091F30290938F
:102790008C0380938B038091F4029091F5029093C7
:1027A0008E0380938D038091F6029091F7029093AF
:1027B000900380938F038091F8029091F902909397
:1027C0009203809391038091FA029091FB0290937F
:1027D00094038093930310927004892DDF91CF911D
:1027E0001F910F91FF90EF90DF90CF90BF90AF902F
:1027F0009F900895CF93DF930E946C11EC01823873
:10280000910559F1A0F48133910509F473C040F4A6
:102810008932910509F467C08A9709F472C084C0AF
:102820008533910509F458C0C997B9F07DC0833E3E
:10283000910571F138F4803E9105B1F0823E910529
:1028400011F172C0863E9105B9F1873E9105C9F13B
:10285000843E910509F068C024C08091FC0280FD8F
:102860005DC081FD5BC060C08091FC0280FD50C0F6
:102870008091FD0280FF36C18091FC0284FD30C151
:10288000C3EED0E02FC18091FC0282FF2BC1F4CFB8
:102890008091FC0282FD3FC08091FD0280FD3EC020
:1028A000EBCF8091FD0281FF1DC18091FC0284FD70
:1028B00017C1C7EED0E016C18091FC0283FF12C1A0
:1028C000F4CF8091FC0283FD2CC08091FD0281FF3A
:1028D000ECCFC4EED0E006C18091FC0285FF02C1BE
:1028E000C9E2D0E0FFC08091FC0285FFFBC0C5E3D8
:1028F000D0E0F8C08091FC0286FFF4C0CAE2D0E0CC
:10290000F1C08091FC0286FFEDC0C1E3D0E0EAC0D7
:10291000C9E3D0E0E7C0C2EED0E0E4C0C0EED0E052
:10292000E1C0C6EED0E0DEC0C11582E5D80708F0F0
:1029300066C0C11591E5D90728F0DC2FCC27C16FFF
:10294000D06AD0C0C83ED10560F5C03ED10508F0C0
:10295000C9C0C83AD105B0F4C53AD10540F0C55A4E
:10296000D0E0C154DD4FC881D0E0D064BBC0C130DD
:10297000D10509F4B7C008F4B3C0C430D10508F4D8
:10298000AFC0B0C0CF3BD10508F0AAC0C85AD0E054
:10299000CC0FDD1FCE53DD4F0990D881C02DD464FC
:1029A000A1C0C11520E5D207E0F0CE0174E09695F4
:1029B00087957A95E1F783709C2F937021E030E042
:1029C00002C0220F331F9A95E2F73C68382BCF7074
:1029D000C695C69580E2C89FE0011124C22BD32B77
:1029E00081C0C11580E4D80718F0DF70D06A7AC0C2
:1029F000CE019A9581159F4108F474C071C0C1152C
:102A000086E5D807F0F5C11595E5D90750F08C2F6C
:102A10000E94750F8F71C82FD0E0DC2FCC27D062B9
:102A200061C0C11524E5D20728F0DC2FCC27C46F84
:102A3000D06A58C09E01237033278C2F86958695C7
:102A4000C115D34578F4C1E0D0E002C0CC0FDD1F42
:102A50002A95E2F720E2829FC0011124C82BD92BCE
:102A6000DC6840C0C1E0D0E002C0CC0FDD1F2A9579
:102A7000E2F720E2829FC0011124C82BD92BDA682B
:102A800031C0C1152AE5D207E8F4C11589E5D80798
:102A900080F08C2F8F700E94750F94E0D695C795AB
:102AA0009A95E1F7CF70D0E0DC2FCC27D069C82B06
:102AB00019C0C11598E5D90798F0DC2FCC27C06F55
:102AC000D06A10C0CE0190568115904248F48D2FE7
:102AD0008F710E94750FDD27D0628F71D82B02C0D5
:102AE000C0E0D0E0CE01DF91CF910895CF92DF9288
:102AF000EF92FF926C01EE24FF24C114D104E10493
:102B0000F10421F0C701B60120E101C020E0C72E89
:102B1000D82EE92EFF24C114D104E104F10419F0E8
:102B2000285FC701B6016B017C0154E0F694E7947D
:102B3000D794C7945A95D1F7C114D104E104F10494
:102B400019F02C5FC701B6016B017C0142E0F694DD
:102B5000E794D794C7944A95D1F7C114D104E104FE
:102B6000F10419F02E5FC701B601DC01CB01B69567
:102B7000A79597958795892B8A2B8B2B09F02F5F2B
:102B8000822FFF90EF90DF90CF90089520916D04F9
:102B9000211110C00E947615843060F495E0989F52
:102BA000F0011124E95FFE4FA6E3B6E001900D921B
:102BB0009A95E1F7089590916D04911112C0809358
:102BC0000A0180930F018093140180931901609191
:102BD00068047091690480916A0490916B040C946C
:102BE000C615089544E150E063E772E0882361F080
:102BF00087E091E00E94F12A42ED50E067E872E040
:102C000086E993E00C94F12A87E091E00E94D32AB0
:102C100042ED50E067E872E086E993E00C94D32A35
:102C200080913606837029F08C6980933606109265
:102C3000060181E080936D0408958F929F92AF9278
:102C4000BF92CF92DF92EF92FF920F931F93CF9399
:102C5000DF9300D000D01F92CDB7DEB7FC0180819A
:102C6000918123813481232B31F09F3F31F491E016
:102C70008F3F19F403C091E001C090E090FD19C5A9
:102C80007F0185E0DE01119601900D928A95E1F7B2
:102C9000F701228189819A81222349F00E949D1D9A
:102CA000182F682F89819A810E943F1E03C00E94BD
:102CB000131E182F69817A81812F0E946C118C015B
:102CC00080919503811132C20115FCE51F0731F196
:102CD00068F4003E110509F45FC0043E110509F4D3
:102CE00060C00932110509F08EC10EC00A3C3CE5F6
:102CF000130769F10B3C8CE51807C1F0033C9CE518
:102D0000190709F080C136C080914A05882309F46B
:102D10004CC080914905882309F447C0F70182819E
:102D2000882309F403C20E94101600C2F7018281B1
:102D3000882309F4FBC180913906E8E9F1E092911A
:102D40009817B0F001E0E239F007C9F722C0F701A7
:102D50008281882309F4EAC180913906E2E9F1E031
:102D600028E931E02E173F07A1F091918917D0F79C
:102D7000892F0FC0F7018281882309F4D7C1809180
:102D80003906811103C08091250103C0809325017C
:102D900080E00E94DB15CAC1F701828180934A0559
:102DA00004C0F701828180934905F701828188235D
:102DB00009F48EC110924B050230FCE51F0708F4A0
:102DC00071C106312CE5120738F098012B5F3C45A4
:102DD0002930310508F066C10E94C81C9093FD029D
:102DE0008093FC0200313CE5130709F4C3C008F0EE
:102DF00041C008309CE5190709F49AC0F0F404308A
:102E0000FCE51F0709F487C068F402303CE51307AE
:102E100009F477C003301C4509F0E5C08091FC023D
:102E2000826076C006309CE5190709F46EC008F090
:102E30007BC08091FC0288606BC00C30FCE51F07F2
:102E400009F485C068F40A303CE5130709F474C03E
:102E500008F079C00E940E218091FC02806858C061
:102E60000E309CE5190709F476C008F07FC0809108
:102E7000FC028BC00C3FFCE51F0709F44FC018F59E
:102E800003313CE5130709F47DC078F401319CE57A
:102E9000190709F473C002311C4509F0A4C00E944F
:102EA0000E218091FC028F7733C00531FCE51F07AE
:102EB00009F472C008F486C00B3F1C4509F093C0AA
:102EC0008091FD023EC001158DE5180709F45FC031
:102ED00058F40E3FECE51E0709F444C008F43FC067
:102EE0008091FD0282602DC002302DE5120709F4A9
:102EF00075C008F45DC003301D4509F074C060E082
:102F00006EC08091FC02816003C08091FC028061F0
:102F10008093FC0268C08091FC0211C08091FD0288
:102F200082608093FD025FC08091FC028062F0CFDE
:102F30008091FC028064ECCF8091FC028860846008
:102F4000E7CF8160EECF8091FC028E7FE1CF809150
:102F5000FC028D7FDDCF8091FC02877FD9CF8091ED
:102F6000FD0218C08091FD028D7FDBCF8091FC02B5
:102F70008F7ECECF8091FC028F7DCACF8091FC02E4
:102F80008F7BC6CF8091FC02877F8B7FC1CF8091E2
:102F9000FD028D7F8E7FC5CF8091FC0282FB2227B0
:102FA00020F991E0922790FB82F990FB83F9B0CF52
:102FB0008091FD02982F909591708E7F892B90FBC8
:102FC00081F9AFCF0E940E218091FC0287FB22275E
:102FD00020F991E0922790FB87F99ACF61E08EE08B
:102FE00090E00E94012B6091FC021091FD0284E0B0
:102FF00090E00E94012B612F81E290E00E94012B62
:103000000E940E2193C0043FFCE51F07A1F406E2D5
:1030100021EE40EE64EF7CE50AC0083D9CE519070F
:1030200009F0C3CE06E221EE41EE68ED7CE5C70172
:103030000E94AF107BC0053F2CE51207A0F4093DAC
:103040003CE5130731F407E225EE45EE69ED7CE53A
:10305000EECF0A3D8CE5180701F708E221E045EEC6
:103060006AED7CE5E4CF063FECE51E0731F406E2AD
:1030700021EE42EE66EF7CE5DACF063FFCE51F0766
:1030800030F407E225EE44EE65EF7CE5D0CF073F54
:103090002CE5120709F089CE07E225EE46EE67EF30
:1030A0007CE5C5CF06313CE5130719F58091D505C0
:1030B0008A7A91E009F490E090934C05882311F00E
:1030C00065E301C069E28DE495E00E94931C0EC0A7
:1030D00006311C4509F048C080914C05882309F44D
:1030E000E6C265E38DE495E00E946B1C0E94491DD9
:1030F0001DC09801235C3C4524313105B8F0011511
:103100009CE5190731F00F3D1C4571F50E94D91C53
:103110000DC00E940E21FFE70AE116E0F1500040C9
:103120001040E1F700C000000E94EC1B8091D20526
:10313000877009F4BEC2F7018281882309F4B9C2FD
:1031400082E00F900F900F900F900F90DF91CF9132
:103150001F910F91FF90EF90DF90CF90BF90AF90B5
:103160009F908F900C94A51EF701008111818823F8
:1031700049F0C8010E949D1DD82E682FC8010E94E9
:103180003F1E04C0C8010E94131ED82EB8018D2D09
:103190000E94FA138C01982EF701B280A580A294A8
:1031A0009FE0A9228091D205877099F0BB2089F019
:1031B000812F807F803421F080E2800F883048F0BA
:1031C00082E00E94A51E8091D2058770DD24D394F1
:1031D0008111D12CC12EC2948FE0C8228C2D90E099
:1031E0008C30910508F035C2FC01E957FF4F0C9473
:1031F000B02B812F807F1F70882311F01295107FD4
:10320000BB20B9F0112309F40FC280E2800F88308F
:1032100010F0911006C08091D505182B1093D5059C
:1032200005C08091D405182B1093D4050E94491D28
:10323000FBC1802F0E946029112309F40AC2005E9D
:103240001095083010F0911006C08091D505182314
:103250001093D50505C08091D40518231093D4058B
:103260000E94491DF6C1812F807F1F70803211F0AE
:103270001295107F992021F0F1E09F16E1F02AC00D
:10328000BB2081F08091D605AA2051F001E0A01268
:1032900007C0182B181709F4DCC11093D605D9C143
:1032A000812B10C0AA2021F021E0A21609F4D1C17F
:1032B0000E94431D27C0BB2041F035E03A1508F4B9
:1032C000C8C1812F0E945629C4C184E08A1508F420
:1032D000C0C118C0BB2049F0AA2099F3F70185812D
:1032E00080FFA2C18F708583ECCFAA2059F00933EB
:1032F00009F0ACC1FFEF13EF21E0F1501040204086
:10330000E1F7A2C1812F0E944B29A3C1812F86958D
:103310008695837019F0813059F09BC1BB2019F05C
:10332000C801937002C080E090E00E948D1097C1A8
:10333000BB2019F0C801937002C080E090E00E94A9
:1033400077108DC1812F837009F069C0B11085C1DC
:10335000902F929596959770990F990F802F8F7057
:10336000882E912CA12CB12C092E04C0880C991CFC
:10337000AA1CBB1C0A94D2F704FF12C04FE050E015
:1033800060E070E004C0440F551F661F771F9A95D8
:10339000D2F7DB01CA0180959095A095B09503C046
:1033A00080E090E0DC0116951695412F4370423085
:1033B00019F1C8F40091D7051091D8052091D905CD
:1033C0003091DA05413059F088299929AA29BB2979
:1033D000BC01CD0160237123822393230AC0802A7C
:1033E000912AA22AB32ABC01CD01682979298A2908
:1033F0009B290E94DF1E31C188299929AA29BB294E
:103400000091D7051091D8052091D9053091DA05A2
:10341000BC01CD016027712782279327EACFBB200B
:1034200019F0812F817001C08695882309F415C198
:10343000902F929596959770990F990F802F8F7076
:10344000882E912CA12CB12C092E04C0880C991C1B
:10345000AA1CBB1C0A94D2F704FF12C04FE050E034
:1034600060E070E004C0440F551F661F771F9A95F7
:10347000D2F7DB01CA0180959095A095B09503C065
:1034800080E090E0DC0116951695412F43704230A4
:10349000D9F068F5009168041091690420916A04DC
:1034A00030916B04413059F088299929AA29BB2908
:1034B000BC01CD0160237123822393231EC0802A87
:1034C000912AA22AB32A13C088299929AA29BB299B
:1034D000009168041091690420916A0430916B0492
:1034E000BC01CD01602771278227932706C0BC014C
:1034F000CD01682979298A299B290E946A1EADC0BD
:103500001F70BB2039F0812F0E94BE1E802F0E94A9
:103510005629A3C0802F0E944B29812F0E94801E14
:103520009CC0802F32EF931609F440C0391538F053
:1035300090EF991661F0E1EF9E1699F170C0F3EFEC
:103540009F16D9F124EF921609F44EC068C0BB2033
:1035500019F134E03A1508F47CC01F7181E090E065
:10356000A0E0B0E0AC01BD0104C0440F551F661FD0
:10357000771F1A95D2F78091680490916904A09101
:103580006A04B0916B048A019B01082719272A2736
:103590003B27C901B80125C025E02A1508F459C008
:1035A000DCCFBB2029F0812F8F712CC0BB20D9F339
:1035B000812F8F710E94801E4CC0BB2079F01F713B
:1035C00081E090E0A0E0B0E0BC01CD0104C0660F56
:1035D000771F881F991F1A95D2F703C060E070E02B
:1035E000CB010E946A1E35C0BB2079F01F71812F6C
:1035F0000E94BE1E38E0139FC00111248360809397
:10360000D205812F0E94BE1E24C081E00E94A51E0B
:1036100081E08A15F0F482E00E94A51E1AC0BB204A
:1036200039F0AA2009F4BFCF802F0E94BC2911C015
:10363000AA2009F4BDCF893349F49FEFE3EFF1E00D
:103640009150E040F040E1F700C00000802F0E9460
:10365000602988EF8C0D843010F40E94A310DD20C7
:1036600041F18091D20580FD24C0F7011282859539
:10367000859585950E94BE1EC7010E941D168091EA
:10368000D2058595859585950F900F900F900F9099
:103690000F90DF91CF911F910F91FF90EF90DF90EE
:1036A000CF90BF90AF909F908F900C94801E69E256
:1036B00019CD0F900F900F900F900F90DF91CF9139
:1036C0001F910F91FF90EF90DF90CF90BF90AF9040
:1036D0009F908F90089508958091DC05089580E073
:1036E0000895CF93DF9300D01F92CDB7DEB79091AE
:1036F000FF05943011F589837B836A839093E900F9
:103700008FEF9091E800815095FD06C09AE69A955A
:10371000F1F700C08111F5CF8091E80085FF0DC061
:1037200040E050E063E070E0CE0101960E9423216A
:103730008091E8008E778093E8000F900F900F90B3
:10374000DF91CF910895BC0184E00C94711BBC0102
:1037500083E00C94711BCF93DF93209126012223E9
:1037600039F02091FC0227FF03C060E224E002C090
:1037700068E021E02093E9002FEF3091E80021502C
:1037800035FD06C03AE63A95F1F700C02111F5CFB4
:103790002091E80025FF1DC0EC01809126018111D8
:1037A00005C040E050E068E070E003C070E040E039
:1037B00050E0CE010E9423218091E8008E77809313
:1037C000E80080E2FE01ADEDB5E001900D928A9532
:1037D000E1F7DF91CF91089581E08093E00080E2EE
:1037E0008093D8001092C9008FE097E20197F1F71B
:1037F00000C0000087E090EBDC0180933C069093D2
:103800003D06A0933E06B0933F069CE088E10FB6CC
:10381000F894A895809360000FBE90936000FFCF4E
:1038200078941F920F920FB60F9211248F939F934B
:10383000AF93BF9380917A0390917B03A0917C0317
:10384000B0917D030196A11DB11D80937A039093E1
:103850007B03A0937C03B0937D03BF91AF919F91B5
:103860008F910F900FBE0F901F9018952FB7F8945F
:1038700080917A0390917B03A0917C03B0917D03AA
:103880002FBF08951F920F920FB60F9211248F939E
:103890009F93AF93BF9380910003811113C08091D8
:1038A0007A0390917B03A0917C03B0917D034196B4
:1038B000A11DB11D80937A0390937B03A0937C0399
:1038C000B0937D03BF91AF919F918F910F900FBEE9
:1038D0000F901F901895209126012223C9F0209166
:1038E000FC0227FF15C0262F2695269526952E31FA
:1038F000C8F4FC01E20FF11D677081E090E001C0A7
:10390000880F6A95EAF780959281892382830895CA
:10391000FC0106962281621301C012823196E817DB
:10392000F907C1F70895209126012223C1F02091C3
:10393000FC0227FF14C0262F2695269526952E31AA
:1039400030F5FC01E20FF11D677081E090E001C0ED
:10395000880F6A95EAF79281892B82830895FC018A
:1039600032962FEF30E04191641789F02F3F19F420
:10397000411101C0232F3F5F3630A9F72F3F39F0A7
:10398000FC01E20FF11D27FDFA9562830895089569
:10399000CF9384E090E00E94E32AC82F81E290E078
:1039A0000E94E32A2C2F30E0A901582BCA01CF91A5
:1039B00008956BEE7EEF80E090E00E941F2B60E0A8
:1039C00082E090E00E94012B60E083E090E00E94A2
:1039D000012B1092D7051092D8051092D90510929C
:1039E000DA0560E084E090E00E94012B60E081E273
:1039F00090E00E94012B60E085E090E00E94012BA6
:103A000060E086E090E00E94012B6FEF87E090E09D
:103A10000E94012B40E050E0BA0188E090E00E9453
:103A2000132B60E08DE090E00E94012B40E050E01D
:103A3000BA0188E190E00E94132B60E087E190E0FA
:103A40000E94012B40E050E0BA018CE190E00E941E
:103A5000132B60E080E290E00E94012B40E050E0F8
:103A6000BA0188E190E00E94132B40E050E0BA01D7
:103A70008FE090E00E94132B40E050E0BA0183E118
:103A800090E00C94132B8091D60581111092D605ED
:103A900008959091D5058091D405892B2091D30567
:103AA000982F922B90934D058091D6058823D9F0BD
:103AB000892B80934D0580912601882331F08091D8
:103AC000FC0287FF02C08EE101C086E0EFE4F5E072
:103AD00090E0815028F021912223D9F39F5FF9CF04
:103AE00091110E94431DE091FE02F091FF02309778
:103AF000A9F080912601882359F08091FC0287FF6C
:103B000007C080914D0580934E0585E080934D055B
:103B10000280F381E02D8DE495E00994089580E022
:103B200090E00E948D1080E090E00E94771010924B
:103B3000D4051092D3050C94491DBF92CF92DF9209
:103B4000EF92FF920F931F93CF93DF938C01C0905E
:103B50006804D0906904E0906A04F0906B0480914E
:103B6000D7059091D805A091D905B091DA05C82A5A
:103B7000D92AEA2AFB2ACFE1D0E0D701C6010C2ED0
:103B800004C0B695A795979587950A94D2F780FDBE
:103B900004C0219790F7B12C07C0BC2EB8018C2F20
:103BA0000E94FA130197A9F38B2DDF91CF911F91FA
:103BB0000F91FF90EF90DF90CF90BF900895CF933B
:103BC000DF93EC010E949D1DBE010E94FA13DF915C
:103BD000CF9108950E94DF1D292F2F70E92FE295C4
:103BE000EF704E2F50E0FA013297EE30F105B8F445
:103BF000ED56FF4F0C94B02B803F99F018F4883E9F
:103C000070F40FC0843F59F40CC0883E50F0813FDF
:103C100031F407C0822F869586958695089580E0B9
:103C2000089581E008952EE0929F800D1124682F61
:103C3000669566956695982F977085E0689FB001A8
:103C4000112440E050E080E0FB01E40FF51FEB554C
:103C5000FA4F208130E0092E02C0369527950A944C
:103C6000E2F721703327042E01C0220F0A94EAF7ED
:103C7000822B4F5F5F4F4530510531F708952EE09D
:103C8000929F800D1124E82FE695E695E6958770C2
:103C900051E001C0550F8A95EAF785E0E89FF001F1
:103CA0001124EB55FA4F20E030E070E04081CB0169
:103CB000022E02C0969587950A94E2F7817081954D
:103CC00084278523842781932F5F3F4F253031053B
:103CD00069F70895CF92DF92EF92FF926B017C011A
:103CE0000E94C615C0926804D0926904E0926A04EA
:103CF000F0926B04FF90EF90DF90CF900C948F1DAB
:103D00000F931F9341E050E060E070E004C0440F67
:103D1000551F661F771F8A95D2F74095509560957D
:103D200070958091680490916904A0916A04B091A3
:103D30006B048A019B01082319232A233B23C90111
:103D4000B8011F910F910C946A1E2091D2058095A5
:103D500082238093D205982F977079F430E0482F12
:103D6000082E000C550B2417350739F085958595DD
:103D700085950E94801E1092D20508950F931F937F
:103D800041E050E060E070E004C0440F551F661F42
:103D9000771F8A95D2F78091680490916904A09169
:103DA0006A04B0916B048A019B01082B192B2A2B02
:103DB0003B2BC901B8011F910F910C946A1E6093AF
:103DC000D7057093D8058093D9059093DA050C94A4
:103DD0008F1D8091A40590917305891719F08F5F4D
:103DE0008770FBCF08950F931F93CF93DF9380913C
:103DF000720582958F7009F05DC080916F058823F0
:103E000009F458C08091A4051091730560916D0567
:103E100070916E05C0917005D091710591E06F3F72
:103E200009F090E0292F06E0811709F443C020979C
:103E300021F07F3F21F030E003C031E001C0322F9C
:103E400090E030FD34C0089FF001099FF00D11246F
:103E5000DF01AC58BA4F11963C911197371327C028
:103E60003C91361324C012963C91129731111FC019
:103E700013964D915C9114974C1B5D0B483C51057A
:103E8000B0F4809172058F70806180937205E7585D
:103E9000FA4F80818F70806180838DE695E00E946B
:103EA0001D16DF91CF911F910F910C94E91E019681
:103EB0008770BACFDF91CF911F910F9108959F9294
:103EC000AF92BF92CF92DF92EF92FF920F931F9328
:103ED000CF93DF93CDB7DEB761970FB6F894DEBF0F
:103EE0000FBECDBF8C0185E0F801DE011D9601906B
:103EF0000D928A95E1F7F80190818181E2803091FD
:103F00006D0560916E0540917005509171054115E8
:103F1000510531F06F3F31F421E03F3F19F403C008
:103F200021E001C020E0F22FF1709F2E20FD23C17F
:103F3000F801C380D4802DE6A22E25E0B22EF090A9
:103F40006F05F601E41BF50BFF2009F4CEC02091AC
:103F50007205E83CF10508F099C0422F407F09F056
:103F600051C0681311C039130FC0FE2CE1100CC0F2
:103F70002F70206120937205C5010E941D1680914B
:103F80007205F801858337C1CD2831F08F3F31F4B8
:103F900021E09F3F19F403C021E001C020E020FD93
:103FA00003C021E02E2502C020E030E0F22FF170A6
:103FB000FF2E20FF1DC02091A4054091730556E0FF
:103FC000241709F4F6C030E0529FF001539FF00D22
:103FD0001124EC58FA4F6181861306C06081961354
:103FE00003C06281E61204C02F5F3F4F2770E8CF05
:103FF000FE2CEE2009F4FFC0809172058160809351
:10400000720550C0681307C0391305C0E11003C022
:10401000F80125838DC09D878E878D859E850E94A2
:10402000EA1D882369F1EE2059F120917205822F53
:1040300082958F7090E0029774F080916D05909159
:104040006E0598878F831986DB86CA862C87CE01FA
:1040500007960E941D1686E0F801ADE6B5E00190D6
:104060000D928A95E1F70E94F31E0DC06817E1F0EA
:104070009D878E878D859E850E94EA1D81111EC0B9
:10408000C8010E941D16FF24F394B5C0422F407F43
:1040900069F78DE695E00E941D1686E0F501119204
:1040A0008A95E9F7F12CA7C03913E2CFE110E0CFF0
:1040B000F8012583C8010E941D1657C0EE2001F3A8
:1040C00020917205822F82958F7090E002971CF2EA
:1040D00080916D0590916E059A8389831B82DD82A4
:1040E000CC822E83CE010196B4CFE83CF105E8F5F1
:1040F000FE2CEE2029F2681327C0391325C0209129
:10410000720520FD18C0822F82958F70482F50E0D5
:104110004115510581F0F80125834F30510541F0DB
:104120008F5F982F9295907F822F8F70892B858338
:10413000C8010E941D1686E0F801ADE6B5E00190C9
:104140000D928A95E1F757C09D878E878D859E8554
:104150000E94EA1D81117FCF80917205816080935A
:104160007205C8010E941D1646C086E0F501119235
:104170008A95E9F740C0EE2009F482CF9D878E87AB
:104180008D859E850E94EA1DF82E882309F478CF3C
:1041900086E0F801ADE6B5E001900D928A95E1F771
:1041A00080916D0590916E050E94DF1D0E94F31EA7
:1041B00022C09D878E878D859E850E94DF1D292FB9
:1041C00022952F70223028F49F7039F0811105C09C
:1041D0000BC0243028F49F7049F4805E883020F0B2
:1041E000C8010E941D169F2CF92C05C0F80195816D
:1041F000907F99F7F9CF8F2D61960FB6F894DEBFB7
:104200000FBECDBFDF91CF911F910F91FF90EF9027
:10421000DF90CF90BF90AF909F9008951092D505FA
:1042200080912601882331F08091FC0287FF02C033
:104230008EE101C086E0EFE4F5E0DF011D928A9592
:10424000E9F70C948F1DEF92FF920F931F93CF937A
:10425000DF937C018B010E943127811119C0E70196
:1042600001151105A1F08091E80085FD0AC080913B
:10427000E8008E778093E8000E943127882381F33D
:1042800007C089918093F10001501109E9CF80E0C6
:10429000DF91CF911F910F91FF90EF9008956F9252
:1042A0007F928F929F92AF92BF92CF92DF92EF92C6
:1042B0000F931F93CF93DF933C01C09127018EE0B2
:1042C000C89FC02D1124DEE0DC0FD73408F0D6E4FF
:1042D00060913A06669580913206909133060E946D
:1042E0000E12182FCD1708F044C08C2E912CF4011B
:1042F000E758FD4F9081809128018923C1F1F40195
:10430000EE0FFF1FE351FE4FC080D12C80E7C81A8B
:10431000D108F401EE0FFF1FE251FE4FA080B12C37
:10432000E0E2AE1AB108CC9C9001CD9C300D300D6E
:104330001124AA9CC001AB9C900D900D1124820FFA
:10434000931F0E94B411082F6091370670913806B0
:1043500080913906E12E9501A601F30109950E948D
:104360001812462F282F672FC4010E947B11CF5FA0
:10437000B9CF81E0D63408F080E0DF91CF911F9172
:104380000F91EF90DF90CF90BF90AF909F908F9064
:104390007F906F900895CF92DF92EF92FF920F93EC
:1043A0001F93CF93DF936C01C09127018EE0C89FCC
:1043B000C02D1124DEE0DC0FD73408F0D6E4609184
:1043C0003A06669580913206909133060E940E124D
:1043D000182FCD1778F5EC2EF12CF701E758FD4F8B
:1043E000908180912801892319F1F701EE0FFF1FB9
:1043F000E251FE4F208130E020523109F701EE0FEB
:10440000FF1FE351FE4F408150E04057510960913A
:1044100037067091380680913906012FF60109950B
:104420000E941812462F282F672FC7010E947B1168
:10443000CF5FCFCF81E0D63408F080E0DF91CF911D
:104440001F910F91FF90EF90DF90CF900895DF9232
:10445000EF92FF920F931F93CF93DF937C01C09154
:1044600027018EE0C89FC02D1124DEE0DC0FD73479
:1044700008F0D6E460913A0666956695809132061A
:10448000909133060E940E12D82ECD17F0F40C2F07
:1044900010E0F801E758FD4F9081809128018923B1
:1044A00091F06091370670913806809139062D2D74
:1044B0004C2FF70109950E941812462F282F672FBD
:1044C000C8010E947B11CF5FE0CF81E0D63408F0B5
:1044D00080E0DF91CF911F910F91FF90EF90DF90DF
:1044E00008959F92AF92BF92CF92DF92EF92FF9288
:1044F0000F931F93CF93DF936C01C09127018EE040
:10450000C89FC02D1124DEE0DC0FD73408F0D6E4BC
:1045100060913A06669566958091320690913306D1
:104520000E940E12182F80E4810F0E94931190E8D0
:10453000F92EF80E812F0E94931120E8922E980EEA
:10454000CD1700F5AC2EB12CF501E758FD4F908149
:10455000809128018923A1F0609137067091380677
:1045600080913906E12E0C2F292D4F2DF60109954A
:104570000E941812462F282F672FC5010E947B1119
:10458000CF5FDECF81E0D63408F080E0DF91CF91BD
:104590001F910F91FF90EF90DF90CF90BF90AF9061
:1045A0009F900895CF92DF92EF92FF920F931F9307
:1045B000CF93DF936C01C09127018EE0C89FC02D7F
:1045C0001124DEE0DC0FD73408F0D6E420913A065F
:1045D00030E040E050E06FEF7FEF80E090E00E943D
:1045E000252B8901CD17E8F5EC2EF12CF701E758C2
:1045F000FD4F908180912801892389F190910906CE
:10460000915097FD15C0492F092E000C550BFA014A
:10461000E75FF94F8189C813F3CF440F551FFA01A3
:10462000E75FF94F218D328D2017310748F701C020
:10463000980160913A06C9010E940E12AC01609186
:1046400037067091380680913906F60109950E9467
:104650001812462F282F672FC7010E947B11CF5FAA
:10466000C1CF81E0D63408F080E0DF91CF911F9177
:104670000F91FF90EF90DF90CF9008952F923F928F
:104680004F925F926F927F928F929F92AF92BF9262
:10469000CF92DF92EF92FF920F931F93CF93DF930E
:1046A000CDB7DEB727970FB6F894DEBF0FBECDBFEC
:1046B000282E4B01209127018EE0289F802D112468
:1046C0008E83182F125F173408F016E43091090614
:1046D00039839E81911708F077C08E81682E712CE6
:1046E000F301E758FD4F908180912801892309F457
:1046F00067C03090370640903806522C1F82C301A5
:10470000880F991FDC01A351BE4FBB83AA83C3014D
:10471000880F991FFC01E251FE4FFD83EC83F98164
:104720005F16E0F5E52CF12CAA81BB81CC90D12C51
:10473000F701E75FF94F8181C81AD108AC81BD81CB
:10474000AC90B12C8185A81AB108CC9C9001CD9C6D
:10475000300D300D1124AA9CC001AB9C900D900D22
:104760001124820F931F0E94B411082FF701EE0F3E
:10477000FF1FE75FF94F60913A06818D928D0E948D
:104780000E127C019501A601632D742D8F81F40119
:104790000995362E472E8F835394C1CF2091390629
:1047A0008F81382F329F312D1124832F632D742D4B
:1047B0000E941812462F282F672FC3010E947B11D9
:1047C0008E818F5F8E8385CF81E0163408F080E084
:1047D00027960FB6F894DEBF0FBECDBFDF91CF9105
:1047E0001F910F91FF90EF90DF90CF90BF90AF900F
:1047F0009F908F907F906F905F904F903F902F9001
:1048000008951F93CF93DF93CDB7DEB7AA970FB666
:10481000F894DEBF0FBECDBFE1E0F6E08091F1007D
:10482000819346E0E930F407C9F7809102068330AE
:1048300009F460C030F4813071F0823009F49AC01C
:10484000B1C08A3009F486C08B3009F46BC089305E
:1048500009F0A8C020C080910106813A09F0A2C0E9
:104860008091E800877F8093E80080910506909111
:104870000606892B21F460E28DED95E003C060E02F
:1048800080E090E070E00E94EF288091E8008B7754
:104890008093E80087C080910106813209F082C0D0
:1048A0008091050690910606009719F0029709F08D
:1048B00079C08091E800877F8093E8008091E800CC
:1048C00082FD05C08091FF058111F8CF6BC08091FA
:1048D000F2009091F300029729F48091F1008B7F10
:1048E000813021F48091F1008093DC058091E80013
:1048F0008B7754C080910106813A09F053C08091B2
:10490000050690910606892B09F04CC08091E800BD
:10491000877F8093E8008091E80080FFFCCF809142
:10492000260137C0809101068132E1F580910506AC
:1049300090910606892BB1F58091E800877F8093DE
:10494000E8000E94642780910306809326010E945C
:104950000E2128C080910106813221F58091E80066
:10496000877F8093E8000E946427809104068093EB
:10497000DB0518C080910106813AA1F48091E8001E
:10498000877F8093E8008091E80080FFFCCF8091D2
:10499000DB058093F1008091E8008E778093E8003A
:1049A0000E9464278091E80083FFDAC180910106AC
:1049B00090910206492F50E04A30510508F0D0C1CD
:1049C000FA01EF55FF4F0C94B02B803821F082385C
:1049D00009F0C6C108C08091FD059091FE0599239C
:1049E00089F082600FC0809105068F70873008F0D3
:1049F000B7C18093E9008091EB0085FB882780F99F
:104A00001092E9009091E800977F9093E8008093DE
:104A1000F1001092F1006DC1282F2D7F09F0A0C187
:104A2000882319F0823061F09BC1809103068130A8
:104A300009F096C1933009F080E08093FE052EC006
:104A40008091030681112AC0809105068F702FEF97
:104A5000280F263008F084C18093E9002091EB00F4
:104A600020FF1CC0933021F48091EB00806214C0C1
:104A70009091EB0090619093EB0021E030E0A90170
:104A800002C0440F551F8A95E2F74093EA00109246
:104A9000EA008091EB0088608093EB001092E900BF
:104AA0008091E800877F8093E8000E94642758C1C6
:104AB000811156C1109103061F778091E300807821
:104AC000812B8093E3008091E800877F8093E8004A
:104AD0000E9464278091E80080FFFCCF8091E30072
:104AE00080688093E300111102C082E001C083E07E
:104AF0008093FF0535C18058823008F031C1209184
:104B00000306309104062C3D53E0350779F583E028
:104B10008A838AE289834FB7F894DE01139620E0F6
:104B20003EE051E2E32FF0E050935700E49120FF84
:104B300003C0E295EF703F5FEF708E2F90E0EA3098
:104B400010F0C79601C0C0968D939D932F5F2431BE
:104B500049F74FBF8091E800877F8093E8006AE2C1
:104B600070E0CE0101960E94EF28B1C08091050649
:104B700090910606432F552743305105A9F068F45C
:104B80004130510509F4FBC04230510509F0E8C03D
:104B90008BE590E0E5E5F5E04BC04132510529F1A8
:104BA0004232510589F1DCC0C90199278130910554
:104BB000A1F058F0029709F0D3C0E2ECF5E0E491DF
:104BC0008E2F90E0E2ECF5E030C0E2E3F6E0E49115
:104BD0008E2F90E0E2E3F6E028C0EEE1F6E0E4910B
:104BE0008E2F90E0EEE1F6E020C08330910508F0D2
:104BF000B7C0880F991FFC01EF55FE4F0190F0815F
:104C0000E02D89E090E014C08330910508F0A8C041
:104C1000FC01EE0FFF1FE556FE4F0190F081E02DE5
:104C2000DC01A856BE4F8C9190E0009709F498C023
:104C30002091E800277F2093E8002091070630911B
:104C400008062817390708F4C90140E0009771F1F8
:104C50002091FF052223D9F12530C9F12091E800E8
:104C600023FD35C02091E80022FD2DC02091E800F1
:104C700020FFECCF2091F2003091F300009759F023
:104C80002830310540F444914093F100319601976A
:104C90002F5F3F4FF3CF41E02830310509F040E06E
:104CA0002091E8002E772093E800D0CF4111D0CF9B
:104CB0000AC08091FF05882351F0853041F0809132
:104CC000E80083FD04C08091E80082FFF2CF80916C
:104CD000E8008B778093E80043C0803809F040C03B
:104CE0008091E800877F8093E800809100068093A0
:104CF000F1008091E8008E77D6CE811131C080918D
:104D00000306909104069927029754F58091E800D4
:104D1000877F8093E80010910306109300060E949D
:104D20006427111106C08091E30087FD02C081E075
:104D300001C084E08093FF0542E061EC81E00E94C5
:104D4000832742E261EC84E00E94832742E261EC27
:104D500082E00E94832742E260EC83E00E94832786
:104D60008091E80083FF10C08091E800877F8093E6
:104D7000E8008091EB0080628093EB0005C082E147
:104D800090E0E0EBF5E054CFAA960FB6F894DEBFC2
:104D90000FBECDBFDF91CF911F9108951F920F924B
:104DA0000FB60F9211242F933F934F935F936F93FE
:104DB0007F938F939F93AF93BF93CF93DF93EF93A3
:104DC000FF93C091E900CF708091EC00D82FD17093
:104DD00080FDD0E81092E9008091F000877F8093F9
:104DE000F00078940E9401241092E9008091F00074
:104DF00088608093F000CD2BCF70C093E900FF91C5
:104E0000EF91DF91CF91BF91AF919F918F917F9162
:104E10006F915F914F913F912F910F900FBE0F9027
:104E20001F901895E8EDF0E080818C7F80831092D0
:104E3000E2001092DA001092E100A0EEB0E08C9156
:104E400081608C9380818F77808319BCA7EDB0E05F
:104E50008C918E7F8C9380818F7E808310923B0615
:104E600008952091E4003091E50095E64091EC0032
:104E7000842F817040FF23C08091E80080FD1DC019
:104E80008091FF05882399F0853099F08091EB009F
:104E900085FD11C04091E4005091E50024173507CD
:104EA00029F3915011F09A01E1CF84E0089582E056
:104EB000089583E0089581E0089580E00895409189
:104EC000E80042FFDDCF08958091010687FF11C001
:104ED0008091E80082FD05C08091FF058111F8CF27
:104EE00011C08091E8008B770BC08091FF0588236B
:104EF00049F08091E80080FFF8CF8091E8008E773C
:104F00008093E8000895982F973068F59093E90012
:104F1000981739F07091EC002091ED005091F0005D
:104F200003C0242F762F50E021FD02C09F5FECCFFD
:104F30003091EB003E7F3093EB003091ED003D7FF0
:104F40003093ED003091EB0031603093EB007093C3
:104F5000EC002093ED005093F0002091EE0027FD2F
:104F6000E5CF80E008958F708093E90081E0089597
:104F7000CF92DF92EF92FF920F931F93CF93DF9325
:104F8000C8EDD0E088818F7E8883E7EDF0E08081F6
:104F90008160808381E080933B0688818C7F888359
:104FA00002EE10E0D8011C921092DA0081EEC82EB9
:104FB000D12CD6011C9288818F7788838881806864
:104FC000888388818F7D888380818068808319BCF5
:104FD0001092FF05109200061092FE051092FD053A
:104FE00090EEE92EF12CF70180818B7F8083888100
:104FF0008160888342E060E080E00E948327D601E0
:105000008C918E7F8C93F801808181608083808178
:1050100088608083D7018C918E7F8C93888180619A
:105020008883DF91CF911F910F91FF90EF90DF90D8
:10503000CF9008951F920F920FB60F9211242F93C5
:105040003F934F935F936F937F938F939F93AF9310
:10505000BF93EF93FF938091E10082FF09C080919D
:10506000E20082FF05C08091E1008B7F8093E10028
:105070008091DA0080FF2AC08091D80080FF26C08E
:105080008091DA008E7F8093DA008091D90080FFD2
:1050900018C088E189BD8AE189BD09B400FEFDCF51
:1050A00081E08093FF0580913B0681110FC00E9433
:1050B00012270E94B8278091E20084608093E2006A
:1050C00005C019BC1092FF0510923B068091E100CB
:1050D00080FF17C08091E20080FF13C08091E20042
:1050E0008E7F8093E2008091E20080618093E200F5
:1050F0008091D80080628093D80019BC85E08093AD
:10510000FF058091E10084FF2EC08091E20084FFC2
:105110002AC088E189BD8AE189BD09B400FEFDCFBE
:105120008091D8008F7D8093D8008091E1008F7EA0
:105130008093E1008091E2008F7E8093E200809175
:10514000E20081608093E20080910006882311F0E4
:1051500084E007C08091E30087FD02C081E001C0C8
:1051600083E08093FF058091E10083FF27C0809159
:10517000E20083FF23C08091E100877F8093E100FC
:1051800082E08093FF05109200068091E1008E7FFF
:105190008093E1008091E2008E7F8093E200809115
:1051A000E20080618093E20042E060E080E00E94E3
:1051B00083278091F00088608093F000FF91EF9149
:1051C000BF91AF919F918F917F916F915F914F911F
:1051D0003F912F910F900FBE0F901F901895209127
:1051E0000706309108062617370748F06115710544
:1051F00039F42091E8002E772093E80001C0B9012E
:10520000FC0120E06115710569F18091FF0588239B
:10521000E1F18530E1F18091E80083FD3AC08091B1
:10522000E80082FD2CC08091E80080FFEBCF8091E8
:10523000F2009091F3006115710551F088309105ED
:1052400038F421912093F100615071090196F3CF58
:1052500021E0089709F020E08091E8008E778093A4
:10526000E800D0CF2111D1CF0AC08091FF0588235B
:1052700061F0853061F08091E80083FD0AC0809183
:10528000E80082FFF2CF80E0089582E0089583E095
:10529000089581E00895882341F080959091D50587
:1052A00089238093D5050C94491D0895882339F0EE
:1052B0009091D505892B8093D5050C94491D0895AF
:1052C000882309F458C0682F823869F40E94A3101B
:1052D00081FF51C069E38DE495E00E94931C0E9418
:1052E000491D69E30EC0833891F40E94A31080FF2A
:1052F00042C063E58DE495E00E94931C0E94491D25
:1053000063E58DE495E00E946B1C0C94491D843884
:1053100069F40E94A31082FF2EC067E48DE495E03B
:105320000E94931C0E94491D67E4EBCF8CEF860F0F
:10533000813A38F380E2860F883070F4677081E03C
:1053400090E001C0880F6A95EAF780959091D505A5
:1053500089238093D505D9CF8BE5860F833020F440
:1053600080E090E00C948D10685A673120F480E062
:1053700090E00C9477100895CF93882309F4B5C07A
:10538000C82F8238B1F40E94A31081FDAEC069E33A
:105390008DE495E00E94931C0E94491D2FEF80E749
:1053A00092E0215080409040E1F700C0000069E3A6
:1053B00017C08338E1F40E94A31080FD96C063E516
:1053C0008DE495E00E94931C0E94491D2FEF80E719
:1053D00092E0215080409040E1F700C0000063E57A
:1053E0008DE495E00E946B1CCF910C94491D84388C
:1053F000B1F40E94A31082FD78C067E48DE495E0CB
:105400000E94931C0E94491D2FEF80E792E02150DB
:1054100080409040E1F700C0000067E4E1CF8CEFEE
:105420008C0F813AB8F5809126018823E1F08091B4
:10543000FC0287FF18C0EC2FE695E695E695F0E0B4
:10544000E35BFA4F8281282F30E04C2F477081E0D8
:1054500090E002C0880F991F4A95E2F782239323B8
:10546000892B59F411C0EFE4F5E08191C81729F0B8
:1054700025E0E535F207C9F707C06C2F8DE495E00C
:105480000E946B1C0E94491D6C2F8DE495E00E94C8
:10549000931CAACF80E28C0F883068F4C77081E03B
:1054A00090E001C0880FCA95EAF79091D505892B45
:1054B0008093D50599CFEBE5EC0FE33040F4F0E0B5
:1054C000E154FD4F808190E0CF910C948D10C85A2B
:1054D000C73158F4EC2FF0E0EE0FFF1FEE53FD4FF5
:1054E00080819181CF910C947710CF9108958F9204
:1054F0009F92AF92BF92CF92DF92EF92FF92CF93A3
:10550000DF93EC01688179818A819B816115710546
:105510008105910521F464E279ED8BE597E02DE1B9
:1055200033EF41E050E00E94252B49015A019B01D5
:10553000AC01A7EAB1E40E94442B6B017C01ACEE04
:10554000B4EFA50194010E94522BDC01CB018C0D1C
:105550009D1DAE1DBF1DB7FF03C00197A109B04837
:1055600088839983AA83BB839F77DF91CF91FF9034
:10557000EF90DF90CF90BF90AF909F908F90089565
:105580000E94772A089580E091E00E94772A08958A
:10559000A0E0B0E08093000190930101A09302018C
:1055A000B09303010895DC01CB01FC01F999FECF12
:1055B00006C0F2BDE1BDF89A319600B40D9241509B
:1055C0005040B8F70895F999FECF92BD81BDF89A81
:1055D000992780B50895A8E1B0E042E050E00C942E
:1055E000D52ADC01A40FB51F4150504048F0CB0133
:1055F000840F951F2E910E94022B41505040D0F7EE
:105600000895262FF999FECF92BD81BDF89A019792
:1056100000B4021639F01FBA20BD0FB6F894FA9AFA
:10562000F99A0FBE08950396272F0E94022B0E941D
:10563000012B252F0E94022B242F0C94022B019664
:10564000272F0E94022B0C94012B052E97FB1EF492
:1056500000940E943C2B57FD07D00E94572B07FC5B
:1056600003D04EF40C943C2B5095409530952195E9
:105670003F4F4F4F5F4F089590958095709561957E
:105680007F4F8F4F9F4F08950E94792BA59F900DBC
:10569000B49F900DA49F800D911D11240895B7FF14
:1056A0000C94442B0E94442B821B930B0895A1E27F
:1056B0001A2EAA1BBB1BFD010DC0AA1FBB1FEE1F8C
:1056C000FF1FA217B307E407F50720F0A21BB30BD7
:1056D000E40BF50B661F771F881F991F1A9469F753
:1056E00060957095809590959B01AC01BD01CF01AF
:1056F0000895A29FB001B39FC001A39F700D811DAB
:105700001124911DB29F700D811D1124911D0895CA
:10571000AA1BBB1B51E107C0AA1FBB1FA617B707D7
:1057200010F0A61BB70B881F991F5A95A9F78095F3
:105730009095BC01CD01089597FB072E16F40094B7
:1057400007D077FD09D00E94882B07FC05D03EF4D6
:10575000909581959F4F0895709561957F4F08951D
:10576000EE0FFF1F0590F491E02D0994FB01DC0181
:1057700002C001900D9241505040D8F70895FB01AE
:10578000DC014150504048F001900D920020C9F7D3
:1057900001C01D9241505040E0F70895F894FFCFAA
:1057A00001000000FFFF033D8EFFB07F958EFFB02C
:1057B0007F958EFFB07F958EFFB07F6C1BAB1B6B10
:1057C0001BA71BA31BB00100FF008EFFB0737973F2
:1057D00074656D37362F6C61756E63685F6C6974C4
:1057E000655F3100302E31322E32302D3137392D78
:1057F0006764646135613100F1F2F3F4F566656464
:105800006362616707060504C660C70107030602F5
:10581000090109030302080103020301260C0D0E0E
:1058200010110F12131721222500003131295A1BA4
:10583000750A2131426384B040226D1505F3048658
:105840000467058005A00544434241403F3E3D3C7E
:105850003B3A3938372728292A2B2C2D2E2F303147
:10586000323334262524232221201F1E1D1C1B1AFF
:10587000450C0B0A09080706050403020100360D52
:105880000E0F1011191213141516171835D130BE3A
:1058900030AB309C308C307D306E305F30503041DA
:1058A00030313022300B3008401B402A4039405004
:1058B000406E4085409440A740C240D140E040E067
:1058C00030C520B220A32094208520762067205761
:1058D00020482039202A201B2008200410171026D9
:1058E0001035104410541063107210811090109FE6
:1058F00010AF10BE10CD10E020E010C900B600A718
:10590000009800890079006A005B004C003D002E81
:10591000001E000F000000E000040404040404045E
:105920000404040404040404040404040404040437
:105930000404040404040404040404040404040427
:105940000404040404040404040404040404040417
:10595000040404040404040404040404040404818A
:105960008283E200E900EA00B500B600B700CD008E
:105970008301CC008A0192019401210223022402B6
:105980002502260227022A02B300B4006F0070002D
:00000001FF
