:100000000C9458030C949F030C949F030C949F032F
:100010000C949F030C949F030C949F030C949F03D8
:100020000C949F030C949F030C94912C0C94462BDE
:100030000C94E11A0C949F030C949F030C949F035F
:100040000C949F030C949F030C949F030C949F03A8
:100050000C949F030C94AF1A0C949F030C949F0371
:100060000C949F030C949F030C949F030C949F0388
:100070000C949F030C949F030C949F030C949F0378
:100080000C949F030C949F030C949F030C949F0368
:100090000C949F030C949F030C949F030C949F0358
:1000A0000C949F030C949F030C949F0395079E0749
:1000B000D10715085B08A508F108F408F908FC0841
:1000C0000109040909090C090F0912091509180980
:1000D0001B091E092109240927092C096809A409FB
:1000E000A709AC09B709BA09C509C809D309D609CE
:1000F000E109E409EF09F5096D0ABA0AB80BBE0B6C
:10010000C30B5E0D5E0DCC0B5E0D5E0DD60BE70BCB
:100110000D0C2C0C4D0C7F0CAE0CD60C090D010DEA
:10012000540D98179817D217D2172518C819C8193F
:10013000C81941181F19301930199B1C9B1CAE1C83
:10014000AE1CA41CAE1CAE1CAE1C9B1C9B1CA91C94
:10015000AE1CAE1CA91C33245A2401265A240126A5
:10016000A624C9240126BE25CE2529003A003B003D
:100170003C003D003E003F00400041004200430083
:10018000440045004C0035001E001F0020002100E7
:100190002200230024002500260027002D002E0029
:1001A0002A002B0014001A000800150017001C007C
:1001B00018000C00120013002F003000310039002D
:1001C00004001600070009000A000B000D000E00D5
:1001D0000F003300340028004A00E1001D001B001E
:1001E0000600190005001100100036003700380025
:1001F000E50052004B00E000E2000151E3002C005A
:100200004D002C00E400E6000151500051004F0069
:100210004E00005C0100010001000100010001002E
:1002200001000100010001000100010001000100C6
:1002300001000100010001000100010001000100B6
:100240000100C35CCB5CCA5C0100460001000100F8
:100250000100010001004A004E004B004D0001006A
:100260000100010001000100010001000100010086
:1002700001005000510052004F0001000100010038
:10028000AE000100010001000100010001000100B9
:10029000010001000100010001004B00A900010064
:1002A0000100010001000100A8000100010001009F
:1002B00001004A004E004D00AA00010001000100AB
:1002C0000100010001000100010001000100010026
:1002D0000100010001000100010001000100010016
:1002E0000100010001000100010001000100010006
:1002F00001000100010001000100010001000100F6
:1003000001000100010001000100010001000100E5
:1003100001000100010001000100010001000100D5
:1003200001000100010001000100010001000100C5
:1003300001000100010001000100010001000100B5
:1003400001000100010001000100010001000100A5
:100350000100010001000100010001000100010095
:100360000100010001000100010001000100010085
:100370000100010001000100010001000100010075
:100380000100010001000100010001000100010065
:100390000100010001000100010001000100010055
:1003A0000100010001000100010001000100010045
:1003B0000100010001000100010001000100010035
:1003C0000100010001000100010001000100010025
:1003D0000100010001000100010001000100010015
:1003E0000100010001000100010001000100010005
:1003F00001000100010001000100010001000100F5
:1004000001000100010001000100000101010101E2
:1004100001010101020202020202020202030303BD
:10042000030303030304040404040404050505058D
:10043000050606060606070707070708080808094D
:100440000909090A0A0A0B0B0B0C0C0C0D0D0D0EF9
:100450000E0E0F0F0F10101111111212131314148E
:10046000151516161717181819191A1A1B1B1C1D03
:100470001D1E1E1F2020212222232424252626275C
:100480002829292A2B2C2D2D2E2F3031323233348E
:1004900035363738393A3B3C3D3E3F404142434494
:1004A00045464748494A4C4D4E4F50515354555676
:1004B00058595A5B5D5E5F616264656668696B6C22
:1004C0006D6F7072737577787A7B7D7E808283859D
:1004D00087888A8C8E8F91939596989A9C9EA0A2DD
:1004E000A3A5A7A9ABADAFB1B3B5B7BABCBEC0C2E7
:1004F000C4C6C9CBCDCFD1D4D6D8DBDDDFE2E4E7AB
:10050000E9EBEEF0F3F5F8FAFDFF05010980A10132
:10051000850319012AB700150126B700950175104A
:100520008100C0050C0901A101850419012AA0025E
:10053000150126A002950175108100C0050109066C
:10054000A1018505050719E029E715002501950892
:10055000750181020507190029EF1500250195F0A5
:10056000750181020508190129059505750191029A
:10057000950175039101C00660FF0961A10109623F
:10058000150026FF009520750881020963150026D5
:10059000FF00952075089102C005010906A101051B
:1005A0000719E029E71500250195087501810295D5
:1005B00001750881010507190029FF150026FF00B4
:1005C000950675088100050819012905950575012D
:1005D0009102950175039101C009025B00030100BE
:1005E000A0FA090400000103010100092111010022
:1005F000012240000705810308000A0904010002E6
:1006000003000000092111010001222200070582D8
:100610000320000107050303200001090402000173
:1006200003000000092111010001226D000705846B
:100630000320000A120110010000000884330100A9
:1006400001000102000150034C00610075006E00C2
:1006500063006800200043006F006E0066006900C0
:10066000670075007200610062006C006500200088
:100670004B006500790062006F0061007200640049
:10068000200028006C00610075006E0063006800A7
:100690005F0031002900000012035300790073004D
:1006A000740065006D003700360000000403090483
:1006B00011241FBECFEFDAE0DEBFCDBF04B603FECC
:1006C00027C08091080790910907A0910A07B0916F
:1006D0000B078730904BA740B04BD1F4109208071E
:1006E0001092090710920A0710920B0714BE84B7E4
:1006F000877F84BF0FB6F894A895809160008861C9
:1007000080936000109260000FBEE0E0F8E309956E
:1007100013E0A0E0B1E0E2E9F0E602C005900D923E
:10072000AA34B107D9F727E0AAE4B3E001C01D92CB
:10073000A830B207E1F70E94A1030C9447300C9453
:100740000000CF93DF93CDB7DEB7AD970FB6F89427
:10075000DEBF0FBECDBF84B7877F84BF0FB6F894CE
:10076000A89580916000886180936000109260007D
:100770000FBE91E080E80FB6F894809361009093EB
:1007800061000FBE85B7806885BF85B7806885BF6B
:100790008EE09AE190934B0380934A030E948A2B48
:1007A0000E94302C8091E20084608093E200789473
:1007B0008091CB068823A1F01091E9001F709091E1
:1007C000EC00892F817090FD80E8182B1092E900D1
:1007D0008091E80083FD0E944D231F701093E90073
:1007E00082E084BD93E095BD9DE797BD80936E0048
:1007F00009E711E07FE7E72E71E0F72ED8018D9130
:100800008D010E946226E016F106C1F70FE711E0A4
:100810006DE8E62E61E0F62EF80181918F010E94CD
:100820006226E016F106C1F7ECE4F3E088E593E018
:10083000A7EFB3E0119211921D921D928E179F07A0
:10084000C9F780E090E00E94642F8B3E9E4F11F02C
:100850000E94781B1092D506EEEEF6E08EEF96E041
:100860002FEF3FEF219331938E179F07D9F7109207
:100870005D03E6E7F3E08FEF9FEF8193919323E031
:10088000E638F207D1F780E090E00E94642F8B3EBB
:100890009E4F21F00E94781B0E94471245E050E0D5
:1008A0006CE170E082E097E00E944C2F809102079B
:1008B0008C7F11F40E9447121092BA0080E280935C
:1008C000B8001092BC008CE08CA701E010E09E0103
:1008D000245D3F4F4AEF50E360E87FEB8AE391E00D
:1008E0000E94872997FD4CC01BA69E01255D3F4FA6
:1008F00042E154E362ED7FEB8AE391E00E948729B5
:1009000097FD3EC019821A821B821C829E012F5FB6
:100910003F4F48E054E362ED7FEB8AE391E00E94B1
:10092000EE1F97FD2DC009811A812B813C8101604A
:1009300009831A832B833C8348E054E362ED7FEB09
:100940008AE391E00E94DF2997FD1AC004E813E3CF
:1009500023E030E040E050E360E87FEB8AE391E0A1
:100960000E94DF2997FD0CC004E813E324E030E087
:1009700048E455EE62ED7FEB8AE391E00E94DF29C7
:100980001FEF1093460180914701909148010E940A
:10099000932A0E9476201093150180911601909160
:1009A00017010E94932A10931101809112019091D6
:1009B00013010E94932A8091490190914A01A091CC
:1009C0004B0189839A83AB8343E050E0BE016F5FA4
:1009D0007F4F80913A010E94502904E610E00E9466
:1009E00076208FE19EE40197F1F700C000000150EE
:1009F0001109A9F70E94DA13AFE0B7E21197F1F7F6
:100A000000C00000EFE0F7E23197F1F700C000000E
:100A10000E94DA138091F70380FF13C06FEF7FEF1E
:100A200080E490E00E94982F6FEF82E490E00E94B3
:100A30007A2F6FEF7FEF80E090E00E94982F0E9466
:100A40008B1A80E490E00E94642F8C3E964739F424
:100A500082E490E00E945C2F91E0823009F090E007
:100A600090FD39C000E010E0780158EAE50EF11C75
:100A700058012CE1A20EB11CF801E659FE4FC590B9
:100A8000D4906D2DC8018D5B9F4F0E947A2F6C2DE5
:100A9000C8018C5B9F4F0E947A2F0E5F1F4FA016DC
:100AA000B10651F78501EA14FB0411F7870130EA1A
:100AB000E31632E0F306C1F681E00E94282B6CEECB
:100AC00076E780E490E00E94982F62E082E490E074
:100AD0000E947A2F03C080E00E94282B60910005BD
:100AE0007091010580910205909103050E94FC2AF6
:100AF00080E090E00E94642F8B3E9E4F11F00E9498
:100B0000781B82E090E00E945C2F8093EA030E94B1
:100B1000671B909359038093580383E090E00E94F1
:100B20005C2F682F70E080E090E00E947E1D609155
:100B300000057091010580910205909103050E94C6
:100B4000FC2A609158036068609358031091590320
:100B500084E090E00E947A2F612F81E290E00E9471
:100B60007A2F8FE291E090935B0380935A032224C3
:100B70002394312C8091CB06853009F053C040E49A
:100B8000F42EEE24E39400E112E18091CB0685304F
:100B900009F042C08091CB06843051F140E060E022
:100BA00080E00E944312E092E80310925C0388E127
:100BB00090E00FB6F894A895809360000FBEF09275
:100BC000600083B7817F846083BF83B7816083BF08
:100BD0007894889583B78E7F83BF0FB6F894A895D5
:100BE00080916000886180936000109260000FBE69
:100BF0008091CA06882309F4C8CF0E94DA13E7EF70
:100C0000F3E081919191892B09F090C7A3E0B4E0C2
:100C1000AE17BF07B1F7B9CF0E94AD1F0E946D118B
:100C20001092E8030E94DA13882359F08FB7F894E2
:100C30004091E4035091E5036091E6037091E7036E
:100C40008FBFABEEB3E0E7EFF3E0E12CF12C4E2DDC
:100C5000A190B1908D919D918A259B25009709F4D3
:100C6000AEC010E0CC24C394D12C9C012C213D219A
:100C7000232B09F49EC019A34AA3AC20BD2081E018
:100C8000A114B10409F480E08BA30E94D51A8160FD
:100C9000782F9DA38CA349A15AA16BA18DA10E947D
:100CA000A310F701EE0FFF1FE551FC4F80819181EA
:100CB000C826D926D182C082AB2889F08EE08E9DCD
:100CC000F0018F9DF00D1124E753FE4FE10FF11D50
:100CD00080818F3F21F08DA7DD24D39401C0D12CDA
:100CE000C0905D03ED2CF12CC7018C0D911D09976F
:100CF0009CF108E010E00E191F09B7016F5F7F4FEC
:100D0000635A7C4FA8018EE593E00E942F30B70113
:100D1000675F7F4F635A7C4FA80186E693E00E948D
:100D20002F30A801440F551FB701660F771F675E6C
:100D30007F4F635A7C4F86E793E00E942F30B701C4
:100D40006F5E7F4F635A7C4FA8018EE693E00E944E
:100D50002F30CA94C0925D0380915D0390E0EDA5B1
:100D6000AE2FB0E09D01220F331F235E3D4FAA0F2F
:100D7000BB1FBD01625E7D4F41E0480F9D15B0F481
:100D800090E0FC01E35AFC4FD9015C915183DB01F7
:100D90005C915187BDA5B18B880F991FFC01E35A67
:100DA000FC4F128E118E91E0842FE6CF80935D036D
:100DB0001EC01F5FCC0CDD1C1E3009F056CF2FEF7C
:100DC000E21AF20A36E0E316F10409F040CF8FEFA1
:100DD0008EA38FA318A60E94D51A8160782F9AA798
:100DE00089A74EA15FA168A58AA50E94A310409182
:100DF00086035091870360918803709189032FB710
:100E0000F8948091E4039091E503A091E603B091FA
:100E1000E7032FBF841B950BA60BB70B2FB7F894D6
:100E2000C090E403D090E503E090E603F090E70380
:100E30002FBFC0928603D0928703E0928803F0927E
:100E4000890360915D03EDE5F3E0462F50E0442413
:100E50004A94542C612C712C481A590A6A0A7B0A4C
:100E6000651799F0218D328D4901A12CB12C4814C0
:100E700059046A047B0410F4415004C0280F391F40
:100E8000328F218F5F5F3296EBCF40935D0380916D
:100E9000E803811108C010910207812F837019F0B7
:100EA0001695169501C010E080911A018130E9F085
:100EB00038F0823009F4DFC3833009F4E9C305C494
:100EC00010924201C092FE06D092FF06E092000707
:100ED000F092010789E2EDE5F3E0A5EDB6E00190BF
:100EE0000D928A95E1F781E0D0C380911901181322
:100EF0000DC020910207237030E04091180150E0AE
:100F000081E02417350719F480E001C081E0817089
:100F100080934401412F50E04832510508F099C3B5
:100F2000FA01EA5AFF4F0C942930882309F491C33F
:100F300040E060E080E00E9443128BC300914201D8
:100F400081E1089F002D112421E1F22EF00E54E5DD
:100F50005F1510F494E5F92E609103077091040772
:100F6000809105070E94E212E62ED72EC82E0F159B
:100F700090F4E02FF0E0DF01AB53BD4F8C919091E6
:100F80004301982331F02C2D4E2D6D2DCF010E9461
:100F900045120F5FECCF81E063E56F1508F05AC38F
:100FA00058C30091420181E1089F002D112481E185
:100FB000F82EF00E74E57F1510F4B4E5FB2ED090FA
:100FC0000407E0900507C0900307B6018E2D0E942C
:100FD000E212B62EA72E782E609106076C0D7D2D9D
:100FE0008E2D0E94E212E62ED72EC82E0F15B8F4D1
:100FF000802F90E0FC01EB53FD4F308120914301A5
:10100000232359F030FF04C02C2D4E2D6D2D03C02D
:10101000272D4B2D6A2D0E9445120F5FE7CF81E0EF
:1010200093E59F1508F016C314C30091420181E1B6
:10103000089F002D1124A1E1DA2ED00EA4E5AD15F4
:1010400010F4F4E5DF2EB0900407A090050720917E
:101050000607E0E4CE2E3C2D329F312D1124C32E05
:101060000D1518F5E02EF12CF701EB53FD4F908193
:10107000809143018923B9F0F701EE0FFF1FE25E73
:10108000FD4F808182958F70609103078C9D600D6C
:1010900011247B2D8A2D0E94E212462F282F672FC4
:1010A000C7010E9445120F5FDBCF81E053E55D155C
:1010B00008F0D0C2CEC20091420181E1089F002D0C
:1010C000112461E1D62ED00E64E56D1510F454E5BF
:1010D000D52EB0900407A09005072091060740E4A4
:1010E000C42E7C2D729F712D1124C72E0D1538F53D
:1010F000E02EF12CF701EB53FD4F908180914301DD
:101100008923D9F0F701EE0FFF1FE35EFD4F6081E9
:10111000C69EB001112435E0759567953A95E1F7C3
:1011200080910307680F7B2D8A2D0E94E212462FC3
:10113000282F672FC7010E9445120F5FD7CF81E08C
:1011400093E59D1508F086C284C20091420181E1B9
:10115000089F002D112491E1F92EF00EA4E5AF15A2
:1011600010F484E5F82ED0900307E0900407C090B7
:101170000507609106076695669566958091FE065F
:101180009091FF060E94D8120E945D12805887FD40
:101190008195880F282F3C2D239F212D1124822FEC
:1011A0006D2D7E2D0E94E212E62ED72EC82E0F1531
:1011B00090F4E02FF0E0DF01AB53BD4F8C919091A4
:1011C0004301982331F02C2D4E2D6D2DCF010E941F
:1011D00045120F5FECCF81E053E55F1508F03AC28E
:1011E00038C28BE89FE002C08FE59FE00E94732128
:1011F00031C284E690E102C085E490E10E941721AB
:1012000029C28AE290E102C08EE090E10E949B2018
:1012100021C28DE59FE0EACF84E59FE0E7CF8BE434
:101220009FE0E4CF80E39FE0E1CF81E29FE0EECF5B
:101230008FEA92E1E3CF8DEF9FE0E0CF89EE9FE070
:10124000E5CF83EF9EE005C081EC9EE002C083E81D
:101250009EE00E94BD21FEC181111EC06091060763
:1012600020E1620F08F46FEF8091FE069091FF0677
:101270000E94D8126AE070E00E940130892B09F0C8
:10128000E8C10E943C2F64E570E00E941530609137
:1012900043010E947213DDC18091420191E1899F57
:1012A000802D112401E1080F053508F004E5E82E32
:1012B000F12CC02ED12CEC14FD040CF0C7C16091B0
:1012C0004301C7010E9472136FEFE61AF60AF3CFCB
:1012D00081111EC06091060720E1620F08F46FEFD4
:1012E0008091FE069091FF060E94D81265E070E0A2
:1012F0000E940130892B09F0ACC10E943C2F64E5AB
:1013000070E00E941530609143010E94B813A1C1A2
:101310008091420191E1899F802D112401E1080F04
:10132000053508F004E5E82EF12CC02ED12CEC1484
:10133000FD040CF08BC160914301C7010E94B813FA
:101340007FEFE71AF70AF3CF8CE79EE002C086E74B
:101350009EE00E941E227EC18091D50621E0382F9A
:10136000321B08F430E0832F6DE57EE03BC06DE575
:101370007EE037C08091D50621E0582F521B08F43B
:1013800050E0852F65E27EE02DC065E27EE029C059
:101390008091D50621E0682F621B08F460E0862F5B
:1013A00063EF7DE01FC063EF7DE01BC08091D50639
:1013B00021E0782F721B08F470E0872F6BED7DE041
:1013C00011C06BED7DE00DC08091D50621E0382F76
:1013D000321B08F430E0832F65EC7DE003C065EC40
:1013E0007DE080E00E948A2235C18091DE03811178
:1013F00025C069EC71E040E050E0942F9295907F19
:1014000020E030E0FB01E20FF31F8081843538F4E7
:10141000E82FF0E0E657FC4F892F822B80832F5F67
:101420003F4F2E30310571F74F5F5F4F625F7F4F47
:101430004630510511F781E08093DE0300914201AF
:1014400081E1089F002D1124B1E1DB2ED00E54E57F
:101450005D1510F4A4E5DA2E609100057091010588
:1014600080910205909103050E94F527C82E609196
:10147000030770910407809105070E94E212B62EBF
:10148000A72E782E0D1518F5E02EF12CF701EB5351
:10149000FD4F9081809143018923B9F0F701E65710
:1014A000FC4F6081462F4F7062956F708C2D0E94AB
:1014B0000F12029720F420E040E060E003C0272DE7
:1014C0004B2D6A2DC7010E9445120F5FDBCF81E0D3
:1014D00063E56D1508F0BEC0BCC00091420181E11A
:1014E000089F002D1124F1E17F2E700E74E5771511
:1014F00010F4E4E57E2EEE24EA94F12C0715A0F515
:10150000E02FF0E0DF01AB53BD4F9C918091430190
:10151000892341F1DF01AA0FBB1FAE0FBF1FAC5FD4
:10152000BB4FAC901196CC90119712968C919091E4
:101530000507A99E50011124C99E60011124899FAD
:10154000C0011124B7010E940130262FC501B70147
:101550000E940130462FC601B7010E940130CF0121
:101560000E9445120F5FCACF81E093E5971508F0FE
:1015700071C06FC0D090420191E1D99ED02C11244E
:1015800001E10D0D053508F004E5811106C08091DB
:10159000E3038F5F8093E30304C01092E303109290
:1015A000E2038091E303811147C08091E203883018
:1015B00029F41092E1031092E2033EC0A82FB0E09C
:1015C000AA0FBB1FA357BE4FEC9111969C91AEE0A2
:1015D000EA9FF0011124E753FE4FE90FF11D9081BE
:1015E0009F3F21F09093DF0391E001C090E0909342
:1015F000E1038F5F8093E2031FC0ED2CF12CF70114
:10160000EB53FD4F9081809143018923A1F06091BC
:10161000E3036D0D2091E103EFEDF3E080E77FEF51
:1016200090E092130CC00E94E212462F282F672FE1
:10163000C7010E944512D394D016F8F207C0319129
:10164000D31202C08FEF70E09F5FEBCF81E00435D3
:1016500008F080E0909142019F5F909342018111D8
:1016600034C082E080931A018091440181112DC021
:10167000112351F02AC01093190180910207837041
:10168000809318010E94821083E080931A011DC08C
:101690004091FE065091FF0660910007709101078E
:1016A0002FB7F8948091E4039091E503A091E603AD
:1016B000B091E7032FBF841B950BA60BB70B409788
:1016C000A105B10510F010921A010E946D119091C0
:1016D000E903891721F00E946D118093E90380913D
:1016E000CB06843009F046CA83E08093E9008091FC
:1016F000E80082FF3FCA8091E80085FF21C00E9478
:10170000A92B81111BC000E210E0FE0131967F0180
:1017100008C08091F100D7018D937D01015011091E
:1017200069F08091E80085FDF4CF8091E8008B7727
:101730008093E8000E94A92B882399F391E001C0CF
:1017400090E08091E8008B778093E800992309F47A
:1017500011CA81E08A83E9818E2F90E0FC013197E4
:10176000E331F10508F0AAC1E258FF4F0C9429308B
:1017700086E78B838CEE8C8381E012C14EE150E0D2
:1017800062E571E004C04EE150E064E671E0CE0134
:1017900003960E94383091C180910505882309F491
:1017A0008DC11A8281E08093040588C18B818430C9
:1017B00008F084C16C81663008F080C14D814E30E4
:1017C00008F07CC10E940F128E839F8376C19B819B
:1017D000943008F073C10C81063008F06FC18D8120
:1017E0008E3008F06BC1FE806F81BCE10B9F8001E1
:1017F0001124E8EA9E9F000D111D1124080F111DF0
:10180000080F111D0D5B1F4FC8010E947A2F6F2D0D
:10181000C80101960E947A2F50C18091050581115F
:101820004DC18B81803F49F0813F49F0823F49F0B3
:10183000833F09F043C1E3E005C0E0E003C0E1E01D
:1018400001C0E2E025E0E29FF0011124E55EFE4FD9
:1018500083818C8380EBA4C08091050581112EC10A
:101860008B819C81903B08F090EB803F49F0813F59
:1018700049F0823F49F0833F09F020C1E3E005C011
:10188000E0E003C0E1E001C0E2E035E0E39FF00109
:101890001124E55EFE4F9383A8C080910505811158
:1018A0000DC1EB81E43558F0E03FC1F0E13FC1F0FC
:1018B000E23FC1F0E33F09F001C1E3E014C0F0E012
:1018C000CF01880F991FE80FF91FEC5FFB4F818153
:1018D0008C8380818D8382818E83EFC0E0E003C0A2
:1018E000E1E001C0E2E055E0E59FF0011124E55E92
:1018F000FE4F81818C8382818D831E82DEC0809128
:1019000005058111DBC0EB818D819C81E43558F0A8
:10191000E03FB1F0E13FB1F0E23FB1F0E33F09F069
:10192000CDC0E3E012C02E81F0E0AF01440F551F9F
:10193000E40FF51FEC5FFB4F808391832283BDC0D2
:10194000E0E003C0E1E001C0E2E065E0E69FF00115
:101950001124E55EFE4F9183828347C08091050587
:101960008111ACC0EB81E43008F0A8C02E2F30E02C
:1019700075E0E79FF0011124E55EFE4F908196959A
:101980009695EDE9F1E0419194130CC08C8385E0CC
:10199000829FF001839FF00D1124E55EFE4F84814C
:1019A0008D838BC08F5F8F3071F788C08091050564
:1019B000811184C0EB81E43008F080C0AC81AF308D
:1019C00008F07CC02D8185E0E89FF0011124E55EE0
:1019D000FE4FB0E0A356BE4F8C91982F990F990FF0
:1019E00080818370892B808324831A826091000513
:1019F0007091010580910205909103050E94FC2AD7
:101A00005DC080910505811159C081E00E94282B9D
:101A100054C086E08B838EE08C8387EFE82E83E0D2
:101A2000F82E16E0A0E0B4E040E050E0B03258F507
:101A3000F70160817181C101042E02C0880F991FD6
:101A40000A94E2F7682379238B2F90E091010A2E04
:101A500001C0220F0A94EAF7672B51F061E070E0B1
:101A60006C0F7D1F860F971FFC013081232B0AC04E
:101A700061E070E06C0F7D1F860F971F2095FC01C1
:101A8000308123232083AF5FA83010F0BF5FA0E038
:101A90004F5F5F4F4E30510549F61150F2E0EF0EA7
:101AA000F11C1111C1CF09C00E94AD1F81E09B81C3
:101AB000911101C080E0809303041A828091CB06CB
:101AC000843009F51091E9001F709091EC00892F86
:101AD000817090FD80E8182B82E08093E90080916E
:101AE000E80080FF0DC040E050E060E270E0CE0111
:101AF00001960E94C21F8091E8008E778093E800D3
:101B00001F701093E90080910405882311F40C9450
:101B1000BA052FEF30E752E0215030405040E1F756
:101B200000C000000E948B1A0C94BA0509BD19BDB3
:101B300009B400FEFDCF8091D8008F7D8093D8003E
:101B40008091E00082608093E0008091E00081FD60
:101B5000FCCF0E94AD1F0C94C505EBE0F5E096E0CC
:101B6000E730F90729F08183608342833396F7CF0A
:101B70000895FC01EE0FFF1F8E0F9F1FFC01E55F14
:101B8000FA4F6183408322830895EF92FF920F936F
:101B90009701201B31092F3F310519F010F02FEF6D
:101BA00030E02095382F320F08F43FEF832F0F914C
:101BB000FF90EF900895EF92FF920F939701201BF3
:101BC00031092F3F310519F010F02FEF30E0322F9F
:101BD0003095482F430F08F44FEF842F620F0F9179
:101BE000FF90EF900895EF92FF920F93972F093493
:101BF00038F4B701601B71096F3F710519F010F0DF
:101C00006FEF70E0485F5F4F4131510540F0A9012F
:101C1000485F5F4F4131510510F06FEF70E0609504
:101C2000482F460F08F44FEF842F37FF02C02D5F77
:101C30003F4F359527953595279560910307620F9E
:101C4000792F0F91FF90EF900895EF92FF920F93ED
:101C5000E00EF11CF90137FF03C0F195E195F109A0
:101C600024E0EE0FFF1F2A95E1F7EF3FF10519F091
:101C700014F0EFEFF0E09A0157FF03C03195219582
:101C8000310994E0220F331F9A95E1F72E173F0791
:101C90000CF4F901EE0DFF1DEF3FF10519F010F006
:101CA000EFEFF0E02E2F2095382F320F08F43FEFA2
:101CB000832F0F91FF90EF900895EF92FF920F9373
:101CC000970195E0099F200D311D11242F3F31050B
:101CD00019F010F02FEF30E02095382F320F08F474
:101CE0003FEF832F0F91FF90EF90089522E8241B80
:101CF00008F420E0620F08954095282F429F412D5F
:101D00001124842F08950F931F9310E0F801EE0F14
:101D1000FF1FE35EFD4F9081905797FD9195000F57
:101D2000111FF801E25EFD4FE081F0E0B097DF01A6
:101D3000AA0FBB1F8D010E0F1F1F2003D001219F73
:101D4000B00D1124E8E3F0E0E91BF10997FDF395EC
:101D50009F01220F331F89010E0F1F1F40039001A7
:101D6000419F300D11242A0F3B1F37FF02C021581D
:101D70003F4F220F232F221F330B620F1F910F9112
:101D800008950F931F93522F10E0F801EE0FFF1FDD
:101D9000E25EFD4FE081F0E0B097EE0FFF1F9F0184
:101DA0005203D001539FB00D1124000F111FF801F1
:101DB000E35EFD4F008110E000571109000F111F75
:101DC00040039001419F300D11242A0F3B1F37FF24
:101DD00002C021583F4F220F232F221F330B620FC7
:101DE0001F910F9108950F931F93522F10E0F80148
:101DF000EE0FFF1FE25EFD4FE081F0E0B0979F0124
:101E00005203D001539FB00D1124000F111FF80190
:101E1000E35EFD4F008110E000571109400390017F
:101E2000419F300D11242A0F3B1F37FF02C021585C
:101E30003F4F220F232F221F330B620F1F910F9151
:101E40000895EF920F931F9393E0099F800111244F
:101E5000159507956E2D600F1F910F91EF900895C6
:101E6000A22F50E0FA01EE0FFF1FE25EFD4F9081BE
:101E7000905297FD9195440F551FFA01E35EFD4F77
:101E80003081232F30E02A1B3109290F311D97FDA6
:101E90003A95620F0895E42FF0E0EE0FFF1FE25E27
:101EA000FD4F6081621B0895E42FF0E0EE0FFF1FED
:101EB000E35EFD4F6081621B0895622F0895E42F59
:101EC000F0E0EE0FFF1FE35EFD4F408134EE439FD5
:101ED000412D1124E82FF0E050E0445E5F4FDA011D
:101EE000A21BB1099D01B7FF03C0319521953109AE
:101EF00093E0220F331F9A95E1F7AF01421B530B7A
:101F00009A0157FF02C020E030E0582F259F212D75
:101F10001124822F0895E42FF0E0EE0FFF1FE35EFF
:101F2000FD4F408134EE439F412D1124E72FF0E017
:101F300050E0445E5F4FDA01A21BB1099D01B7FF7B
:101F400003C031952195310993E0220F331F9A95F3
:101F5000E1F7AF01421B530B9A0157FF02C020E08B
:101F600030E0279F212D1124722F0895FC019B0141
:101F7000009721F477FF2BC080E80895AC0197FF0C
:101F800004C044275527481B590BB901640F751F1E
:101F900037FD0CC0241B350BC901A5E0880F991F24
:101FA000AA95E1F70E94153080E20CC0CB0165E0F4
:101FB000880F991F6A95E1F7BA01621B730B0E94A3
:101FC000153080E6861BF7FF03C08195089580E0F9
:101FD0000895EF920F93CF93DF93D72FC82FC901A6
:101FE0000E19BA010E94B60F602F681B7D2F8C2F2F
:101FF000DF91CF910F91EF9008950F93CF93DF93DF
:10200000D72FC82FC901BA010E94B60F682F600FE1
:102010007D2F8C2FDF91CF910F910895EF920F9329
:102020001F93CF93DF93D62FC72F182FC9010E19F7
:10203000010FBA010E94B60F081B202F219F212DEE
:102040001124822F6D2F7C2FDF91CF911F910F9143
:10205000EF900895EF920F931F93CF93DF93D62FB6
:10206000172FC82FC9010E19070FBA010E94B60F0A
:10207000702F781B719F712D11246D2F8C2FDF9184
:10208000CF911F910F91EF900895FF920F931F939F
:10209000CF93DF93F62ED72F182FC901C12FC01B66
:1020A000BA010E94B60F982F990F890FC81B2C2FC9
:1020B000219F212D1124822F6F2D7D2FDF91CF9114
:1020C0001F910F91FF900895FF920F931F93CF934D
:1020D000DF93F62E172FD82FC901C72FC01BBA01C7
:1020E0000E94B60F982F990F890F7C2F781B719F34
:1020F000712D11246F2D8D2FDF91CF911F910F9195
:10210000FF9008956A9A8EB18B7F9EB194602FB72D
:10211000F894EBE0F5E036E0E730F30761F0319159
:1021200048E09EB937FF8EB9330F000000C08EB96A
:102130004A95B9F7F0CF2FBF8FE292E00197F1F700
:1021400000C0000008951F93CF93DF93CDB7DEB793
:1021500067970FB6F894DEBF0FBECDBF342F4B8B01
:10216000252F5C8B6D8B7E8B8F8B4E895F896111E8
:102170001092A00686E0FE013D96DF01982F1D9289
:102180009A95E9F73D872E876F87598B488BDE013B
:10219000179601900D928A95E1F7CE0107960E945D
:1021A000FE1D81113EC086E0FE013796DE011196CC
:1021B00001900D928A95E1F7FF81E8856A857B851C
:1021C0006115710531F0EF3F31F481E0FF3F19F403
:1021D00003C081E001C080E080FD23C0209135066E
:1021E00030E0C9010196877099274091660650E05A
:1021F0008417950779F1F983EA837D836C8396E0F0
:10220000929FD001939FB00D1124AA5CB94FFE019B
:10221000319601900D929A95E1F7809335060E94D0
:10222000881D16E080916606909135068917F9F0B1
:10223000189FC00111248A5C994F0E94FE1D8823BB
:10224000B1F08091660690E001968770992780939F
:102250006606E8CF0E94AD1F109235061092660602
:10226000EFE2F6E086E0DF011D928A95E9F76796D6
:102270000FB6F894DEBF0FBECDBFDF91CF911F9197
:10228000089520910B0630910C062817390771F03C
:1022900090930C0680930B06E0915A03F0915B0338
:1022A000309721F00084F185E02D09940895209164
:1022B000090630910A062817390771F090930A062B
:1022C00080930906E0915A03F0915B03309721F067
:1022D0000680F781E02D09940895E0915A03F0916A
:1022E0005B03309721F00190F081E02D099480E0AC
:1022F0000895EF92FF920F93CF93DF93C42FD22FC5
:10230000FC0182818823D1F040930D060E94D51AEA
:10231000909308068093070680E28C0F883008F0BF
:1023200078C0C77081E001C0880FCA95EAF7DF91D5
:10233000CF910F91FF90EF900C94CF2D80910D06CF
:10234000481356C020910706309108064FB7F894FD
:102350008091E4039091E503A091E603B091E70337
:102360004FBF821B930B883C910508F041C0CD17ED
:10237000C9F080E28C0F883040F4C77081E001C062
:10238000880FCA95EAF70E94C42D80E28D0F88302D
:1023900048F481E09D2F977001C0880F9A95EAF765
:1023A0000E94CF2D093319F0E12CF12C03C080E5F8
:1023B000E82EF12C802F0E94352EE114F10451F00B
:1023C0008FEC97E00197F1F700C0000091E0E91A67
:1023D000F108F3CF802F0E94D92D80E28D0F883035
:1023E000C0F4D77081E001C0880FDA95EAF70AC01F
:1023F00080E28C0F883068F4C77081E001C0880FDC
:10240000CA95EAF7DF91CF910F91FF90EF900C946E
:10241000C42DDF91CF910F91FF90EF9008950F930E
:102420001F93CF93DF93C42FD0E0CC0FDD1F2CE19F
:10243000629FC00DD11D112438EA839FC00DD11DAC
:102440001124CD5BDF4FCE010E945C2F082F10E0DE
:10245000102F0027CE0101960E945C2F9801282B97
:10246000C901DF91CF911F910F910895462F8430BC
:1024700038F4763028F46E3018F4672F0C940F126D
:1024800080E090E008950C94AD0D0C94B90DE2E05D
:10249000F7E08DE3808380914C0190914D01A091F4
:1024A0004E0181839283A3838FE7848345E050E0CC
:1024B0006CE170E0CF010C946A2F482F982F46FDF5
:1024C0009095E92FEF739F7046FD9F5FE295EF7047
:1024D000EE0FF0E0E455FE4F2181299F802D212D44
:1024E000112482958F702295207F822B3081982F26
:1024F000930F892F47FD819580580895BC01823044
:10250000910508F40895613E8EE1780748F49B0137
:1025100095E0369527959A95E1F748E0420F01C07E
:102520004FEF91E0242F30E0290F311D359527958D
:10253000229FF001239FF00DF00D11246E177F07ED
:1025400018F44FEF420F04C02F3F39F091E0920F83
:10255000491740F78FEF890F08958FEF08950F9374
:10256000CF93DF93D72FC82F47FD4195E8E3F0E0E5
:10257000CF01841B910947FD9395889FB001899FE6
:10258000700D700D1124229FC001239F900D900D9E
:102590001124860F971F0E947E12682F660F860FE8
:1025A000682F600F7D2F8C2FDF91CF910F910895B1
:1025B00020E030E0869F212D969F200D311D1124B3
:1025C000C9010895CF92DF92EF92FF920F931F936C
:1025D000CF93DF93F62E472FE82FF0E0711106C05E
:1025E000E65FFB4F8491782F682F73C0272F30E070
:1025F000E65FFB4FE491FE2F0E2F10E056E0659F43
:10260000C0011124CFEFD0E0BE010E9401305BEA8F
:102610005603C001579F900D11248F0D911D8F0DF2
:10262000911D982F990F980F7E01E21AF30AE09EF0
:10263000D001E19EB00DF09EB00D11248B2F499F6B
:10264000A0011124452F55277E01E41AF50AE09ECA
:10265000A001E19E500DF09E500D11246E01C91A8B
:10266000D108C29E7001C39EF00CD29EF00C1124C2
:102670002F2D3327C21BD30BC09F9001C19F300D5C
:10268000D09F300D1124932F6230710591F048F4E2
:1026900061157105E1F061307105B9F49E2FE52FE8
:1026A00016C06430710569F040F06630710579F04C
:1026B0000CC09E2FEB2F832F0AC0EB2F8F2F952F4F
:1026C00006C09B2F8E2FE32F02C09B2F852F7E2FBE
:1026D000692FDF91CF911F910F91FF90EF90DF90C5
:1026E000CF900895DF92EF92FF920F931F93CF93B5
:1026F000DF93EC01FC01EB53FD4F9081692381F1E5
:10270000D09004070091050710910307E12EF12CEA
:102710000E943C2F282FC7018C549F4F68E671E020
:102720000E9415308E199F0997FD03969595879500
:10273000959587952370612F289F600D11247D2D1D
:10274000802F0E94E212462F282F672FCE01DF91A3
:10275000CF911F910F91FF90EF90DF900C94451255
:10276000DF91CF911F910F91FF90EF90DF9008952F
:102770001F93CF93DF93FC01EB53FD4F2081622326
:10278000A9F0EC010E943C2F182F0E943C2F612FD2
:10279000782F809105070E94E212462F282F672F7D
:1027A000CE01DF91CF911F910C944512DF91CF9113
:1027B0001F9108959F92AF92BF92CF92DF92EF92B6
:1027C000FF920F931F93CF93DF930CE413E089E7FD
:1027D000E82E81E0F82EC0E0D0E0912CCC24C39408
:1027E000D12CB701D7018C91F894E82FE295EF70C6
:1027F000F0E021A18F70A60102C0440F551F8A95F9
:10280000E2F7CA01922F982B91A392A18095892378
:1028100082A3789400C0EFE7F1E020E030E0A12C43
:10282000B12C4191842F82958F7090E0DC019096BD
:102830008C9190E04F7002C0959587954A95E2F78C
:1028400080FD08C0C601022E02C0880F991F0A949D
:10285000E2F702C080E090E0A82AB92A2F5F3F4F3C
:102860002E303105F1F6BFEFEB1AFB0AFB01808138
:102870000E946226C530D10519F0F0E5FA95F1F70E
:10288000D8018D919C911197A816B90621F0AD92AF
:10289000BC9281E001C080E0982A21960E5F1F4F14
:1028A000C630D10509F09DCF992049F081E0809391
:1028B00008050E94D51A909307058093060580911C
:1028C0000805882309F445C02091060530910705C5
:1028D0004FB7F8948091E4039091E503A091E6034B
:1028E000B091E7034FBF821B930B069790F1809145
:1028F0004C0390914D039093F8038093F7038091DC
:102900004E0390914F039093FA038093F9038091C3
:102910005003909151039093FC038093FB038091AB
:102920005203909153039093FE038093FD03809193
:10293000540390915503909300048093FF0380917A
:1029400056039091570390930204809301041092D0
:1029500008058091090590910A05883EB3E09B0720
:102960006CF010920A051092090584E191E00E9432
:102970005A2A80E191E00E945A2A05C0019690935C
:102980000A0580930905892DDF91CF911F910F9141
:10299000FF90EF90DF90CF90BF90AF909F90089501
:1029A0008F929F92AF92BF92CF92DF92EF92FF925F
:1029B0000F931F93CF93DF9300D000D01F92CDB71A
:1029C000DEB7FC018081918123813481232B31F09A
:1029D0009F3F31F491E08F3F19F403C091E001C0B3
:1029E00090E090FD05C57F0185E0DE011196019024
:1029F0000D928A95E1F7F701228189819A8122233C
:102A000049F00E943C1C182F682F89819A810E94EE
:102A1000DE1C03C00E94B21C182F69817A81812FAD
:102A20000E9436128C018091030481111EC2033C66
:102A3000FCE51F0709F446C028F401153CE513071F
:102A400051F052C00A3C8CE5180749F10B3C9CE55B
:102A5000190799F049C0F7018281882309F405C25A
:102A600080910207837029F08C698093020710928D
:102A70001A0181E080930505F8C1F701828188235E
:102A800009F4F3C180910507EAEBF1E024EB31E0B2
:102A900092919817A8F02E173F07D1F722C0F7019F
:102AA0008281882309F4E1C180910507E4EBF1E01C
:102AB0002AEB31E02E173F07A1F091918917D0F74B
:102AC000892F0FC0F7018281882309F4CEC180913C
:102AD0000507811103C08091390103C0809339013A
:102AE00080E00E94112BC1C1043FFCE51F0799F44F
:102AF00006E221EE40EE64EF7CE509C0083D9CE56E
:102B0000190711F506E221EE41EE68ED7CE5C701FB
:102B10000E947911AAC1053F2CE5120708F042C1B5
:102B2000093D3CE5130731F407E225EE45EE69ED7A
:102B30007CE5EDCF0A3D8CE5180701F708E221E0BE
:102B400045EE6AED7CE5E3CFF7018281882309F445
:102B50005EC110920D060230FCE51F0708F441C16A
:102B600006312CE5120738F098012B5F3C452930DF
:102B7000310508F036C10E94671B9093590380937A
:102B8000580300313CE5130709F4C3C008F041C005
:102B900008309CE5190709F49AC0F0F40430FCE50C
:102BA0001F0709F487C068F402303CE5130709F4F5
:102BB00077C003301C4509F0E5C08091580382605E
:102BC00076C006309CE5190709F46EC008F07BC09A
:102BD0008091580388606BC00C30FCE51F0709F436
:102BE00085C068F40A303CE5130709F474C008F0A6
:102BF00079C00E94AD1F80915803806858C00E3084
:102C00009CE5190709F476C008F07FC0809158034D
:102C10008BC00C3FFCE51F0709F44FC018F50331CA
:102C20003CE5130709F47DC078F401319CE51907F0
:102C300009F473C002311C4509F0A4C00E94AD1F05
:102C4000809158038F7733C00531FCE51F0709F4E5
:102C500072C008F486C00B3F1C4509F093C08091F8
:102C600059033EC001158DE5180709F45FC058F4FB
:102C70000E3FECE51E0709F444C008F43FC0809104
:102C8000590382602DC002302DE5120709F475C08A
:102C900008F45DC003301D4509F074C060E06EC0EB
:102CA00080915803816003C08091580380618093B4
:102CB000580368C08091580311C080915903826005
:102CC000809359035FC0809158038062F0CF809158
:102CD00058038064ECCF8091580388608460E7CF0C
:102CE0008160EECF809158038E7FE1CF80915803B1
:102CF0008D7FDDCF80915803877FD9CF8091590395
:102D000018C0809159038D7FDBCF809158038F7E4F
:102D1000CECF809158038F7DCACF809158038F7B8F
:102D2000C6CF80915803877F8B7FC1CF8091590395
:102D30008D7F8E7FC5CF8091580382FB222720F99B
:102D400091E0922790FB82F990FB83F9B0CF8091BC
:102D50005903982F909591708E7F892B90FB81F964
:102D6000AFCF0E94AD1F8091580387FB222720F927
:102D700091E0922790FB87F99ACF61E08EE090E096
:102D80000E947A2F609158031091590384E090E0DB
:102D90000E947A2F612F81E290E00E947A2F0E9498
:102DA000AD1F63C0063FECE51E0731F406E221EEDD
:102DB00042EE66EF7CE5ABCE063FFCE51F0730F444
:102DC00007E225EE44EE65EF7CE5A1CE073F2CE55A
:102DD000120709F0B9CE07E225EE46EE67EF7CE573
:102DE00096CE06313CE5130719F58091A1068A7A43
:102DF00091E009F490E090930E06882311F065E3CA
:102E000001C069E28FE096E00E94321B0EC00631DD
:102E10001C4509F048C080910E06882309F4E6C2DB
:102E200065E38FE096E00E940A1B0E94E81B1DC02C
:102E30009801235C3C4524313105B8F001159CE52F
:102E4000190731F00F3D1C4571F50E94781B0DC02C
:102E50000E94AD1FFFE70AE116E0F150004010406C
:102E6000E1F700C000000E948B1A80919E068770D7
:102E700009F4BEC2F7018281882309F4B9C282E055
:102E80000F900F900F900F900F90DF91CF911F91A7
:102E90000F91FF90EF90DF90CF90BF90AF909F90F9
:102EA0008F900C94441DF70100811181882349F013
:102EB000C8010E943C1CD82E682FC8010E94DE1C4D
:102EC00004C0C8010E94B21CD82EB8018D2D0E94EA
:102ED00079268C01982EF701B280A580A2949FE0FC
:102EE000A92280919E06877099F0BB2089F0812FDE
:102EF000807F803421F080E2800F883048F082E0CB
:102F00000E94441D80919E068770DD24D394811118
:102F1000D12CC12EC2948FE0C8228C2D90E08C3031
:102F2000910508F035C2FC01EF56FF4F0C94293093
:102F3000812F807F1F70882311F01295107FBB2096
:102F4000B9F0112309F40FC280E2800F883010F02D
:102F5000911006C08091A106182B1093A10605C000
:102F60008091A006182B1093A0060E94E81BFBC1BD
:102F7000802F0E94D92D112309F40AC2005E1095FA
:102F8000083010F0911006C08091A106182310930C
:102F9000A10605C08091A00618231093A0060E94E8
:102FA000E81BF6C1812F807F1F70803211F01295CF
:102FB000107F992021F0F1E09F16E1F02AC0BB209C
:102FC00081F08091A206AA2051F001E0A01207C072
:102FD000182B181709F4DCC11093A206D9C1812B54
:102FE00010C0AA2021F021E0A21609F4D1C10E944C
:102FF000E21B27C0BB2041F035E03A1508F4C8C1F8
:10300000812F0E94CF2DC4C184E08A1508F4C0C16D
:1030100018C0BB2049F0AA2099F3F701858180FFF1
:10302000A2C18F708583ECCFAA2059F0093309F033
:10303000ACC1FFEF13EF21E0F15010402040E1F769
:10304000A2C1812F0E94C42DA3C1812F8695869590
:10305000837019F0813059F09BC1BB2019F0C80171
:10306000937002C080E090E00E94571197C1BB208E
:1030700019F0C801937002C080E090E00E944111F5
:103080008DC1812F837009F069C0B11085C1902F67
:10309000929596959770990F990F802F8F70882E23
:1030A000912CA12CB12C092E04C0880C991CAA1CAF
:1030B000BB1C0A94D2F704FF12C04FE050E060E05E
:1030C00070E004C0440F551F661F771F9A95D2F712
:1030D000DB01CA0180959095A095B09503C080E072
:1030E00090E0DC0116951695412F4370423019F19E
:1030F000C8F40091A3061091A4062091A506309172
:10310000A606413059F088299929AA29BB29BC0172
:10311000CD0160237123822393230AC0802A912A40
:10312000A22AB32ABC01CD01682979298A299B29C1
:103130000E947E1D31C188299929AA29BB290091A5
:10314000A3061091A4062091A5063091A606BC0105
:10315000CD016027712782279327EACFBB2019F082
:10316000812F817001C08695882309F415C1902FA5
:10317000929596959770990F990F802F8F70882E42
:10318000912CA12CB12C092E04C0880C991CAA1CCE
:10319000BB1C0A94D2F704FF12C04FE050E060E07D
:1031A00070E004C0440F551F661F771F9A95D2F731
:1031B000DB01CA0180959095A095B09503C080E091
:1031C00090E0DC0116951695412F43704230D9F0FE
:1031D00068F50091000510910105209102053091DC
:1031E0000305413059F088299929AA29BB29BC0136
:1031F000CD0160237123822393231EC0802A912A4C
:10320000A22AB32A13C088299929AA29BB29009187
:103210000005109101052091020530910305BC01C4
:10322000CD01602771278227932706C0BC01CD01FD
:10323000682979298A299B290E94091DADC01F7020
:10324000BB2039F0812F0E945D1D802F0E94CF2D61
:10325000A3C0802F0E94C42D812F0E941F1D9CC0DF
:10326000802F32EF931609F440C0391538F090EFF3
:10327000991661F0E1EF9E1699F170C0F3EF9F1679
:10328000D9F124EF921609F44EC068C0BB2019F1A1
:1032900034E03A1508F47CC01F7181E090E0A0E0B2
:1032A000B0E0AC01BD0104C0440F551F661F771F7D
:1032B0001A95D2F78091000590910105A091020521
:1032C000B09103058A019B01082719272A273B276C
:1032D000C901B80125C025E02A1508F459C0DCCF82
:1032E000BB2029F0812F8F712CC0BB20D9F3812FF7
:1032F0008F710E941F1D4CC0BB2079F01F7181E0AF
:1033000090E0A0E0B0E0BC01CD0104C0660F771FE3
:10331000881F991F1A95D2F703C060E070E0CB01B7
:103320000E94091D35C0BB2079F01F71812F0E94BA
:103330005D1D38E0139FC0011124836080939E06B9
:10334000812F0E945D1D24C081E00E94441D81E008
:103350008A15F0F482E00E94441D1AC0BB2039F0A7
:10336000AA2009F4BFCF802F0E94352E11C0AA20B9
:1033700009F4BDCF893349F49FEFE3EFF1E09150B9
:10338000E040F040E1F700C00000802F0E94D92DFE
:1033900088EF8C0D843010F40E946D11DD2041F116
:1033A00080919E0680FD24C0F70112828595859547
:1033B00085950E945D1DC7010E94D01480919E06D4
:1033C0008595859585950F900F900F900F900F9094
:1033D000DF91CF911F910F91FF90EF90DF90CF90F1
:1033E000BF90AF909F908F900C941F1D69E219CDF4
:1033F0000F900F900F900F900F90DF91CF911F9132
:103400000F91FF90EF90DF90CF90BF90AF909F9083
:103410008F90089508958091A806089580E00895FA
:10342000CF93DF9300D01F92CDB7DEB79091CB063C
:10343000943011F589837B836A839093E9008FEF41
:103440009091E800815095FD06C09AE69A95F1F7B3
:1034500000C08111F5CF8091E80085FF0DC040E0EC
:1034600050E063E070E0CE0101960E94C21F80919F
:10347000E8008E778093E8000F900F900F90DF9117
:10348000CF910895BC0184E00C94101ABC0183E034
:103490000C94101ACF93DF9320914101222339F02D
:1034A0002091580327FF03C060E224E002C068E0D7
:1034B00021E02093E9002FEF3091E800215035FD05
:1034C00006C03AE63A95F1F700C02111F5CF2091F8
:1034D000E80025FF1DC0EC0180914101811105C06C
:1034E00040E050E068E070E003C070E040E050E091
:1034F000CE010E94C21F8091E8008E778093E80081
:1035000080E2FE01A9EAB6E001900D928A95E1F70A
:10351000DF91CF91089581E08093E00080E2809375
:10352000D8001092C9008FE097E20197F1F700C030
:10353000000087E090EBDC01809308079093090777
:10354000A0930A07B0930B079CE088E10FB6F894AC
:10355000A895809360000FBE90936000FFCF789491
:103560001F920F920FB60F9211248F939F93AF93D8
:10357000BF938091E4039091E503A091E603B0919D
:10358000E7030196A11DB11D8093E4039093E50329
:10359000A093E603B093E703BF91AF919F918F9102
:1035A0000F900FBE0F901F9018952FB7F894809131
:1035B000E4039091E503A091E603B091E7032FBFE8
:1035C00008951F920F920FB60F9211248F939F931D
:1035D000AF93BF9380915C03811113C08091E4038A
:1035E0009091E503A091E603B091E7034196A11DF8
:1035F000B11D8093E4039093E503A093E603B09399
:10360000E703BF91AF919F918F910F900FBE0F90E5
:103610001F901895209141012223C9F02091580351
:1036200027FF15C0262F2695269526952E31C8F4FE
:10363000FC01E20FF11D677081E090E001C0880F8E
:103640006A95EAF780959281892382830895FC0127
:1036500006962281621301C012823196E817F9079B
:10366000C1F70895209141012223C1F02091580310
:1036700027FF14C0262F2695269526952E3130F546
:10368000FC01E20FF11D677081E090E001C0880F3E
:103690006A95EAF79281892B82830895FC0132961C
:1036A0002FEF30E04191641789F02F3F19F4411159
:1036B00001C0232F3F5F3630A9F72F3F39F0FC01BF
:1036C000E20FF11D27FDFA95628308950895CF93C7
:1036D00084E090E00E945C2FC82F81E290E00E947D
:1036E0005C2F2C2F30E0A901582BCA01CF910895EF
:1036F0006BEE7EEF80E090E00E94982F60E082E029
:1037000090E00E947A2F60E083E090E00E947A2FA0
:103710001092A3061092A4061092A5061092A60677
:1037200060E084E090E00E947A2F60E081E290E027
:103730000E947A2F60E085E090E00E947A2F60E09E
:1037400086E090E00E947A2F6FEF87E090E00E9481
:103750007A2F40E050E0BA0188E090E00E948C2F80
:1037600060E08DE090E00E947A2F40E050E0BA01E6
:1037700088E190E00E948C2F60E087E190E00E9459
:103780007A2F40E050E0BA018CE190E00E948C2F4B
:1037900060E080E290E00E947A2F40E050E0BA01C1
:1037A00088E190E00E948C2F40E050E0BA018FE069
:1037B00090E00E948C2F40E050E0BA0183E190E05D
:1037C0000C948C2F8091A20681111092A20608956C
:1037D0009091A1068091A006892B20919F06982F99
:1037E000922B90930F068091A2068823D9F0892B03
:1037F00080930F0680914101882331F08091580316
:1038000087FF02C08EE101C086E0E1E1F6E090E0D2
:10381000815028F021912223D9F39F5FF9CF911194
:103820000E94E21BE0915A03F0915B033097A9F0EC
:1038300080914101882359F08091580387FF07C088
:1038400080910F068093100685E080930F0602801A
:10385000F381E02D8FE096E00994089580E090E0F8
:103860000E94571180E090E00E9441111092A00642
:1038700010929F060C94E81BBF92CF92DF92EF92BA
:10388000FF920F931F93CF93DF938C01C09000059D
:10389000D0900105E0900205F09003058091A30609
:1038A0009091A406A091A506B091A606C82AD92A8F
:1038B000EA2AFB2ACFE1D0E0D701C6010C2E04C0D2
:1038C000B695A795979587950A94D2F780FD04C081
:1038D000219790F7B12C07C0BC2EB8018C2F0E9405
:1038E00079260197A9F38B2DDF91CF911F910F912D
:1038F000FF90EF90DF90CF90BF900895CF93DF932C
:10390000EC010E943C1CBE010E947926DF91CF9100
:1039100008950E947E1C292F2F70E92FE295EF70E9
:103920004E2F50E0FA013297EE30F105B8F4E3562D
:10393000FF4F0C942930803F99F018F4883E70F4C2
:103940000FC0843F59F40CC0883E50F0813F31F4E1
:1039500007C0822F869586958695089580E0089504
:1039600081E008952EE0929F800D1124682F6695C6
:1039700066956695982F977085E0689FB001112431
:1039800040E050E080E0FB01E40FF51FE959F94FFA
:10399000208130E0092E02C0369527950A94E2F77F
:1039A00021703327042E01C0220F0A94EAF7822BDC
:1039B0004F5F5F4F4530510531F708952EE0929FDC
:1039C000800D1124E82FE695E695E695877051E085
:1039D00001C0550F8A95EAF785E0E89FF0011124B0
:1039E000E959F94F20E030E070E04081CB01022E30
:1039F00002C0969587950A94E2F781708195842795
:103A00008523842781932F5F3F4F2530310569F748
:103A10000895CF92DF92EF92FF926B017C010E949A
:103A2000FC2AC0920005D0920105E0920205F092B6
:103A30000305FF90EF90DF90CF900C942E1C0F9316
:103A40001F9341E050E060E070E004C0440F551F58
:103A5000661F771F8A95D2F74095509560957095AF
:103A60008091000590910105A0910205B091030598
:103A70008A019B01082319232A233B23C901B8018A
:103A80001F910F910C94091D20919E068095822311
:103A900080939E06982F977079F430E0482F082E77
:103AA000000C550B2417350739F0859585958595BC
:103AB0000E941F1D10929E0608950F931F9341E0D0
:103AC00050E060E070E004C0440F551F661F771F90
:103AD0008A95D2F78091000590910105A091020589
:103AE000B09103058A019B01082B192B2A2B3B2B34
:103AF000C901B8011F910F910C94091D6093A30691
:103B00007093A4068093A5069093A6060C942E1C91
:103B10008091660690913506891719F08F5F87703E
:103B2000FBCF08950F931F93CF93DF9380913406BB
:103B300082958F7009F05DC080913106882309F469
:103B400058C0809166061091350660912F067091DD
:103B50003006C0913206D091330691E06F3F09F0F4
:103B600090E0292F06E0811709F443C0209721F047
:103B70007F3F21F030E003C031E001C0322F90E000
:103B800030FD34C0089FF001099FF00D1124DF01C2
:103B9000AA5CB94F11963C911197371327C03C91FD
:103BA000361324C012963C91129731111FC0139600
:103BB0004D915C9114974C1B5D0B483C5105B0F442
:103BC000809134068F70806180933406E55CF94FF4
:103BD00080818F70806180838FE296E00E94D01494
:103BE000DF91CF911F910F910C94881D01968770E2
:103BF000BACFDF91CF911F910F9108959F92AF920D
:103C0000BF92CF92DF92EF92FF920F931F93CF93C9
:103C1000DF93CDB7DEB761970FB6F894DEBF0FBE66
:103C2000CDBF8C0185E0F801DE011D9601900D925B
:103C30008A95E1F7F80190818181E28030912F0629
:103C4000609130064091320650913306411551057E
:103C500031F06F3F31F421E03F3F19F403C021E020
:103C600001C020E0F22FF1709F2E20FD23C1F8014A
:103C7000C380D4802FE2A22E26E0B22EF09031062F
:103C8000F601E41BF50BFF2009F4CEC020913406A9
:103C9000E83CF10508F099C0422F407F09F051C07F
:103CA000681311C039130FC0FE2CE1100CC02F7027
:103CB000206120933406C5010E94D01480913406FF
:103CC000F801858337C1CD2831F08F3F31F421E0F1
:103CD0009F3F19F403C021E001C020E020FD03C094
:103CE00021E02E2502C020E030E0F22FF170FF2EFF
:103CF00020FF1DC0209166064091350656E024172E
:103D000009F4F6C030E0529FF001539FF00D1124EA
:103D1000EA5CF94F6181861306C06081961303C087
:103D20006281E61204C02F5F3F4F2770E8CFFE2C60
:103D3000EE2009F4FFC08091340681608093340640
:103D400050C0681307C0391305C0E11003C0F80163
:103D500025838DC09D878E878D859E850E94891CB9
:103D6000882369F1EE2059F120913406822F829543
:103D70008F7090E0029774F080912F06909130063A
:103D800098878F831986DB86CA862C87CE01079693
:103D90000E94D01486E0F801AFE2B6E001900D92E7
:103DA0008A95E1F70E94921D0DC06817E1F09D878A
:103DB0008E878D859E850E94891C81111EC0C80139
:103DC0000E94D014FF24F394B5C0422F407F69F7BE
:103DD0008FE296E00E94D01486E0F50111928A9558
:103DE000E9F7F12CA7C03913E2CFE110E0CFF801D9
:103DF0002583C8010E94D01457C0EE2001F3209102
:103E00003406822F82958F7090E002971CF2809189
:103E10002F06909130069A8389831B82DD82CC82A3
:103E20002E83CE010196B4CFE83CF105E8F5FE2CD7
:103E3000EE2029F2681327C0391325C020913406DB
:103E400020FD18C0822F82958F70482F50E04115B9
:103E5000510581F0F80125834F30510541F08F5F06
:103E6000982F9295907F822F8F70892B8583C80120
:103E70000E94D01486E0F801AFE2B6E001900D9206
:103E80008A95E1F757C09D878E878D859E850E9414
:103E9000891C81117FCF8091340681608093340624
:103EA000C8010E94D01446C086E0F50111928A959F
:103EB000E9F740C0EE2009F482CF9D878E878D857B
:103EC0009E850E94891CF82E882309F478CF86E00D
:103ED000F801AFE2B6E001900D928A95E1F780918A
:103EE0002F06909130060E947E1C0E94921D22C0D7
:103EF0009D878E878D859E850E947E1C292F229509
:103F00002F70223028F49F7039F0811105C00BC04A
:103F1000243028F49F7049F4805E883020F0C80176
:103F20000E94D0149F2CF92C05C0F8019581907F38
:103F300099F7F9CF8F2D61960FB6F894DEBF0FBEBB
:103F4000CDBFDF91CF911F910F91FF90EF90DF9048
:103F5000CF90BF90AF909F9008951092A10680914E
:103F60004101882331F08091580387FF02C08EE120
:103F700001C086E0E1E1F6E0DF011D928A95E9F7F4
:103F80000C942E1CEF92FF920F931F93CF93DF930D
:103F90007C018B010E94A92B811119C0E701011539
:103FA0001105A1F08091E80085FD0AC08091E8002C
:103FB0008E778093E8000E94A92B882381F307C0A5
:103FC00089918093F10001501109E9CF80E0DF91E0
:103FD000CF911F910F91FF90EF900895CF92DF92B4
:103FE000EF92FF920F931F93CF93DF93CDB7DEB77E
:103FF0002F970FB6F894DEBF0FBECDBF7C018901AD
:104000001A861B861C861D8619821A8286E0D82E87
:10401000DB8281E08C8384E08D837E836F8358878D
:10402000498749E050E0BE016F5F7F4FF701808113
:104030000E94502997FD40C0C7010E94692997FD41
:104040003BC060E0F70180810E949F2897FD34C04B
:104050001E86DF8662E070E0CE010E960E94672821
:1040600097FD2AC061E0F70180810E949F2897FD9B
:1040700023C081E00E94452897FD1EC06E01FAE032
:10408000CF0ED11CE12CF12C8FEFE81AF80A81E059
:1040900094E0E916F1040CF080E00E94452897FDB9
:1040A0000BC0F60181936F01F4E0EF16F10461F7A4
:1040B0000E94972884E090E097FD09C04A855B85BF
:1040C0006C857D85F80140835183628373832F96CD
:1040D0000FB6F894DEBF0FBECDBFDF91CF911F9119
:1040E0000F91FF90EF90DF90CF900895CF93DF93E3
:1040F0001F92CDB7DEB7BE016F5F7F4F85E491E0C1
:104100000E941A2997FD13C09981292F237080914D
:10411000470190914801211102C060E001C061E0B7
:104120000E94FB291816190614F480E090E00F9005
:10413000DF91CF9108956F927F928F929F92AF926D
:10414000BF92CF92DF92EF920F931F93CF93DF93A3
:104150003C01C091420181E1C89FC02D1124D1E1F1
:10416000DC0FD53508F0D4E560910607669580919F
:10417000FE069091FF060E94D812182FCD1708F066
:1041800044C08C2E912CF401EB53FD4F9081809113
:1041900043018923C1F1F401EE0FFF1FE35EFD4FE0
:1041A000C080D12C80E7C81AD108F401EE0FFF1FA0
:1041B000E25EFD4FA080B12CE0E2AE1AB108CC9CCB
:1041C0009001CD9C300D300D1124AA9CC001AB9CF8
:1041D000900D900D1124820F931F0E947E12082FC4
:1041E000609103077091040780910507E12E950106
:1041F000A601F30109950E94E212462F282F672F8E
:10420000C4010E944512CF5FB9CF81E0D43508F0D8
:1042100080E0DF91CF911F910F91EF90DF90CF90D1
:10422000BF90AF909F908F907F906F900895CF92A6
:10423000DF92EF92FF920F931F93CF93DF936C0166
:10424000C091420181E1C89FC02D1124D1E1DC0F52
:10425000D53508F0D4E56091060766958091FE0695
:104260009091FF060E94D812182FCD1778F5EC2EEA
:10427000F12CF701EB53FD4F90818091430189238D
:1042800019F1F701EE0FFF1FE25EFD4F208130E0D4
:1042900020523109F701EE0FFF1FE35EFD4F408111
:1042A00050E04057510960910307709104078091D5
:1042B0000507012FF60109950E94E212462F282FCB
:1042C000672FC7010E944512CF5FCFCF81E0D43561
:1042D00008F080E0DF91CF911F910F91FF90EF9058
:1042E000DF90CF900895DF92EF92FF920F931F938C
:1042F000CF93DF937C01C091420181E1C89FC02D23
:104300001124D1E1DC0FD53508F0D4E56091060722
:10431000669566958091FE069091FF060E94D812E0
:10432000D82ECD17F0F40C2F10E0F801EB53FD4F11
:10433000908180914301892391F0609103077091EE
:104340000407809105072D2D4C2FF70109950E9438
:10435000E212462F282F672FC8010E944512CF5F17
:10436000E0CF81E0D43508F080E0DF91CF911F915C
:104370000F91FF90EF90DF9008959F92AF92BF92C0
:10438000CF92DF92EF92FF920F931F93CF93DF9321
:104390006C01C091420181E1C89FC02D1124D1E17F
:1043A000DC0FD53508F0D4E5609106076695669573
:1043B0008091FE069091FF060E94D812182F80E48B
:1043C000810F0E945D1290E8F92EF80E812F0E9455
:1043D0005D1220E8922E980ECD1700F5AC2EB12C70
:1043E000F501EB53FD4F9081809143018923A1F0AA
:1043F000609103077091040780910507E12E0C2F4F
:10440000292D4F2DF60109950E94E212462F282FE3
:10441000672FC5010E944512CF5FDECF81E0D43502
:1044200008F080E0DF91CF911F910F91FF90EF9006
:10443000DF90CF90BF90AF909F900895CF92DF9282
:10444000EF92FF920F931F93CF93DF936C01C09174
:10445000420181E1C89FC02D1124D1E1DC0FD53587
:1044600008F0D4E52091060730E040E050E06FEF1F
:104470007FEF80E090E00E949E2F8901CD17E8F544
:10448000EC2EF12CF701EB53FD4F9081809143010D
:10449000892389F19091D506915097FD15C0492F38
:1044A000092E000C550BFA01EB52F94F8189C81304
:1044B000F3CF440F551FFA01EB52F94F218D328D86
:1044C0002017310748F701C0980160910607C9011C
:1044D0000E94D812AC01609103077091040780918B
:1044E0000507F60109950E94E212462F282F672F33
:1044F000C7010E944512CF5FC1CF81E0D43508F0DB
:1045000080E0DF91CF911F910F91FF90EF90DF90AE
:10451000CF9008952F923F924F925F926F927F9229
:104520008F929F92AF92BF92CF92DF92EF92FF92C3
:104530000F931F93CF93DF93CDB7DEB727970FB6B7
:10454000F894DEBF0FBECDBF282E4B012091420153
:1045500081E1289F802D11248E83182F1F5E153531
:1045600008F014E53091D50639839E81911708F043
:1045700077C08E81682E712CF301EB53FD4F908133
:1045800080914301892309F467C03090030740906C
:104590000407522C1F82C301880F991FDC01A35E00
:1045A000BD4FBB83AA83C301880F991FFC01E25E44
:1045B000FD4FFD83EC83F9815F16E0F5E52CF12CCE
:1045C000AA81BB81CC90D12CF701EB52F94F8181AC
:1045D000C81AD108AC81BD81AC90B12C8185A81AD4
:1045E000B108CC9C9001CD9C300D300D1124AA9CBB
:1045F000C001AB9C900D900D1124820F931F0E945F
:104600007E12082FF701EE0FFF1FEB52F94F60915A
:104610000607818D928D0E94D8127C019501A6011A
:10462000632D742D8F81F4010995362E472E8F83CB
:104630005394C1CF209105078F81382F329F312DA0
:104640001124832F632D742D0E94E212462F282FF0
:10465000672FC3010E9445128E818F5F8E8385CFA5
:1046600081E0143508F080E027960FB6F894DEBF9D
:104670000FBECDBFDF91CF911F910F91FF90EF90B3
:10468000DF90CF90BF90AF909F908F907F906F9072
:104690005F904F903F902F9008951F93CF93DF939B
:1046A000CDB7DEB7AA970FB6F894DEBF0FBECDBF69
:1046B000EDECF6E08091F100819346E0E53DF407F2
:1046C000C9F78091CE06833009F462C030F481309E
:1046D00071F0823009F49CC0B3C08A3009F488C0FC
:1046E0008B3009F46DC0893009F0AAC020C08091D8
:1046F000CD06813A09F0A4C08091E800877F8093BD
:10470000E8008091D1069091D206892B21F460E2D5
:1047100089EA96E003C060E080E090E070E00E94EB
:10472000662D8091E8008B778093E80089C08091A6
:10473000CD06813209F084C08091D1069091D206D5
:10474000009719F0029709F07BC08091E800877FFD
:104750008093E8008091E80082FD05C08091CB063F
:104760008111F8CF6DC02091F3008091F20090E0AC
:10477000922B029729F48091F1008B7F813021F4F4
:104780008091F1008093A8068091E8008B7754C057
:104790008091CD06813A09F053C08091D106909165
:1047A000D206892B09F04CC08091E800877F809366
:1047B000E8008091E80080FFFCCF8091410137C084
:1047C0008091CD068132E1F58091D1069091D2069B
:1047D000892BB1F58091E800877F8093E8000E94E3
:1047E000DC2B8091CF06809341010E94AD1F28C031
:1047F0008091CD06813221F58091E800877F8093FA
:10480000E8000E94DC2B8091D0068093A70618C098
:104810008091CD06813AA1F48091E800877F809352
:10482000E8008091E80080FFFCCF8091A70680938C
:10483000F1008091E8008E778093E8000E94DC2BE5
:104840008091E80083FFDDC18091CD069091CE0676
:10485000492F50E04A30510508F0D3C1FA01E5551F
:10486000FF4F0C942930803821F0823809F0C9C1FB
:1048700008C08091C9069091CA06992389F0826088
:104880000FC08091D1068F70873008F0BAC1809335
:10489000E9008091EB0085FB882780F91092E90000
:1048A0009091E800977F9093E8008093F100109238
:1048B000F10070C1282F2D7F09F0A3C1882319F0C2
:1048C000823061F09EC18091CF06813009F099C19C
:1048D000933009F080E08093CA062EC08091CF0605
:1048E00081112AC08091D1068F702FEF280F2630BA
:1048F00008F087C18093E9002091EB0020FF1CC0E5
:10490000933021F48091EB00806214C09091EB0011
:1049100090619093EB0021E030E0A90102C0440FC8
:10492000551F8A95E2F74093EA001092EA008091C1
:10493000EB0088608093EB001092E9008091E80022
:10494000877F8093E8000E94DC2B5BC1811159C1F5
:104950001091CF061F778091E3008078812B8093A0
:10496000E3008091E800877F8093E8000E94DC2BC1
:104970008091E80080FFFCCF8091E3008068809305
:10498000E300111102C082E001C083E08093CB06F6
:1049900038C18058823008F034C12091CF06309160
:1049A000D0062C3D53E0350779F583E08A838AE20F
:1049B00089834FB7F894DE01139620E03EE051E280
:1049C000E32FF0E050935700E49120FF03C0E295FD
:1049D000EF703F5FEF708E2F90E0EA3010F0C796D7
:1049E00001C0C0968D939D932F5F243149F74FBF2F
:1049F0008091E800877F8093E8006AE270E0CE0152
:104A000001960E94662DB4C08091D1069091D20685
:104A1000432F552743305105A9F068F44130510523
:104A200009F4FEC04230510509F0EBC08BE590E07F
:104A3000E9EDF5E04BC04132510529F14232510513
:104A400089F1DFC0C901992781309105A1F058F0A3
:104A5000029709F0D6C0E6E4F6E0E4918E2F90E0EC
:104A6000E6E4F6E030C0ECEAF6E0E4918E2F90E068
:104A7000ECEAF6E028C0E8E9F6E0E4918E2F90E059
:104A8000E8E9F6E020C08330910508F0BAC0880F4D
:104A9000991FFC01ED53FE4F0190F081E02D89E05C
:104AA00090E014C08330910508F0ABC0FC01EE0F1C
:104AB000FF1FE354FE4F0190F081E02DDC01A6546E
:104AC000BE4F8C9190E0009709F49BC02091E800C4
:104AD000277F2093E8002091D3063091D406281731
:104AE000390708F4C90140E0009789F12091CB060D
:104AF000222309F43DC02530D9F12091E80023FD9F
:104B000037C02091E80022FD2FC02091E80020FF4F
:104B1000EBCF4091F3002091F20030E0342B00976E
:104B200059F02830310540F444914093F10031961A
:104B300001972F5F3F4FF3CF41E02830310509F057
:104B400040E02091E8002E772093E800CDCF41117E
:104B5000CDCF0AC08091CB06882351F0853041F03B
:104B60008091E80083FD04C08091E80082FFF2CFCD
:104B70008091E8008B778093E80043C0803809F08B
:104B800040C08091E800877F8093E8008091CC0648
:104B90008093F1008091E8008E77D3CE811131C0EF
:104BA0008091CF069091D0069927029754F5809175
:104BB000E800877F8093E8001091CF061093CC0621
:104BC0000E94DC2B111106C08091E30087FD02C01A
:104BD00081E001C084E08093CB0642E061EC81E09B
:104BE0000E94FB2B42E261EC84E00E94FB2B42E23C
:104BF00061EC82E00E94FB2B42E260EC83E00E94C9
:104C0000FB2B8091E80083FF10C08091E800877F34
:104C10008093E8008091EB0080628093EB0005C0F8
:104C200082E190E0E4E3F6E051CFAA960FB6F89463
:104C3000DEBF0FBECDBFDF91CF911F910895909140
:104C4000580392FF0DC0282F2871283019F4877F50
:104C5000846006C0282F2471243011F48B7F886073
:104C600093FF0DC0282F2871283119F4877E8461A5
:104C700006C0282F2471243111F48B7E8861209185
:104C8000590320FF0DC0382F3871383019F4877F51
:104C9000816006C0382F3171313011F48E7F886009
:104CA00021FF0DC0282F2871283119F4877E8161DA
:104CB00006C0282F2171213111F48E7E886194FD68
:104CC000877E0895F894E82FE295EF70F0E031A127
:104CD000282F2F7081E090E001C0880F2A95EAF715
:104CE000982F9095932391A392A1892B82A37894D6
:104CF0000895CF93DF930E943612EC01823891051C
:104D000059F1A0F48133910509F473C040F489325C
:104D1000910509F467C08A9709F472C084C085338D
:104D2000910509F458C0C997B9F07DC0833E91053B
:104D300071F138F4803E9105B1F0823E910511F198
:104D400072C0863E9105B9F1873E9105C9F1843E56
:104D5000910509F068C024C08091580380FD5DC0B2
:104D600081FD5BC060C08091580380FD50C0809180
:104D7000590380FF36C18091580384FD30C1C3EED2
:104D8000D0E02FC18091580382FF2BC1F4CF8091D6
:104D9000580382FD3FC08091590380FD3EC0EBCF98
:104DA0008091590381FF1DC18091580384FD17C173
:104DB000C7EED0E016C18091580383FF12C1F4CF33
:104DC0008091580383FD2CC08091590381FFECCF63
:104DD000C4EED0E006C18091580385FF02C1C9E24C
:104DE000D0E0FFC08091580385FFFBC0C5E3D0E051
:104DF000F8C08091580386FFF4C0CAE2D0E0F1C049
:104E00008091580386FFEDC0C1E3D0E0EAC0C9E35A
:104E1000D0E0E7C0C2EED0E0E4C0C0EED0E0E1C038
:104E2000C6EED0E0DEC0C11582E5D80708F066C046
:104E3000C11591E5D90728F0DC2FCC27C16FD06AC6
:104E4000D0C0C83ED10560F5C03ED10508F0C9C04C
:104E5000C83AD105B0F4C53AD10540F0C55AD0E002
:104E6000C75EDC4FC881D0E0D064BBC0C130D10583
:104E700009F4B7C008F4B3C0C430D10508F4AFC01A
:104E8000B0C0CF3BD10508F0AAC0C85AD0E0CC0FC3
:104E9000DD1FC45EDC4F0990D881C02DD464A1C051
:104EA000C11520E5D207E0F0CE0174E09695879514
:104EB0007A95E1F783709C2F937021E030E002C077
:104EC000220F331F9A95E2F73C68382BCF70C695B6
:104ED000C69580E2C89FE0011124C22BD32B81C06C
:104EE000C11580E4D80718F0DF70D06A7AC0CE010F
:104EF0009A9581159F4108F474C071C0C11586E56B
:104F0000D807F0F5C11595E5D90750F08C2F0E9410
:104F10001F268F71C82FD0E0DC2FCC27D06261C054
:104F2000C11524E5D20728F0DC2FCC27C46FD06A46
:104F300058C09E01237033278C2F86958695C11506
:104F4000D34578F4C1E0D0E002C0CC0FDD1F2A9534
:104F5000E2F720E2829FC0011124C82BD92BDC6824
:104F600040C0C1E0D0E002C0CC0FDD1F2A95E2F7BF
:104F700020E2829FC0011124C82BD92BDA6831C0EE
:104F8000C1152AE5D207E8F4C11589E5D80780F0F4
:104F90008C2F8F700E941F2694E0D695C7959A9506
:104FA000E1F7CF70D0E0DC2FCC27D069C82B19C037
:104FB000C11598E5D90798F0DC2FCC27C06FD06ACF
:104FC00010C0CE0190568115904248F48D2F8F71FC
:104FD0000E941F26DD27D0628F71D82B02C0C0E04F
:104FE000D0E0CE01DF91CF910895CF92DF92EF9282
:104FF000FF926C01EE24FF24C114D104E104F104FA
:1050000021F0C701B60120E101C020E0C72ED82E53
:10501000E92EFF24C114D104E104F10419F0285F42
:10502000C701B6016B017C0154E0F694E794D79474
:10503000C7945A95D1F7C114D104E104F10419F0D1
:105040002C5FC701B6016B017C0142E0F694E79446
:10505000D794C7944A95D1F7C114D104E104F1045F
:1050600019F02E5FC701B601DC01CB01B695A795FB
:1050700097958795892B8A2B8B2B09F02F5F822F91
:10508000FF90EF90DF90CF900895882311F084EC8B
:1050900001C084E88093BC0080E49FE1A0E0B0E020
:1050A0002091BC0027FD08C00097A105B10561F063
:1050B0000197A109B109F4CF892B8A2B8B2B21F001
:1050C0008091BB0090E008958FEF9FEF0895DB0182
:1050D000FC0120E030E084E82A173B071CF59191A1
:1050E0009093BB008093BC0040E45FE160E070E01F
:1050F0009091BC0097FD0AC04115510561057105ED
:1051000099F04150510961097109F2CF452B462BA5
:10511000472B51F09091B900987F983229F42F5F76
:105120003F4FDACFC90108958FEF9FEF089584E9CB
:105130008093BC008091BC0084FDFCCF0895262F95
:1051400094EA9093BC0040E45FE160E070E09091ED
:10515000BC0097FD0AC0411551056105710549F074
:105160004150510961097109F2CF452B462B472B5C
:1051700019F48FEF9FEF08959091B900987F9830C0
:1051800011F09031B1F7682F660F622B6093BB006E
:1051900084E88093BC0080E49FE1A0E0B0E020912F
:1051A000BC0027FD08C00097A105B10511F30197C8
:1051B000A109B109F4CF892B8A2B8B2BD1F28091D5
:1051C000B900887F883111F0803499F680E090E052
:1051D00008950F931F93CF93DF9300D0CDB7DEB721
:1051E0006A83FC01808193E2998360E00E949F289A
:1051F00097FD14C061E070E0CE0101960E9467281F
:1052000097FD0CC061E070E0CE0102960E94672815
:105210008C0197FD05C00E94972802C0282F02C06C
:10522000202F912F822F0F900F90DF91CF911F9100
:105230000F910895FF920F931F93CF93DF931F92C7
:10524000CDB7DEB78B01FC01F0808DE1898360E092
:105250008F2D0E949F2897FD1AC061E070E0CE015B
:1052600001960E94672897FD12C061E08F2D0E9471
:105270009F2897FD0CC080E00E94452897FD07C03D
:10528000F80180830E94972821E090E001C0282F38
:10529000822F0F90DF91CF911F910F91FF90089572
:1052A0000F931F93CF93DF93EB018A0160E00E947D
:1052B0009F2897FD09C0B801CE010E946728EC0124
:1052C00097FF0E949728CE01DF91CF911F910F91F8
:1052D0000895CF93DF9300D01F92CDB7DEB7209112
:1052E0004F01309150014091510129833A834B8302
:1052F00043E050E0BE016F5F7F4FFC0180810E9460
:1053000050290F900F900F90DF91CF9108958F92B9
:105310009F92AF92BF92CF92DF92EF92FF920F9344
:105320001F93CF93DF93CDB7DEB729970FB6F894CD
:10533000DEBF0FBECDBF7C01B42EA52E962E872ECC
:10534000690160E0FC0180810E949F2897FD22C0D6
:1053500019821A8286E0800F8B831C820D838E82D5
:105360009F82A886B98669E070E0CE0101960E940E
:10537000672897FD0FC0B801C6010E94672897FDF6
:1053800009C00E949728C7010E94692997FD02C0A1
:10539000912F01C0082F802F29960FB6F894DEBFF9
:1053A0000FBECDBFDF91CF911F910F91FF90EF9076
:1053B000DF90CF90BF90AF909F908F9008950F9304
:1053C0001F93CF93DF9300D000D0CDB7DEB7098312
:1053D0001A832B833C8304E010E09E012F5F3F4F34
:1053E0000E9487290F900F900F900F90DF91CF911F
:1053F0001F910F910895EF92FF920F931F93CF93F8
:10540000DF9300D000D0CDB7DEB77C01162F198214
:105410001A821B821C829E012F5F3F4F48E259E097
:1054200060E87FEBFC01808191810E94EE1F97FD77
:1054300036C089819A81AB81BC8141E050E060E057
:1054400070E0F701028004C0440F551F661F771FEC
:105450000A94D2F7112329F0842B952BA62BB72B76
:1054600008C0409550956095709584239523A62398
:10547000B72389839A83AB83BC8309811A812B81EB
:105480003C8148E259E060E87FEBF701808191813F
:105490000E94DF291816190614F480E090E00F909E
:1054A0000F900F900F90DF91CF911F910F91FF9070
:1054B000EF9008950F931F93CF93DF931F92CDB773
:1054C000DEB78C01BE016F5F7F4F0E941A2997FDE6
:1054D00024C08981F80191819817E9F08183982F80
:1054E0009370923039F0869586958370823061F49E
:1054F00060E001C061E0F801828193810E94FB2994
:1055000097FD0BC067E701C066E6C8010E94E92865
:105510001816190614F480E090E00F90DF91CF91F7
:105520001F910F910895EF92FF920F931F93CF93C6
:10553000DF9300D000D01F92CDB7DEB77C01FC0115
:1055400042815381648175814D5F534F6F47704431
:10555000808191811D8201E010E09E012B5F3F4F11
:105560000E94872997FD3CC060E0C7010E94FB298B
:1055700019821A821B821C829E012F5F3F4F48E0D6
:1055800059E060E87FEBF701808191810E94EE1F76
:1055900097FD26C001E010E020E030E0F701028036
:1055A00004C0000F111F221F331F0A94D2F78981F4
:1055B0009A81AB81BC81082B192B2A2B3B2B0983A9
:1055C0001A832B833C8348E059E060E87FEB8081BD
:1055D00091810E94DF291816190614F480E090E0EA
:1055E0000F900F900F900F900F90DF91CF911F9120
:1055F0000F91FF90EF90089520910505211110C0A3
:105600000E94F527843060F495E0989FF001112402
:10561000E55EFE4FA2E0B7E001900D929A95E1F7AA
:10562000089590910505911112C080931E018093F9
:1056300023018093280180932D01609100057091D2
:10564000010580910205909103050C94FC2A0895B0
:1056500044E150E063EE72E0882361F08BE191E079
:105660000E946A2F4CEF50E067EF72E084E094E014
:105670000C946A2F8BE191E00E944C2F4CEF50E08C
:1056800067EF72E084E094E00C944C2F1F920F922D
:105690000FB60F9211242F933F934F935F936F9305
:1056A0007F938F939F93AF93BF93CF93DF93EF93AA
:1056B000FF93C091E900CF708091EC00D82FD1709A
:1056C00080FDD0E81092E9008091F000877F809300
:1056D000F00078940E944D231092E9008091F00030
:1056E00088608093F000CD2BCF70C093E900FF91CC
:1056F000EF91DF91CF91BF91AF919F918F917F916A
:105700006F915F914F913F912F910F900FBE0F902E
:105710001F901895E8EDF0E080818E7F80831092D5
:10572000E2001092DA001092E100A0EEB0E08C915D
:1057300081608C9380818F77808319BCA7EDB0E066
:105740008C918E7F8C9380818F7E8083109207074F
:1057500008952091E4003091E50095E64091EC0039
:10576000842F817040FF23C08091E80080FD1DC020
:105770008091CB06882399F0853099F08091EB00D9
:1057800085FD11C04091E4005091E50024173507D4
:1057900029F3915011F09A01E1CF84E0089582E05D
:1057A000089583E0089581E0089580E00895409190
:1057B000E80042FFDDCF08958091CD0687FF11C03C
:1057C0008091E80082FD05C08091CB068111F8CF61
:1057D00011C08091E8008B770BC08091CB068823A5
:1057E00049F08091E80080FFF8CF8091E8008E7743
:1057F0008093E8000895982F973068F59093E9001A
:10580000981739F07091EC002091ED005091F00064
:1058100003C0242F762F50E021FD02C09F5FECCF04
:105820003091EB003E7F3093EB003091ED003D7FF7
:105830003093ED003091EB0031603093EB007093CA
:10584000EC002093ED005093F0002091EE0027FD36
:10585000E5CF80E008958F708093E90081E008959E
:10586000CF92DF92EF92FF920F931F93CF93DF932C
:10587000C8EDD0E088818F7E8883E7EDF0E08081FD
:105880008160808384E082BF81E080930707888104
:105890008E7F888302EE10E0F80110821092DA0009
:1058A00081EEC82ED12CF601108288818F778883F3
:1058B00088818068888388818F7D888319BC109255
:1058C000CB061092CC061092CA061092C90690EE32
:1058D000E92EF12CF70180818B7F808388818160A4
:1058E000888342E060E080E00E94FB2BF60180812B
:1058F0008E7F8083F80180818160808380818860D1
:105900008083F70180818E7F808388818061888396
:10591000DF91CF911F910F91FF90EF90DF90CF908B
:1059200008951F920F920FB60F9211242F933F9359
:105930004F935F936F937F938F939F93AF93BF9397
:10594000EF93FF938091E10082FF09C08091E20014
:1059500082FF05C08091E1008B7F8093E100809100
:10596000DA0080FF2AC08091D80080FF26C0809195
:10597000DA008E7F8093DA008091D90080FF18C012
:1059800080E189BD82E189BD09B400FEFDCF81E0DF
:105990008093CB068091070781110FC00E948A2B4C
:1059A0000E94302C8091E20084608093E20005C068
:1059B00019BC1092CB06109207078091E10080FF7E
:1059C00017C08091E20080FF13C08091E2008E7FBB
:1059D0008093E2008091E20080618093E2008091F8
:1059E000D80080628093D80019BC85E08093CB06F4
:1059F0008091E10084FF2EC08091E20084FF2AC0E4
:105A000080E189BD82E189BD09B400FEFDCF8091AE
:105A1000D8008F7D8093D8008091E1008F7E8093A5
:105A2000E1008091E2008F7E8093E2008091E200AD
:105A300081608093E2008091CC06882311F084E09D
:105A400007C08091E30087FD02C081E001C083E0D0
:105A50008093CB068091E10083FF27C08091E20014
:105A600083FF23C08091E100877F8093E10082E083
:105A70008093CB061092CC068091E1008E7F8093BC
:105A8000E1008091E2008E7F8093E2008091E2004D
:105A900080618093E20042E060E080E00E94FB2BA6
:105AA0008091F00088608093F000FF91EF91BF91AA
:105AB000AF919F918F917F916F915F914F913F91A6
:105AC0002F910F900FBE0F901F9018952091D30625
:105AD0003091D4062617370748F06115710539F45F
