:100000000C9458030C949F030C949F030C949F032F
:100010000C949F030C949F030C949F030C949F03D8
:100020000C949F030C949F030C94D32C0C94882B5A
:100030000C94E81A0C949F030C949F030C949F0358
:100040000C949F030C949F030C949F030C949F03A8
:100050000C949F030C94B61A0C949F030C949F036A
:100060000C949F030C949F030C949F030C949F0388
:100070000C949F030C949F030C949F030C949F0378
:100080000C949F030C949F030C949F030C949F0368
:100090000C949F030C949F030C949F030C949F0358
:1000A0000C949F030C949F030C949F038807910763
:1000B000C40708084E089808E408E708EC08EF08A9
:1000C000F408F708FC08FF080209050908090B09EC
:1000D0000E091109140917091A091F095B09970963
:1000E0009A099F09AA09AD09B809BB09C609C90936
:1000F000D409D709E209E809600AAD0AAB0BB10BD4
:10010000B60B510D510DBF0B510D510DC90BDA0B33
:10011000000C1F0C400C720CA10CC90CFC0CF40C54
:10012000470D9F179F17D917D9172C18CF19CF191B
:10013000CF194818261937193719A21CA21CB51C4B
:10014000B51CAB1CB51CB51CB51CA21CA21CB01C5C
:10015000B51CB51CB01C412468240F2668240F264A
:10016000B424D7240F26CC25DC2529003A003B00F7
:100170003C003D003E003F00400041004200430083
:10018000440045004C0035001E001F0020002100E7
:100190002200230024002500260027002D002E0029
:1001A0002A002B0014001A000800150017001C007C
:1001B00018000C00120013002F003000310039002D
:1001C00004001600070009000A000B000D000E00D5
:1001D0000F003300340028004A00E1001D001B001E
:1001E0000600190005001100100036003700380025
:1001F000E50052004B00E000E2000151E3002C005A
:100200004D002C00E400E6000151500051004F0069
:100210004E00005C0100010001000100010001002E
:1002200001000100010001000100010001000100C6
:1002300001000100010001000100010001000100B6
:100240000100C35CCB5CCA5C0100460001000100F8
:100250000100010001004A004E004B004D0001006A
:100260000100010001000100010001000100010086
:1002700001005000510052004F0001000100010038
:10028000AE000100010001000100010001000100B9
:10029000010001000100010001004B00A900010064
:1002A0000100010001000100A8000100010001009F
:1002B00001004A004E004D00AA00010001000100AB
:1002C0000100010001000100010001000100010026
:1002D0000100010001000100010001000100010016
:1002E0000100010001000100010001000100010006
:1002F00001000100010001000100010001000100F6
:1003000001000100010001000100010001000100E5
:1003100001000100010001000100010001000100D5
:1003200001000100010001000100010001000100C5
:1003300001000100010001000100010001000100B5
:1003400001000100010001000100010001000100A5
:100350000100010001000100010001000100010095
:100360000100010001000100010001000100010085
:100370000100010001000100010001000100010075
:100380000100010001000100010001000100010065
:100390000100010001000100010001000100010055
:1003A0000100010001000100010001000100010045
:1003B0000100010001000100010001000100010035
:1003C0000100010001000100010001000100010025
:1003D0000100010001000100010001000100010015
:1003E0000100010001000100010001000100010005
:1003F00001000100010001000100010001000100F5
:1004000001000100010001000100000101010101E2
:1004100001010101020202020202020202030303BD
:10042000030303030304040404040404050505058D
:10043000050606060606070707070708080808094D
:100440000909090A0A0A0B0B0B0C0C0C0D0D0D0EF9
:100450000E0E0F0F0F10101111111212131314148E
:10046000151516161717181819191A1A1B1B1C1D03
:100470001D1E1E1F2020212222232424252626275C
:100480002829292A2B2C2D2D2E2F3031323233348E
:1004900035363738393A3B3C3D3E3F404142434494
:1004A00045464748494A4C4D4E4F50515354555676
:1004B00058595A5B5D5E5F616264656668696B6C22
:1004C0006D6F7072737577787A7B7D7E808283859D
:1004D00087888A8C8E8F91939596989A9C9EA0A2DD
:1004E000A3A5A7A9ABADAFB1B3B5B7BABCBEC0C2E7
:1004F000C4C6C9CBCDCFD1D4D6D8DBDDDFE2E4E7AB
:10050000E9EBEEF0F3F5F8FAFDFF05010980A10132
:10051000850319012AB700150126B700950175104A
:100520008100C0050C0901A101850419012AA0025E
:10053000150126A002950175108100C0050109066C
:10054000A1018505050719E029E715002501950892
:10055000750181020507190029EF1500250195F0A5
:10056000750181020508190129059505750191029A
:10057000950175039101C00660FF0961A10109623F
:10058000150026FF009520750881020963150026D5
:10059000FF00952075089102C005010906A101051B
:1005A0000719E029E71500250195087501810295D5
:1005B00001750881010507190029FF150026FF00B4
:1005C000950675088100050819012905950575012D
:1005D0009102950175039101C009025B00030100BE
:1005E000A0FA090400000103010100092111010022
:1005F000012240000705810308000A0904010002E6
:1006000003000000092111010001222200070582D8
:100610000320000107050303200001090402000173
:1006200003000000092111010001226D000705846B
:100630000320000A120110010000000884330100A9
:1006400001000102000150034C00610075006E00C2
:1006500063006800200043006F006E0066006900C0
:10066000670075007200610062006C006500200088
:100670004B006500790062006F0061007200640049
:10068000200028006C00610075006E0063006800A7
:100690005F0031002900000012035300790073004D
:1006A000740065006D003700360000000403090483
:1006B00011241FBECFEFDAE0DEBFCDBF04B603FECC
:1006C00027C080910C0790910D07A0910E07B09163
:1006D0000F078730904BA740B04BD1F410920C0716
:1006E00010920D0710920E0710920F0714BE84B7D8
:1006F000877F84BF0FB6F894A895809160008861C9
:1007000080936000109260000FBEE0E0F8E309956E
:1007100013E0A0E0B1E0E6E1F1E602C005900D9241
:10072000AC34B107D9F727E0ACE4B3E001C01D92C7
:10073000AC30B207E1F70E94A1030C9489300C940D
:100740000000CF93DF93CDB7DEB7AD970FB6F89427
:10075000DEBF0FBECDBF84B7877F84BF0FB6F894CE
:10076000A89580916000886180936000109260007D
:100770000FBE91E080E80FB6F894809361009093EB
:1007800061000FBE85B7806885BF85B7806885BF6B
:1007900085E19AE190934D0380934C030E94CC2B0A
:1007A0000E94722C8091E20084608093E200789431
:1007B0008091CF068823A1F01091E9001F709091DD
:1007C000EC00892F817090FD80E8182B1092E900D1
:1007D0008091E80083FD0E945B231F701093E90065
:1007E00082E084BD93E095BD9DE797BD80936E0048
:1007F0000BE711E071E8E72E71E0F72ED8018D913B
:100800008D010E947026E016F106C1F701E811E0A3
:100810006FE8E62E61E0F62EF80181918F010E94CB
:100820007026E016F106C1F7EEE4F3E08AE593E006
:10083000A9EFB3E0119211921D921D928E179F079E
:10084000C9F780E090E00E94A62F8B3E9E4F11F0EA
:100850000E947F1B1092D906E2EFF6E082E097E05B
:100860002FEF3FEF219331938E179F07D9F7109207
:100870005F03E8E7F3E08FEF9FEF8193919323E02D
:10088000E838F207D1F780E090E00E94A62F8B3E77
:100890009E4F21F00E947F1B0E943A1245E050E0DB
:1008A0006CE170E086E097E00E948E2F8091060751
:1008B0008C7F11F40E943A121092BA0080E2809369
:1008C000B8001092BC008CE08CA701E010E09E0103
:1008D000245D3F4F4AEF50E360E87FEB85E291E013
:1008E0000E94642997FD4CC01BA69E01255D3F4FC9
:1008F00042E154E362ED7FEB85E291E00E946429DE
:1009000097FD3EC019821A821B821C829E012F5FB6
:100910003F4F48E054E362ED7FEB85E291E00E94B7
:10092000212097FD2DC009811A812B813C81016016
:1009300009831A832B833C8348E054E362ED7FEB09
:1009400085E291E00E94BC2997FD1AC004E813E3F8
:1009500023E030E040E050E360E87FEB85E291E0A7
:100960000E94BC2997FD0CC004E813E324E030E0AA
:1009700048E455EE62ED7FEB85E291E00E94BC29F0
:1009800080E291E00E94A42A8BE191E00E94A42AD7
:1009900086E191E00E94A42A80914C0190914D0142
:1009A000A0914E0189839A83AB8343E050E0BE015E
:1009B0006F5F7F4F809125010E942D2904E610E092
:1009C00080E291E00E947D2A8FE19EE40197F1F799
:1009D00000C000000150110999F70E94CD13AFE04B
:1009E000B7E21197F1F700C00000EFE0F7E23197AE
:1009F000F1F700C000000E94CD138091F90380FF41
:100A000013C06FEF7FEF80E490E00E94DA2F6FEF6A
:100A100082E490E00E94BC2F6FEF7FEF80E090E0D7
:100A20000E94DA2F0E94921A80E490E00E94A62F82
:100A30008C3E964739F482E490E00E949E2F91E02C
:100A4000823009F090E090FD39C000E010E07801BC
:100A500058EAE50EF11C58012CE1A20EB11CF80178
:100A6000E659FE4FC590D4906D2DC8018D5B9F4F08
:100A70000E94BC2F6C2DC8018C5B9F4F0E94BC2F25
:100A80000E5F1F4FA016B10651F78501EA14FB0453
:100A900011F7870130EAE31632E0F306C1F681E090
:100AA0000E945D2B6CEE76E780E490E00E94DA2FE6
:100AB00062E082E490E00E94BC2F03C080E00E94CC
:100AC0005D2B609102057091030580910405909162
:100AD00005050E94312B80E090E00E94A62F8B3EFE
:100AE0009E4F11F00E947F1B82E090E00E949E2F9B
:100AF0008093EC030E946E1B90935B0380935A03D8
:100B000083E090E00E949E2F682F70E080E090E0EC
:100B10000E94851D60910205709103058091040576
:100B2000909105050E94312B60915A036068609393
:100B30005A0310915B0384E090E00E94BC2F612F68
:100B400081E290E00E94BC2F8DE391E090935D03E1
:100B500080935C0322242394312C8091CF0685302E
:100B600009F053C040E4F42EEE24E39400E112E1D6
:100B70008091CF06853009F042C08091CF06843045
:100B800051F140E060E080E00E943612E092EA031A
:100B900010925E0388E190E00FB6F894A8958093D8
:100BA00060000FBEF092600083B7817F846083BFD6
:100BB00083B7816083BF7894889583B78E7F83BF26
:100BC0000FB6F894A89580916000886180936000CA
:100BD000109260000FBE8091CE06882309F4C8CF22
:100BE0000E94CD13E9EFF3E081919191892B09F0F7
:100BF00090C7A5E0B4E0AE17BF07B1F7B9CF0E9428
:100C0000B41F0E9460111092EA030E94CD13882342
:100C100059F08FB7F8944091E6035091E703609143
:100C2000E8037091E9038FBFADEEB3E0E9EFF3E0C5
:100C3000E12CF12C4E2DA190B1908D919D918A25A2
:100C40009B25009709F4AEC010E0CC24C394D12CAE
:100C50009C012C213D21232B09F49EC019A34AA3FA
:100C6000AC20BD2081E0A114B10409F480E08BA385
:100C70000E94DC1A8160782F9DA38CA349A15AA100
:100C80006BA18DA10E949610F701EE0FFF1FE3519B
:100C9000FC4F80819181C826D926D182C082AB28A1
:100CA00089F08EE08E9DF0018F9DF00D1124E553AB
:100CB000FE4FE10FF11D80818F3F21F08DA7DD24D4
:100CC000D39401C0D12CC0905F03ED2CF12CC7014F
:100CD0008C0D911D09979CF108E010E00E191F0979
:100CE000B7016F5F7F4F615A7C4FA80180E693E0A8
:100CF0000E947130B701675F7F4F615A7C4FA80136
:100D000088E693E00E947130A801440F551FB70197
:100D1000660F771F675E7F4F615A7C4F88E793E0CD
:100D20000E947130B7016F5E7F4F615A7C4FA801FE
:100D300080E793E00E947130CA94C0925F03809173
:100D40005F0390E0EDA5AE2FB0E09D01220F331FB1
:100D5000215E3D4FAA0FBB1FBD01605E7D4F41E08C
:100D6000480F9D15B0F490E0FC01E15AFC4FD90109
:100D70005C915183DB015C915187BDA5B18B880FDC
:100D8000991FFC01E15AFC4F128E118E91E0842FC5
:100D9000E6CF80935F031EC01F5FCC0CDD1C1E30AE
:100DA00009F056CF2FEFE21AF20A36E0E316F1040B
:100DB00009F040CF8FEF8EA38FA318A60E94DC1AF4
:100DC0008160782F9AA789A74EA15FA168A58AA5FF
:100DD0000E949610409188035091890360918A0384
:100DE00070918B032FB7F8948091E6039091E703FD
:100DF000A091E803B091E9032FBF841B950BA60BCC
:100E0000B70B2FB7F894C090E603D090E703E090BB
:100E1000E803F090E9032FBFC0928803D0928903C2
:100E2000E0928A03F0928B0360915F03EFE5F3E0B9
:100E3000462F50E044244A94542C612C712C481ABB
:100E4000590A6A0A7B0A651799F0218D328D49018A
:100E5000A12CB12C481459046A047B0410F44150AD
:100E600004C0280F391F328F218F5F5F3296EBCF7E
:100E700040935F038091EA03811108C01091060737
:100E8000812F837019F01695169501C010E080919E
:100E900028018130E9F038F0823009F4DFC3833073
:100EA00009F4E9C305C410924901C0920207D09227
:100EB0000307E0920407F092050789E2EFE5F3E00B
:100EC000A9EDB6E001900D928A95E1F781E0D0C3DB
:100ED0008091270118130DC020910607237030E080
:100EE0004091260150E081E02417350719F480E095
:100EF00001C081E0817080934B01412F50E0483266
:100F0000510508F099C3FA01EA5AFF4F0C946B306F
:100F1000882309F491C340E060E080E00E9436122B
:100F20008BC30091490181E1089F002D112421E12B
:100F3000F22EF00E54E55F1510F494E5F92E609151
:100F4000070770910807809109070E94D512E62EC5
:100F5000D72EC82E0F1590F4E02FF0E0DF01A95333
:100F6000BD4F8C9190914A01982331F02C2D4E2D3C
:100F70006D2DCF010E9438120F5FECCF81E063E549
:100F80006F1508F05AC358C30091490181E1089FC9
:100F9000002D112481E1F82EF00E74E57F1510F478
:100FA000B4E5FB2ED0900807E0900907C090070732
:100FB000B6018E2D0E94D512B62EA72E782E6091E6
:100FC0000A076C0D7D2D8E2D0E94D512E62ED72E90
:100FD000C82E0F15B8F4802F90E0FC01E953FD4FA7
:100FE000308120914A01232359F030FF04C02C2D79
:100FF0004E2D6D2D03C0272D4B2D6A2D0E943812CA
:101000000F5FE7CF81E093E59F1508F016C314C387
:101010000091490181E1089F002D1124A1E1DA2E00
:10102000D00EA4E5AD1510F4F4E5DF2EB09008075E
:10103000A090090720910A07E0E4CE2E3C2D329FB4
:10104000312D1124C32E0D1518F5E02EF12CF701CA
:10105000E953FD4F908180914A018923B9F0F7014E
:10106000EE0FFF1FE05EFD4F808182958F706091D3
:1010700007078C9D600D11247B2D8A2D0E94D512AF
:10108000462F282F672FC7010E9438120F5FDBCF32
:1010900081E053E55D1508F0D0C2CEC20091490150
:1010A00081E1089F002D112461E1D62ED00E64E568
:1010B0006D1510F454E5D52EB0900807A0900907DF
:1010C00020910A0740E4C42E7C2D729F712D1124BB
:1010D000C72E0D1538F5E02EF12CF701E953FD4F21
:1010E000908180914A018923D9F0F701EE0FFF1F0B
:1010F000E15EFD4F6081C69EB001112435E075951B
:1011000067953A95E1F780910707680F7B2D8A2D47
:101110000E94D512462F282F672FC7010E94381230
:101120000F5FD7CF81E093E59D1508F086C284C29A
:101130000091490181E1089F002D112491E1F92ED0
:10114000F00EA4E5AF1510F484E5F82ED090070753
:10115000E0900807C090090760910A0766956695B8
:10116000669580910207909103070E94CB120E941E
:101170005012805887FD8195880F282F3C2D239F82
:10118000212D1124822F6D2D7E2D0E94D512E62E49
:10119000D72EC82E0F1590F4E02FF0E0DF01A953F1
:1011A000BD4F8C9190914A01982331F02C2D4E2DFA
:1011B0006D2DCF010E9438120F5FECCF81E053E517
:1011C0005F1508F03AC238C28EE79FE002C082E5A0
:1011D0009FE00E94812131C287E590E102C088E34F
:1011E00090E10E94252129C28DE190E102C081E0B9
:1011F00090E10E94A92021C280E59FE0EACF87E428
:101200009FE0E7CF8EE39FE0E4CF83E29FE0E1CF72
:1012100084E19FE0EECF82EA92E1E3CF80EF9FE0AE
:10122000E0CF8CED9FE0E5CF86EE9EE005C084EB3D
:101230009EE002C086E79EE00E94CB21FEC18111A4
:101240001EC060910A0720E1620F08F46FEF8091E1
:101250000207909103070E94CB126AE070E00E949F
:101260004330892B09F0E8C10E947E2F64E570E0CD
:101270000E94573060914A010E946513DDC1809140
:10128000490191E1899F802D112401E1080F053565
:1012900008F004E5E82EF12CC02ED12CEC14FD044E
:1012A0000CF0C7C160914A01C7010E9465136FEF3E
:1012B000E61AF60AF3CF81111EC060910A0720E1F9
:1012C000620F08F46FEF80910207909103070E946C
:1012D000CB1265E070E00E944330892B09F0ACC16D
:1012E0000E947E2F64E570E00E94573060914A01B1
:1012F0000E94AB13A1C18091490191E1899F802D8A
:10130000112401E1080F053508F004E5E82EF12C61
:10131000C02ED12CEC14FD040CF08BC160914A015D
:10132000C7010E94AB137FEFE71AF70AF3CF8FE6EE
:101330009EE002C089E69EE00E942C227EC1809140
:10134000D90621E0382F321B08F430E0832F60E506
:101350007EE03BC060E57EE037C08091D90621E0A9
:10136000582F521B08F450E0852F68E17EE02DC015
:1013700068E17EE029C08091D90621E0682F621BD8
:1013800008F460E0862F66EE7DE01FC066EE7DE02B
:101390001BC08091D90621E0782F721B08F470E001
:1013A000872F6EEC7DE011C06EEC7DE00DC080916A
:1013B000D90621E0382F321B08F430E0832F68EB88
:1013C0007DE003C068EB7DE080E00E94982235C19B
:1013D0008091E003811125C06BEC71E040E050E0AA
:1013E000942F9295907F20E030E0FB01E20FF31FF5
:1013F0008081843538F4E82FF0E0E457FC4F892FE2
:10140000822B80832F5F3F4F2E30310571F74F5F66
:101410005F4F625F7F4F4630510511F781E0809347
:10142000E0030091490181E1089F002D1124B1E101
:10143000DB2ED00E54E55D1510F4A4E5DA2E609194
:1014400002057091030580910405909105050E94A5
:101450000328C82E6091070770910807809109073B
:101460000E94D512B62EA72E782E0D1518F5E02E57
:10147000F12CF701E953FD4F908180914A018923B6
:10148000B9F0F701E457FC4F6081462F4F70629529
:101490006F708C2D0E940212029720F420E040E031
:1014A00060E003C0272D4B2D6A2DC7010E94381222
:1014B0000F5FDBCF81E063E56D1508F0BEC0BCC0F7
:1014C0000091490181E1089F002D1124F1E17F2E57
:1014D000700E74E5771510F4E4E57E2EEE24EA94A0
:1014E000F12C0715A0F5E02FF0E0DF01A953BD4F67
:1014F0009C9180914A01892341F1DF01AA0FBB1F12
:10150000AE0FBF1FAA5FBB4FAC901196CC90119746
:1015100012968C9190910907A99E50011124C99EA1
:1015200060011124899FC0011124B7010E9443303A
:10153000262FC501B7010E944330462FC601B701CF
:101540000E944330CF010E9438120F5FCACF81E062
:1015500093E5971508F071C06FC0D090490191E1F3
:10156000D99ED02C112401E10D0D053508F004E5BC
:10157000811106C08091E5038F5F8093E50304C06D
:101580001092E5031092E4038091E503811147C0B6
:101590008091E403883029F41092E3031092E4036D
:1015A0003EC0A82FB0E0AA0FBB1FA157BE4FEC91C1
:1015B00011969C91AEE0EA9FF0011124E553FE4F95
:1015C000E90FF11D90819F3F21F09093E10391E09D
:1015D00001C090E09093E3038F5F8093E4031FC00A
:1015E000ED2CF12CF701E953FD4F908180914A01D8
:1015F0008923A1F06091E5036D0D2091E303E1EEF5
:10160000F3E080E77FEF90E092130CC00E94D512C8
:10161000462F282F672FC7010E943812D394D01667
:10162000F8F207C03191D31202C08FEF70E09F5FD4
:10163000EBCF81E0043508F080E0909149019F5F95
:1016400090934901811134C082E0809328018091F8
:101650004B0181112DC0112351F02AC01093270195
:10166000809106078370809326010E94751083E0A5
:10167000809328011DC0409102075091030760919B
:101680000407709105072FB7F8948091E6039091B5
:10169000E703A091E803B091E9032FBF841B950BEA
:1016A000A60BB70B4097A105B10510F010922801C9
:1016B0000E9460119091EB03891721F00E94601144
:1016C0008093EB038091CF06843009F046CA83E013
:1016D0008093E9008091E80082FF3FCA8091E80092
:1016E00085FF21C00E94EB2B81111BC000E210E09E
:1016F000FE0131967F0108C08091F100D7018D93E2
:101700007D010150110969F08091E80085FDF4CF59
:101710008091E8008B778093E8000E94EB2B882370
:1017200099F391E001C090E08091E8008B7780937D
:10173000E800992309F411CA81E08A83E9818E2F98
:1017400090E0FC013197E331F10508F0AAC1E258BD
:10175000FF4F0C946B3086E78B838CEE8C8381E09B
:1017600012C14EE150E065E571E004C04EE150E089
:1017700067E671E0CE0103960E947A3091C18091B4
:101780000705882309F48DC11A8281E0809306053C
:1017900088C18B81843008F084C16C81663008F088
:1017A00080C14D814E3008F07CC10E9402128E83B0
:1017B0009F8376C19B81943008F073C10C81063001
:1017C00008F06FC18D818E3008F06BC1FE806F8193
:1017D000BCE10B9F80011124E8EA9E9F000D111DC2
:1017E0001124080F111D080F111D0D5B1F4FC8019B
:1017F0000E94BC2F6F2DC80101960E94BC2F50C1C2
:101800008091070581114DC18B81803F49F0813F57
:1018100049F0823F49F0833F09F043C1E3E005C04E
:10182000E0E003C0E1E001C0E2E025E0E29FF0017A
:101830001124E75DFE4F83818C8380EBA4C08091EF
:10184000070581112EC18B819C81903B08F090EBA4
:10185000803F49F0813F49F0823F49F0833F09F0E2
:1018600020C1E3E005C0E0E003C0E1E001C0E2E048
:1018700035E0E39FF0011124E75DFE4F9383A8C09C
:101880008091070581110DC1EB81E43558F0E03FEF
:10189000C1F0E13FC1F0E23FC1F0E33F09F001C117
:1018A000E3E014C0F0E0CF01880F991FE80FF91FA3
:1018B000EA5FFB4F81818C8380818D8382818E835F
:1018C000EFC0E0E003C0E1E001C0E2E055E0E59FE9
:1018D000F0011124E75DFE4F81818C8382818D832D
:1018E0001E82DEC0809107058111DBC0EB818D81F6
:1018F0009C81E43558F0E03FB1F0E13FB1F0E23FC8
:10190000B1F0E33F09F0CDC0E3E012C02E81F0E07A
:10191000AF01440F551FE40FF51FEA5FFB4F8083B3
:1019200091832283BDC0E0E003C0E1E001C0E2E0BA
:1019300065E0E69FF0011124E75DFE4F918382830D
:1019400047C0809107058111ACC0EB81E43008F0FD
:10195000A8C02E2F30E075E0E79FF0011124E75D6D
:10196000FE4F908196959695EFE9F1E041919413A1
:101970000CC08C8385E0829FF001839FF00D1124C1
:10198000E75DFE4F84818D838BC08F5F8F3071F751
:1019900088C080910705811184C0EB81E43008F094
:1019A00080C0AC81AF3008F07CC02D8185E0E89F1D
:1019B000F0011124E75DFE4FB0E0A156BE4F8C91BF
:1019C000982F990F990F80818370892B80832483AE
:1019D0001A8260910205709103058091040590912F
:1019E00005050E94312B5DC080910705811159C00A
:1019F00081E00E945D2B54C086E08B838EE08C8357
:101A000089EFE82E83E0F82E16E0A0E0B4E040E095
:101A100050E0B03258F5F70160817181C101042EA8
:101A200002C0880F991F0A94E2F7682379238B2F4D
:101A300090E091010A2E01C0220F0A94EAF7672B69
:101A400051F061E070E06C0F7D1F860F971FFC0165
:101A50003081232B0AC061E070E06C0F7D1F860F80
:101A6000971F2095FC01308123232083AF5FA8308E
:101A700010F0BF5FA0E04F5F5F4F4E30510549F659
:101A80001150F2E0EF0EF11C1111C1CF09C00E94FC
:101A9000B41F81E09B81911101C080E08093050417
:101AA0001A828091CF06843009F51091E9001F70E9
:101AB0009091EC00892F817090FD80E8182B82E0D6
:101AC0008093E9008091E80080FF0DC040E050E085
:101AD00060E270E0CE0101960E94C91F8091E8008B
:101AE0008E778093E8001F701093E90080910605BF
:101AF000882311F40C94AD052FEF30E752E021500C
:101B000030405040E1F700C000000E94921A0C944F
:101B1000AD0509BD19BD09B400FEFDCF8091D80007
:101B20008F7D8093D8008091E00082608093E000F8
:101B30008091E00081FDFCCF0E94B41F0C94B80599
:101B4000EDE0F5E096E0E930F90729F08183608364
:101B500042833396F7CF0895FC01EE0FFF1F8E0FDF
:101B60009F1FFC01E35FFA4F618340832283089546
:101B7000EF92FF920F939701201B31092F3F310500
:101B800019F010F02FEF30E02095382F320F08F4C5
:101B90003FEF832F0F91FF90EF900895EF92FF9208
:101BA0000F939701201B31092F3F310519F010F0D9
:101BB0002FEF30E0322F3095482F430F08F44FEFCE
:101BC000842F620F0F91FF90EF900895EF92FF9294
:101BD0000F93972F093438F4B701601B71096F3FD9
:101BE000710519F010F06FEF70E0485F5F4F413101
:101BF000510540F0A901485F5F4F4131510510F098
:101C00006FEF70E06095482F460F08F44FEF842F78
:101C100037FF02C02D5F3F4F3595279535952795A6
:101C200060910707620F792F0F91FF90EF90089551
:101C3000EF92FF920F93E00EF11CF90137FF03C002
:101C4000F195E195F10924E0EE0FFF1F2A95E1F7E8
:101C5000EF3FF10519F014F0EFEFF0E09A0157FFB4
:101C600003C031952195310994E0220F331F9A95D5
:101C7000E1F72E173F070CF4F901EE0DFF1DEF3FC2
:101C8000F10519F010F0EFEFF0E02E2F2095382F2E
:101C9000320F08F43FEF832F0F91FF90EF900895DC
:101CA000EF92FF920F93970195E0099F200D311D50
:101CB00011242F3F310519F010F02FEF30E020955F
:101CC000382F320F08F43FEF832F0F91FF90EF90E2
:101CD000089522E8241B08F420E0620F089540953F
:101CE000282F429F412D1124842F08950F931F9375
:101CF00010E0F801EE0FFF1FE15EFD4F908190575D
:101D000097FD9195000F111FF801E05EFD4FE081F6
:101D1000F0E0B097DF01AA0FBB1F8D010E0F1F1F50
:101D20002003D001219FB00D1124E8E3F0E0E91B6E
:101D3000F10997FDF3959F01220F331F89010E0FC3
:101D40001F1F40039001419F300D11242A0F3B1F9C
:101D500037FF02C021583F4F220F232F221F330B82
:101D6000620F1F910F9108950F931F93522F10E050
:101D7000F801EE0FFF1FE05EFD4FE081F0E0B0974D
:101D8000EE0FFF1F9F015203D001539FB00D11248E
:101D9000000F111FF801E15EFD4F008110E00057B8
:101DA0001109000F111F40039001419F300D1124B4
:101DB0002A0F3B1F37FF02C021583F4F220F232F0E
:101DC000221F330B620F1F910F9108950F931F93E2
:101DD000522F10E0F801EE0FFF1FE05EFD4FE08193
:101DE000F0E0B0979F015203D001539FB00D112432
:101DF000000F111FF801E15EFD4F008110E0005758
:101E0000110940039001419F300D11242A0F3B1FFF
:101E100037FF02C021583F4F220F232F221F330BC1
:101E2000620F1F910F910895EF920F931F9393E00C
:101E3000099F80011124159507956E2D600F1F9144
:101E40000F91EF900895A22F50E0FA01EE0FFF1FBF
:101E5000E05EFD4F9081905297FD9195440F551F84
:101E6000FA01E15EFD4F3081232F30E02A1B31095A
:101E7000290F311D97FD3A95620F0895E42FF0E088
:101E8000EE0FFF1FE05EFD4F6081621B0895E42F9F
:101E9000F0E0EE0FFF1FE15EFD4F6081621B0895D1
:101EA000622F0895E42FF0E0EE0FFF1FE15EFD4F7B
:101EB000408134EE439F412D1124E82FF0E050E0A3
:101EC000445E5F4FDA01A21BB1099D01B7FF03C059
:101ED00031952195310993E0220F331F9A95E1F74F
:101EE000AF01421B530B9A0157FF02C020E030E0C4
:101EF000582F259F212D1124822F0895E42FF0E0E3
:101F0000EE0FFF1FE15EFD4F408134EE439F412DF8
:101F10001124E72FF0E050E0445E5F4FDA01A21B8E
:101F2000B1099D01B7FF03C031952195310993E0B7
:101F3000220F331F9A95E1F7AF01421B530B9A0111
:101F400057FF02C020E030E0279F212D1124722F7F
:101F50000895FC019B01009721F477FF2BC080E8D6
:101F60000895AC0197FF04C044275527481B590B1F
:101F7000B901640F751F37FD0CC0241B350BC90157
:101F8000A5E0880F991FAA95E1F70E94573080E2DB
:101F90000CC0CB0165E0880F991F6A95E1F7BA0183
:101FA000621B730B0E94573080E6861BF7FF03C04D
:101FB0008195089580E00895EF920F93CF93DF937A
:101FC000D72FC82FC9010E19BA010E94A90F602F7F
:101FD000681B7D2F8C2FDF91CF910F91EF9008958B
:101FE0000F93CF93DF93D72FC82FC901BA010E9457
:101FF000A90F682F600F7D2F8C2FDF91CF910F914C
:102000000895EF920F931F93CF93DF93D62FC72F8F
:10201000182FC9010E19010FBA010E94A90F081B40
:10202000202F219F212D1124822F6D2F7C2FDF91B6
:10203000CF911F910F91EF900895EF920F931F93FF
:10204000CF93DF93D62F172FC82FC9010E19070F73
:10205000BA010E94A90F702F781B719F712D112456
:102060006D2F8C2FDF91CF911F910F91EF900895DD
:10207000FF920F931F93CF93DF93F62ED72F182F36
:10208000C901C12FC01BBA010E94A90F982F990F37
:10209000890FC81B2C2F219F212D1124822F6F2DDA
:1020A0007D2FDF91CF911F910F91FF900895FF92A7
:1020B0000F931F93CF93DF93F62E172FD82FC901BD
:1020C000C72FC01BBA010E94A90F982F990F890F23
:1020D0007C2F781B719F712D11246F2D8D2FDF9117
:1020E000CF911F910F91FF9008956A9A8EB18B7FC7
:1020F0009EB194602FB7F894EDE0F5E036E0E9305A
:10210000F30761F0319148E09EB937FF8EB9330F84
:10211000000000C08EB94A95B9F7F0CF2FBF8FE20B
:1021200092E00197F1F700C0000008951F93CF934C
:10213000DF93CDB7DEB767970FB6F894DEBF0FBE5B
:10214000CDBF342F4B8B252F5C8B6D8B7E8B8F8B74
:102150004E895F8961111092A40686E0FE013D96CA
:10216000DF01982F1D929A95E9F73D872E876F879B
:10217000598B488BDE01179601900D928A95E1F7F5
:10218000CE0107960E94051E81113EC086E0FE0129
:102190003796DE01119601900D928A95E1F7FF8145
:1021A000E8856A857B856115710531F0EF3F31F473
:1021B00081E0FF3F19F403C081E001C080E080FDB1
:1021C00023C02091390630E0C90101968770992714
:1021D00040916A0650E08417950779F1F983EA8304
:1021E0007D836C8396E0929FD001939FB00D112464
:1021F000A65CB94FFE01319601900D929A95E1F7D8
:10220000809339060E948F1D16E080916A06909196
:1022100039068917F9F0189FC0011124865C994F7F
:102220000E94051E8823B1F080916A0690E0019615
:102230008770992780936A06E8CF0E94B41F109296
:10224000390610926A06E3E3F6E086E0DF011D92AC
:102250008A95E9F767960FB6F894DEBF0FBECDBF3B
:10226000DF91CF911F91089520910D0630910E06B8
:102270002817390771F090930E0680930D06E091B0
:102280005C03F0915D03309721F00084F185E02D2F
:102290000994089520910B0630910C0628173907F0
:1022A00071F090930C0680930B06E0915C03F09123
:1022B0005D03309721F00680F781E02D09940895A1
:1022C000E0915C03F0915D03309721F00190F08183
:1022D000E02D099480E00895EF92FF920F93CF9341
:1022E000DF93C42FD22FFC0182818823D1F0409349
:1022F00011060E94DC1A90930A068093090680E278
:102300008C0F883008F078C0C77081E001C0880F5A
:10231000CA95EAF7DF91CF910F91FF90EF900C945F
:10232000112E80911106481356C020910906309154
:102330000A064FB7F8948091E6039091E703A091C5
:10234000E803B091E9034FBF821B930B883C9105D2
:1023500008F041C0CD17C9F080E28C0F883040F4FE
:10236000C77081E001C0880FCA95EAF70E94062E67
:1023700080E28D0F883048F481E09D2F977001C076
:10238000880F9A95EAF70E94112E093319F0E12C73
:10239000F12C03C080E5E82EF12C802F0E94772ECF
:1023A000E114F10451F08FEC97E00197F1F700C0D0
:1023B000000091E0E91AF108F3CF802F0E941B2E54
:1023C00080E28D0F8830C0F4D77081E001C0880FA3
:1023D000DA95EAF70AC080E28C0F883068F4C7709B
:1023E00081E001C0880FCA95EAF7DF91CF910F9184
:1023F000FF90EF900C94062EDF91CF910F91FF90FC
:10240000EF9008950F931F93CF93DF93C42FD0E0E5
:10241000CC0FDD1F2CE1629FC00DD11D112438EAC5
:10242000839FC00DD11D1124CD5BDF4FCE010E94D3
:102430009E2F082F10E0102F0027CE0101960E943A
:102440009E2F9801282BC901DF91CF911F910F91E9
:102450000895462F843038F4763028F46E3018F41E
:10246000672F0C94021280E090E008950C94A00D68
:102470000C94AC0DE6E0F7E08DE3808380914F0192
:1024800090915001A091510181839283A3838FE7A2
:10249000848345E050E06CE170E0CF010C94AC2FF8
:1024A000482F982F46FD9095E92FEF739F7046FDBA
:1024B0009F5FE295EF70EE0FF0E0E255FE4F218155
:1024C000299F802D212D112482958F702295207FA8
:1024D000822B3081982F930F892F47FD819580584B
:1024E0000895BC018230910508F40895613E8EE1A3
:1024F000780748F49B0195E0369527959A95E1F782
:1025000048E0420F01C04FEF91E0242F30E0290F47
:10251000311D35952795229FF001239FF00DF00D79
:1025200011246E177F0718F44FEF420F04C02F3F9E
:1025300039F091E0920F491740F78FEF890F089516
:102540008FEF08950F93CF93DF93D72FC82F47FDB9
:102550004195E8E3F0E0CF01841B910947FD939595
:10256000889FB001899F700D700D1124229FC001BA
:10257000239F900D900D1124860F971F0E947112BA
:10258000682F660F860F682F600F7D2F8C2FDF91CD
:10259000CF910F91089520E030E0869F212D969FE6
:1025A000200D311D1124C9010895CF92DF92EF92C1
:1025B000FF920F931F93CF93DF93F62E472FE82FB1
:1025C000F0E0711106C0E65FFB4F8491782F682F11
:1025D00073C0272F30E0E65FFB4FE491FE2F0E2FF4
:1025E00010E056E0659FC0011124CFEFD0E0BE019E
:1025F0000E9443305BEA5603C001579F900D11249F
:102600008F0D911D8F0D911D982F990F980F7E01A1
:10261000E21AF30AE09ED001E19EB00DF09EB00DEB
:1026200011248B2F499FA0011124452F55277E018E
:10263000E41AF50AE09EA001E19E500DF09E500DB7
:1026400011246E01C91AD108C29E7001C39EF00CFC
:10265000D29EF00C11242F2D3327C21BD30BC09F09
:102660009001C19F300DD09F300D1124932F623007
:10267000710591F048F461157105E1F06130710563
:10268000B9F49E2FE52F16C06430710569F040F053
:102690006630710579F00CC09E2FEB2F832F0AC096
:1026A000EB2F8F2F952F06C09B2F8E2FE32F02C06D
:1026B0009B2F852F7E2F692FDF91CF911F910F9137
:1026C000FF90EF90DF90CF900895DF92EF92FF920E
:1026D0000F931F93CF93DF93EC01FC01E953FD4F60
:1026E0009081692381F1D09008070091090710912A
:1026F0000707E12EF12C0E947E2F282FC7018C5452
:102700009F4F68E671E00E9457308E199F0997FD30
:10271000039695958795959587952370612F289FAA
:10272000600D11247D2D802F0E94D512462F282F59
:10273000672FCE01DF91CF911F910F91FF90EF9006
:10274000DF900C943812DF91CF911F910F91FF9081
:10275000EF90DF9008951F93CF93DF93FC01E9532F
:10276000FD4F20816223A9F0EC010E947E2F182FDB
:102770000E947E2F612F782F809109070E94D51229
:10278000462F282F672FCE01DF91CF911F910C94F8
:102790003812DF91CF911F9108959F92AF92BF920F
:1027A000CF92DF92EF92FF920F931F93CF93DF931D
:1027B0000EE413E08BE7E82E81E0F82EC0E0D0E0D5
:1027C000912CCC24C394D12CB701D7018C91F894CF
:1027D000E82FE295EF70F0E021A18F70A60102C012
:1027E000440F551F8A95E2F7CA01922F982B91A3A7
:1027F00092A18095892382A3789400C0E1E8F1E05A
:1028000020E030E0A12CB12C4191842F82958F7073
:1028100090E0DC0190968C9190E04F7002C095950D
:1028200087954A95E2F780FD08C0C601022E02C0D6
:10283000880F991F0A94E2F702C080E090E0A82A6E
:10284000B92A2F5F3F4F2E303105F1F6BFEFEB1A5B
:10285000FB0AFB0180810E947026C530D10519F06A
:10286000F0E5FA95F1F7D8018D919C911197A81692
:10287000B90621F0AD92BC9281E001C080E0982AB7
:1028800021960E5F1F4FC630D10509F09DCF9920CC
:1028900049F081E080930A050E94DC1A90930905B3
:1028A0008093080580910A05882309F445C020918A
:1028B0000805309109054FB7F8948091E60390918F
:1028C000E703A091E803B091E9034FBF821B930B8C
:1028D000069790F180914E0390914F039093FA03E5
:1028E0008093F90380915003909151039093FC03DE
:1028F0008093FB0380915203909153039093FE03C6
:102900008093FD03809154039091550390930004AC
:102910008093FF0380915603909157039093020494
:10292000809301048091580390915903909304047B
:102930008093030410920A0580910B0590910C0579
:10294000883EB3E09B076CF010920C0510920B05CB
:102950008BE191E00E94372A86E191E00E94372ABC
:1029600005C0019690930C0580930B05892DDF918E
:10297000CF911F910F91FF90EF90DF90CF90BF907C
:10298000AF909F9008958F929F92AF92BF92CF92F7
:10299000DF92EF92FF920F931F93CF93DF9300D0BC
:1029A00000D01F92CDB7DEB7FC01808191812381D9
:1029B0003481232B31F09F3F31F491E08F3F19F4A4
:1029C00003C091E001C090E090FD19C57F0185E052
:1029D000DE01119601900D928A95E1F7F7012281AF
:1029E00089819A81222349F00E94431C182F682F65
:1029F00089819A810E94E51C03C00E94B91C182F8E
:102A000069817A81812F0E9429128C0180910504AD
:102A1000811132C20115FCE51F0731F168F4003E57
:102A2000110509F45FC0043E110509F460C00932C4
:102A3000110509F08EC10EC00A3C3CE5130769F18F
:102A40000B3C8CE51807C1F0033C9CE5190709F025
:102A500080C136C080911006882309F44CC0809153
:102A60000F06882309F447C0F7018281882309F4FF
:102A700003C20E947B2B00C2F7018281882309F4E4
:102A8000FBC180910907ECEBF1E092919817B0F04F
:102A900001E0E63BF007C9F722C0F70182818823F5
:102AA00009F4EAC180910907E6EBF1E02CEB31E093
:102AB0002E173F07A1F091918917D0F7892F0FC0EA
:102AC000F7018281882309F4D7C180910907811118
:102AD00003C08091470103C08093470180E00E94BA
:102AE000462BCAC1F70182818093100604C0F7010A
:102AF000828180930F06F7018281882309F48EC1B9
:102B0000109211060230FCE51F0708F471C106316E
:102B10002CE5120738F098012B5F3C452930310530
:102B200008F066C10E946E1B90935B0380935A036A
:102B300000313CE5130709F4C3C008F041C0083078
:102B40009CE5190709F49AC0F0F40430FCE51F076E
:102B500009F487C068F402303CE5130709F477C034
:102B600003301C4509F0E5C080915A03826076C0AD
:102B700006309CE5190709F46EC008F07BC080910F
:102B80005A0388606BC00C30FCE51F0709F485C050
:102B900068F40A303CE5130709F474C008F079C002
:102BA0000E94B41F80915A03806858C00E309CE583
:102BB000190709F476C008F07FC080915A038BC0D2
:102BC0000C3FFCE51F0709F44FC018F503313CE545
:102BD000130709F47DC078F401319CE5190709F465
:102BE00073C002311C4509F0A4C00E94B41F80913B
:102BF0005A038F7733C00531FCE51F0709F472C013
:102C000008F486C00B3F1C4509F093C080915B031C
:102C10003EC001158DE5180709F45FC058F40E3F5A
:102C2000ECE51E0709F444C008F43FC080915B0343
:102C300082602DC002302DE5120709F475C008F43A
:102C40005DC003301D4509F074C060E06EC0809126
:102C50005A03816003C080915A03806180935A03B4
:102C600068C080915A0311C080915B038260809399
:102C70005B035FC080915A038062F0CF80915A035A
:102C80008064ECCF80915A0388608460E7CF8160D4
:102C9000EECF80915A038E7FE1CF80915A038D7FD2
:102CA000DDCF80915A03877FD9CF80915B0318C015
:102CB00080915B038D7FDBCF80915A038F7ECECFD7
:102CC00080915A038F7DCACF80915A038F7BC6CFE4
:102CD00080915A03877F8B7FC1CF80915B038D7F6B
:102CE0008E7FC5CF80915A0382FB222720F991E085
:102CF000922790FB82F990FB83F9B0CF80915B0320
:102D0000982F909591708E7F892B90FB81F9AFCF92
:102D10000E94B41F80915A0387FB222720F991E07B
:102D2000922790FB87F99ACF61E08EE090E00E94B5
:102D3000BC2F60915A0310915B0384E090E00E94E5
:102D4000BC2F612F81E290E00E94BC2F0E94B41F33
:102D500093C0043FFCE51F07A1F406E221EE40EE1C
:102D600064EF7CE50AC0083D9CE5190709F0C3CE75
:102D700006E221EE41EE68ED7CE5C7010E946C1190
:102D80007BC0053F2CE51207A0F4093D3CE5130785
:102D900031F407E225EE45EE69ED7CE5EECF0A3D24
:102DA0008CE5180701F708E221E045EE6AED7CE5C5
:102DB000E4CF063FECE51E0731F406E221EE42EED9
:102DC00066EF7CE5DACF063FFCE51F0730F407E24B
:102DD00025EE44EE65EF7CE5D0CF073F2CE51207EA
:102DE00009F089CE07E225EE46EE67EF7CE5C5CF18
:102DF00006313CE5130719F58091A5068A7A91E022
:102E000009F490E090931206882311F065E301C065
:102E100069E283E196E00E94391B0EC006311C4531
:102E200009F048C080911206882309F4E6C265E3E0
:102E300083E196E00E94111B0E94EF1B1DC09801C8
:102E4000235C3C4524313105B8F001159CE5190798
:102E500031F00F3D1C4571F50E947F1B0DC00E9493
:102E6000B41FFFE70AE116E0F15000401040E1F71F
:102E700000C000000E94921A8091A206877009F497
:102E8000BEC2F7018281882309F4B9C282E00F90A3
:102E90000F900F900F900F90DF91CF911F910F9196
:102EA000FF90EF90DF90CF90BF90AF909F908F906A
:102EB0000C944B1DF70100811181882349F0C80152
:102EC0000E94431CD82E682FC8010E94E51C04C034
:102ED000C8010E94B91CD82EB8018D2D0E948726EA
:102EE0008C01982EF701B280A580A2949FE0A922C0
:102EF0008091A206877099F0BB2089F0812F807F96
:102F0000803421F080E2800F883048F082E00E9417
:102F10004B1D8091A2068770DD24D3948111D12CA2
:102F2000C12EC2948FE0C8228C2D90E08C30910588
:102F300008F035C2FC01EF56FF4F0C946B30812F27
:102F4000807F1F70882311F01295107FBB20B9F08D
:102F5000112309F40FC280E2800F883010F0911025
:102F600006C08091A506182B1093A50605C0809178
:102F7000A406182B1093A4060E94EF1BFBC1802F00
:102F80000E941B2E112309F40AC2005E109508301E
:102F900010F0911006C08091A50618231093A50685
:102FA00005C08091A40618231093A4060E94EF1B6D
:102FB000F6C1812F807F1F70803211F01295107F33
:102FC000992021F0F1E09F16E1F02AC0BB2081F0AA
:102FD0008091A606AA2051F001E0A01207C0182B8C
:102FE000181709F4DCC11093A606D9C1812B10C0B3
:102FF000AA2021F021E0A21609F4D1C10E94E91B08
:1030000027C0BB2041F035E03A1508F4C8C1812F34
:103010000E94112EC4C184E08A1508F4C0C118C0F2
:10302000BB2049F0AA2099F3F701858180FFA2C156
:103030008F708583ECCFAA2059F0093309F0ACC119
:10304000FFEF13EF21E0F15010402040E1F7A2C163
:10305000812F0E94062EA3C1812F869586958370AD
:1030600019F0813059F09BC1BB2019F0C801937051
:1030700002C080E090E00E944A1197C1BB2019F085
:10308000C801937002C080E090E00E9434118DC1AD
:10309000812F837009F069C0B11085C1902F92957E
:1030A00096959770990F990F802F8F70882E912C7D
:1030B000A12CB12C092E04C0880C991CAA1CBB1C85
:1030C0000A94D2F704FF12C04FE050E060E070E0D5
:1030D00004C0440F551F661F771F9A95D2F7DB0176
:1030E000CA0180959095A095B09503C080E090E0CE
:1030F000DC0116951695412F4370423019F1C8F442
:103100000091A7061091A8062091A9063091AA0661
:10311000413059F088299929AA29BB29BC01CD0140
:1031200060237123822393230AC0802A912AA22A32
:10313000B32ABC01CD01682979298A299B290E94DB
:10314000851D31C188299929AA29BB290091A70683
:103150001091A8062091A9063091AA06BC01CD01C4
:103160006027712782279327EACFBB2019F0812F90
:10317000817001C08695882309F415C1902F92951E
:1031800096959770990F990F802F8F70882E912C9C
:10319000A12CB12C092E04C0880C991CAA1CBB1CA4
:1031A0000A94D2F704FF12C04FE050E060E070E0F4
:1031B00004C0440F551F661F771F9A95D2F7DB0195
:1031C000CA0180959095A095B09503C080E090E0ED
:1031D000DC0116951695412F43704230D9F068F501
:1031E0000091020510910305209104053091050519
:1031F000413059F088299929AA29BB29BC01CD0160
:1032000060237123822393231EC0802A912AA22A3D
:10321000B32A13C088299929AA29BB29009102053C
:10322000109103052091040530910505BC01CD01E5
:10323000602771278227932706C0BC01CD0168292A
:1032400079298A299B290E94101DADC01F70BB20BF
:1032500039F0812F0E94641D802F0E94112EA3C07F
:10326000802F0E94062E812F0E94261D9CC0802F39
:1032700032EF931609F440C0391538F090EF9916E3
:1032800061F0E1EF9E1699F170C0F3EF9F16D9F14E
:1032900024EF921609F44EC068C0BB2019F134E047
:1032A0003A1508F47CC01F7181E090E0A0E0B0E026
:1032B000AC01BD0104C0440F551F661F771F1A954E
:1032C000D2F78091020590910305A0910405B09179
:1032D00005058A019B01082719272A273B27C901D1
:1032E000B80125C025E02A1508F459C0DCCFBB2061
:1032F00029F0812F8F712CC0BB20D9F3812F8F71C2
:103300000E94261D4CC0BB2079F01F7181E090E027
:10331000A0E0B0E0BC01CD0104C0660F771F881F9C
:10332000991F1A95D2F703C060E070E0CB010E94AC
:10333000101D35C0BB2079F01F71812F0E94641DC4
:1033400038E0139FC001112483608093A206812F6F
:103350000E94641D24C081E00E944B1D81E08A15FB
:10336000F0F482E00E944B1D1AC0BB2039F0AA2065
:1033700009F4BFCF802F0E94772E11C0AA2009F434
:10338000BDCF893349F49FEFE3EFF1E09150E04086
:10339000F040E1F700C00000802F0E941B2E88EF54
:1033A0008C0D843010F40E946011DD2041F1809179
:1033B000A20680FD24C0F70112828595859585952A
:1033C0000E94641DC7010E94C3148091A2068595C6
:1033D000859585950F900F900F900F900F90DF912E
:1033E000CF911F910F91FF90EF90DF90CF90BF9002
:1033F000AF909F908F900C94261D69E219CD0F908D
:103400000F900F900F900F90DF91CF911F910F9120
:10341000FF90EF90DF90CF90BF90AF909F908F90F4
:10342000089508958091AC06089580E00895CF93A3
:10343000DF9300D01F92CDB7DEB79091CF069430C6
:1034400011F589837B836A839093E9008FEF9091D4
:10345000E800815095FD06C09AE69A95F1F700C004
:103460008111F5CF8091E80085FF0DC040E050E06C
:1034700063E070E0CE0101960E94C91F8091E800D0
:103480008E778093E8000F900F900F90DF91CF918F
:103490000895BC0184E00C94171ABC0183E00C94DD
:1034A000171ACF93DF9320914801222339F02091FE
:1034B0005A0327FF03C060E224E002C068E021E075
:1034C0002093E9002FEF3091E800215035FD06C030
:1034D0003AE63A95F1F700C02111F5CF2091E800C6
:1034E00025FF1DC0EC0180914801811105C040E01D
:1034F00050E068E070E003C070E040E050E0CE01D2
:103500000E94C91F8091E8008E778093E80080E2D6
:10351000FE01ADEAB6E001900D928A95E1F7DF91E8
:10352000CF91089581E08093E00080E28093D800FD
:103530001092C9008FE097E20197F1F700C00000F8
:1035400087E090EBDC0180930C0790930D07A0932C
:103550000E07B0930F079CE088E10FB6F894A8958A
:10356000809360000FBE90936000FFCF78941F920D
:103570000F920FB60F9211248F939F93AF93BF9327
:103580008091E6039091E703A091E803B091E903ED
:103590000196A11DB11D8093E6039093E703A093CC
:1035A000E803B093E903BF91AF919F918F910F9082
:1035B0000FBE0F901F9018952FB7F8948091E603D7
:1035C0009091E703A091E803B091E9032FBF08951C
:1035D0001F920F920FB60F9211248F939F93AF9368
:1035E000BF9380915E03811113C08091E603909197
:1035F000E703A091E803B091E9034196A11DB11D35
:103600008093E6039093E703A093E803B093E90364
:10361000BF91AF919F918F910F900FBE0F901F9010
:103620001895209148012223C9F020915A0327FFC1
:1036300015C0262F2695269526952E31C8F4FC0117
:10364000E20FF11D677081E090E001C0880F6A957C
:10365000EAF780959281892382830895FC0106967A
:103660002281621301C012823196E817F907C1F76F
:103670000895209148012223C1F020915A0327FF89
:1036800014C0262F2695269526952E3130F5FC015F
:10369000E20FF11D677081E090E001C0880F6A952C
:1036A000EAF79281892B82830895FC0132962FEFED
:1036B00030E04191641789F02F3F19F4411101C0A6
:1036C000232F3F5F3630A9F72F3F39F0FC01E20F7F
:1036D000F11D27FDFA95628308950895CF9384E044
:1036E00090E00E949E2FC82F81E290E00E949E2FC2
:1036F0002C2F30E0A901582BCA01CF9108956BEE11
:103700007EEF80E090E00E94DA2F60E082E090E0BF
:103710000E94BC2F60E083E090E00E94BC2F1092DA
:10372000A7061092A8061092A9061092AA0660E0B9
:1037300084E090E00E94BC2F60E081E290E00E9473
:10374000BC2F60E085E090E00E94BC2F60E086E046
:1037500090E00E94BC2F6FEF87E090E00E94BC2FAA
:1037600040E050E0BA0188E090E00E94CE2F60E097
:103770008DE090E00E94BC2F40E050E0BA0188E16B
:1037800090E00E94CE2F60E087E190E00E94BC2F85
:1037900040E050E0BA018CE190E00E94CE2F60E062
:1037A00080E290E00E94BC2F40E050E0BA0188E146
:1037B00090E00E94CE2F40E050E0BA018FE090E010
:1037C0000E94CE2F40E050E0BA0183E190E00C94DB
:1037D000CE2F8091A60681111092A6060895909191
:1037E000A5068091A406892B2091A306982F922BE1
:1037F000909313068091A6068823D9F0892B809395
:10380000130680914801882331F080915A0387FF85
:1038100002C08EE101C086E0E5E1F6E090E0815073
:1038200028F021912223D9F39F5FF9CF91110E94B3
:10383000E91BE0915C03F0915D033097A9F0809162
:103840004801882359F080915A0387FF07C080916F
:1038500013068093140685E0809313060280F3819B
:10386000E02D83E196E00994089580E090E00E94C5
:103870004A1180E090E00E9434111092A406109248
:10388000A3060C94EF1BBF92CF92DF92EF92FF92B0
:103890000F931F93CF93DF938C01C0900205D090BC
:1038A0000305E0900405F09005058091A70690912E
:1038B000A806A091A906B091AA06C82AD92AEA2A80
:1038C000FB2ACFE1D0E0D701C6010C2E04C0B6958B
:1038D000A795979587950A94D2F780FD04C0219704
:1038E00090F7B12C07C0BC2EB8018C2F0E94872600
:1038F0000197A9F38B2DDF91CF911F910F91FF902D
:10390000EF90DF90CF90BF900895CF93DF93EC01BD
:103910000E94431CBE010E948726DF91CF9108952B
:103920000E94851C292F2F70E92FE295EF704E2FF2
:1039300050E0FA013297EE30F105B8F4E356FF4F4C
:103940000C946B30803F99F018F4883E70F40FC0EF
:10395000843F59F40CC0883E50F0813F31F407C0D9
:10396000822F869586958695089580E0089581E05A
:1039700008952EE0929F800D1124682F669566951C
:103980006695982F977085E0689FB001112440E0FC
:1039900050E080E0FB01E40FF51FE559F94F20816D
:1039A00030E0092E02C0369527950A94E2F721707F
:1039B0003327042E01C0220F0A94EAF7822B4F5FAF
:1039C0005F4F4530510531F708952EE0929F800DED
:1039D0001124E82FE695E695E695877051E001C041
:1039E000550F8A95EAF785E0E89FF0011124E55923
:1039F000F94F20E030E070E04081CB01022E02C0A0
:103A0000969587950A94E2F781708195842785239E
:103A1000842781932F5F3F4F2530310569F7089543
:103A2000CF92DF92EF92FF926B017C010E94312BCB
:103A3000C0920205D0920305E0920405F0920505BC
:103A4000FF90EF90DF90CF900C94351C0F931F9355
:103A500041E050E060E070E004C0440F551F661F75
:103A6000771F8A95D2F74095509560957095809113
:103A7000020590910305A0910405B09105058A0106
:103A80009B01082319232A233B23C901B8011F9155
:103A90000F910C94101D2091A20680958223809393
:103AA000A206982F977079F430E0482F082E000C6A
:103AB000550B2417350739F08595859585950E9416
:103AC000261D1092A20608950F931F9341E050E027
:103AD00060E070E004C0440F551F661F771F8A9591
:103AE000D2F78091020590910305A0910405B09151
:103AF00005058A019B01082B192B2A2B3B2BC90199
:103B0000B8011F910F910C94101D6093A70670933C
:103B1000A8068093A9069093AA060C94351C809160
:103B20006A0690913906891719F08F5F8770FBCF6D
:103B300008950F931F93CF93DF938091380682955A
:103B40008F7009F05DC080913506882309F458C054
:103B500080916A061091390660913306709134069F
:103B6000C0913606D091370691E06F3F09F090E0A2
:103B7000292F06E0811709F443C0209721F07F3FE9
:103B800021F030E003C031E001C0322F90E030FD81
:103B900034C0089FF001099FF00D1124DF01A65CDD
:103BA000B94F11963C911197371327C03C913613AA
:103BB00024C012963C91129731111FC013964D915B
:103BC0005C9114974C1B5D0B483C5105B0F48091FF
:103BD00038068F70806180933806E15CF94F8081F0
:103BE0008F708061808383E396E00E94C314DF912D
:103BF000CF911F910F910C948F1D01968770BACFB2
:103C0000DF91CF911F910F9108959F92AF92BF9234
:103C1000CF92DF92EF92FF920F931F93CF93DF9398
:103C2000CDB7DEB761970FB6F894DEBF0FBECDBF3C
:103C30008C0185E0F801DE011D9601900D928A95B8
:103C4000E1F7F80190818181E28030913306609143
:103C5000340640913606509137064115510531F032
:103C60006F3F31F421E03F3F19F403C021E001C070
:103C700020E0F22FF1709F2E20FD23C1F801C380B8
:103C8000D48023E3A22E26E0B22EF0903506F60172
:103C9000E41BF50BFF2009F4CEC020913806E83C68
:103CA000F10508F099C0422F407F09F051C0681318
:103CB00011C039130FC0FE2CE1100CC02F70206111
:103CC00020933806C5010E94C31480913806F8017C
:103CD000858337C1CD2831F08F3F31F421E09F3FFC
:103CE00019F403C021E001C020E020FD03C021E061
:103CF0002E2502C020E030E0F22FF170FF2E20FFD1
:103D00001DC020916A064091390656E0241709F437
:103D1000F6C030E0529FF001539FF00D1124E65C95
:103D2000F94F6181861306C06081961303C06281DA
:103D3000E61204C02F5F3F4F2770E8CFFE2CEE2025
:103D400009F4FFC08091380681608093380650C026
:103D5000681307C0391305C0E11003C0F8012583BB
:103D60008DC09D878E878D859E850E94901C88239F
:103D700069F1EE2059F120913806822F82958F70DB
:103D800090E0029774F08091330690913406988702
:103D90008F831986DB86CA862C87CE0107960E9400
:103DA000C31486E0F801A3E3B6E001900D928A9572
:103DB000E1F70E94991D0DC06817E1F09D878E877D
:103DC0008D859E850E94901C81111EC0C8010E9495
:103DD000C314FF24F394B5C0422F407F69F783E3F7
:103DE00096E00E94C31486E0F50111928A95E9F7E6
:103DF000F12CA7C03913E2CFE110E0CFF801258301
:103E0000C8010E94C31457C0EE2001F32091380668
:103E1000822F82958F7090E002971CF2809133067A
:103E2000909134069A8389831B82DD82CC822E8313
:103E3000CE010196B4CFE83CF105E8F5FE2CEE206A
:103E400029F2681327C0391325C02091380620FDB8
:103E500018C0822F82958F70482F50E04115510570
:103E600081F0F80125834F30510541F08F5F982F85
:103E70009295907F822F8F70892B8583C8010E9435
:103E8000C31486E0F801A3E3B6E001900D928A9591
:103E9000E1F757C09D878E878D859E850E94901C77
:103EA00081117FCF80913806816080933806C801E8
:103EB0000E94C31446C086E0F50111928A95E9F785
:103EC00040C0EE2009F482CF9D878E878D859E8528
:103ED0000E94901CF82E882309F478CF86E0F80120
:103EE000A3E3B6E001900D928A95E1F78091330645
:103EF000909134060E94851C0E94991D22C09D87C6
:103F00008E878D859E850E94851C292F22952F7076
:103F1000223028F49F7039F0811105C00BC0243085
:103F200028F49F7049F4805E883020F0C8010E9418
:103F3000C3149F2CF92C05C0F8019581907F99F747
:103F4000F9CF8F2D61960FB6F894DEBF0FBECDBFAF
:103F5000DF91CF911F910F91FF90EF90DF90CF9065
:103F6000BF90AF909F9008951092A5068091480150
:103F7000882331F080915A0387FF02C08EE101C08F
:103F800086E0E5E1F6E0DF011D928A95E9F70C9401
:103F9000351CEF92FF920F931F93CF93DF937C0119
:103FA0008B010E94EB2B811119C0E701011511054E
:103FB000A1F08091E80085FD0AC08091E8008E772D
:103FC0008093E8000E94EB2B882381F307C089913E
:103FD0008093F10001501109E9CF80E0DF91CF918A
:103FE0001F910F91FF90EF9008950F931F93CF9320
:103FF000DF931F92CDB7DEB769838A0160E00E942C
:10400000AD2897FD13C061E070E0CE0101960E94DB
:10401000752897FD0BC061E070E0C8010E9475280B
:104020008C0197FD05C00E94A52802C0282F02C060
:10403000202F912F822F0F90DF91CF911F910F9101
:104040000895CF92DF92EF92FF920F931F93CF9339
:10405000DF93CDB7DEB72F970FB6F894DEBF0FBE54
:10406000CDBF7C0189011A861B861C861D8619829C
:104070001A8286E0D82EDB8281E08C8384E08D83F7
:104080007E836F835887498749E050E0BE016F5FA8
:104090007F4FF70180810E942D2997FD40C0C70105
:1040A0000E94462997FD3BC060E0F70180810E9495
:1040B000AD2897FD34C01E86DF8662E070E0CE0139
:1040C0000E960E94752897FD2AC061E0F701808155
:1040D0000E94AD2897FD23C081E00E94532897FDE0
:1040E0001EC06E01FAE0CF0ED11CE12CF12C8FEF37
:1040F000E81AF80A81E094E0E916F1040CF080E097
:104100000E94532897FD0BC0F60181936F01F4E0E4
:10411000EF16F10461F70E94A52884E090E097FD76
:1041200009C04A855B856C857D85F8014083518394
:10413000628373832F960FB6F894DEBF0FBECDBF98
:10414000DF91CF911F910F91FF90EF90DF90CF9073
:1041500008956F927F928F929F92AF92BF92CF926B
:10416000DF92EF920F931F93CF93DF933C01C091A7
:10417000490181E1C89FC02D1124D1E1DC0FD53563
:1041800008F0D4E560910A07669580910207909146
:1041900003070E94CB12182FCD1708F044C08C2EB5
:1041A000912CF401E953FD4F908180914A018923BC
:1041B000C1F1F401EE0FFF1FE15EFD4FC080D12C75
:1041C00080E7C81AD108F401EE0FFF1FE05EFD4F33
:1041D000A080B12CE0E2AE1AB108CC9C9001CD9C3D
:1041E000300D300D1124AA9CC001AB9C900D900D98
:1041F0001124820F931F0E947112082F60910707EC
:104200007091080780910907E12E9501A601F3013D
:1042100009950E94D512462F282F672FC4010E94AE
:104220003812CF5FB9CF81E0D43508F080E0DF915C
:10423000CF911F910F91EF90DF90CF90BF90AF90F3
:104240009F908F907F906F900895CF92DF92EF9222
:10425000FF920F931F93CF93DF936C01C09149019D
:1042600081E1C89FC02D1124D1E1DC0FD53508F0C4
:10427000D4E560910A076695809102079091030743
:104280000E94CB12182FCD1778F5EC2EF12CF701E8
:10429000E953FD4F908180914A01892319F1F7017B
:1042A000EE0FFF1FE05EFD4F208130E0205231090C
:1042B000F701EE0FFF1FE15EFD4F408150E04057D8
:1042C0005109609107077091080780910907012F34
:1042D000F60109950E94D512462F282F672FC70196
:1042E0000E943812CF5FCFCF81E0D43508F080E054
:1042F000DF91CF911F910F91FF90EF90DF90CF90C2
:104300000895DF92EF92FF920F931F93CF93DF9365
:104310007C01C091490181E1C89FC02D1124D1E1E8
:10432000DC0FD53508F0D4E560910A0766956695EF
:1043300080910207909103070E94CB12D82ECD17CF
:10434000F0F40C2F10E0F801E953FD4F90818091BB
:104350004A01892391F060910707709108078091C5
:1043600009072D2D4C2FF70109950E94D512462FD4
:10437000282F672FC8010E943812CF5FE0CF81E05D
:10438000D43508F080E0DF91CF911F910F91FF901D
:10439000EF90DF9008959F92AF92BF92CF92DF92FD
:1043A000EF92FF920F931F93CF93DF936C01C09115
:1043B000490181E1C89FC02D1124D1E1DC0FD53521
:1043C00008F0D4E560910A0766956695809102072A
:1043D000909103070E94CB12182F80E4810F0E9456
:1043E000501290E8F92EF80E812F0E94501220E80A
:1043F000922E980ECD1700F5AC2EB12CF501E95395
:10440000FD4F908180914A018923A1F060910707B7
:104410007091080780910907E12E0C2F292D4F2D4F
:10442000F60109950E94D512462F282F672FC50146
:104430000E943812CF5FDECF81E0D43508F080E0F3
:10444000DF91CF911F910F91FF90EF90DF90CF9070
:10445000BF90AF909F900895CF92DF92EF92FF921E
:104460000F931F93CF93DF936C01C091490181E1BA
:10447000C89FC02D1124D1E1DC0FD53508F0D4E55B
:1044800020910A0730E040E050E06FEF7FEF80E0DE
:1044900090E00E94E02F8901CD17E8F5EC2EF12C79
:1044A000F701E953FD4F908180914A01892389F1F9
:1044B0009091D906915097FD15C0492F092E000CF7
:1044C000550BFA01E752F94F8189C813F3CF440F16
:1044D000551FFA01E752F94F218D328D2017310710
:1044E00048F701C0980160910A07C9010E94CB12E8
:1044F000AC01609107077091080780910907F601E8
:1045000009950E94D512462F282F672FC7010E94B8
:104510003812CF5FC1CF81E0D43508F080E0DF9161
:10452000CF911F910F91FF90EF90DF90CF90089562
:104530002F923F924F925F926F927F928F929F92B3
:10454000AF92BF92CF92DF92EF92FF920F931F93A1
:10455000CF93DF93CDB7DEB727970FB6F894DEBFC2
:104560000FBECDBF282E4B012091490181E1289F2C
:10457000802D11248E83182F1F5E153508F014E549
:104580003091D90639839E81911708F077C08E81CA
:10459000682E712CF301E953FD4F908180914A01FF
:1045A000892309F467C03090070740900807522C10
:1045B0001F82C301880F991FDC01A15EBD4FBB8321
:1045C000AA83C301880F991FFC01E05EFD4FFD83A4
:1045D000EC83F9815F16E0F5E52CF12CAA81BB8113
:1045E000CC90D12CF701E752F94F8181C81AD1083C
:1045F000AC81BD81AC90B12C8185A81AB108CC9C4E
:104600009001CD9C300D300D1124AA9CC001AB9CB3
:10461000900D900D1124820F931F0E947112082F8C
:10462000F701EE0FFF1FE752F94F60910A07818DE6
:10463000928D0E94CB127C019501A601632D742DF1
:104640008F81F4010995362E472E8F835394C1CF65
:10465000209109078F81382F329F312D1124832F0C
:10466000632D742D0E94D512462F282F672FC3016A
:104670000E9438128E818F5F8E8385CF81E0143542
:1046800008F080E027960FB6F894DEBF0FBECDBFCE
:10469000DF91CF911F910F91FF90EF90DF90CF901E
:1046A000BF90AF909F908F907F906F905F904F9052
:1046B0003F902F9008951F93CF93DF93CDB7DEB730
:1046C000AA970FB6F894DEBF0FBECDBFE1EDF6E0BE
:1046D0008091F100819346E0E93DF407C9F78091AC
:1046E000D206833009F462C030F4813071F0823038
:1046F00009F49CC0B3C08A3009F488C08B3009F437
:104700006DC0893009F0AAC020C08091D106813ADD
:1047100009F0A4C08091E800877F8093E800809131
:10472000D5069091D606892B21F460E28DEA96E0B9
:1047300003C060E080E090E070E00E94A82D8091CE
:10474000E8008B778093E80089C08091D1068132A0
:1047500009F084C08091D5069091D606009719F093
:10476000029709F07BC08091E800877F8093E80082
:104770008091E80082FD05C08091CF068111F8CFBD
:104780006DC02091F3008091F20090E0922B02978F
:1047900029F48091F1008B7F813021F48091F10028
:1047A0008093AC068091E8008B7754C08091D1064D
:1047B000813A09F053C08091D5069091D606892B95
:1047C00009F04CC08091E800877F8093E8008091D9
:1047D000E80080FFFCCF8091480137C08091D1066E
:1047E0008132E1F58091D5069091D606892BB1F5FD
:1047F0008091E800877F8093E8000E941E2C8091C2
:10480000D306809348010E94B41F28C08091D1062E
:10481000813221F58091E800877F8093E8000E9433
:104820001E2C8091D4068093AB0618C08091D106CF
:10483000813AA1F48091E800877F8093E80080911D
:10484000E80080FFFCCF8091AB068093F10080915F
:10485000E8008E778093E8000E941E2C8091E8008B
:1048600083FFDDC18091D1069091D206492F50E09F
:104870004A30510508F0D3C1FA01E555FF4F0C94B9
:104880006B30803821F0823809F0C9C108C08091AE
:10489000CD069091CE06992389F082600FC0809159
:1048A000D5068F70873008F0BAC18093E9008091F7
:1048B000EB0085FB882780F91092E9009091E800D1
:1048C000977F9093E8008093F1001092F10070C1FF
:1048D000282F2D7F09F0A3C1882319F0823061F0C1
:1048E0009EC18091D306813009F099C1933009F0BF
:1048F00080E08093CE062EC08091D30681112AC01D
:104900008091D5068F702FEF280F263008F087C1D1
:104910008093E9002091EB0020FF1CC0933021F42C
:104920008091EB00806214C09091EB0090619093B5
:10493000EB0021E030E0A90102C0440F551F8A9529
:10494000E2F74093EA001092EA008091EB00886061
:104950008093EB001092E9008091E800877F8093BC
:10496000E8000E941E2C5BC1811159C11091D30631
:104970001F778091E3008078812B8093E300809102
:10498000E800877F8093E8000E941E2C8091E80059
:1049900080FFFCCF8091E30080688093E3001111D9
:1049A00002C082E001C083E08093CF0638C1805806
:1049B000823008F034C12091D3063091D4062C3DCA
:1049C00053E0350779F583E08A838AE289834FB71C
:1049D000F894DE01139620E03EE051E2E32FF0E090
:1049E00050935700E49120FF03C0E295EF703F5FC2
:1049F000EF708E2F90E0EA3010F0C79601C0C0969D
:104A00008D939D932F5F243149F74FBF8091E8002C
:104A1000877F8093E8006AE270E0CE0101960E94F1
:104A2000A82DB4C08091D5069091D606432F552766
:104A300043305105A9F068F44130510509F4FEC036
:104A40004230510509F0EBC08BE590E0E9EDF5E06F
:104A50004BC04132510529F14232510589F1DFC085
:104A6000C901992781309105A1F058F0029709F00A
:104A7000D6C0E6E4F6E0E4918E2F90E0E6E4F6E0BE
:104A800030C0ECEAF6E0E4918E2F90E0ECEAF6E03C
:104A900028C0E8E9F6E0E4918E2F90E0E8E9F6E03E
:104AA00020C08330910508F0BAC0880F991FFC011F
:104AB000EB53FE4F0190F081E02D89E090E014C0AF
:104AC0008330910508F0ABC0FC01EE0FFF1FE154ED
:104AD000FE4F0190F081E02DDC01A454BE4F8C917B
:104AE00090E0009709F49BC02091E800277F209375
:104AF000E8002091D7063091D8062817390708F426
:104B0000C90140E0009789F12091CF06222309F4E2
:104B10003DC02530D9F12091E80023FD37C0209118
:104B2000E80022FD2FC02091E80020FFEBCF40914C
:104B3000F3002091F20030E0342B009759F0283038
:104B4000310540F444914093F100319601972F5F75
:104B50003F4FF3CF41E02830310509F040E020918C
:104B6000E8002E772093E800CDCF4111CDCF0AC0C9
:104B70008091CF06882351F0853041F08091E80084
:104B800083FD04C08091E80082FFF2CF8091E800AD
:104B90008B778093E80043C0803809F040C0809153
:104BA000E800877F8093E8008091D0068093F10031
:104BB0008091E8008E77D3CE811131C08091D306E9
:104BC0009091D4069927029754F58091E800877F49
:104BD0008093E8001091D3061093D0060E941E2CFB
:104BE000111106C08091E30087FD02C081E001C081
:104BF00084E08093CF0642E061EC81E00E943D2C8E
:104C000042E261EC84E00E943D2C42E261EC82E0F1
:104C10000E943D2C42E260EC83E00E943D2C80919A
:104C2000E80083FF10C08091E800877F8093E80050
:104C30008091EB0080628093EB0005C082E190E000
:104C4000E4E3F6E051CFAA960FB6F894DEBF0FBEAC
:104C5000CDBFDF91CF911F91089590915A0392FF9C
:104C60000DC0282F2871283019F4877F846006C072
:104C7000282F2471243011F48B7F886093FF0DC09E
:104C8000282F2871283119F4877E846106C0282FC7
:104C90002471243111F48B7E886120915B0320FF05
:104CA0000DC0382F3871383019F4877F816006C005
:104CB000382F3171313011F48E7F886021FF0DC0A3
:104CC000282F2871283119F4877E816106C0282F8A
:104CD0002171213111F48E7E886194FD877E0895C3
:104CE000F894E82FE295EF70F0E031A1282F2F70B3
:104CF00081E090E001C0880F2A95EAF7982F9095FF
:104D0000932391A392A1892B82A378940895CF93A2
:104D1000DF930E942912EC018238910559F1A0F429
:104D20008133910509F473C040F48932910509F487
:104D300067C08A9709F472C084C08533910509F46D
:104D400058C0C997B9F07DC0833E910571F138F420
:104D5000803E9105B1F0823E910511F172C0863E10
:104D60009105B9F1873E9105C9F1843E910509F09D
:104D700068C024C080915A0380FD5DC081FD5BC086
:104D800060C080915A0380FD50C080915B0380FF1A
:104D900036C180915A0384FD30C1C3EED0E02FC1EB
:104DA00080915A0382FF2BC1F4CF80915A0382FD78
:104DB0003FC080915B0380FD3EC0EBCF80915B03E1
:104DC00081FF1DC180915A0384FD17C1C7EED0E059
:104DD00016C180915A0383FF12C1F4CF80915A0308
:104DE00083FD2CC080915B0381FFECCFC4EED0E04B
:104DF00006C180915A0385FF02C1C9E2D0E0FFC01D
:104E000080915A0385FFFBC0C5E3D0E0F8C08091D4
:104E10005A0386FFF4C0CAE2D0E0F1C080915A0381
:104E200086FFEDC0C1E3D0E0EAC0C9E3D0E0E7C04F
:104E3000C2EED0E0E4C0C0EED0E0E1C0C6EED0E00B
:104E4000DEC0C11582E5D80708F066C0C11591E53E
:104E5000D90728F0DC2FCC27C16FD06AD0C0C83E5C
:104E6000D10560F5C03ED10508F0C9C0C83AD105EA
:104E7000B0F4C53AD10540F0C55AD0E0C55EDC4F6C
:104E8000C881D0E0D064BBC0C130D10509F4B7C03F
:104E900008F4B3C0C430D10508F4AFC0B0C0CF3BF4
:104EA000D10508F0AAC0C85AD0E0CC0FDD1FC25E01
:104EB000DC4F0990D881C02DD464A1C0C11520E574
:104EC000D207E0F0CE0174E0969587957A95E1F7E8
:104ED00083709C2F937021E030E002C0220F331FBB
:104EE0009A95E2F73C68382BCF70C695C69580E25C
:104EF000C89FE0011124C22BD32B81C0C11580E4CF
:104F0000D80718F0DF70D06A7AC0CE019A95811563
:104F10009F4108F474C071C0C11586E5D807F0F54B
:104F2000C11595E5D90750F08C2F0E942D268F7161
:104F3000C82FD0E0DC2FCC27D06261C0C11524E59A
:104F4000D20728F0DC2FCC27C46FD06A58C09E014E
:104F5000237033278C2F86958695C115D34578F419
:104F6000C1E0D0E002C0CC0FDD1F2A95E2F720E2BD
:104F7000829FC0011124C82BD92BDC6840C0C1E03E
:104F8000D0E002C0CC0FDD1F2A95E2F720E2829F1D
:104F9000C0011124C82BD92BDA6831C0C1152AE50C
:104FA000D207E8F4C11589E5D80780F08C2F8F70FF
:104FB0000E942D2694E0D695C7959A95E1F7CF707B
:104FC000D0E0DC2FCC27D069C82B19C0C11598E5DB
:104FD000D90798F0DC2FCC27C06FD06A10C0CE0163
:104FE00090568115904248F48D2F8F710E942D2686
:104FF000DD27D0628F71D82B02C0C0E0D0E0CE0197
:10500000DF91CF910895CF92DF92EF92FF926C01E2
:10501000EE24FF24C114D104E104F10421F0C701FE
:10502000B60120E101C020E0C72ED82EE92EFF24D2
:10503000C114D104E104F10419F0285FC701B601DD
:105040006B017C0154E0F694E794D794C7945A9589
:10505000D1F7C114D104E104F10419F02C5FC701A8
:10506000B6016B017C0142E0F694E794D794C794B3
:105070004A95D1F7C114D104E104F10419F02E5F6F
:10508000C701B601DC01CB01B695A7959795879529
:10509000892B8A2B8B2B09F02F5F822FFF90EF90AB
:1050A000DF90CF900895882311F084EC01C084E84C
:1050B0008093BC0080E49FE1A0E0B0E02091BC00C0
:1050C00027FD08C00097A105B10561F00197A1096E
:1050D000B109F4CF892B8A2B8B2B21F08091BB0057
:1050E00090E008958FEF9FEF0895DB01FC0120E031
:1050F00030E084E82A173B071CF591919093BB00A0
:105100008093BC0040E45FE160E070E09091BC00FF
:1051100097FD0AC0411551056105710599F041508F
:10512000510961097109F2CF452B462B472B51F0EC
:105130009091B900987F983229F42F5F3F4FDACFD2
:10514000C90108958FEF9FEF089584E98093BC0013
:105150008091BC0084FDFCCF0895262F94EA9093A3
:10516000BC0040E45FE160E070E09091BC0097FD1E
:105170000AC0411551056105710549F041505109B9
:1051800061097109F2CF452B462B472B19F48FEF9C
:105190009FEF08959091B900987F983011F0903169
:1051A000B1F7682F660F622B6093BB0084E8809391
:1051B000BC0080E49FE1A0E0B0E02091BC0027FDAE
:1051C00008C00097A105B10511F30197A109B10924
:1051D000F4CF892B8A2B8B2BD1F28091B900887F59
:1051E000883111F0803499F680E090E00895FF92C4
:1051F0000F931F93CF93DF931F92CDB7DEB78B0131
:10520000FC01F1808DE1898360E08F2D0E94AD2843
:1052100097FD1AC061E070E0CE0101960E947528EA
:1052200097FD12C061E08F2D0E94AD2897FD0CC044
:1052300080E00E94532897FD07C0F80180830E94F8
:10524000A52821E090E001C0282F822F0F90DF9148
:10525000CF911F910F91FF9008950F931F93CF93BC
:10526000DF93EB018A0160E00E94AD2897FD09C041
:10527000B801CE010E947528EC0197FF0E94A52875
:10528000CE01DF91CF911F910F910895CF93DF93BE
:1052900000D01F92CDB7DEB720915201309153015B
:1052A0004091540129833A834B8343E050E0BE018F
:1052B0006F5F7F4FFC0180810E942D290F900F901E
:1052C0000F90DF91CF9108958F929F92AF92BF92EE
:1052D000CF92DF92EF92FF920F931F93CF93DF93C2
:1052E000CDB7DEB729970FB6F894DEBF0FBECDBF9E
:1052F0007C01B42EA52E962E872E690160E0FC015C
:1053000080810E94AD2897FD22C019821A8286E012
:10531000800F8B831C820D838E829F82A886B98624
:1053200069E070E0CE0101960E94752897FD0FC0DC
:10533000B801C6010E94752897FD09C00E94A528E2
:10534000C7010E94462997FD02C0912F01C0082F76
:10535000802F29960FB6F894DEBF0FBECDBFDF9128
:10536000CF911F910F91FF90EF90DF90CF90BF9062
:10537000AF909F908F9008950F931F93CF93DF93DB
:1053800000D000D0CDB7DEB709831A832B833C83CE
:1053900004E010E09E012F5F3F4F0E9464290F90B0
:1053A0000F900F900F90DF91CF911F910F91089563
:1053B000EF92FF920F931F93CF93DF9300D000D013
:1053C000CDB7DEB77C01162F19821A821B821C8290
:1053D0009E012F5F3F4F48E259E060E87FEBFC0100
:1053E000808191810E94212097FD36C089819A8118
:1053F000AB81BC8141E050E060E070E0F7010280E9
:1054000004C0440F551F661F771F0A94D2F711235B
:1054100029F0842B952BA62BB72B08C040955095CF
:105420006095709584239523A623B72389839A8357
:10543000AB83BC8309811A812B813C8148E259E00E
:1054400060E87FEBF701808191810E94BC291816EA
:10545000190614F480E090E00F900F900F900F90D9
:10546000DF91CF911F910F91FF90EF9008950F93CF
:105470001F93CF93DF9300D01F92CDB7DEB78C017F
:10548000BE016D5F7F4F0E94F72897FD2EC08B8174
:10549000F8019281981739F18283982F9370923096
:1054A00039F0869586958370823081F460E001C082
:1054B00061E0F801838194810E94D82997FD15C08D
:1054C00087E78A83AE014E5F5F4F05C086E689831A
:1054D000AE014F5F5F4F63E2F80181810E94F51FCB
:1054E0001816190614F480E090E00F900F900F90BA
:1054F000DF91CF911F910F9108950F931F93CF9339
:10550000DF931F92CDB7DEB78C01BE016F5F7F4F77
:105510000E94F72897FD12C09981292F2370F80166
:1055200083819481211102C060E001C061E00E948A
:10553000D8291816190614F480E090E00F90DF9136
:10554000CF911F910F910895CF92DF92EF92FF922A
:105550000F931F93CF93DF9300D000D01F92CDB74E
:10556000DEB76C018FEFF6018283E380F480F701F0
:1055700042815381648175814D5F534F6F47704401
:10558000808191811D8201E010E09E012B5F3F4FE1
:105590000E94642997FD3CC060E0C7010E94D829A1
:1055A00019821A821B821C829E012F5F3F4F48E0A6
:1055B00059E060E87FEBF701808191810E94212012
:1055C00097FD26C001E010E020E030E0F701028006
:1055D00004C0000F111F221F331F0A94D2F78981C4
:1055E0009A81AB81BC81082B192B2A2B3B2B098379
:1055F0001A832B833C8348E059E060E87FEB80818D
:1056000091810E94BC291816190614F480E090E0DC
:105610000097C9F4F6012081222369F0213099F422
:1056200085E08983AE014F5F5F4F6AE1F6018181BA
:105630000E94F51F03C0C6010E947D2A1816190694
:1056400014F480E090E00F900F900F900F900F9067
:10565000DF91CF911F910F91FF90EF90DF90CF904E
:10566000089520910705211110C00E94032884305D
:1056700060F495E0989FF0011124E75DFE4FA6E0ED
:10568000B7E001900D929A95E1F708959091070582
:10569000911112C080932C018093310180933601C7
:1056A00080933B0160910205709103058091040590
:1056B000909105050C94312B089544E150E063EE80
:1056C00072E0882361F089E291E00E94AC2F4CEFF8
:1056D00050E067EF72E086E094E00C94AC2F89E232
:1056E00091E00E948E2F4CEF50E067EF72E086E071
:1056F00094E00C948E2F80910607837029F08C69BA
:10570000809306071092280181E080930705089591
:105710001F920F920FB60F9211242F933F934F9326
:105720005F936F937F938F939F93AF93BF93CF9329
:10573000DF93EF93FF93C091E900CF708091EC006D
:10574000D82FD17080FDD0E81092E9008091F00050
:10575000877F8093F00078940E945B231092E90089
:105760008091F00088608093F000CD2BCF70C093C3
:10577000E900FF91EF91DF91CF91BF91AF919F91A0
:105780008F917F916F915F914F913F912F910F90EA
:105790000FBE0F901F901895E8EDF0E080818E7F8E
:1057A00080831092E2001092DA001092E100A0EEE5
:1057B000B0E08C9181608C9380818F77808319BC5D
:1057C000A7EDB0E08C918E7F8C9380818F7E80835B
:1057D00010920B0708952091E4003091E50095E6C2
:1057E0004091EC00842F817040FF23C08091E8003D
:1057F00080FD1DC08091CF06882399F0853099F0F7
:105800008091EB0085FD11C04091E4005091E500CE
:105810002417350729F3915011F09A01E1CF84E064
:10582000089582E0089583E0089581E0089580E07E
:1058300008954091E80042FFDDCF08958091D106A0
:1058400087FF11C08091E80082FD05C08091CF06DE
:105850008111F8CF11C08091E8008B770BC0809147
:10586000CF06882349F08091E80080FFF8CF80912F
:10587000E8008E778093E8000895982F973068F5B8
:105880009093E900981739F07091EC002091ED00A9
:105890005091F00003C0242F762F50E021FD02C06C
:1058A0009F5FECCF3091EB003E7F3093EB00309167
:1058B000ED003D7F3093ED003091EB00316030938F
:1058C000EB007093EC002093ED005093F0002091DA
:1058D000EE0027FDE5CF80E008958F708093E9000A
:1058E00081E00895CF92DF92EF92FF920F931F9382
:1058F000CF93DF93C8EDD0E088818F7E8883E7ED7A
:10590000F0E080818160808384E082BF81E08093C9
:105910000B0788818E7F888302EE10E0F8011082E9
:105920001092DA0081EEC82ED12CF6011082888107
:105930008F77888388818068888388818F7D88833A
:1059400019BC1092CF061092D0061092CE0610927B
:10595000CD0690EEE92EF12CF70180818B7F8083BC
:1059600088818160888342E060E080E00E943D2C75
:10597000F60180818E7F8083F80180818160808341
:10598000808188608083F70180818E7F8083888119
:1059900080618883DF91CF911F910F91FF90EF90ED
:1059A000DF90CF9008951F920F920FB60F9211249F
:1059B0002F933F934F935F936F937F938F939F9317
:1059C000AF93BF93EF93FF938091E10082FF09C0F3
:1059D0008091E20082FF05C08091E1008B7F80937F
:1059E000E1008091DA0080FF2AC08091D80080FF1A
:1059F00026C08091DA008E7F8093DA008091D900F2
:105A000080FF18C080E189BD82E189BD09B400FE34
:105A1000FDCF81E08093CF0680910B0781110FC0ED
:105A20000E94CC2B0E94722C8091E20084608093B3
:105A3000E20005C019BC1092CF0610920B078091AE
:105A4000E10080FF17C08091E20080FF13C08091C9
:105A5000E2008E7F8093E2008091E200806180937B
:105A6000E2008091D80080628093D80019BC85E064
:105A70008093CF068091E10084FF2EC08091E200E8
:105A800084FF2AC080E189BD82E189BD09B400FE9E
:105A9000FDCF8091D8008F7D8093D8008091E10068
:105AA0008F7E8093E1008091E2008F7E8093E20000
:105AB0008091E20081608093E2008091D00688238B
:105AC00011F084E007C08091E30087FD02C081E00F
:105AD00001C083E08093CF068091E10083FF27C05F
